:100000000C941B0A0C94400A0C94400A0C94400A6D
:100010000C94400A0C94400A0C94400A0C94400A38
:100020000C94400A0C94400A0C94400A0C94400A28
:100030000C94400A0C94CC0E0C94400A0C94400A88
:100040000C94400A0C94400A0C94400A0C94400A08
:100050000C94400A0C94400A0C94400A0C94400AF8
:100060000C94400A0C94EB380C9438390C94400AE8
:100070000C94400A0C94400A0C94400A0C94400AD8
:100080000C94400A0C94400A0C94400A0C94400AC8
:100090000C94400A0C94400A0C94400A0C94400AB8
:1000A0000C94400A0C94400A0C94400A0C94400AA8
:1000B0000C94400A0C94400A0C94360F0C94893925
:1000C0000C94400A0C94400A0C94400A0C94400A88
:1000D0000C94400A0C9442490C94400A0C94400A37
:1000E0000C94400A0C94400A0C94400A0C94400A68
:1000F0000C94400A0C94400A0C94400A0C94400A58
:100100000C94400A0C94400A0C94400A0C94400A47
:100110000C94400A0C94400A0C94400A0C94400A37
:100120000C94400A0C94400A0C94400A0C94400A27
:100130000C94010F0C94400A0C94400A0C94400A51
:100140000C94400A0C94400A0C94400A0C94400A07
:100150000C94400A0C94400A0C94400A0C94400AF7
:100160000C94400A0C94400A0C94400A0C94400AE7
:100170000C94400A0C94400A0C94400A0C94400AD7
:100180000C94400A0C94400A0C94400A0C94400AC7
:100190000C94A00F0C94400A0C94400A0C94400A52
:1001A0000C94400A0C94400A0C94400A0C946B0F77
:1001B0000C9492490C94400A0C94400A0C94400A06
:1001C0000C94400A0C94400A0C94400A0C94400A87
:1001D0000C94400A0C94400A0C94400A0C94400A77
:1001E0000C94400A0C94400A0C94400A0C94400A67
:1001F0000C94400A5B1D5F1D631D661D691D6C1D0F
:10020000741D771D7A1D911D911D911D911D911DCC
:10021000911D7D1DDA47E24745484B480C490C4982
:100220000C490C490C490C49D248D748D948E548F3
:10023000F9484572726F7220665F6F70656E206953
:100240006E205344496E666F2E6D61742E0A004510
:1002500072726F7220665F6C7365656B20696E20C9
:1002600072656D61696E656420646174612E0A0057
:100270004572726F7220665F6C7365656B20696E84
:10028000205344496E666F2E6D61742E0A004F70C4
:10029000656E696E672025732E0A0046756E635978
:1002A000206275666665722069732066756C6C2EB7
:1002B0000A004572726F72207365656B696E672004
:1002C000696E2066657463685F626C6F636B5F66FE
:1002D000756E635F7928292E0A0066726573756CE6
:1002E00074203D202025750A004572726F722072BD
:1002F000656164696E6720696E2066657463685F16
:10030000626C6F636B5F66756E635F7928292E0A76
:100310000066726573756C74203D202025750A0097
:1003200046756E6358206275666665722069732033
:1003300066756C6C0A004572726F72207365656B2E
:10034000696E6720696E2066657463685F626C6FB2
:10035000636B5F66756E635F7828292E0A0066728C
:100360006573756C74203D202025750A00457272F6
:100370006F722072656164696E6720696E206665C0
:100380007463685F626C6F636B5F66756E635F78E2
:1003900028292E0A0066726573756C74203D202032
:1003A00025750A004572726F7220696E707574202F
:1003B000666F722066756E6374696F6E2063686124
:1003C0006E6E656C2E0A004572726F72206F7065DA
:1003D0006E696E672066696C6520696E207365744E
:1003E0005F76656C5F66756E6328293A20592E0A20
:1003F000004572726F722072656164696E67206673
:10040000696C6520696E207365745F76656C5F66E4
:10041000756E6328293A20592E0A00675F6E626C58
:100420006F636B735F66756E635F79203D20257522
:100430000A00675F6E62797465735F66696E616CEE
:100440005F626C6F636B5F79203D2025750A0067E2
:100450005F6E62797465735F66756E635F79203D68
:100460002025750A005365742076656C6F63697486
:10047000792066756E6374696F6E20257520666FCE
:100480007220590A004F70656E696E672025732EC1
:100490000A004572726F72206F70656E696E672018
:1004A00066696C6520696E207365745F76656C5F44
:1004B00066756E6328293A20582E0A004572726FBD
:1004C000722072656164696E672066696C65206977
:1004D0006E207365745F76656C5F66756E63282940
:1004E0003A20582E0A00675F6E626C6F636B735F11
:1004F00066756E635F78203D2025750A00675F6E24
:1005000062797465735F66696E616C5F626C6F635C
:100510006B5F78203D2025750A00675F6E627974F5
:1005200065735F66756E635F78203D2025750A00F0
:100530005365742076656C6F636974792066756E97
:100540006374696F6E2020257520666F7220580ACB
:10055000004F70656E696E672025732E0A00457224
:10056000726F723A206368616E6E656C206D757390
:1005700074206265203120666F7220782C206F72A3
:10058000203220666F7220792E0A004572726F72D7
:10059000206F70656E696E672066696C6520696E94
:1005A000207365745F706F735F66756E6328293A98
:1005B00020592E0A004572726F722072656164695B
:1005C0006E672066696C6520696E207365745F7064
:1005D0006F735F66756E6328293A20592E0A00678B
:1005E0005F6E626C6F636B735F66756E635F7920BD
:1005F0003D2025750A00675F6E62797465735F66DA
:10060000696E616C5F626C6F636B5F79203D202562
:1006100075200A00675F6E62797465735F66756E38
:10062000635F79203D2025750A0053657420706F43
:10063000736974696F6E2066756E6374696F6E207E
:10064000257520666F7220590A004F70656E696EBD
:10065000672025732E0A004572726F72206F7065D5
:100660006E696E672066696C6520696E20736574BB
:100670005F706F735F66756E6328293A20582E0A83
:10068000004572726F722072656164696E672066E0
:10069000696C6520696E207365745F706F735F6647
:1006A000756E6328293A20580A00675F6E626C6F86
:1006B000636B735F66756E635F78203D2025750AF6
:1006C00000675F6E62797465735F66696E616C5F07
:1006D000626C6F636B5F78203D2025750A00675F51
:1006E0006E62797465735F66756E635F78203D2016
:1006F00025750A0053657420706F736974696F6E95
:100700002066756E6374696F6E20257520666F7242
:1007100020580A004F70656E696E672025732E0A97
:100720000046756E6374696F6E206368616E6E65F6
:100730006C206E756D626572206D757374206265D4
:10074000203120666F7220782C206F722032206654
:100750006F7220792E0A0053657474696E67206485
:10076000656661756C742066756E6374696F6E2062
:10077000666F7220592E0A0053657474696E672083
:1007800064656661756C742066756E6374696F6EFE
:1007900020666F7220582E0A002062656E63685FC3
:1007A00074696D65203D20256C75206D732C206665
:1007B00072616D655F72617465203D2025750A0068
:1007C00043616E6E6F742066696E64207468652084
:1007D000686172647761726520636F6E6669672015
:1007E00066696C65206F6E207468652053442063D1
:1007F0006172642E0A005375636365737366756C6A
:100800006C79206C6F616420746865206861726423
:100810007761726520636F6E6669672066696C65D3
:1008200020746F20454550524F4D0A004F70656E41
:10083000696E672025732E0A004572726F72206FF1
:1008400070656E696E67207061747465726E206683
:10085000696C650A004572726F7220726561646925
:100860006E6720696E207061747465726E206669AF
:100870006C650A002020675F6E5F78203D2025753B
:100880000A2020675F6E5F79203D2025750A2020B1
:10089000675F6E756D5F70616E656C73203D2025BE
:1008A000750A2020677261797363616C65203D2051
:1008B00025750A20726F775F636F6D707265737351
:1008C000696F6E203D2025750A0053657474696E4A
:1008D00067207061747465726E2025753A0A004F46
:1008E00070656E696E672025732E0A0046756E630B
:1008F000592062756666657220697320656D707433
:10090000790A0046756E63582062756666657220C6
:10091000697320656D7074790A004672616D652097
:10092000696E64657820696E76616C69642E20203A
:10093000696E6465785F6672616D653D25642C2023
:10094000783D25642C20793D25642C20675F6E5FFF
:100950006672616D65733D25640A00667265737524
:100960006C74203D2025752C20696E6465785F6667
:1009700072616D653D2025752C206F666673657408
:10098000203D20256C752C207046696C652D3E66D7
:10099000733D25582C207046696C652D3E66732D7D
:1009A0003E66735F747970653D25582C20704669EA
:1009B0006C652D3E66732D3E69643D25580A0045E1
:1009C00072726F72207365656B696E6720696E2045
:1009D00066657463685F616E645F646973706C619F
:1009E000795F6672616D65210A0066726573756C68
:1009F00074203D2025752C20696E6465785F6672D1
:100A0000616D653D2025752C206E62797465735F7C
:100A1000726561643D2025750A004572726F72200F
:100A200072656164696E672066696C6520696E2015
:100A300066657463685F616E645F646973706C613E
:100A4000795F6672616D65210A004672616D65733A
:100A500020736B69707065643A2025642C20696E80
:100A60006465785F6672616D653D25642C20783D14
:100A700025642C20793D25642C20675F6E5F6672AB
:100A8000616D65733D25640A005375636365737317
:100A90002073657420746865206E6577206C6173BF
:100AA0006572207061747465726E2E0A00736574CD
:100AB0005F6761696E5F626961733A206761696E41
:100AC0005F783D2025642C2020626961735F783D4A
:100AD0002025642C206761696E5F793D2025642C98
:100AE00020626961735F793D25640A007365745FF4
:100AF0006761696E5F626961733A206761696E5F01
:100B0000783D2025642C2020626961735F783D2048
:100B100025642C206761696E5F793D2025642C2057
:100B2000626961735F793D25640A007365745F7063
:100B30006F736974696F6E3A20675F783D20257521
:100B40002C2020675F793D2025752C20616E642064
:100B5000675F696E6465785F6672616D653D2025CB
:100B6000750A0066756E6374696F6E205920757022
:100B700064617465206672657175656E6379203D88
:100B80002025752E0A0066756E6374696F6E205895
:100B900020757064617465206672657175656E6339
:100BA00079203D2025752E0A004144435F76616C13
:100BB0007565203D202025643A0A007265736F6CCC
:100BC0007574696F6E5F79203D202025643A0A00B4
:100BD0007265736F6C7574696F6E5F78203D20204D
:100BE00025643A0A0044697361626C656420496E49
:100BF00074332065787465726E616C2074726967F5
:100C0000676572206D6F6465210A00456E61626CD4
:100C1000656420496E74332065787465726E616C0A
:100C20002074726967676572206D6F6465206973EF
:100C3000206F6E210A00526573657420636F6E74B5
:100C4000726F6C6C657220746F20776F726B2069A5
:100C50006E207468652050432064756D70696E67FE
:100C6000206D6F6465210A00526573657420636F9F
:100C70006E74726F6C6C657220746F20776F726B1C
:100C800020696E2074686520636F6E74726F6C6C7F
:100C90006572206D6F6465210A007570646174650A
:100CA0003A202564202564202564202564202564BD
:100CB0002025642025642025643A0A004375727259
:100CC000656E742076657273696F6E206E756D62E5
:100CD00065722069732025732E0A00437572726550
:100CE0006E7420776F726B696E67206D6F6465201C
:100CF0006973207468652050432064756D70696E57
:100D000067206D6F6465210A00436F6D6D20457229
:100D1000726F723A206E62797465733D25750A00B0
:100D200043757272656E7420776F726B696E67209F
:100D30006D6F64652069732074686520436F6E74FD
:100D4000726F6C6C6572206D6F6465210A003F3FA5
:100D50003F0A00204E4F54205245414459210A0079
:100D60002057524954452050524F5445435445440E
:100D7000210A00204552524F52210A002046415478
:100D8000204F4B210A00496E697469616C697A6968
:100D90006E6720464154204469736B2E2E2E003F0F
:100DA0003F3F0A00534448430A00424C4B0A005359
:100DB00044430A005344320A0053440A004D4D4351
:100DC0000A004361726420747970653A20005344CC
:100DD000206361726420697320696E697469616C53
:100DE000697A65640A00496E697469616C697A613F
:100DF00074696F6E206661696C65642121210A0047
:100E0000534420636172642069732057726974656A
:100E10002050726F746563746564210A00496E73B3
:100E20006572742053442063617264000A4D6169E5
:100E30006E20436F6E74726F6C6C657220576F72A8
:100E40006B730A00494E54332063617463686573A1
:100E5000206120726973696E67206564676520741C
:100E6000726967676572210A0043616E6E6F742054
:100E700066696E64207468652070616E656C2025FB
:100E8000642E0A00426164206578697420636D6491
:100E90002C20726573756C74203D2025750A0064E2
:100EA0006F6E2774206B6E6F7720686F7720746F7A
:100EB000206465616C207769746820726563747959
:100EC00070653D2564206174206C696E6520256421
:100ED000206F6620656570726F6D2E6865780A00F8
:100EE0000A00766572696679206D69736D61746355
:100EF0006820666F7220706167652025640A00763D
:100F00006572696679206D69736D617463682066C6
:100F10006F7220706167652025640A0063686563ED
:100F20006B73756D3D3078253032782C20636F6D92
:100F3000707574656420636865636B73756D3D30AF
:100F400078253032780A004552524F523A20636871
:100F500065636B73756D206D69736D617463682073
:100F60006174206C696E65202564206F662065655C
:100F700070726F6D2E6865780A000A766572696610
:100F800079696E673A20004572726F7220665F6CF5
:100F90007365656B20696E20656570726F6D2E6874
:100FA00065782E0A00646F6E2774206B6E6F772051
:100FB000686F7720746F206465616C20776974684E
:100FC00020726563747970653D2564206174206CBE
:100FD000696E65202564206F6620656570726F6D8F
:100FE0002E6865782E0A00636865636B73756D3DC6
:100FF0003078253032782C20636F6D70757465649D
:1010000020636865636B73756D3D30782530327889
:101010000A004552524F523A20636865636B7375FC
:101020006D206D69736D61746368206174206C69F3
:101030006E65202564206F6620656570726F6D2E69
:101040006865782E0A000A77726974696E673A20BB
:101050002020004261642070616E656C20726573AF
:1010600065742C20726573756C74203D2025750A9B
:1010700000656570726F6D2070616E656C202575FE
:101080002E0A004572726F7220665F6F70656E2067
:10109000696E20656570726F6D2E6865782E0A0026
:1010A00025530A004F4B004449534B5F45525200B1
:1010B000494E545F455252004E4F545F5245414491
:1010C00059004E4F5F46494C45004E4F5F504154CA
:1010D0004800494E56414C49445F4E414D450044FD
:1010E000454E49454400455849535400494E5641E0
:1010F0004C49445F4F424A45435400575249544576
:101100005F50524F54454354454400494E56414C5C
:1011100049445F4452495645004E4F545F454E4145
:10112000424C4544004E4F5F46494C455F5359532E
:1011300054454D004D4B46535F41424F5254454438
:101140000054494D454F5554000043616E6E6F7415
:101150002066696E64207468652070616E656C201D
:1011600025642E0A00426164206578697420636DED
:10117000642C20726573756C74203D2025750A00FF
:10118000646F6E2774206B6E6F7720686F772074A2
:101190006F206465616C2077697468207265637480
:1011A0007970653D2564206174206C696E65202529
:1011B00064206F662070616E656C2E6865780A0029
:1011C0000A00766572696679206D69736D61746372
:1011D0006820666F7220706167652025640A00765A
:1011E0006572696679206D69736D617463682066E4
:1011F0006F7220706167652025640A00636865630B
:101200006B73756D3D3078253032782C20636F6DAF
:10121000707574656420636865636B73756D3D30CC
:1012200078253032780A004552524F523A2063688E
:1012300065636B73756D206D69736D617463682090
:101240006174206C696E65202564206F6620706172
:101250006E656C2E6865780A000A76657269667933
:10126000696E673A20004572726F7220665F6C7318
:1012700065656B20696E2070616E656C2E6865789F
:101280002E0A00646F6E2774206B6E6F7720686F74
:101290007720746F206465616C20776974682072B0
:1012A0006563747970653D2564206174206C696E96
:1012B00065202564206F662070616E656C2E686500
:1012C000780A00636865636B73756D3D307825300F
:1012D00032782C20636F6D70757465642063686567
:1012E000636B73756D3D3078253032780A00455256
:1012F000524F523A20636865636B73756D206D6958
:10130000736D61746368206174206C696E6520255B
:1013100064206F662070616E656C2E6865782E0A99
:10132000000A77726974696E673A20202000426172
:10133000642070616E656C2072657365742C207218
:101340006573756C74203D2025750A00666C6173A9
:10135000682070616E656C2025752E0A00457272DA
:101360006F7220665F6F70656E20696E2070616EAF
:10137000656C2E6865782E0A0042616420666C6197
:10138000736820726561642C20726573756C7420BB
:101390003D2025750A00230042616420666C61735C
:1013A0006820726561642C20726573756C74203DD1
:1013B0002025750A00230042616420656570726F04
:1013C0006D2077726974652C20726573756C74205A
:1013D0003D2025750A00230042616420666C61731C
:1013E0006820726561642C20726573756C74203D91
:1013F0002025750A00230042616420666C617368D1
:1014000020726561642C20726573756C74203D20B8
:1014100025750A00230042616420666C61736820B0
:1014200077726974652C20726573756C74203D2029
:1014300025750A00230011241FBECFEFDFE3DEBFB6
:10144000CDBF00E00CBF18BE19BE1ABE1BBE13E212
:10145000A0E0B0E2E0EAF4EA00E00BBF02C00790CF
:101460000D92A03BB107D9F718E2A0EBB3E201C09F
:101470001D92AA3AB107E1F70E9497280C944E52A8
:101480000C9400008091B8239091B9230196809329
:10149000B8239093B9238091B8239091B9232091D8
:1014A000392030913A20B9010E94604C8093B823D2
:1014B0009093B9236091BA237091BB234091B823D4
:1014C0005091B923629FC001639F900D729F900D50
:1014D0001124840F951F8093BC239093BD2380918A
:1014E000C523882329F08091BE238F5F8093BE237C
:1014F00008958091BA239091BB2301968093BA23DB
:101500009093BB238091BA239091BB2360913B20A1
:1015100070913C200E94604C8093BA239093BB232F
:101520006091BA237091BB232091B8233091B923E5
:101530004091392050913A20649FC001659F900DE1
:10154000749F900D1124820F931F8093BC2390935E
:10155000BD238091C523882329F48091BE238F5F0A
:101560008093BE2308958091B8239091B92300976A
:1015700029F48091392090913A2004C08091B823B9
:101580009091B92301978093B8239093B9236091E8
:10159000BA237091BB232091B8233091B923409195
:1015A000392050913A20649FC001659F900D749F2F
:1015B000900D1124820F931F8093BC239093BD2321
:1015C0008091C523882329F08091BE238F5F80936B
:1015D000BE2308958091BA239091BB23009729F4EC
:1015E00080913B2090913C2004C08091BA2390913F
:1015F000BB2301978093BA239093BB236091BA23B6
:101600007091BB232091B8233091B92340913920A8
:1016100050913A20649FC001659F900D749F900D7A
:101620001124820F931F8093BC239093BD2380913C
:10163000C523882329F48091BE238F5F8093BE2326
:10164000089583E00E94962E0895A6E1B0E0EBE2B3
:10165000FBE00C94C44CFE01319680E1DF011D9249
:101660008A95E9F78091C423882309F4A6C1809163
:10167000C0238F5F8093C0238091C02364E60E94C3
:10168000544C9093C02380914C20882329F480915E
:10169000C42381508093C4238091CB23843021F1D3
:1016A000853020F4833009F08CC107C0853009F4FF
:1016B00046C0823609F085C157C083E00E94A42E3F
:1016C000BC0180E090E020913B2030913C2040E044
:1016D00050E00E94354C209137203091382040E076
:1016E00050E00E94874C26C0E091C023F0E0EE0F4E
:1016F000FF1FE452F94D808191812091C8233091E0
:10170000C923820F931F60913B2070913C2097FD6D
:1017100007C00E94604C8093BA239093BB2333C1CF
:101720009B0121503040909581959F4F0E94604CC5
:10173000281B390B2093BA233093BB2324C1E0919B
:10174000C023F0E0EE0FFF1FE452F94D808191813C
:10175000BC01E5E0660F771FEA95E1F7680F791F96
:1017600081E00E94C02E2DC168EDE62E63E2F62EC8
:101770008E010F5F1F4FA12C50E1B52EC12CD12C33
:10178000F701819191917F01009759F080E00E94CB
:10179000A42EA0E0B0E0F80180839183A283B383FC
:1017A00006C0D801AD92BD92CD92DC9213970C5F2A
:1017B0001F4FB0EEEB16B3E2FB0611F7E0913720B6
:1017C000F0913820ED8BFE8B1F0136942794442432
:1017D000552480913B2090913C209C0140E050E0BA
:1017E000298B3A8B4B8B5C8BE091BF230091C023FC
:1017F000F0E0EE0FFF1FE650FA4D608171818827FF
:1018000077FD8095982F2091E0233091E1234427A4
:1018100037FD4095542F0E94354C2AE0A22EB12C62
:10182000C12CD12CA60195010E94A94C39014A0175
:10183000E02FF0E0EE0FFF1FE452F94D608171815F
:10184000882777FD8095982F2091E2233091E3231C
:10185000442737FD4095542F0E94354CA601950131
:101860000E94A94C620E731E841E951E89899A8956
:10187000AB89BC89680E791E8A1E9B1E6D817E8194
:101880008F81988562197309840995092091DA235B
:101890003091DB23442737FD4095542F0E94354C6F
:1018A000A60195010E94A94C79018A0169817A817A
:1018B0008B819C8162197309840995092091D82331
:1018C0003091D923442737FD4095542F0E94354C41
:1018D000A60195010E94A94CE20EF31E041F151FDC
:1018E00069857A858B859C856219730984099509B8
:1018F0002091DC233091DD23442737FD4095542F80
:101900000E94354CA60195010E94A94CE20EF31EDF
:10191000041F151F6D857E858F859889621973094F
:10192000840995092091DE233091DF23442737FD78
:101930004095542F0E94354CA60195010E94A94C58
:10194000E20EF31E041F151FC801B70129893A8949
:101950004B895C890E94354CAD89BE899D0140E070
:1019600050E00E94A94C620E731E841E951EC40195
:10197000B30129893A894B895C890E94A94C6093FB
:10198000BA237093BB236091BA237091BB2320913B
:10199000B8233091B9234091392050913A20649F67
:1019A000C001659F900D749F900D1124820F931FAD
:1019B0008093BC239093BD2304C08CEE98E00E94DA
:1019C0003A4B6696E2E10C94DD4CA8E1B0E0EBEE18
:1019D000FCE00C94C44CFE01319680E1DF011D92C5
:1019E0008A95E9F78091C323882309F4CDC18091BA
:1019F000BF238F5F8093BF238091BF2364E60E9443
:101A0000544C9093BF2380914B20882329F48091DC
:101A1000C32381508093C3238091CA238430C1F1B2
:101A2000853020F4833009F0B3C107C0853009F454
:101A300073C0823609F0ACC184C082E00E94A42E3B
:101A40000091392010913A20BC0180E090E098018B
:101A500040E050E00E94354C2091352030913620F6
:101A600040E050E00E94874C2093B8233093B92384
:101A70004091BA235091BB232091B8233091B923D0
:101A8000409FC001419F900D509F900D11243DC07B
:101A9000E091BF23F0E0EE0FFF1FE650FA4D80818A
:101AA00091812091C6233091C723820F931F6091AB
:101AB000392070913A2097FD07C00E94604C8093B6
:101AC000B8239093B9230EC09B01215030409095CC
:101AD00081959F4F0E94604C281B390B2093B8239F
:101AE0003093B9236091BA237091BB232091B8231E
:101AF0003091B9234091392050913A20649FC00120
:101B0000659F900D749F900D1124820F931F8093F9
:101B1000BC239093BD233CC1E091BF23F0E0EE0FC6
:101B2000FF1FE650FA4D80819181BC01E5E0660F10
:101B3000771FEA95E1F7680F791F80E00E94C02EB9
:101B400027C16CECE62E63E2F62E8E010F5F1F4F6D
:101B5000A12C50E1B52EC12CD12CF701819191918E
:101B60007F01009759F080E00E94A42EA0E0B0E031
:101B7000F80180839183A283B38306C0D801AD921C
:101B8000BD92CD92DC9213970C5F1F4FB4EDEB1614
:101B9000B3E2FB0611F7E0913520F0913620ED8B92
:101BA000FE8B1F01369427944424552460913920DC
:101BB00070913A206F8B788FCB01A0E0B0E0898BD9
:101BC0009A8BAB8BBC8BE091BF230091C023F0E0DC
:101BD000EE0FFF1FE650FA4D60817181882777FD77
:101BE0008095982F2091D4233091D523442737FD19
:101BF0004095542F0E94354C2AE0A22EB12CC12CC6
:101C0000D12CA60195010E94A94C39014A01E02F6F
:101C1000F0E0EE0FFF1FE452F94D608171818827DB
:101C200077FD8095982F2091D6233091D723442794
:101C300037FD4095542F0E94354CA60195010E9416
:101C4000A94C620E731E841E951E69897A898B8940
:101C50009C89660E771E881E991E6D817E818F81FC
:101C6000988562197309840995092091CE233091D2
:101C7000CF23442737FD4095542F0E94354CA601B1
:101C800095010E94A94C79018A0169817A818B8131
:101C90009C8162197309840995092091CC233091A4
:101CA000CD23442737FD4095542F0E94354CA60183
:101CB00095010E94A94CE20EF31E041F151F6985B1
:101CC0007A858B859C856219730984099509209111
:101CD000D0233091D123442737FD4095542F0E94C3
:101CE000354CA60195010E94A94CE20EF31E041F7B
:101CF000151F6D857E858F85988962197309840902
:101D000095092091D2233091D323442737FD409564
:101D1000542F0E94354CA60195010E94A94CE20E59
:101D2000F31E041F151FC801B70129893A894B8981
:101D30005C890E94354CAD89BE899D0140E050E030
:101D40000E94A94C620E731E841E951EC401B3012D
:101D500029893A894B895C890E94A94C6093B823F0
:101D60007093B9234091BA235091BB232091B8239B
:101D70003091B923EF89F88D4E9FC0014F9F900D90
:101D80005E9F900D1124C1CE83E099E00E943A4BF2
:101D90006896E2E10C94DD4C1F920F920FB60F9201
:101DA00008B60F9209B60F920BB60F92112418BE07
:101DB00019BE1BBE2F933F934F935F936F937F93F7
:101DC0008F939F93AF93BF93EF93FF9381E098E23C
:101DD0000E94773BFF91EF91BF91AF919F918F91BF
:101DE0007F916F915F914F913F912F910F900BBE1B
:101DF0000F9009BE0F9008BE0F900FBE0F901F905E
:101E000018951F920F920FB60F9208B60F9209B64F
:101E10000F920BB60F92112418BE19BE1BBE2F9342
:101E20003F934F935F936F937F938F939F93AF9362
:101E3000BF93EF93FF9383E598E20E94773BFF9176
:101E4000EF91BF91AF919F918F917F916F915F9132
:101E50004F913F912F910F900BBE0F9009BE0F90A5
:101E600008BE0F900FBE0F901F9018951F920F92F3
:101E70000FB60F9208B60F9209B60F920BB60F92DB
:101E8000112418BE19BE1BBE2F933F934F935F932F
:101E90006F937F938F939F93AF93BF93EF93FF9332
:101EA00080E198E20E94773BFF91EF91BF91AF9163
:101EB0009F918F917F916F915F914F913F912F9162
:101EC0000F900BBE0F9009BE0F9008BE0F900FBE73
:101ED0000F901F9018951F920F920FB60F9208B691
:101EE0000F9209B60F920BB60F92112418BE19BEAD
:101EF0001BBE2F933F934F935F936F937F938F936B
:101F00009F93AF93BF93EF93FF9382EF97E20E946B
:101F1000773BFF91EF91BF91AF919F918F917F910F
:101F20006F915F914F913F912F910F900BBE0F904A
:101F300009BE0F9008BE0F900FBE0F901F9018950E
:101F40001F920F920FB60F9208B60F9209B60F921A
:101F50000BB60F92112418BE19BE1BBE0F932F9300
:101F60003F934F935F936F937F938F939F93AF9321
:101F7000BF93EF93FF931092BF231092C02381E091
:101F80008093B7231092BE238EE791E14EE450E098
:101F900060E070E021E001E00E94113A82E49AE002
:101FA0004EE450E060E070E022E000E00E94113A70
:101FB00089E79AE04EE450E060E070E023E00E94A0
:101FC000113A0E94E50C40914D2050914E2060E066
:101FD00070E085EE9CE024E001E00E94113A0E944E
:101FE000250B40914F205091502060E070E085E239
:101FF0009BE025E00E94113A84E49EE00E943A4B67
:10200000FF91EF91BF91AF919F918F917F916F91D0
:102010005F914F913F912F910F910F900BBE0F90B9
:1020200009BE0F9008BE0F900FBE0F901F9018951D
:102030000F9381E08093B7239FB7F8941092BF234A
:102040001092C02380934520809346201092BE2397
:102050009FBF8EE791E14EE450E060E070E021E048
:1020600001E00E94113A82E49AE04EE450E060E020
:1020700070E022E000E00E94113A89E79AE04EE425
:1020800050E060E070E023E00E94113A0E94E50C0D
:1020900040914D2050914E2060E070E085EE9CE034
:1020A00024E001E00E94113A0E94250B40914F204C
:1020B0005091502060E070E085E29BE025E00E94B6
:1020C000113A0F9108950F931092B7238EE791E183
:1020D0004EE450E060E070E021E000E00E94113A40
:1020E00082E49AE04EE450E060E070E022E00E947A
:1020F000113A89E79AE04EE450E060E070E023E0B6
:102100000E94113A40914D2050914E2060E070E0C5
:1021100085EE9CE024E00E94113A40914F205091BE
:10212000502060E070E085E29BE025E00E94113ADB
:102130000F910895FC0120812436F1F0253620F41A
:10214000233609F04EC006C0253641F1263609F087
:1021500048C036C022E62093CA23DC011196ECEC7D
:10216000F3E28D91992787FD90958193919383E276
:10217000E83DF807B1F7089522E62093CB23DC0170
:102180001196E8EDF3E28D91992787FD9095819363
:10219000919383E2E43EF807B1F7089521E6209396
:1021A000CA23DC011196ECECF3E28D91992787FDAF
:1021B00090958193919383E2E83DF807B1F70895F4
:1021C00021E62093CB23DC011196E8EDF3E28D911B
:1021D000992787FD90958193919383E2E43EF807D8
:1021E000B1F70895282F392FD901EAE7F4E28D914C
:1021F000819384E2E83BF807D1F70895282F392F1F
:10220000D901E8EBF4E28D91819384E2E73FF8078E
:10221000D1F780913420882321F489E89AE00E9444
:102220003A4B08950F93CF93DF93EB0118161906DD
:1022300074F49C01442737FD4095542F62E17AE7FE
:1022400080E090E00E94874C82E49AE012C0009700
:10225000A9F022273327281B390B442737FD409547
:10226000542F62E17AE780E090E00E94874C83EB94
:102270009AE0BA01A90122E001E008C083EB9AE0EC
:102280004EE450E060E070E022E000E00E94333A6B
:102290001C161D0674F49E01442737FD4095542FEB
:1022A00062E17AE780E090E00E94874C89E79AE05B
:1022B00012C02097A9F0D095C195DF4F9E01442709
:1022C00037FD4095542F62E17AE780E090E00E946C
:1022D000874C8AEE9AE0BA01A90123E001E008C028
:1022E0008AEE9AE04EE450E060E070E023E000E027
:1022F0000E94333ADF91CF910F910895A6E1B0E0AB
:10230000E4E8F1E10C94C44CFE01319680E1DF0178
:102310001D928A95E9F78091CA23813029F1813095
:1023200038F0823009F490C0813609F00CC2FFC049
:10233000E091BF23F0E0EE0FFF1FE650FA4D608101
:102340007181882777FD8095982F2091EC2330911B
:10235000ED23442737FD4095542F0E94354C2AE049
:1023600030E040E050E059C0A0901024B09011241B
:10237000C0901224D090132480E00E94A42E7C01EF
:102380000027F7FC0095102FB2E0EE0CFF1C001F99
:10239000111FBA95D1F7C601B50126E030E040E043
:1023A00050E00E94354CE60EF71E081F191FAAE0E8
:1023B000AA2EB12CC12CD12CC801B701A6019501C0
:1023C0000E94A94CF90120931024F093112440930A
:1023D000122450931324B901CA0128EE33E040E0DF
:1023E00050E00E94354C605070488E4390402FEF73
:1023F0003FE140E050E00E94A94C79018A01209120
:10240000EC233091ED23442737FD4095542FC8012C
:10241000B7010E94354CA60195010E94A94C890183
:102420009A014091F0235091F123CA01880F991F1E
:10243000880F991F840F951F62E070E00E94744C12
:102440005B01A00EB11E81C1A0901024B090112498
:10245000C0901224D090132480E00E94A42E7C010E
:10246000EE0CFF1CEE0CFF1C0027F7FC0095102F54
:10247000C601B50126E030E040E050E00E94354C56
:10248000E60EF71E081F191F7AE0672E712C812CAB
:10249000912CC801B701A40193010E94A94C052FFA
:1024A000209310243093112440931224509313242A
:1024B000E091BF23F0E0EE0FFF1FE650FA4D609170
:1024C000F0237091F123CB01880F991F880F991F7A
:1024D000860F971F62E070E00E94744C5B01808160
:1024E0009181A80EB91EB901842F902F28EE33E0F8
:1024F00040E050E00E94354C605070488E43904060
:102500002FEF3FE140E050E00E94A94C79018A01A1
:102510002091EC233091ED23442737FD4095542F33
:10252000C801B7010E94354CA401930107C19CEC7E
:10253000E92E93E2F92E8F01A12C80E1B82EC12C57
:10254000D12CF701819191917F01009759F080E0A2
:102550000E94A42EA0E0B0E0F80180839183A283C2
:10256000B38306C0D801AD92BD92CD92DC92139791
:102570000C5F1F4FB4EDEB16B3E2FB0611F7E091D1
:10258000BF23E98BF091C023FA8B6D817E818F810F
:10259000988528EE33E040E050E00E94354C6050D2
:1025A00070488E4390400FEF602E0FE1702E812C0B
:1025B000912CA40193010E94A94C79018A012091D8
:1025C000CE233091CF23442737FD4095542FC801A7
:1025D000B7010E94354C1AE0212E312C412C512C90
:1025E000A20191010E94A94C59016A0169817A8175
:1025F0008B819C8128EE33E040E050E00E94354C16
:10260000605070488E439040A40193010E94A94CF1
:1026100079018A012091CC233091CD23442737FDC5
:102620004095542FC801B7010E94354CA201910179
:102630000E94A94CA20EB31E69857A858B859C8564
:1026400028EE33E040E050E00E94354C6050704886
:102650008E439040A40193010E94A94C79018A0104
:102660002091D0233091D123442737FD4095542F1A
:10267000C801B7010E94354CA20191010E94A94CEA
:10268000A20EB31E6D857E858F85988928EE33E076
:1026900040E050E00E94354C605070488E439040BE
:1026A000A40193010E94A94C79018A012091D223AF
:1026B0003091D323442737FD4095542FC801B701EB
:1026C0000E94354CA20191010E94A94CA20EB31E9A
:1026D0008989E82FF0E0EE0FFF1FE650FA4D608188
:1026E0007181882777FD8095982F2091D423309190
:1026F000D523442737FD4095542F0E94354CA20125
:1027000091010E94A94CA20EB31EAA89EA2FF0E003
:10271000EE0FFF1FE452F94D60817181882777FD2C
:102720008095982F2091D6233091D723442737FDC9
:102730004095542F0E94354CA20191010E94A94C52
:10274000A20EB31E02C0AA24BB248091CB238130E9
:1027500029F1813038F0823009F48DC0813609F0DA
:102760000BC2F8C0E091C023F0E0EE0FFF1FE4526F
:10277000F94D60817181882777FD8095982F209190
:10278000EE233091EF23442737FD4095542F0E94CC
:10279000354C2AE030E040E050E056C060900C2418
:1027A00070900D2480900E2490900F2481E00E9460
:1027B000A42E7C01EE0CFF1CEE0CFF1C0027F7FC86
:1027C0000095102FC401B30126E030E040E050E056
:1027D0000E94354CE60EF71E081F191F5AE0652EA1
:1027E000712C812C912CC801B701A40193010E9486
:1027F000A94CF90120930C24F0930D2440930E244E
:1028000050930F24B901CA0128EE33E040E050E0B4
:102810000E94354C605070488E4390402FEF3FE14E
:1028200040E050E00E94A94C79018A012091EE23FA
:102830003091EF23442737FD4095542FC801B7014D
:102840000E94354CA40193010E94A94C69017A01B0
:102850002091F2233091F323C901880F991F880F2B
:10286000991F820F931F62E070E00E94744C8B01ED
:102870000C0D1D1D83C160900C2470900D24809060
:102880000E2490900F2481E00E94A42E7C01EE0C77
:10289000FF1CEE0CFF1C0027F7FC0095102FC40155
:1028A000B30126E030E040E050E00E94354CE60EF7
:1028B000F71E081F191F8AE0682E712C812C912C9D
:1028C000C801B701A40193010E94A94CE52E2093F1
:1028D0000C2430930D2440930E2450930F24E09148
:1028E000C023F0E0EE0FFF1FE452F94D6091F22398
:1028F0007091F323CB01880F991F880F991F860FC2
:10290000971F62E070E00E94744C8B01808191817E
:10291000080F191FB901842F9E2D28EE33E040E0E7
:1029200050E00E94354C605070488E4390402FEF2D
:102930003FE140E050E00E94A94C69017A012091FA
:10294000EE233091EF23442737FD4095542FC701E4
:10295000B60109C15CECE52E53E2F52E8E010F5F46
:102960001F4F612C40E1742E812C912CF701819135
:1029700091917F01009759F080E00E94A42EA0E081
:10298000B0E0F80180839183A283B38306C0D801AD
:102990006D927D928D929C9213970C5F1F4FB4EDB8
:1029A000EB16B3E2FB0611F7E091BF23E98BF09140
:1029B000C023FA8B6D817E818F81988528EE33E06C
:1029C00040E050E00E94354C605070488E4390408B
:1029D0003FEF232E3FE1332E412C512CA2019101D8
:1029E0000E94A94C79018A012091DA233091DB23DE
:1029F000442737FD4095542FC801B7010E94354C3C
:102A00002AE0622E712C812C912CA40193010E944A
:102A1000A94C2B8B3C8B4D8B5E8B69817A818B8192
:102A20009C8128EE33E040E050E00E94354C60503D
:102A300070488E439040A20191010E94A94C7901F7
:102A40008A012091D8233091D923442737FD40951E
:102A5000542FC801B7010E94354CA40193010E9474
:102A6000A94C0B891C89020F131F69857A858B85F8
:102A70009C8528EE33E040E050E00E94354C6050E9
:102A800070488E439040A20191010E94A94C6901B7
:102A90007A012091DC233091DD23442737FD4095D6
:102AA000542FC701B6010E94354CA40193010E9426
:102AB000A94C020F131F6D857E858F85988928EE9E
:102AC00033E040E050E00E94354C605070488E4347
:102AD0009040A20191010E94A94C69017A012091C4
:102AE000DE233091DF23442737FD4095542FC70163
:102AF000B6010E94354CA40193010E94A94C020F1B
:102B0000131F8989E82FF0E0EE0FFF1FE650FA4D02
:102B100060817181882777FD8095982F2091E0232F
:102B20003091E123442737FD4095542F0E94354CC6
:102B3000A40193010E94A94C020F131FAA89EA2F36
:102B4000F0E0EE0FFF1FE452F94D6081718188279C
:102B500077FD8095982F2091E2233091E32344273D
:102B600037FD4095542F0E94354CA40193010E94DB
:102B7000A94C020F131F02C000E010E08091B723A0
:102B8000882321F400E010E0AA24BB2481E0A016F1
:102B9000B1060CF480E08093C523C501B8010E9402
:102BA00012116696E2E10C94DD4CA2E8B0E0EBED88
:102BB000F5E10C94CE4C04EF13E200D000D0EDB759
:102BC000FEB73196ADB7BEB711960D931C93129711
:102BD00020E030E222833383848315820E94444FB5
:102BE000EDB7FEB73696EDBFFEBF80913420882347
:102BF000A1F400D00F928CE298E0ADB7BEB7119669
:102C00008D939C93129713960D931C9314970E9487
:102C10007C4B0F900F900F900F9082EC96E264EF38
:102C200073E241E00E94573E8823B9F58E010D5FA3
:102C30001F4F82EC96E2B80140E850E09E012F5F02
:102C40003F4F0E94F542882309F589819A81803897
:102C50009105E1F4780108EFC02E04E2D02E00E0E7
:102C600010E0F70161917F010F5F1F4FD6016D9357
:102C70006D01C8018F5F9F4F0E9488510038110578
:102C800081F781E090E060E00E94885182EC96E25A
:102C90000E94354486EF97E002C080EC97E00E94E6
:102CA0003A4BCE57DF4FE8E00C94E74C1F93CF939D
:102CB000DF93162FEA01882349F580910E28882397
:102CC000E1F781E098E260E0AE01212F0E94FE3A38
:102CD000809160288823E1F783E598E260E0AE0107
:102CE000212F0E94FE3A80911D288823E1F780E180
:102CF00098E260E0AE01212F0E94FE3A8091FF270A
:102D00008823E1F782EF97E260E01CC090E0FC01CD
:102D1000E950FB4DE08188589A4DDC016C91EE231F
:102D2000A9F0E150E43040F4F0E0EE0FFF1FE45969
:102D3000FC4D8081918102C081E098E2FC012585F3
:102D40002223E1F7AE01212F0E94FE3ADF91CF91BD
:102D50001F910895ACE0B0E0E0EBF6E10C94C44CB8
:102D60004C015B014F835887EDB6FEB6E986FA86C3
:102D70008091392090913A20489F6001499FD00C62
:102D8000589FD00C1124C60ED71E8091B423909169
:102D9000B523C816D90608F0CBC281E061E00E94D5
:102DA000782E8FB7F8940091BE238FBF023080F148
:102DB00081E00E94352D80913420882349F52DB77C
:102DC0003EB72C5030402DBF3EBFEDB7FEB7319619
:102DD0008AE49AE0ADB7BEB711968D939C93129793
:102DE00002831382C482D582A682B782EF80F884E0
:102DF000E086F1868091B4239091B52382879387F2
:102E00000E947C4B2DB73EB7245F3F4F2DBF3EBF86
:102E10008FB7F8941092BE238FBF9091F9258091BF
:102E2000B323989F30011124C3019170672D6695DB
:102E3000009709F06F5F8DB79EB78B879C872DB782
:102E40003EB7261937092DBF3EBF4DB65EB6089472
:102E5000411C511C70E080E090E0960140E050E0A1
:102E60000E94354C7B018C010894E11CF11C011D72
:102E7000111D49E0EE0CFF1C001F111F4A95D1F7F0
:102E8000C401B801A7010E9443441C01009709F046
:102E9000ACC1F40186819781A085B1858E159F050F
:102EA000A007B10709F0A1C1C401B201A3019E01AD
:102EB0002F5F3F4F0E94F5428C01009709F06DC1D2
:102EC00089819A818615970509F067C188248394C2
:102ED00033E0C32ED12CCC0EDD1E59C14091F92513
:102EE000882D90E00197242F30E0829F7001839F0E
:102EF000F00C929FF00C112482010E0D1F1D809189
:102F0000B223882309F43CC1483061F5D8018C9183
:102F100011969C911197891729F512963C91129759
:102F200013969C9113973917E9F414962C911497E2
:102F300015969C9115972917A9F416969C911697AA
:102F400017964C911797941769F4831759F48217C1
:102F500049F4891739F4882D61E0A8010E945616BA
:102F600081E001C080E09091F925983109F052C0CC
:102F7000F201EE0DFF1D3081F8019181391709F042
:102F800049C042819381491709F044C02481958149
:102F9000291709F03FC0968157819517D9F5341745
:102FA000C9F53217B9F53917A9F520859185291783
:102FB00089F552859385591769F544859585491793
:102FC00049F596856785961729F5251719F524176C
:102FD00009F52917F9F4908941899417D9F4628980
:102FE00043896417B9F454894589541799F446897B
:102FF0007789471779F4961769F4951759F4941758
:1030000049F43B832C839D83882D63E0A6010E94B5
:10301000561681E09091F925903209F0AFC0F20187
:10302000EE0DFF1D4081D80111969C911197491713
:1030300009F0A4C012963C91129713969C91139795
:10304000391709F09BC014962C91149715969C91F2
:103050001597291709F092C016969C911697179606
:103060005C911797951709F089C0431709F086C03E
:10307000421709F083C0491709F080C018963C91A7
:10308000189719969C911997391709F077C01A96D5
:103090005C911A971B969C911B97591709F06EC06B
:1030A0001C962C911C971D969C911D97291709F031
:1030B00065C01E969C911E971F966C911F97961740
:1030C00009F05CC0351709F059C0321709F056C035
:1030D000391709F053C050962C91509751969C91F6
:1030E0005197291709F04AC052966C9152975396FE
:1030F0009C915397691709F041C054965C9154977D
:1031000055969C9155975917C9F556969C91569787
:1031100057967C915797971789F5261779F52517B4
:1031200069F5291759F558969C91589759965C91CD
:103130005997951719F55A967C915A975B965C9119
:103140005B977517D9F45C966C915C975D965C9172
:103150005D97651799F4F801568DE78D5E1771F448
:10316000971761F4961751F4951741F44B833C83FC
:103170002D839E83882D64E0A60106C0882331F448
:10318000882D6091F925A8010E945616839480919C
:10319000B323881508F0A2CE5CC080913420882328
:1031A00009F057C08AE19AE00E943A4B2DB73EB72A
:1031B000285030402DBF3EBFEDB7FEB731968AEEA6
:1031C00099E0ADB7BEB711968D939C931297028389
:1031D0001383C482D58289819A81868397830E94D2
:1031E0007C4BEDB7FEB7389632C0809134208823EF
:1031F00081F58FEB99E00E943A4BD4012D913C91DF
:10320000EDB7FEB77097EDBFFEBF31968BE599E045
:10321000ADB7BEB711968D939C93129722823382DD
:10322000C482D582E682F78200871187228733879E
:10323000D9018C918487158616968D919C9117974C
:10324000868797870E947C4BEDB7FEB77096EDBFDF
:10325000FEBF8091CA238530C9F0B50180E090E0BF
:103260006F5F7F4F8F4F9F4F2FEF3FE740E050E062
:103270000E94354C2091392030913A2040E050E0B6
:103280000E94874C80E0B9010E94C02E8091CB2320
:103290008530D9F0EF80F884B70180E090E06F5F6F
:1032A0007F4F8F4F9F4F2FEF3FE740E050E00E944E
:1032B000354C20913B2030913C2040E050E00E9472
:1032C000874C81E0B9010E94C02E8091B0238823F1
:1032D00021F1C50123E0969587952A95E1F7282FDE
:1032E000E82FF0E0E658FB4D808190E048EF249F06
:1032F000402D11244A0D27E030E0241B310902C083
:10330000959587952A95E2F780FD03C080E060E0FF
:1033100002C080E061E00E94782E81E060E00E94BF
:10332000782E3B852C85832F922F8DBF9EBF2EC07C
:1033300083E00E94352D80913420882339F52DB704
:103340003EB72A5030402DBF3EBFEDB7FEB7319695
:103350008AE199E0ADB7BEB711968D939C93129711
:10336000C282D382A482B582EF80F884E682F7829B
:103370008091B4239091B523808791870E947C4BE4
:103380002DB73EB7265F3F4F2DBF3EBF89859A853B
:103390008DBF9EBF2C96E2E10C94DD4CEF92FF9224
:1033A0000F931F93CF93DF931092B7230E94084A85
:1033B000C0E0D0E010C08FB7F8946091B82370914E
:1033C000B9234091BA235091BB238FBF88ED97E278
:1033D0000E94AA1621968091B4239091B523C81714
:1033E000D90748F30E941D4A7B018C018DB79EB717
:1033F00008978DBF9EBFCDB7DEB7219689E997E0CC
:10340000EDB7FEB781839283EA82FB820C831D8332
:103410006091B4237091B52380E090E028EE33E012
:1034200040E050E00E94354CA80197010E94874C73
:103430002E833F830E947C4B8FB7F8941092B82361
:103440001092B9231092BA231092BB238FBF8DB76D
:103450009EB708968DBF9EBFCDB7DEB7E6E00C9451
:10346000E94CCF92DF92FF920F931F93DF93CF939C
:10347000CDB7DEB7C350D240CDBFDEBFF82E00E0DF
:1034800014E200D000D0EDB7FEB73196ADB7BEB7AD
:1034900011960D931C9312978DE090E28283938393
:1034A000F48215820E94444FEDB7FEB73696EDBF09
:1034B000FEBF88ED97E20E94354480913420882336
:1034C000A1F400D00F928FED98E0ADB7BEB7119682
:1034D0008D939C93129713960D931C9314970E94AF
:1034E0007C4B0F900F900F900F9088ED97E260E06B
:1034F00074E241E00E94573E882309F0C0C088ED85
:1035000097E2BE016D5F7F4F40E052E09E012F5F6A
:103510003F4F0E94F542882309F0AEC089819A810D
:10352000B2E080309B0709F0A7C08B8180933920DF
:103530008C8180933A208D8180933B208E81809373
:103540003C208F818093B323288560913B2070912C
:103550003C204091392050913A20649FC001659FE2
:10356000900D749F900D11248093B4239093B523F4
:10357000822F8B50843038F42A5081E08093B1231D
:103580002093F92508C01092B123822F880F880F4D
:10359000880F8093F9253FB7F8941092BA231092C0
:1035A000BB238091BA239091BB238093B82390933F
:1035B000B9231092BC231092BD231092B72310920E
:1035C000BE23C090B823D090B9230091BA231091A4
:1035D000BB233FBF80913420882309F046C000D030
:1035E0000F92EDB7FEB731968AEC98E0ADB7BEB753
:1035F00011968D939C931297F2821382CD5FDD4FCB
:103600002883C350D2400E947C4BEDB7FEB7389759
:10361000EDBFFEBF319684E798E0ADB7BEB7119617
:103620008D939C9312978091392090913A208283B8
:10363000938380913B2090913C208483958380915B
:10364000B32386831782CD5FDD4F2881C350D240DC
:10365000208711868091B123828713860E947C4B3C
:10366000EDB7FEB73C96EDBFFEBF88ED97E2B60121
:10367000A8010E94AA1607C085E598E002C089E368
:1036800098E00E943A4B1092B623CD5FDD4FCDBF3C
:10369000DEBFCF91DF911F910F91FF90DF90CF9010
:1036A0000895A4E0B0E0E7E5FBE10C94D04C8B83F7
:1036B0009C838B017A0181E061E00E94782E8C81ED
:1036C000806F89838B818A8380E062E0AE014F5FE7
:1036D0005F4F0E945616B80180E090E06F5F7F4F09
:1036E0008F4F9F4F2FEF3FE740E050E00E94354C57
:1036F0002091392030913A2040E050E00E94874CE0
:1037000080E0B9010E94C02EB70180E090E06F5FB9
:103710007F4F8F4F9F4F2FEF3FE740E050E00E94D9
:10372000354C20913B2030913C2040E050E00E94FD
:10373000874C81E0B9010E94C02E81E060E00E94C8
:10374000782E2496E6E00C94E94CA0E0B0E0EBEA99
:10375000FBE10C94CD4CEC01998180E028817C0147
:10376000E20EF11C9B8180E02A816C01C20ED11C0B
:103770008C818093B3238D819E819093B123992373
:1037800019F4880F880F880F8093F9258FB7F89464
:103790001092BE238FBF81E061E00E94782E07E087
:1037A00010E0BB24B3940DC0AE01400F511F8B2D10
:1037B0006091F9250E9456168091F925080F111D78
:1037C000B3948091B3238B1578F780E0B7010E9402
:1037D000C02E81E0B6010E94C02E81E060E00E9410
:1037E000782ECDB7DEB7E9E00C94E64CCF93DF93AB
:1037F000FC018081813009F049C0928180E0218103
:10380000AC01420F511D4093EC235093ED23948162
:1038100080E02381BC01620F711D6093F0237093DF
:10382000F123968180E02581DC01A20FB11DA093D8
:10383000EE23B093EF23908580E02781EC01C20F47
:10384000D11D9E01C093F223D093F32380913420A5
:10385000882311F5EDB7FEB73A97EDBFFEBF31965D
:103860008DEA9AE0CDB7DEB789839A83428353838A
:1038700064837583A683B783208731870E947C4B3E
:10388000EDB7FEB73A96EDBFFEBF06C080E068E038
:103890004BE850E20E945616DF91CF910895A4E0C4
:1038A000B0E0E5E5FCE10C94D24CFC01808180376E
:1038B00021F0813709F0C5C082C0AFB7F89492817A
:1038C00080E02181820F911D8093B8239093B923CA
:1038D000948180E02381820F911D8093BA2390937D
:1038E000BB238091B8239091B9238093C6239093F2
:1038F000C7238091BA239091BB238093C8239093D0
:10390000C9236091BA237091BB232091B8233091D1
:10391000B9234091392050913A20649FC001659F9E
:10392000900D749F900D1124820F931F8093BC23E0
:103930009093BD231092BE236091B8237091B92358
:103940004091BA235091BB230091BC231091BD2319
:10395000AFBF80913420882329F58DB79EB7089793
:103960008DBF9EBFEDB7FEB731968BE29BE0ADB742
:10397000BEB711968D939C93129762837383448391
:103980005583068317834B835C8369837A830E9404
:103990007C4BEDB7FEB73896EDBFFEBF7A816981EB
:1039A0005C814B818091B623813021F4C8010E9453
:1039B000511B4DC088ED97E20E94AA1648C0618154
:1039C000772767FD70956093EC237093ED23428118
:1039D000552747FD50954093F0235093F1232381C1
:1039E000332727FD30952093EE233093EF238481F6
:1039F000992787FD90958093F2239093F323E0918C
:103A00003420EE2321F5ADB7BEB71A97ADBFBEBFC8
:103A1000EDB7FEB731960CEE1AE011960D931C939C
:103A20001297628373834483558326833783808709
:103A300091870E947C4BEDB7FEB73A96EDBFFEBF73
:103A400006C080E068E043E850E20E9456162496E3
:103A5000E4E00C94EB4CFC018081803119F0813161
:103A6000A9F407C08181738160E09281690F711DA3
:103A700009C0738160E08281680F711D818170953A
:103A800061957F4F81500E94C02E089580E068E0CC
:103A90004BE750E20E9456160895FC018181208177
:103AA00030E02150304020313105D8F526503F4FCD
:103AB000F9010C94F54C62E04BE950E236C062E04B
:103AC0004DE950E232C00E94311A08950E94242F1D
:103AD00008950E94E62E089590E0880F991F809324
:103AE00051209093522008950E94A93108950E9478
:103AF000C33408950E94D515089581500E94A42EC4
:103B000000D00F9229EA3BE0EDB7FEB72183328364
:103B1000838394830E947C4B0F900F900F900F90A3
:103B2000089580E068E04BE650E20E945616089542
:103B3000813021F0823009F071C038C0809134208A
:103B4000882321F488E797E00E943A4B1092E823FB
:103B50001092E92381E080934B2084E690E0A0E07E
:103B6000B0E080933D2090933E20A0933F20B093FF
:103B70004020EAEFF5E28AE090E08193919326E21B
:103B8000E23CF207D1F78FB7F8941092BF2394E686
:103B90009093C3238FBF81E090E080934720909360
:103BA00048201092E4231092E52308958091342058
:103BB000882321F487E597E00E943A4B1092EA238C
:103BC0001092EB2381E080934C2084E690E0A0E00B
:103BD000B0E08093412090934220A0934320B09383
:103BE0004420ECEDF6E28AE090E08193919327E2A5
:103BF000E43AF207D1F78FB7F8941092C02394E615
:103C00009093C4238FBF81E090E0809349209093EC
:103C10004A201092E6231092E723089581E297E06C
:103C20000E943A4B08958F929F92BF92CF92DF925B
:103C3000EF92FF920F931F93DF93CF93CDB7DEB731
:103C4000C656D040CDBFDEBF6C01B42E9FB7F894EE
:103C50008091C3239FBF843608F0A6C0662349F035
:103C60008FB7F8941092BF231092C1231092C323F0
:103C70008FBF84E62B2D289FC001112480509E4FBA
:103C80007C0100E010E0C601B801A7010E94434496
:103C9000009709F076C0F60126813781408551856D
:103CA0002E153F054007510709F06BC02B2D30E062
:103CB000809147209091482001972817390739F4BF
:103CC0000091E4231091E5230115110511F404E698
:103CD00010E0C601BE016D5F7F4FA8019E012F5FFE
:103CE0003F4F0E94F542009729F429813A8120171D
:103CF0003107A1F000D00F9225E933E0EDB7FEB710
:103D000021833283838394830E947C4B0F900F9096
:103D10000F900F908DE693E00E943A4BFE01339690
:103D200020E030E044E627C05FB7F894A091C123BB
:103D3000B0E0AA0FBB1FA650BA4D918088248081A5
:103D4000B401680F711D6D937C9311978091C1230D
:103D50008F5F8093C1238091C123642F0E94544CB4
:103D60009093C1238091C3238F5F8093C3235FBF50
:103D70002E5F3F4F329689819A8128173907A0F22A
:103D800017C000D00F922EE533E0EDB7FEB72183C8
:103D90003283838394830E947C4B0F900F900F900B
:103DA0000F9086E393E002C080E293E00E943A4BDA
:103DB000CA59DF4FCDBFDEBFCF91DF911F910F9169
:103DC000FF90EF90DF90CF90BF909F908F900895DD
:103DD0008F929F92BF92CF92DF92EF92FF920F93BA
:103DE0001F93DF93CF93CDB7DEB7C656D040CDBF7C
:103DF000DEBF6C01B42E9FB7F8948091C4239FBF9F
:103E0000843608F0A6C0662349F08FB7F894109264
:103E1000C4231092C0231092C2238FBF84E62B2D9F
:103E2000289FC001112480509E4F7C0100E010E0CB
:103E3000C601B801A7010E944344009709F076C06B
:103E4000F60126813781408551852E153F054007B3
:103E5000510709F06BC02B2D30E0809149209091E3
:103E60004A2001972817390739F40091E623109169
:103E7000E7230115110511F404E610E0C601BE01A7
:103E80006D5F7F4FA8019E012F5F3F4F0E94F5425B
:103E9000009729F429813A8120173107A1F000D039
:103EA0000F9221E133E0EDB7FEB7218332838383A4
:103EB00094830E947C4B0F900F900F900F9089EE8F
:103EC00092E00E943A4BFE01339620E030E044E657
:103ED00027C05FB7F894A091C223B0E0AA0FBB1F20
:103EE000A452B94D918088248081B401680F711D5E
:103EF0006D937C9311978091C2238F5F8093C2232F
:103F00008091C223642F0E94544C9093C2238091CD
:103F1000C4238F5F8093C4235FBF2E5F3F4F3296D1
:103F200089819A8128173907A0F217C000D00F9213
:103F30002AED32E0EDB7FEB7218332838383948389
:103F40000E947C4B0F900F900F900F9082EB92E0AD
:103F500002C08BE992E00E943A4BCA59DF4FCDBFB5
:103F6000DEBFCF91DF911F910F91FF90EF90DF9017
:103F7000CF90BF909F908F900895AFE0B2E0E3ECB8
:103F8000FFE10C94D14CF62E8E010D5F1F4F00D037
:103F900000D0EDB7FEB73196ADB7BEB711960D9311
:103FA0001C9312972AE130E22283338364831582C3
:103FB000C15FDD4F8883CF50D2400E94444FEDB7A0
:103FC000FEB73696EDBFFEBFC15FDD4F4881CF50D3
:103FD000D240413021F0423009F0C1C1DCC084EA56
:103FE00097E20E943544809134208823A1F400D0C8
:103FF0000F9281E595E0ADB7BEB711968D939C9376
:10400000129713960D931C9314970E947C4B0F905C
:104010000F900F900F9084EA97E2B80141E00E9460
:10402000573E009709F0B4C084EA97E2BE01615F91
:104030007F4F40E052E09E012F5F3F4F0E94F542CC
:10404000009709F0A2C089819A81B2E080309B0775
:1040500009F09BC08F8580933D20888980933E2006
:10406000898980933F208A89809340202091E4238E
:104070003091E52360913D2070913E2080913F205A
:10408000909140202115310539F424E630E040E0DC
:1040900050E00E94874C08C024E630E040E050E049
:1040A0000E94874C2F5F3F4F20934720309348203A
:1040B00084EA97E261E040E00E94131EF092E82358
:1040C0001092E92310924B201092B7238FB7F894E7
:1040D0001092BE238FBF80913420882309F043C102
:1040E00000D00F92EDB7FEB7319680E395E0ADB703
:1040F000BEB711968D939C931297F28213820E9401
:104100007C4B0F920F928AE195E0EDB7FEB7818369
:10411000928380913D2090913E20A0913F20B091CC
:10412000402083839483A583B6830E947C4B609157
:104130003D2070913E2080913F209091402024E6C8
:1041400030E040E050E00E94874C6093E42370939D
:10415000E5230F900F90EDB7FEB731962DEF34E0C9
:10416000ADB7BEB711962D933C93129762837383BC
:104170000E947C4B86EE94E0EDB7FEB7818392837C
:104180008091472090914820DBC08CEB94E0E9C0FF
:1041900082E994E0E6C08EEB97E20E94354480917C
:1041A00034208823A1F400D00F9285E894E0ADB7C5
:1041B000BEB711968D939C93129713960D931C93F3
:1041C00014970E947C4B0F900F900F900F908EEBE6
:1041D00097E2B80141E00E94573E009709F0BCC049
:1041E0008EEB97E2BE01615F7F4F40E052E09E019F
:1041F0002F5F3F4F0E94F542009709F0AAC08981C6
:104200009A81B2E080309B0709F0A3C08F8580932C
:1042100041208889809342208989809343208A891C
:10422000809344202091E6233091E7236091412040
:1042300070914220809143209091442021153105B6
:1042400039F424E630E040E050E00E94874C08C09A
:1042500024E630E040E050E00E94874C2F5F3F4F63
:104260002093492030934A208EEB97E261E040E0B2
:104270000E94E81EF092EA231092EB2310924C2049
:104280001092B7238FB7F8941092BE238FBF8091FE
:104290003420882309F067C000D00F92EDB7FEB735
:1042A000319685E694E0ADB7BEB711968D939C9399
:1042B0001297F28213820E947C4B0F920F928FE42E
:1042C00094E0EDB7FEB78183928380914120909175
:1042D0004220A0914320B091442083839483A583FE
:1042E000B6830E947C4B6091412070914220809166
:1042F00043209091442024E630E040E050E00E94CA
:10430000874C6093E6237093E7230F900F90EDB7EF
:10431000FEB7319622E334E0ADB7BEB711962D93C8
:104320003C931297628373830E947C4B8BE194E0F1
:10433000EDB7FEB7818392838091492090914A2006
:10434000838394830E947C4B0F900F900F900F906B
:104350000AC081EF93E005C087EC93E002C084EAD5
:1043600093E00E943A4BC15FDD4FE5E00C94EA4CCC
:10437000AFE0B2E0EEEBF1E20C94D14CF62E8E0100
:104380000D5F1F4F00D000D0EDB7FEB73196ADB72F
:10439000BEB711960D931C93129727E230E2228349
:1043A000338364831582C15FDD4F8883CF50D24051
:1043B0000E94444FEDB7FEB73696EDBFFEBFC15F1A
:1043C000DD4F4881CF50D240413021F0423009F0DA
:1043D00095C1C6C084EA97E20E943544809134209A
:1043E0008823A1F400D00F9284E197E0ADB7BEB767
:1043F00011968D939C93129713960D931C9314977B
:104400000E947C4B0F900F900F900F9084EA97E2E0
:10441000B80141E00E94573E009709F09EC084EA2F
:1044200097E2BE01615F7F4F40E052E09E012F5F47
:104430003F4F0E94F542009709F08CC089819A8114
:10444000B2E080309B0709F085C08F8580933D20C6
:10445000888980933E20898980933F208A89809330
:10446000402060913D2070913E2080913F209091AE
:10447000402024E630E040E050E00E94874CFB0101
:104480006093E4237093E523309711F02F5F3F4F43
:10449000209347203093482084EA97E261E040E08F
:1044A0000E94131EF092E8231092E92310924B20F1
:1044B0001092B7238FB7F8941092BE238FBF8091CC
:1044C0003420882309F01EC100D00F92EDB7FEB74B
:1044D000319684EF96E0ADB7BEB711968D939C935D
:1044E0001297F28213820E947C4B0F920F928EEDF4
:1044F00096E0EDB7FEB78183928380913D20909145
:104500003E20A0913F20B091402083839483A583D7
:10451000B6830E947C4B0F900F9081EC96E0ADB774
:10452000BEB711968D939C9312978091E42390913E
:10453000E52313968D939C9314970E947C4B8AEAF3
:1045400096E0EDB7FEB781839283809147209091EA
:104550004820C5C081E896E0D3C087E596E0D0C08A
:104560008EEB97E20E943544809134208823A1F499
:1045700000D00F928AE496E0ADB7BEB711968D9346
:104580009C93129713960D931C9314970E947C4B47
:104590000F900F900F900F908EEB97E2B80141E0D3
:1045A0000E94573E009709F0A6C08EEB97E2BE012D
:1045B000615F7F4F40E052E09E012F5F3F4F0E94BE
:1045C000F542009709F094C089819A81B2E0803069
:1045D0009B0709F08DC08F85809341208889809347
:1045E00042208989809343208A8980934420609166
:1045F000412070914220809143209091442024E6F4
:1046000030E040E050E00E94874CFB016093E623DD
:104610007093E723309711F02F5F3F4F209349208D
:1046200030934A208EEB97E261E040E00E94E81E62
:10463000F092EA231092EB2310924C201092B723B1
:104640008FB7F8941092BE238FBF809134208823B7
:1046500009F058C000D00F92EDB7FEB731968AE24C
:1046600096E0ADB7BEB711968D939C931297F282E8
:1046700013820E947C4B0F920F9284E196E0EDB77B
:10468000FEB7818392838091412090914220A09136
:104690004320B091442083839483A583B6830E94F2
:1046A0007C4B0F900F9086EF95E0ADB7BEB711969B
:1046B0008D939C9312978091E6239091E723139614
:1046C0008D939C9314970E947C4B8FED95E0EDB7F2
:1046D000FEB7818392838091492090914A20838301
:1046E00094830E947C4B0F900F900F900F900AC004
:1046F00085EB95E005C08BE895E002C08EE595E07E
:104700000E943A4BC15FDD4FE5E00C94EA4CA2E019
:10471000B0E0EDE8F3E20C94CE4C8C01DC018C911E
:10472000853209F4C3C0863250F4853109F4A6C03D
:10473000803209F4ADC0803109F038C193C08533AF
:1047400009F400C1863320F4803309F02FC1CCC0B6
:10475000823609F425C18F3F09F028C1F801C180D4
:1047600080910E288823E1F781E098E26C2D4BE9D7
:1047700050E222E00E94FE3A809160288823E1F70F
:1047800083E598E26C2D4BE950E222E00E94FE3A6C
:1047900080911D288823E1F780E198E26C2D4BE998
:1047A00050E222E00E94FE3A8091FF278823E1F741
:1047B00082EF97E26C2D4BE950E222E00E94FE3A34
:1047C0008FEF97EDA6ED81509040A040E1F700C03B
:1047D00000008FEF8983D80112968C9112978A83FB
:1047E00080910E288823E1F781E098E26C2DAE01DC
:1047F0004F5F5F4F22E00E94FE3A8091602888233D
:10480000E1F783E598E26C2DAE014F5F5F4F22E048
:104810000E94FE3A80911D288823E1F780E198E20A
:104820006C2DAE014F5F5F4F22E00E94FE3A8091F7
:10483000FF278823E1F782EF97E26C2DAE014F5FEF
:104840005F4F22E00E94FE3A8FEF91EEA4E081508C
:104850009040A040E1F700C0000080E062E04BE93A
:1048600050E2A8C0D80111968C9111978093CA2369
:1048700012968C9112978093CB239EC0F80162818F
:10488000662351F0D80111968C910E94B82194C0F2
:10489000F8016281662321F481810E94981D8CC0F9
:1048A000D80111968C910E94BD1F86C0F80192819B
:1048B00080E021818C01020F111D980140E050E041
:1048C00062E17AE780E090E00E94A94C20934D20BD
:1048D00030934E2080913420882309F06DC000D0A1
:1048E0000F9286E89BE01DC0F801928180E0218153
:1048F0008C01020F111D980140E050E062E17AE75F
:1049000080E090E00E94A94C20934F2030935020EB
:1049100080913420882309F04FC000D00F9283E6A5
:104920009BE0ADB7BEB711968D939C9312971396EB
:104930000D931C9314970E947C4B0F900F900F9037
:104940000F903AC0F801618170E080E090E02FEFB5
:104950003FE140E050E00E94354CEAE0CE2ED12C01
:10496000E12CF12CA70196010E94874C2093352061
:1049700030933620D80112966C91129770E080E047
:1049800090E02FEF3FE140E050E00E94354CA7015E
:1049900096010E94874C20933720309338200CC01A
:1049A000F801818162810E94622C06C080E068E08B
:1049B00043E750E20E9456162296E8E00C94E74C3A
:1049C0002F923F924F925F927F928F929F92AF92DF
:1049D000BF92CF92DF92EF92FF920F931F93DF93DC
:1049E000CF93CDB7DEB7E497CDBFDEBF8091342043
:1049F000882391F400D00F928EE892E0EDB7FEB7D5
:104A00008183928383E590E2838394830E947C4B2D
:104A10000F900F900F900F9082EC96E263E570E29A
:104A200041E00E94573E009709F0B2C07090CC263A
:104A30007091CD268091CE269091CF26672D22E3CE
:104A400030E040E050E00E94874C19012A0111E05B
:104A5000F3E0AF2EB12CAC0EBD1E4E010894811CAC
:104A6000911C3DC02150304082E390E0289F6001BE
:104A7000299FD00C389FD00C1124EE24D7FCE09451
:104A8000FE2C82EC96E2B701A6010E9443440097F7
:104A900009F58091C8269091C926A091CA26B091A7
:104AA000CB268C159D05AE05BF05A1F482EC96E2E0
:104AB000B50142E350E094010E94F542009771F481
:104AC00089819A818233910549F4C50162E30E948C
:104AD000CD3804C080E792E00E943A4B1F5F812FDF
:104AE00090E0A0E0B0E0212F30E0281639064A0619
:104AF0005B0608F0B7CF2150304082E390E0289F5A
:104B00007001299FF00C389FF00C11240027F7FC4E
:104B10000095102F82EC96E2B801A7010E94434451
:104B2000009769F58091C8269091C926A091CA2660
:104B3000B091CB268E159F05A007B10701F582E342
:104B4000829D202C1124C72CC218EC2CFF248E012E
:104B50000D5F1F4F82EC96E2B801A7019E012F5F07
:104B60003F4F0E94F542009771F489819A818E151A
:104B70009F0549F4C8016C2D0E94CD3804C08FE414
:104B800092E00E943A4B82EC96E20E94354404C0C7
:104B900082E392E00E943A4BE496CDBFDEBFCF9114
:104BA000DF911F910F91FF90EF90DF90CF90BF901A
:104BB000AF909F908F907F905F904F903F902F90FD
:104BC0000895A3E0B0E0E7EEF5E20C94C84CDC01F8
:104BD0008C91833409F419C1843408F05BC08032AD
:104BE00009F4B6C0813258F5843109F492C1853197
:104BF00098F4813109F47FC1823138F4882309F4B3
:104C0000EBC0803109F089C272C1823109F47AC1E6
:104C1000833109F082C27AC1873109F4A1C1883198
:104C200038F4853109F478C1863109F076C27FC144
:104C3000883109F499C1893109F06FC298C186326F
:104C400009F40AC2873298F4833209F4E6C1843247
:104C500038F4813209F4CDC1823209F05EC2D3C189
:104C6000843209F4E9C1853209F057C274C0803436
:104C700009F4BCC0813438F4803309F480C0853332
:104C800009F04BC294C0813409F4B5C0823409F0F4
:104C900044C2B6C0843909F4EEC0853958F580366F
:104CA00009F4CFC0813698F4863409F4BDC0873446
:104CB00038F4843409F4AEC0853409F02EC2AFC094
:104CC000873409F4B6C0803509F027C2B7C08139EE
:104CD00009F4C2C0823938F4803709F4B5C080398C
:104CE00009F01BC2B4C0823909F4BBC0833909F092
:104CF00014C2BCC08A3909F4DCC08B3998F48739F6
:104D000009F4C8C0883938F4853909F4B9C086393E
:104D100009F003C2BAC0883909F4C1C0893909F061
:104D2000FCC1C2C08D3909F4D3C08E3938F48B3937
:104D300009F4C4C08C3909F0F0C1C5C08F3909F439
:104D4000D1C08F3908F4C9C08F3F09F0E6C149C00E
:104D50000E941810E8C10E941810609151207091B3
:104D6000522082E19AE70E94604CAB0160E070E063
:104D700081E29BE020E001E00E94113AD4C10E9450
:104D8000631080914B20882331F484EA97E261E03C
:104D900040E00E94131E80914C20882309F0C3C17B
:104DA0008EEB97E261E040E00E94E81EBCC10E94E9
:104DB0006310609151207091522082E19AE70E9425
:104DC000604CAB0160E070E081E29BE020E000E03D
:104DD0000E94113A82E092C080E068E044E154E22F
:104DE000A0C180E068E04FE950E29BC180E068E14B
:104DF00047EA50E296C180E068E14FEB50E291C192
:104E000080E068E147ED50E28CC180E068E14FEE60
:104E100050E287C180E068E147E051E282C180E072
:104E200068E14FE151E27DC180E068E147E351E292
:104E300078C180E068E14FE451E273C10E94472DE0
:104E400072C10E941E2F6FC10E94CE196CC180E0FA
:104E500060E247E651E265C180E060E247E851E286
:104E600060C180E060E247EA51E25BC180E060E25D
:104E700047EC51E256C180E060E247EE51E251C199
:104E800080E060E247E052E24CC180E060E247E24D
:104E900052E247C180E060E247E452E242C180E072
:104EA00060E247E652E23DC180E060E247E852E25C
:104EB00038C180E060E247EA52E233C180E060E25C
:104EC00047EC52E22EC180E060E247EE52E229C197
:104ED00080E060E247E053E224C180E060E247E224
:104EE00053E21FC180E060E247E453E21AC181E06F
:104EF0008093B02318C11092B02380E060E00E943C
:104F0000782E11C181E08093B2230DC11092B2239B
:104F10000AC10E94E02407C100D00F928CEB9CE0F4
:104F2000EDB7FEB78183928387E693E2EDC008EF89
:104F300014E291E08EEFA82E7E010894E11CF11C92
:104F4000A982D8018D918D018A83892F62E0A70102
:104F50009B830E9456169B819F5F913889F7E3C01F
:104F600081E080933420DFC010923420DCC0EDB7A4
:104F7000FEB77297EDBFFEBF31968AE99CE0ADB7F0
:104F8000BEB711968D939C9312978091EC239091CC
:104F9000ED23828393838091F0239091F123848386
:104FA00095838091C6239091C723868397838091B0
:104FB000CA23808711868091EE239091EF23828708
:104FC00093878091F2239091F32384879587809132
:104FD000C8239091C923868797878091CB23808BA4
:104FE000118A0E947C4BEDB7FEB77296EDBFFEBFF3
:104FF0009AC080E090E06FEF0E9488510F920F926C
:1050000088E69CE012C080E090E060E00E94885159
:105010000F920F9286E39CE016C088E0E0E2F7E092
:1050200082870F920F928BE09CE0ADB7BEB71196CE
:105030008D939C9312970BC0E0E2F7E012860F92DB
:105040000F9285EE9BE0EDB7FEB7818392830E94BD
:105050007C4B0F900F9067C0B4E66B2EAA24BB2444
:105060006501EE24FF24870182E00E94A42EA0E0C7
:10507000B0E0E80EF91E0A1F1B1F83E00E94A42E59
:10508000A0E0B0E0A80EB91ECA1EDB1E8FE39CE9AB
:105090000197F1F700C000006A9431F7A4E66A2E88
:1050A000712C812C912CC801B701A40193010E949D
:1050B000874C79018A012093352030933620C60130
:1050C000B501A40193010E94874C209337203093AF
:1050D000382000D00F92EDB7FEB7319680ED9BE0FF
:1050E000ADB7BEB711968D939C931297E282F3826F
:1050F0000E947C4B8BEB9BE0EDB7FEB781839283E4
:105100008091372090913820838394830E947C4B38
:105110000F900F900F900F9006C080E068E043E67C
:1051200050E20E9456162396EEE00C94E14CA1E367
:10513000B8E0EDE9F8E20C94C64C80E090E00E9403
:105140007851E82E81E098E26E2D0E94623A83E564
:1051500098E26E2D0E94623A80E198E26E2D0E94E4
:10516000623A82EF97E26E2D0E94623A81E098E205
:1051700060E874E040E450E023E20E94973A83E55F
:1051800098E260E974E040E450E023E20E94973A3C
:1051900080E198E260EA74E040E450E023E20E949B
:1051A000973A82EF97E260EB74E040E450E023E24C
:1051B0000E94973A8E2D0E94CA370E948E2D8FE34F
:1051C00098E38093782490937924ECEDF6E2AAEFAB
:1051D000B5E28AE090E0819391938D939D9327E2CD
:1051E000E43AF207C1F7EAE7F4E280E090E04FEF3B
:1051F0008330910530F09C0126503040233031053A
:1052000010F4408301C01082019631968D379105CC
:1052100079F72FB7F8941092BA231092BB2380919C
:10522000BA239091BB238093B8239093B9238091A4
:10523000B8239091B9238093C8239093C923809376
:10524000C6239093C7232FBF1092F2231092F3230B
:105250001092F0231092F1231092EE231092EF237C
:105260001092EC231092ED231092CB231092CA23BC
:105270001092B1231092B22381E090E00E94785105
:105280008F3FC9F420E044E012C0822F90E0322F1B
:105290003370FC01E950FB4D3083222319F0332396
:1052A00009F4408388589A4DDC012C932F5F2138F4
:1052B00060F3298317C0198211C00C2D10E0C801BA
:1052C0008F5F9F4F0E947851F801E950FB4D80831A
:1052D000F801E858FA4DC082C394C982C980BC2D38
:1052E000B13858F38CE29EE00E943A4B81E061E0D5
:1052F0000E94132D01E03CC080E00E945247082F1D
:1053000081FF0DC08DE19EE00E943A4B0E946B38F8
:1053100004C080E00E945247082F01FDFACF02FF2F
:1053200004C080E09EE00E943A4B198212C080E0E7
:105330000E949846082F80FF0FC089818F5F898364
:105340008FEF91EEA4E081509040A040E1F700C0C3
:1053500000008981843058F300FF0AC086EE9DE08A
:105360000E943A4B80E00E945247082F81FFFACFFB
:1053700000FDC2CF8EEC9DE00E943A4B80E06AE0D7
:10538000AE014F5F5F4F0E94AF47009759F582EC27
:105390009DE00E943A4B89818430A1F0853028F449
:1053A000813051F08230D1F40AC0883089F08C30DD
:1053B00091F0863099F409C08DEB9DE011C089EB26
:1053C0009DE00EC084EB9DE00BC08FEA9DE008C01D
:1053D0008AEA9DE005C084EA9DE002C08FE99DE075
:1053E0000E943A4B86E89DE00E943A4B80E0BE0165
:1053F0006E5F7F4F0E943E3E813051F0813028F039
:10540000823049F0833069F409C08CE79DE00BC01D
:1054100083E79DE008C080E69DE005C083E59DE050
:1054200002C08EE49DE00E943A4B80E068E044E1D7
:1054300054E20E94561681E060E00E94132D0E9403
:10544000472D9E2D9F3F09F0E3C080E29DE00E9422
:105450003A4B47EC942E37EC832E27EEE22E23E0D6
:10546000F22E8E010C5D1D4F99E0692E9DE0792E84
:1054700001C07601CFB6F8940E940C38009709F469
:105480005CC0C8010E9472388430910551F18530AA
:10549000910550F482309105E1F083309105E8F4F4
:1054A0008130910591F511C08730910511F1883057
:1054B000910520F48530910541F517C08E33910593
:1054C000E1F08F33910509F51CC0C8010E94E12568
:1054D00034C0C8010E944D1D30C0C8010E948723FE
:1054E0002CC0C8010E942B1D28C0C8010E944F1C5F
:1054F00024C0C8010E949A1020C0C8010E94F21066
:105500001CC0C8010E94FE1018C000D00F92ADB799
:10551000BEB711966D927C92129713968D939C93C1
:1055200014970E947C4B0F900F900F900F9080E08B
:1055300068E043E950E20E945616CFBE8091B7233F
:10554000882309F497CF8FB7F894C090BC23D090EC
:10555000BD23A090BF23B090C0235090C3234090A0
:10556000C4238FBFCE14DF0481F08FB7F89460910D
:10557000B8237091B9234091BA235091BB238FBFB8
:1055800088ED97E20E94AA1605C08FB7F894109292
:10559000BE238FBF80914B208823C9F4B52DBA312B
:1055A000B0F4A814A1F084EA97E260E040914520AD
:1055B0000E94131E8091452090E001966091472043
:1055C000709148200E94604C809345208A2C8091E5
:1055D0004C20882309F04DCFE42DEA3108F049CF63
:1055E000B91409F446CF8EEB97E260E04091462073
:1055F0000E94E81E8091462090E00196609149202B
:1056000070914A200E94604C809346209B2C31CFA1
:105610008BED9CE00E943A4B8E010C5D1D4F0E9469
:105620000C380097E1F3C8010E947238813091056F
:1056300021F08233910549F404C0C8010E94E1259C
:10564000EECFC8010E94A51BEACF80E068E04BE9DD
:1056500050E20E945616E3CF40E050E024EA30E1E9
:1056600008C0F9012F5F3F4FE491EE23D1F74F5F60
:105670005F4F4817590721F0F9016491662389F7B4
:1056800000D00F9280EA90E1EDB7FEB7818392835C
:10569000238334830E947C4B0F900F900F900F90C8
:1056A0000895AEE0B0E0E7E5FBE20C94C44C6C0179
:1056B0008B01DB010D900020E9F77D010894E108E2
:1056C000F108E61AF70AB3E0EB16F1040CF4DCC0BB
:1056D000FB0181818B8382818C831D8293E0892EE3
:1056E000912C8C0E9D1EC4012E010894411C511C4E
:1056F000B20140E150E00E942E4ED6016C93E98148
:10570000FA81E815F90509F4BFC08081882309F002
:10571000BBC0B7E0EB16F1040CF4B6C0F80183810E
:105720008B8384818C8385818D8386818E831F8288
:10573000C401B20140E150E00E942E4ED601119604
:105740006D937C931297E981FA81E815F90509F4C4
:105750009BC08081882309F097C0B9E0EB16F10463
:105760000CF492C0F80187818B8380858C831D8225
:10577000C401B20140E150E00E942E4ED6011396C2
:105780006C931397E981FA81E815F90509F47CC057
:105790008081882309F078C011969C911197129608
:1057A0008C911297BC90B90EB80EB60E3801F60166
:1057B0003496ED87FE8789E0282E312C1B861C86C7
:1057C000A42C452C2EC08E159F050CF05DC0D30176
:1057D00019968C9119978B831A968C918C831D82C4
:1057E000C4016A2D742D40E150E00E942E4EED85DB
:1057F000FE856193ED87FE87E981FA81E815F90559
:1058000009F442C042E050E0640E751E8081882396
:10581000D9F5240E351EB60E8B859C8501968B8797
:105820009C87D6012C9130E0C1010196EB85FC8567
:10583000E217F30744F28E159F0534F5F801E20DE7
:10584000F31D20812B83080F191FD8018C918C83A5
:105850001D828E010D5F1F4FC801BE016F5F7F4F1C
:1058600040E150E00E942E4EF601EC5FFE4F608357
:10587000E981FA81E017F10739F08081882321F46A
:10588000B1942B2D30E002C02FEF3FEFC9012E96CF
:10589000E2E10C94DD4C20E1E0E4F6E02683E0EC6C
:1058A000F8E093839091C20897FFFCCFE0ECF8E01A
:1058B00083838091C20887FFFCCF80E1E0E4F6E0BB
:1058C00085830895CF93DF93A1E0B0E0843010F496
:1058D000A0E0B0E0FD01EE0FFF1FE45EFB4DC081D4
:1058E000D181843018F044E050E002C040E050E044
:1058F000E5E0F0E0E81BF1094E0F5F1F440F551F74
:105900004F5F5F4F23E030E002C0220F331F4A9504
:10591000E2F7209530952C233D2370E0843018F079
:1059200084E090E002C080E090E08E0F9F1F880F1F
:10593000991F0196AB0102C0440F551F8A95E2F7EB
:10594000CA01822B932BFD01EE0FFF1FE45EFB4D7E
:105950008083918328E52093C0080E944B2CDF911F
:10596000CF910895A2E0B0E0E8EBFCE20C94D44CB7
:1059700080E1E0E4F6E08683E0ECF8E013828091D9
:10598000C20887FFFCCFFE0131968091C308818356
:10599000A0ECB8E013961C9213978091C20887FF81
:1059A000FCCF8091C308808380E1E0E4F6E085834A
:1059B00089819A812296E2E00C94ED4C0F93DF935B
:1059C000CF930F92CDB7DEB72FB72983F8941BBEC4
:1059D000FC0108ED04BF608389818FBF0F90CF91D8
:1059E000DF910F9108958F7080FF02C090E801C091
:1059F00090E0892B81FF02C090E401C090E0892BE8
:105A000082FF02C090E201C090E0892B83FF02C0B8
:105A100090E101C090E0892B807FE0E0F7E0868391
:105A200080958583089590E09C012C7F2115310598
:105A3000D9F4262F2E7FC1F40496613059F421E069
:105A400030E002C0220F331F8A95E2F7E0E0F7E072
:105A50002683089521E030E002C0220F331F8A958B
:105A6000E2F7E0E0F7E02583089590E09C012C7FC9
:105A70002115310559F4049621E030E002C0220FCF
:105A8000331F8A95E2F7E0E0F7E027830895CF938C
:105A9000DF93CAE0D0E081E00E94352D8FEF9DE2D8
:105AA000A2E281509040A040E1F700C000002197A1
:105AB00091F7DF91CF910895282F30E0F901EC7F25
:105AC000309759F56623A1F42C5F3F4F41E050E039
:105AD000BA0102C0660F771F2A95E2F7E0E2F7E00D
