:100000000C94E0070C9406080C9406080C9406085F
:100010000C9406080C9406080C9406080C94060828
:100020000C9406080C9406080C9406080C94060818
:100030000C9406080C9414200C9406080C940608E2
:100040000C9406080C9406080C9406080C940608F8
:100050000C9406080C9406080C9406080C940608E8
:100060000C9406080C94892D0C94D92D0C94060838
:100070000C9406080C9406080C9406080C940608C8
:100080000C9406080C9406080C9406080C940608B8
:100090000C9406080C9406080C9406080C940608A8
:1000A0000C9406080C9406080C9406080C94060898
:1000B0000C9406080C9406080C94AA1F0C944E2E5F
:1000C0000C9406080C9406080C9406080C94060878
:1000D0000C9406080C9449530C9406080C940608DA
:1000E0000C9406080C9406080C9406080C94060858
:1000F0000C9406080C9406080C9406080C94060848
:100100000C9406080C9406080C9406080C94060837
:100110000C9406080C9406080C9406080C94060827
:100120000C9406080C9406080C9406080C94060817
:100130000C94DF1F0C9406080C9406080C94060817
:100140000C9406080C9406080C9406080C940608F7
:100150000C9406080C9406080C9406080C940608E7
:100160000C9406080C9406080C9406080C940608D7
:100170000C9406080C9406080C9406080C940608C7
:100180000C9406080C9406080C9406080C940608B7
:100190000C9406080C9406080C9406080C940608A7
:1001A0000C9406080C9406080C9406080C94751F11
:1001B0000C947F540C9406080C9406080C940608C2
:1001C0000C9406080C9406080C9406080C94060877
:1001D0000C9406080C9406080C9406080C94060867
:1001E0000C9406080C9406080C9406080C94060857
:1001F0000C940608B71ABC1AC11AC51AC91ACD1A26
:10020000D61ADA1ADE1AAD51B9511A522052AA5131
:10021000AA51AA51AA51AA51AA51BB52C052C252C4
:10022000D052EF524572726F7220665F6F70656ECA
:1002300020696E205344496E666F2E6D61742E0ADC
:10024000004572726F7220665F6C7365656B206922
:100250006E2072656D61696E656420646174612EE3
:100260000A004572726F7220665F6C7365656B2061
:10027000696E205344496E666F2E6D61742E0A00BC
:100280004572726F7220696E20665F6C7365656B74
:1002900020696E207570646174655F66756E634376
:1002A0006E745F79206C6F6164206E657874206273
:1002B00075666665720A00726573203D202025759B
:1002C0000A004572726F7220696E20665F72656106
:1002D0006420696E207570646174655F66756E6315
:1002E000436E745F790A00726573203D2020257586
:1002F0000A004572726F7220696E20665F6C7365CA
:10030000656B20696E207570646174655F66756EDB
:1003100063436E745F780A00726573203D20202568
:10032000750A004572726F7220696E20665F726591
:10033000616420696E20696E207570646174655F08
:1003400066756E63436E745F780A00726573203D54
:10035000202025750A004572726F7220696E7075D3
:100360007420666F722066756E6374696F6E2063A9
:1003700068616E6E656C2E0A004572726F7220663F
:100380005F6F70656E20696E207365745F76656C53
:100390005F66756E6320592E0A004572726F722077
:1003A000665F7265616420696E207365745F76654F
:1003B0006C5F66756E6320592E0A0053657474690C
:1003C0006E672076656C6F636974792066756E63FD
:1003D00074696F6E20257520666F7220590A00457A
:1003E00072726F7220665F6F70656E20696E207327
:1003F00065745F76656C5F66756E6320582E0A00C3
:100400004572726F7220665F7265616420696E204A
:100410007365745F76656C5F66756E6320582E0A2F
:100420000053657474696E672076656C6F636974D8
:10043000792066756E6374696F6E2020257520665D
:100440006F7220580A004572726F7220696E707563
:100450007420666F722066756E6374696F6E2063B8
:1004600068616E6E656C2E0A004572726F7220664E
:100470005F6F70656E20696E207365745F706F7357
:100480005F66756E6320592E0A004572726F722086
:10049000665F72656164207365745F706F735F6619
:1004A000756E6320592E0A0053657474696E672057
:1004B000706F736974696F6E2066756E6374696FAF
:1004C0006E20257520666F7220590A004572726F82
:1004D0007220665F6F70656E20696E207365745F51
:1004E000706F735F66756E6320582E0A00457272D6
:1004F0006F7220665F72656164207365745F706FF0
:10050000735F66756E6320580A0053657474696E74
:100510006720706F736974696F6E2066756E63749F
:10052000696F6E20257520666F7220580A00577219
:100530006F6E672066756E6374696F6E20636861A5
:100540006E6E656C206E756D6265722E0A00536565
:100550007474696E672064656661756C7420667575
:100560006E6374696F6E20666F7220592E0A005395
:10057000657474696E672064656661756C74206665
:10058000756E6374696F6E20666F7220582E0A0054
:100590002062656E63685F74696D65203D20256C1F
:1005A00075206D732C206672616D655F7261746574
:1005B000203D2025750A0043616E6E6F74206669C8
:1005C0006E6420746865206861726477617265206A
:1005D000636F6E6669672066696C65206F6E207454
:1005E000686520534420636172642E0A005375636A
:1005F0006365737366756C6C7920726561642074D1
:10060000686520686172647761726520636F6E66E9
:1006100069672066696C650A004572726F72206FA7
:1006200070656E696E67207061747465726E2066A5
:10063000696C650A004572726F7220726561646947
:100640006E6720696E207061747465726E206669D1
:100650006C650A002020785F6E756D203D20257541
:100660000A2020795F6E756D203D2025750A2020B7
:100670006E756D5F70616E656C73203D2025750A27
:10068000202067735F76616C7565203D2025750AB3
:1006900020726F775F636F6D7072657373696F6ED1
:1006A000203D2025750A0053657474696E672070BB
:1006B00061747465726E2025753A0A0052455320A4
:1006C0003D2025752C20665F6E756D3D2025752CAF
:1006D000206F6666736574203D20256C750A0045A1
:1006E00072726F7220696E20665F6C7365656B2035
:1006F000696E2066657463685F646973706C6179A4
:100700005F6672616D65210A00524553203D2025C8
:10071000752C20665F6E756D3D2025752C20636EEF
:10072000743D2025750A004572726F7220696E2033
:10073000665F7265616420696E2066657463685FD8
:10074000646973706C61795F6672616D65210A001E
:1007500053756363657373207365742074686520D3
:100760006E6577206C617365722070617474657258
:100770006E2E0A007365745F706F736974696F6EB3
:100780003A20696E6465785F783D2025752C2020BD
:10079000696E6465785F793D2025752C20616E64F3
:1007A000206672616D655F6E756D3D2025750A006E
:1007B00066756E6374696F6E20592075706461741C
:1007C00065206672657175656E6379203D202575BB
:1007D0002E0A0066756E6374696F6E2058207570FE
:1007E00064617465206672657175656E6379203D1C
:1007F0002025752E0A00526573657420636F6E7430
:10080000726F6C6C657220746F20776F726B2069E9
:100810006E207468652050432064756D70696E6742
:10082000206D6F6465210A00526573657420636FE3
:100830006E74726F6C6C657220746F20776F726B60
:1008400020696E2074686520636F6E74726F6C6CC3
:100850006572206D6F6465210A004144435F7661D3
:100860006C7565203D202025643A0A00437572723C
:10087000656E742076657273696F6E206E756D6239
:1008800065722069732025732E0A006D657373618C
:1008900067655F6C656E677468203D2025750A008A
:1008A00043757272656E7420776F726B696E672024
:1008B0006D6F6465206973207468652050432064FF
:1008C000756D70696E67206D6F6465210A004375F0
:1008D0007272656E7420776F726B696E67206D6FD0
:1008E00064652069732074686520436F6E74726F4D
:1008F0006C6C6572206D6F6465210A003F3F3F0A92
:1009000000204E4F54205245414459210A0020579F
:10091000524954452050524F544543544544210AAE
:1009200000204552524F52210A0020464154204F88
:100930004B210A00496E697469616C697A696E6756
:1009400020464154204469736B2E2E2E003F3F3FBA
:100950000A00534448430A00424C4B0A00534443A4
:100960000A005344320A0053440A004D4D430A0022
:100970004361726420747970653A200053442063A7
:1009800061726420697320696E697469616C697A47
:1009900065640A00496E697469616C697A61746999
:1009A0006F6E206661696C65642121210A005344E1
:1009B00020636172642069732057726974652050E6
:1009C000726F746563746564210A00496E736572A1
:1009D000742053442063617264000A4D61696E2083
:1009E000436F6E74726F6C6C657220576F726B73AD
:1009F0000A0043616E6E6F742066696E64207468CD
:100A0000652070616E656C2025642E0A0042616469
:100A1000206578697420636D642C20726573756C31
:100A200074203D2025750A00646F6E2774206B6E5C
:100A30006F7720686F7720746F206465616C207712
:100A400069746820726563747970653D25642061FE
:100A500074206C696E65202564206F662065657062
:100A6000726F6D2E6865780A000A00766572696695
:100A700079206D69736D6174636820666F72207090
:100A80006167652025640A00766572696679206D64
:100A900069736D6174636820666F72207061676549
:100AA0002025640A00636865636B73756D3D30785B
:100AB000253032782C20636F6D7075746564206307
:100AC0006865636B73756D3D3078253032780A0048
:100AD0004552524F523A20636865636B73756D20BF
:100AE0006D69736D61746368206174206C696E65F3
:100AF000202564206F6620656570726F6D2E6865B5
:100B0000780A000A766572696679696E673A20002C
:100B10004572726F7220665F6C7365656B20696EDB
:100B200020656570726F6D2E6865782E0A00646F9F
:100B30006E2774206B6E6F7720686F7720746F203C
:100B40006465616C2077697468207265637479707C
:100B5000653D2564206174206C696E6520256420E4
:100B60006F6620656570726F6D2E6865782E0A005D
:100B7000636865636B73756D3D3078253032782C12
:100B800020636F6D707574656420636865636B7353
:100B9000756D3D3078253032780A004552524F52FB
:100BA0003A20636865636B73756D206D69736D6161
:100BB000746368206174206C696E65202564206F01
:100BC0006620656570726F6D2E6865782E0A000A62
:100BD00077726974696E673A202020004261642050
:100BE00070616E656C2072657365742C207265731C
:100BF000756C74203D2025750A00656570726F6DF7
:100C00002070616E656C2025752E0A004572726F2A
:100C10007220665F6F70656E20696E206565707208
:100C20006F6D2E6865782E0A0025530A004F4B0021
:100C30004449534B5F45525200494E545F4552520E
:100C4000004E4F545F5245414459004E4F5F464954
:100C50004C45004E4F5F5041544800494E56414C60
:100C600049445F4E414D450044454E494544004589
:100C70005849535400494E56414C49445F4F424AEB
:100C80004543540057524954455F50524F544543D1
:100C900054454400494E56414C49445F44524956DC
:100CA00045004E4F545F454E41424C4544004E4F27
:100CB0005F46494C455F53595354454D004D4B4693
:100CC000535F41424F525445440054494D454F559E
:100CD00054000043616E6E6F742066696E64207408
:100CE00068652070616E656C2025642E0A00426183
:100CF00064206578697420636D642C207265737557
:100D00006C74203D2025750A00646F6E2774206B7B
:100D10006E6F7720686F7720746F206465616C2038
:100D20007769746820726563747970653D25642005
:100D30006174206C696E65202564206F6620706187
:100D40006E656C2E6865780A000A007665726966C1
:100D500079206D69736D6174636820666F722070AD
:100D60006167652025640A00766572696679206D81
:100D700069736D6174636820666F72207061676566
:100D80002025640A00636865636B73756D3D307878
:100D9000253032782C20636F6D7075746564206324
:100DA0006865636B73756D3D3078253032780A0065
:100DB0004552524F523A20636865636B73756D20DC
:100DC0006D69736D61746368206174206C696E6510
:100DD000202564206F662070616E656C2E686578D2
:100DE0000A000A766572696679696E673A2000457D
:100DF00072726F7220665F6C7365656B20696E201E
:100E000070616E656C2E6865782E0A00646F6E27BF
:100E100074206B6E6F7720686F7720746F20646525
:100E2000616C207769746820726563747970653DC0
:100E30002564206174206C696E65202564206F66CE
:100E40002070616E656C2E6865780A006368656362
:100E50006B73756D3D3078253032782C20636F6D63
:100E6000707574656420636865636B73756D3D3080
:100E700078253032780A004552524F523A20636842
:100E800065636B73756D206D69736D617463682044
:100E90006174206C696E65202564206F6620706126
:100EA0006E656C2E6865782E0A000A77726974691F
:100EB0006E673A202020004261642070616E656C8C
:100EC0002072657365742C20726573756C74203D97
:100ED0002025750A00666C6173682070616E656C10
:100EE0002025752E0A004572726F7220665F6F7042
:100EF000656E20696E2070616E656C2E6865782E57
:100F00000A0042616420666C6173682072656164E6
:100F10002C20726573756C74203D2025750A0023A2
:100F20000042616420666C61736820726561642CA4
:100F300020726573756C74203D2025750A002300AE
:100F400042616420656570726F6D207772697465A7
:100F50002C20726573756C74203D2025750A002362
:100F60000042616420666C61736820726561642C64
:100F700020726573756C74203D2025750A0023006E
:100F800042616420666C61736820726561642C2024
:100F9000726573756C74203D2025750A002300422C
:100FA000616420666C6173682077726974652C20B7
:100FB000726573756C74203D2025750A002300004E
:100FC00011241FBECFEFDFE3DEBFCDBF00E00CBFBB
:100FD00018BE19BE1ABE1BBE14E2A0E0B0E2ECE0DF
:100FE000FAEB00E00BBF02C007900D92A03EB107E4
:100FF000D9F71BBE1BE2A0EEB4E201C01D92AD3FCB
:10100000B107E1F70E94541D0C94045D0C9400009C
:1010100080919B2790919C27019680939B2790938A
:101020009C2780919B2790919C2740910528509167
:1010300006288417950720F010929B2710929C2772
:10104000809150299091512920919B2730919C2784
:10105000BC01649FC001659F900D749F900D112489
:10106000820F931F8093E5249093E6248091E124DE
:10107000882329F08091E0248F5F8093E0240895F5
:1010800080915029909151290196809350299093F5
:10109000512920915029309151298091A625909174
:1010A000A7252817390720F01092502910925129AE
:1010B000209150293091512940919B2750919C2794
:1010C0008091052890910628BC01269FC001279F8A
:1010D000900D369F900D1124840F951F8093E52469
:1010E0009093E6248091E124882329F48091E024E0
:1010F0008F5F8093E024089580919B2790919C2797
:10110000892B29F4809105289091062804C08091AC
:101110009B2790919C27019780939B2790939C27D6
:10112000209150293091512940919B2750919C2723
:101130008091052890910628BC01269FC001279F19
:10114000900D369F900D1124840F951F8093E524F8
:101150009093E6248091E124882329F08091E02473
:101160008F5F8093E02408958091502990915129B8
:10117000892B29F48091A6259091A72504C0809100
:10118000502990915129019780935029909351298A
:10119000209150293091512940919B2750919C27B3
:1011A0008091052890910628BC01269FC001279FA9
:1011B000900D369F900D1124840F951F8093E52488
:1011C0009093E6248091E124882329F48091E024FF
:1011D0008F5F8093E02408951F93CF93DF93EC01FA
:1011E00040E050E011E08881FA01EA57F94DDF0153
:1011F00027E030E0682F70E0CB01022E02C0959509
:1012000087950A94E2F780FD02C0108201C01C930A
:1012100021503040319611968FEF2F3F380761F7FC
:101220002196485F5F4F40365105E9F68091F324DF
:10123000882321F480E597E00E942556DF91CF9125
:101240001F910895A4E3B0E0E8E2F9E00C94A457FC
:1012500085EE97E261EB70E241E00E94124C882338
:1012600009F0B5C08090EF277091F027682D80912C
:10127000F1279091F22722E330E040E050E00E9415
:10128000665779018A019924939422E3322E93E0E0
:10129000692E712C6C0E7D1E2E010894411C511C70
:1012A0003AC0939CC0011124C2975C01CC24B7FCC6
:1012B000C094DC2C85EE97E2B601A5010E94BC3BF0
:1012C000882301F58091EB279091EC27A091ED27E1
:1012D000B091EE278A159B05AC05BD0599F485EE06
:1012E00097E2B30142E350E092010E94294D882326
:1012F00089F489819A81C29769F4C30162E30E94EB
:101300006D2D08C08091F324882321F482E692E0B9
:101310000E9425569394892D90E0A0E0B0E0E81655
:10132000F9060A071B0708F0BCCF82E3989EC001AC
:101330001124C2975C01CC24B7FCC094DC2C85EE50
:1013400097E2B601A5010E94BC3B882399F58091E4
:10135000EB279091EC27A091ED27B091EE278A150D
:101360009B05AC05BD0531F5C801B70122E330E0AE
:1013700040E050E00E942057D82CD61A0D2D10E0E6
:1013800083E0E82EF12CEC0EFD1E85EE97E2B7010E
:10139000A8019E012F5F3F4F0E94294D882391F4A1
:1013A00089819A818017910769F4C7016D2D0E9488
:1013B0006D2D08C08091F324882321F481E492E00C
:1013C0000E94255685EE97E20E94564808C08091FB
:1013D000F324882321F484E292E00E942556E496C7
:1013E000E1E10C94C057ACECB0E0E9EFF9E00C940B
:1013F000AF578091F6249091F7242091E924309101
:10140000EA24892B09F404C12F5F3F4F2093E9247C
:101410003093EA244091EF245091F0246091F1241C
:101420007091F2244E5F5F4F6F4F7F4F4093EF24D8
:101430005093F0246093F1247093F2248091AF20B4
:101440009091B020969587952817390770F4809170
:10145000A9209091AA20A091AB20B091AC20481770
:1014600059076A077B0708F4DDC08091A920909195
:10147000AA20A091AB20B091AC20481759076A0769
:101480007B0778F01092EF241092F0241092F12450
:101490001092F2241092E9241092EA2440E052E0E3
:1014A00006C040505E4F1092E9241092EA247A015F
:1014B00000E010E088EE96E2B801A7010E94BC3B74
:1014C000282F882309F086C08091EE269091EF2680
:1014D000A091F026B091F1268E159F05A007B107C7
:1014E00009F078C0E090A920F090AA200091AB20EC
:1014F0001091AC202091EF243091F0244091F12400
:101500005091F224D801C701821B930BA40BB50B99
:10151000883C9105A105B10518F088EC90E003C066
:10152000C701821B930B8093AF209093B0208E0154
:101530000B5F1F4F4091AF205091B02088EE96E294
:10154000B8019E012F5F3F4F0E94294D482F8823ED
:1015500021F529813A818091AF209091B020281700
:101560003907D9F4F8016BEA75E22E7F200F311F9D
:10157000AE014D5F5F4F0DC08081DA018C93818198
:1015800011968C938B819C81DB018D939D93BD0182
:101590003296E217F30781F745C08091F324882340
:1015A00009F040C000D00F92EDB7FEB7319687EE3C
:1015B00092E0ADB7BEB711968D939C93129742837C
:1015C00013820E9467560F900F900F900F9082EC3D
:1015D00092E01BC08091F324882321F500D00F9264
:1015E000EDB7FEB7319687EB92E0ADB7BEB7119677
:1015F0008D939C931297228313820E9467560F90BB
:101600000F900F900F9080E892E00E9425560AC03C
:10161000C901019664E670E00E943F578093E92477
:101620009093EA248091E3278530E9F4E091E9245E
:10163000F091EA24EE0FFF1FE555FA4D208131812C
:1016400088E491E0289FB001299F700D389F700DAC
:1016500011246150704835E0769567953A95E1F729
:1016600081E00E948221C453DF4FE6E00C94CB5707
:10167000ACECB0E0EEE3FBE00C94AF578091F424C7
:101680009091F5242091E7243091E824892B09F4E6
:1016900004C12F5F3F4F2093E7243093E82440910B
:1016A000EB245091EC246091ED247091EE244E5F78
:1016B0005F4F6F4F7F4F4093EB245093EC24609328
:1016C000ED247093EE248091AD209091AE209695FC
:1016D00087952817390770F48091A5209091A6204E
:1016E000A091A720B091A820481759076A077B0747
:1016F00008F4DDC08091A5209091A620A091A7209C
:10170000B091A820481759076A077B0778F0109214
:10171000EB241092EC241092ED241092EE241092FF
:10172000E7241092E82440E052E006C040505E4FAB
:101730001092E7241092E8247A0100E010E086E796
:1017400095E2B801A7010E94BC3B282F882309F02D
:1017500086C080917C2590917D25A0917E25B091B9
:101760007F258E159F05A007B10709F078C0E0908E
:10177000A520F090A6200091A7201091A8202091EC
:10178000EB243091EC244091ED245091EE24D801CB
:10179000C701821B930BA40BB50B883C9105A105D7
:1017A000B10518F088EC90E003C0C701821B930BD1
:1017B0008093AD209093AE208E010B5F1F4F409120
:1017C000AD205091AE2086E795E2B8019E012F5FD3
:1017D0003F4F0E94294D482F882321F529813A81C6
:1017E0008091AD209091AE2028173907D9F4F801E7
:1017F00067E078E22E7F200F311FAE014D5F5F4F13
:101800000DC08081DA018C93818111968C938B813C
:101810009C81DB018D939D93BD013296E217F30706
:1018200081F745C08091F324882309F040C000D09F
:101830000F92EDB7FEB731968BE493E0ADB7BEB72C
:1018400011968D939C931297428313820E94675640
:101850000F900F900F900F9083E293E01BC0809148
:10186000F324882321F500D00F92EDB7FEB731960F
:1018700088E193E0ADB7BEB711968D939C93129714
:10188000228313820E9467560F900F900F900F9043
:1018900082EF92E00E9425560AC0C901019664E6D3
:1018A00070E00E943F578093E7249093E824809152
:1018B00099278530E9F4E091E724F091E824EE0FD0
:1018C000FF1FE95FF74D2081318188E491E0289F77
:1018D000B001299F700D389F700D11246150704820
:1018E000F5E076956795FA95E1F780E00E94822110
:1018F000C453DF4FE6E00C94CB57AEE0B2E0E3E830
:10190000FCE00C94B057F82E162F6A3080F400D00B
:1019100000D0EDB7FEB73196CE010396ADB7BEB796
:1019200011968D939C93129780E090E21FC0CE0198
:101930000396643670F400D000D0EDB7FEB7319650
:10194000ADB7BEB711968D939C9312978EE090E23F
:101950000DC000D000D0EDB7FEB73196ADB7BEB721
:1019600011968D939C9312978BE190E282839383DF
:10197000148315820E94035A8DB79EB706968DBFB9
:101980009EBF91E0F91629F0A2E0FA1609F017C1FE
:1019900089C040919F205091A02060E070E088E3D2
:1019A0009BE024E000E00E94CF2E86E795E20E94B3
:1019B000564886E795E2BE016D5F7F4F41E00E9489
:1019C000124C882309F048C086E795E2BE01615FAA
:1019D0007F4F40E052E09E012F5F3F4F0E94294D14
:1019E000882399F589819A818050924071F58F857D
:1019F0008093A52088898093A62089898093A72039
:101A00008A898093A8201093F4241092F524F092F0
:101A10009C201092E0248091F324882329F500D0A3
:101A20000F92EDB7FEB7319681E294E0ADB7BEB745
:101A300011968D939C931297128313820E9467567E
:101A40000F900F900F900F900FC08091F324882378
:101A500059F480E094E006C08091F324882321F4B7
:101A60008FED93E00E9425561092E7241092E8240F
:101A70008091A5209091A620A091A720B091A820A8
:101A80008093EB249093EC24A093ED24B093EE2468
:101A900040919F205091A02060E070E088E39BE09F
:101AA00024E089C04091A1205091A22060E070E024
:101AB00083EF99E025E000E00E94CF2E88EE96E2C9
:101AC0000E94564888EE96E2BE016D5F7F4F41E06E
:101AD0000E94124C882309F049C088EE96E2BE01AC
:101AE000615F7F4F40E052E09E012F5F3F4F0E94B9
:101AF000294D8823A1F589819A818050924079F5FA
:101B00008F858093A92088898093AA2089898093D2
:101B1000AB208A898093AC201093F6241092F7248E
:101B200081E080939C201092E0248091F32488230C
:101B300029F500D00F92EDB7FEB731968BEB93E00D
:101B4000ADB7BEB711968D939C93129712831382F3
:101B50000E9467560F900F900F900F900FC08091CA
:101B6000F324882359F48AE993E006C08091F32492
:101B7000882321F489E793E00E9425561092E924F6
:101B80001092EA248091A9209091AA20A091AB20E4
:101B9000B091AC208093EF249093F024A093F12493
:101BA000B093F2244091A1205091A22060E070E017
:101BB00083EF99E025E001E00E94CF2E08C08091DC
:101BC000F324882321F486E593E00E942556C25F22
:101BD000DD4FE5E00C94CC57AEE0B2E0E2EFFDE083
:101BE0000C94B057F82E162F6A3080F400D000D035
:101BF000EDB7FEB73196CE010396ADB7BEB71196DD
:101C00008D939C93129787E290E21FC0CE010396BA
:101C1000643670F400D000D0EDB7FEB73196ADB7A2
:101C2000BEB711968D939C93129785E390E20DC0F9
:101C300000D000D0EDB7FEB73196ADB7BEB7119664
:101C40008D939C93129782E490E282839383148312
:101C500015820E94035A8DB79EB706968DBF9EBF10
:101C600091E0F91629F0A2E0FA1609F017C189C02F
:101C700040919F205091A02060E070E088E39BE0BD
:101C800024E000E00E94CF2E86E795E20E945648AD
:101C900086E795E2BE016D5F7F4F41E00E94124CE6
:101CA000882309F048C086E795E2BE01615F7F4F57
:101CB00040E052E09E012F5F3F4F0E94294D882354
:101CC00099F589819A818050924071F58F85809332
:101CD000A52088898093A62089898093A7208A8956
:101CE0008093A8201093F4241092F524F0929C2065
:101CF0001092E0248091F324882329F500D00F92DC
:101D0000EDB7FEB731968AE095E0ADB7BEB7119654
:101D10008D939C931297128313820E9467560F90A3
:101D20000F900F900F900FC08091F324882359F4E7
:101D30008DEE94E006C08091F324882321F48CEC8E
:101D400094E00E9425561092E7241092E824809196
:101D5000A5209091A620A091A720B091A8208093C3
:101D6000EB249093EC24A093ED24B093EE244091C7
:101D70009F205091A02060E070E088E39BE024E089
:101D800089C04091A1205091A22060E070E083EFD3
:101D900099E025E000E00E94CF2E88EE96E20E94B6
:101DA000564888EE96E2BE016D5F7F4F41E00E948B
:101DB000124C882309F049C088EE96E2BE01615FAB
:101DC0007F4F40E052E09E012F5F3F4F0E94294D20
:101DD0008823A1F589819A818050924079F58F8579
:101DE0008093A92088898093AA2089898093AB2039
:101DF0008A898093AC201093F6241092F72481E016
:101E000080939C201092E0248091F324882329F56C
:101E100000D00F92EDB7FEB7319688EA94E0ADB7E7
:101E2000BEB711968D939C931297128313820E94D2
:101E300067560F900F900F900F900FC08091F32472
:101E4000882359F48AE894E006C08091F32488231B
:101E500021F489E694E00E9425561092E92410921C
:101E6000EA248091A9209091AA20A091AB20B09162
:101E7000AC208093EF249093F024A093F124B093AE
:101E8000F2244091A1205091A22060E070E083EF05
:101E900099E025E001E00E94CF2E08C08091F32454
:101EA000882321F486E494E00E942556C25FDD4F2A
:101EB000E5E00C94CC570F93813031F09091F324EE
:101EC000823009F061C033C08091F324882321F46B
:101ED0008FE695E00E94255640919F205091A020CA
:101EE00060E070E088E39BE024E000E00E94CF2EF9
:101EF0001092F4241092F52484E690E0A0E0B0E083
:101F00008093A5209093A620A093A720B093A8200B
:101F1000E7E0F8E28AE090E08193919328E2EF3CD9
:101F2000F207D1F71092E7241092E82433C09923E6
:101F300021F48EE495E00E9425564091A120509115
:101F4000A22060E070E083EF99E025E000E00E94CD
:101F5000CF2E1092F6241092F72484E690E0A0E0B1
:101F6000B0E08093A9209093AA20A093AB20B093D7
:101F7000AC20EBEAF5E28AE090E08193919326E2CF
:101F8000E337F207D1F706C0992321F48EE295E0FA
:101F90000E9425560F9108951F93CF93DF93162F1C
:101FA000EA01882349F5809182268823E1F785E7B5
:101FB00096E260E0AE01212F0E94A72F80917F2939
:101FC0008823E1F782E799E260E0AE01212F0E94C9
:101FD000A72F809115278823E1F788E097E260E03A
:101FE000AE01212F0E94A72F8091A4258823E1F71D
:101FF00087E995E260E022C0E82FF0E0DF01A85E0B
:10200000B84DAC91E153F74D6081AA23D9F0A330CC
:1020100051F0A43059F0A23019F4A2E7B9E208C097
:10202000A5E7B6E205C0A8E0B7E202C0A7E9B5E2BD
:102030001D968C911D978823D9F7CD01AE01212FD4
:102040000E94A72FDF91CF911F910895A2E8B0E0E1
:10205000ECE2F0E10C94AD57282F8A3080F400D0E8
:1020600000D0EDB7FEB7319688EF94E2ADB7BEB7BA
:1020700011968D939C9312978EE490E21FC088EF87
:1020800094E2243670F400D000D0EDB7FEB731965C
:10209000ADB7BEB711968D939C9312978CE590E2E5
:1020A0000DC000D000D0EDB7FEB73196ADB7BEB7CA
:1020B00011968D939C93129789E690E28283938385
:1020C000248315820E94035AEDB7FEB73696EDBF02
:1020D000FEBF85EE97E268EF74E241E00E94124C89
:1020E0008823C9F583E0C82ED12CCC0EDD1E85EEE9
:1020F00097E2B60140E850E09E012F5F3F4F0E94FB
:10210000294D882309F589819A8180389105E1F468
:1021100019E1E12E17E2F12E00E010E0F601E00FE8
:10212000F11F6081D7016D937D010F5F1F4FC801C3
:102130008F5F9F4F0E943E5C0038110579F781E068
:1021400090E060E00E943E5C85EE97E20E94564877
:102150008DEE95E002C087EB95E00E942556CE57A4
:10216000DF4FE8E00C94C95783E00E9414210895E2
:10217000EF92FF920F931F93CF93DF938091992754
:10218000823009F4A4C0833030F4882359F08130C0
:1021900009F09BC132C0833009F4FFC0843009F0DC
:1021A00094C149C1E091E724F091E824EE0FFF1FAC
:1021B000E95FF74D20813181220F331F2093842660
:1021C000309385268091E427992787FD9095AC016F
:1021D000249FC001259F900D349F900D11246AE02B
:1021E00070E00E945357CB012091962545E02402D0
:1021F00090011124820F931FCAC080E00E94252104
:1022000064E070E00E945357162F072F81E00E9470
:10221000252164E070E00E945357212F302FC9011F
:10222000AC0197FF02C040E050E09B0177FF02C085
:1022300020E030E0421B530B440F551F440F551F45
:102240002091842630918526C901880F991F820F1D
:10225000931F880F991F840F951F6AE070E00E94FA
:1022600053579B0160938426709385268091E427C1
:10227000992787FD9095BC01269FC001279F900D4F
:10228000369F900D11246AE070E00E945357CB01F5
:102290002091962545E0240290011124820F931F7E
:1022A00062E070E00E9453579B017B0171E0213096
:1022B000370724F0E12CA1E0FA2E09C18FEF20307E
:1022C00038070CF004C1E12CFFEFFF2E00C180E0C5
:1022D0000E94252164E070E00E945357162F072FBB
:1022E00081E00E94252164E070E00E945357212F75
:1022F000302FC901AC0197FF02C040E050E09B01C4
:1023000077FF02C020E030E0421B530B440F551F03
:10231000440F551F2091842630918526C901880FCE
:10232000991F820F931F880F991F840F951F6AE0D2
:1023300070E00E9453576093842670938526E09145
:10234000E724F091E824EE0FFF1FE95FF74D2081AD
:102350003181220F331F8091962545E08402C00110
:102360001124280F391F8091E427992787FD909524
:10237000AC01649FC001659F900D749F900D112466
:102380006AE070E00E945357C901860F971F62E010
:1023900070E00E9453577B019AC084E00E9425217F
:1023A00062E070E00E945357CB0177FF02C080E0EB
:1023B00090E06091E427772767FD70950E9453575E
:1023C00080919625992787FD9095860F971F80937A
:1023D0009B2790939C2780919B2790919C274091CD
:1023E0000528509106288417950740F04150504029
:1023F00040939B2750939C274F5F5F4F80919B2773
:1024000090919C27892B21F410929B2710929C2756
:10241000809150299091512920919B2730919C27A0
:10242000BC01649FC001659F900D749F900D1124A5
:10243000820F931F46C0E091E724F091E824EE0F4D
:10244000FF1FE95FF74D0190F081E02D8091E626B6
:102450009091E726E80FF91F209105283091062872
:10246000F7FD09C0CF01B9010E943F5780939B2718
:1024700090939C2710C0882799278E1B9F0BB9012A
:102480000E943F5721503040A901481B590B4093EF
:102490009B2750939C27209150293091512940919E
:1024A0009B2750919C278091052890910628BC017C
:1024B000269FC001279F900D369F900D1124840FF9
:1024C000951F8093E5249093E624EE24FF248091C9
:1024D000E327823009F4A2C0833030F4882359F016
:1024E000813009F085C132C0833009F4FDC08430E9
:1024F00009F07EC133C1E091E924F091EA24EE0FA6
:10250000FF1FE555FA4D20813181220F331F2093A3
:10251000A8253093A92580919D27992787FD90951F
:10252000AC01249FC001259F900D349F900D112474
:102530006AE070E00E945357CB012091B42B45E034
:10254000240290011124820F931FC8C082E00E94D0
:10255000252164E070E00E945357162F072F83E077
:102560000E94252164E070E00E945357212F302FF4
:10257000C901AC0197FF02C040E050E09B0177FF2A
:1025800002C020E030E0421B530B440F551F440FA4
:10259000551F2091A8253091A925C901880F991FA1
:1025A000820F931F880F991F840F951F6AE070E0B8
:1025B0000E9453579B016093A8257093A925809191
:1025C0009D27992787FD9095BC01269FC001279FD5
:1025D000900D369F900D11246AE070E00E945357D1
:1025E000CB012091B42B45E0240290011124820FED
:1025F000931F62E070E00E9453579B01EB0171E072
:10260000213037071CF0C0E0D1E0F4C08FEF20305C
:1026100038070CF0EFC0C0E0DFEFECC082E00E94B2
:10262000252164E070E00E945357162F072F83E0A6
:102630000E94252164E070E00E945357212F302F23
:10264000C901AC0197FF02C040E050E09B0177FF59
:1026500002C020E030E0421B530B440F551F440FD3
:10266000551F2091A8253091A925C901880F991FD0
:10267000820F931F880F991F840F951F6AE070E0E7
:102680000E9453576093A8257093A925E091E924EF
:10269000F091EA24EE0FFF1FE555FA4D20813181BC
:1026A000220F331F8091B42B45E08402C001112416
:1026B000280F391F80919D27992787FD9095AC01A0
:1026C000649FC001659F900D749F900D11246AE076
:1026D00070E00E945357C901860F971F62E070E0B7
:1026E0000E945357EB0186C085E00E94252162E0DD
:1026F00070E00E945357CB0177FF02C080E090E06A
:1027000060919D27772767FD70950E9453578091B0
:10271000B42B992787FD9095860F971F809350299A
:102720009093512980915029909151292091A6256B
:102730003091A7258217930730F021503040209325
:102740005029309351298091502990915129892BFA
:10275000A9F5109250291092512930C0E091E92436
:10276000F091EA24EE0FFF1FE555FA4D0190F0813C
:10277000E02D8091732690917426E80FF91F209127
:10278000A6253091A725F7FD09C0CF01B9010E9408
:102790003F57809350299093512910C0882799273B
:1027A0008E1B9F0BB9010E943F5721503040A90159
:1027B000481B590B4093502950935129209150297F
:1027C0003091512940919B2750919C278091052859
:1027D00090910628BC01269FC001279F900D369F2F
:1027E000900D1124840F951F8093E5249093E62487
:1027F000C0E0D0E080919C20813059F11E141F046C
:1028000074F49701442737FD4095542F62E17AE72D
:1028100080E090E00E94665788E098E013C0E114E1
:10282000F104C9F0222733272E193F09442737FD29
:102830004095542F62E17AE780E090E00E9466576D
:102840008CE798E0BA01A90122E001E00E94F52E90
:102850000EC0C0E0D0E08CE798E04EE450E060E0CD
:1028600070E022E000E00E94F52EEE24FF241C160A
:102870001D0674F49E01442737FD4095542F62E1F4
:102880007AE780E090E00E94665780E498E012C00A
:102890002097A9F0222733272C1B3D0B442737FD17
:1028A0004095542F62E17AE780E090E00E946657FD
:1028B00084EB98E0BA01A90123E001E008C084EBB1
:1028C00098E04EE450E060E070E023E000E00E9419
:1028D000F52E1092E124EC16FD061CF081E08093A9
:1028E000E124CDB7DEB7E6E00C94CB57A2E0B0E030
:1028F000ECE7F4E10C94B0578C01FC01808180324C
:1029000009F4A5C0813238F4803109F48FC08531D3
:1029100009F011C193C0803309F4D8C08F3F21F072
:10292000853209F008C1A0C0F801F18080918226AB
:102930008823E1F785E796E26F2D49EF50E222E028
:102940000E94A72F80917F298823E1F782E799E2EF
:102950006F2D49EF50E222E00E94A72F80911527AA
:102960008823E1F788E097E26F2D49EF50E222E0FB
:102970000E94A72F8091A4258823E1F787E995E29B
:102980006F2D49EF50E222E00E94A72F80EF95E5DE
:1029900020E233E0F9013197F1F70197D9F78FEF92
:1029A0008983F8019281809182268823E1F79A83B6
:1029B00085E796E26F2DAE014F5F5F4F22E00E94E8
:1029C000A72F80917F298823E1F782E799E26F2D75
:1029D000AE014F5F5F4F22E00E94A72F8091152725
:1029E0008823E1F788E097E26F2DAE014F5F5F4FDC
:1029F00022E00E94A72F8091A4258823E1F787E990
:102A000095E26F2DAE014F5F5F4F22E00E94A72F2E
:102A100084EF91E020E233E0F9013197F1F701977B
:102A2000D9F780E062E049EF50E289C0F801818186
:102A30008093992782818093E32783C0F801628184
:102A4000662349F0F80181810E94EC0D7AC0F801FB
:102A50006281662321F481810E945B0F72C0F801BC
:102A600081810E947D0C6DC0F801928180E02181FE
:102A70008C01020F111D980140E050E062E17AE7FD
:102A800080E090E00E94885720939F203093A02000
:102A90008091F324882381F400D00F9283ED97E096
:102AA000EDB7FEB781839283038314830E94675638
:102AB0000F900F900F900F9040919F205091A02069
:102AC00060E070E088E39BE024E031C0F80192818F
:102AD00080E021818C01020F111D980140E050E03F
:102AE00062E17AE780E090E00E9488572093A1207D
:102AF0003093A2208091F324882381F400D00F9298
:102B000080EB97E0EDB7FEB7818392830383148354
:102B10000E9467560F900F900F900F904091A12048
:102B20005091A22060E070E083EF99E025E001E0A1
:102B30000E94F52E06C080E068E041ED50E20E9460
:102B4000CC0F2296E5E00C94CC57A1E0B0E0EBEA84
:102B5000F5E10C94AB575C01FC01E080F180C28090
:102B6000D38084818093E424958190931727868174
:102B70008093AA25882319F090939A2709C0892F5A
:102B800090E033E0880F991F3A95E1F780939A27F8
:102B90001092E02481E061E00E94F32007E010E061
:102BA00091E00FC0A501400F511F892F60919A2716
:102BB00099830E94CC0F80919A27080F111D99814B
:102BC0009F5F8091E424891768F77F2D60E06E0D88
:102BD000711D80E00E9482217D2D60E06C0D711DD1
:102BE00081E00E94822181E060E00E94F320219632
:102BF000EAE00C94C757A6E2B0E0E1E0F6E10C94FD
:102C0000A5574C014DB65EB68FB781E061E00E94DA
:102C1000F32090919A278091E424989F50011124E9
:102C20008DB79EB78A199B098DBF9EBF6DB67EB6C4
:102C30000894611C711C6B2D66956F5F70E080E0DD
:102C400090E0940140E050E00E9420576B017C012D
:102C50000894C11CD11CE11CF11CE9E0CC0CDD1C6A
:102C6000EE1CFF1CEA95D1F740919F205091A020C7
:102C700060E070E088E39BE024E000E00E94CF2E5B
:102C80004091A1205091A22060E070E083EF99E094
:102C900025E00E94CF2E82E599E2B701A6010E94AD
:102CA000BC3B182F882309F084C18091582990914A
:102CB0005929A0915A29B0915B298C159D05AE0523
:102CC000BF0509F076C182E599E2B301A5019E0135
:102CD0002F5F3F4F0E94294D082F882309F044C1E0
:102CE00089819A818A159B0509F03EC18091F4245F
:102CF0009091F524892B61F040919F205091A02064
:102D000060E070E088E39BE024E001E00E94CF2EC9
:102D10008091F6249091F724892B61F04091A120B5
:102D20005091A22060E070E083EF99E025E001E09F
:102D30000E94CF2E8091E024823018F081E00E9422
:102D400081201092E02401E0EE24FF2477E0C72EDA
:102D5000D12CCC0EDD1E63E0A62EB12CAC0EBD1E18
:102D6000F7C08D9181938E2F8C198917D0F3E90EBE
:102D7000F11C80918129813009F0E3C09830E9F499
:102D80009F8188859817C9F449858A854817A9F4D1
:102D90003B858C85381789F42D858E85281769F435
:102DA000941759F4931749F4921739F4802F61E07E
:102DB000A6010E94CC0FE1E001C0E0E080919A27DB
:102DC000883109F04EC06F818885681709F049C0C5
:102DD00039858A85381709F044C02B858C852817DA
:102DE00009F03FC09D858E859817D9F56317C9F501
:102DF0006217B9F56917A9F54F858889481789F5CC
:102E000039898A89381769F52B898C89281749F5FA
:102E10009D898E89981729F5431719F5421709F5E9
:102E20004917F9F49F89888D9817D9F4598D8A8D9F
:102E30005817B9F43B8D8C8D381799F42D8D8E8DE4
:102E4000281779F4951769F4931759F4921749F4F0
:102E50006B834C839D83802F63E0A5010E94CC0F80
:102E6000E1E080919A27803209F069C07F818885EE
:102E7000781709F064C039858A85381709F05FC072
:102E80002B858C85281709F05AC09D858E8598174B
:102E900009F055C0731709F052C0721709F04FC0FE
:102EA000791709F04CC06F858889681709F047C009
:102EB00039898A89381709F042C02B898C892817EB
:102EC000F1F59D898E899817D1F56317C1F56217C1
:102ED000B1F56917A1F54F89888D481781F5398DAE
:102EE0008A8D381761F52B8D8C8D281741F59D8DB6
:102EF0008E8D981721F5431711F5421701F54917E3
:102F0000F1F49F8D88A19817D1F459A18AA158177F
:102F1000B1F43BA18CA1381791F42DA18EA12817F3
:102F200071F4951761F4931751F4921741F47B8370
:102F30006C834D839E83802F64E0A50106C0EE2341
:102F400031F4802F60919A27A6010E94CC0F0F5F69
:102F50008091E424801708F475C090919A27D301DA
:102F6000AE0DBF1DF601FFCE8091F324882309F03A
:102F700069C087E297E00E942556ADB7BEB71897A3
:102F8000ADBFBEBFEDB7FEB7319689E097E01196B1
:102F90008D939C93129702831382848295828981F8
:102FA0009A81868397830E9467568DB79EB708964D
:102FB00047C08091F4249091F524892B61F04091D1
:102FC0009F205091A02060E070E088E39BE024E027
:102FD00001E00E94CF2E8091F6249091F724892B56
:102FE00061F04091A1205091A22060E070E083EF59
:102FF00099E025E001E00E94CF2E8091F324882300
:1030000009F58FED96E00E942556ADB7BEB71A9729
:10301000ADBFBEBFEDB7FEB731968CEB96E0119613
:103020008D939C9312971283138284829582C68219
:10303000D782E086F1860E9467568DB79EB70A96C2
:103040008DBF9EBF809199278530E9F060919B27C5
:1030500070919C2780E090E02FEF3FEF40E050E040
:103060000E942057209105283091062840E050E02A
:103070000E94885755E0369527955A95E1F780E0EC
:10308000B9010E9482218091E3278530E9F06091A7
:1030900050297091512980E090E02FEF3FEF40E000
:1030A00050E00E9420572091A6253091A72540E0AE
:1030B00050E00E94885745E0369527954A95E1F7FC
:1030C00081E0B9010E9482218091E224813081F463
:1030D000E0919B27F0919C27EA57F94D8081882346
:1030E00019F482E060E002C082E061E00E94F32017
:1030F00081E060E00E94F3204DBE5EBEA696E0E156
:103100000C94C157A0E0B0E0E8E8F8E10C94AB57AC
:1031100081E080939C202091A6253091A725809165
:10312000052890910628289F5001299FB00C389FB0
:10313000B00C11240E94F554C0E0D0E004C0CE01D0
:103140000E94FB152196CA15DB05C8F30E940A559B
:103150007B018C018DB79EB708978DBF9EBFCDB602
:10316000DEB60894C11CD11C80E995E0EDB7FEB72E
:1031700081839283F601E282F38204831583B50191
:1031800080E090E028EE33E040E050E00E942057DD
:10319000A80197010E946657F601268337830E9493
:1031A00067568DB79EB708968DBF9EBFCDB7DEB769
:1031B000EAE00C94C757A2E0B2E0E1EEF8E10C942B
:1031C000B157182F8A3080F400D000D0EDB7FEB789
:1031D000319684E095E2ADB7BEB711968D939C937E
:1031E000129785E790E21FC084E095E2143670F4F0
:1031F00000D000D0EDB7FEB73196ADB7BEB711968F
:103200008D939C93129783E890E20DC000D000D07C
:10321000EDB7FEB73196ADB7BEB711968D939C93BF
:10322000129780E990E282839383148315820E942F
:10323000035A8DB79EB706968DBF9EBF40919F20C3
:103240005091A02060E070E088E39BE024E000E083
:103250000E94CF2E4091A1205091A22060E070E00A
:1032600083EF99E025E00E94CF2E82E599E20E944B
:10327000564882E599E264E075E241E00E94124C12
:10328000882309F0CBC082E599E2BE016D5F7F4FD4
:1032900040E052E09E012F5F3F4F0E94294D88235E
:1032A00009F0B5C089819A818050924009F0AFC081
:1032B0008091F4249091F524892B61F040919F2016
:1032C0005091A02060E070E088E39BE024E001E002
:1032D0000E94CF2E8091F6249091F724892B61F0E3
:1032E0004091A1205091A22060E070E083EF99E02E
:1032F00025E001E00E94CF2E8B81809305288C81F0
:10330000809306288D818093A6258E818093A725A2
:103310008F818093E424988590931727892F8B5071
:10332000843048F49A509093172781E08093AA251F
:1033300090939A270BC01092AA25892F90E0F3E072
:10334000880F991FFA95E1F780939A2710925029D8
:1033500010925129809150299091512980939B2757
:1033600090939C271092E5241092E62481E08093AC
:103370009C201092E0248091F324882309F040C01F
:1033800000D00F92EDB7FEB7319687EA96E0ADB761
:10339000BEB711968D939C931297128313820E944D
:1033A00067568DB79EB708978DBF9EBFEDB7FEB726
:1033B000319684E596E0ADB7BEB711968D939C9398
:1033C000129780910528909106288283938380919B
:1033D000A6259091A725848395838091E4248683F4
:1033E000178280911727808711868091AA2582876E
:1033F00013860E9467568DB79EB70C968DBF9EBFF1
:103400008091E5249091E6240E94FB150FC08091E5
:10341000F324882359F485E396E006C08091F324D1
:10342000882321F489E196E00E942556CE5FDD4F86
:10343000E4E00C94CD57FC018081803721F0813786
:1034400009F081C073C0928180E02181820F911DBB
:1034500080939B2790939C27948180E02381820F07
:10346000911D809350299093512980919B27909191
:103470009C278093E6269093E7268091502990918F
:10348000512980937326909374262091502930916E
:10349000512940919B2750919C278091052890911C
:1034A0000628BC01269FC001279F900D369F900DD6
:1034B0001124840F951F8093E5249093E6241092A5
:1034C000E0248091F324882351F520919B273091AB
:1034D0009C2740915029509151296091E524709189
:1034E000E6248DB79EB708978DBF9EBFEDB7FEB798
:1034F000319684E797E0ADB7BEB711968D939C9354
:1035000012972283338344835583668377830E9493
:1035100067566DB77EB7685F7F4F6DBF7EBF809186
:10352000E5249091E6240E94FB1508958181809303
:10353000E427828180939625838180939D278481CF
:103540008093B42B089580E068E049ED50E20E943A
:10355000CC0F0895FC012181808190E0FC0131971E
:10356000E930F10578F5E650FF4F0C94DA57822FD9
:1035700062E049EF50E22AC0822F62E04BEF50E256
:1035800025C0822F0E94DB180895822F0E941922E5
:103590000895822F0E94BD210895822F90E0880F08
:1035A000991F8093A3209093A4200895822F0E94B6
:1035B00077280895822F0E9485250895822F0E94E2
:1035C0002610089580E068E049EC50E20E94CC0F9C
:1035D0000895A2E0B0E0EFEEFAE10C94AD57FC01E3
:1035E000E081E53409F47AC1E63408F058C0E931E5
:1035F00009F420C2EA3140F5E33109F4EBC1E431CA
:1036000080F4E03109F4D7C1E13120F4EE2309F46C
:1036100047C140C2E13109F4D2C1E23109F03AC2F6
:10362000D5C1E63109F4E7C1E73138F4E43109F4F2
:10363000D4C1E53109F02EC2D3C1E73109F4F3C199
:10364000E83109F027C2F3C1E53309F4F5C0E633E8
:1036500098F4E23209F40CC2E33238F4E03209F4AF
:1036600073C0E13209F016C2F9C1E53209F4ABC00A
:10367000E03309F00FC287C0E23409F420C1E3341B
:1036800038F4E03409F411C1E13409F003C212C185
:10369000E33409F419C1E43409F0FCC11AC1E53975
:1036A00009F452C1E63928F5E03709F431C1E137B0
:1036B00068F4E73409F41CC1E73408F414C1E035B8
:1036C00009F420C1E03609F0E5C11FC1E23909F46F
:1036D0002CC1E33938F4E03909F41DC1E13909F0AE
:1036E000D9C11EC1E33909F425C1E43909F0D2C1B9
:1036F00026C1EB3909F446C1EC3998F4E83909F4EC
:1037000032C1E93938F4E63909F423C1E73909F05F
:10371000C1C124C1E93909F42BC1EA3909F0BAC1A0
:103720002CC1EE3909F43DC1EF3938F4EC3909F414
:103730002EC1ED3909F0AEC12FC1EF3909F436C100
:10374000EF3F09F0A7C1D9C01092E7241092E824F6
:103750001092E9241092EA2410929C201092E02406
:1037600088EB90E14EE450E060E070E021E001E0A1
:103770000E94CF2E88E098E04EE450E060E070E0D8
:1037800022E000E014C081E080939C2088EB90E16F
:103790004EE450E060E070E021E000E00E94CF2EB7
:1037A00088E098E04EE450E060E070E022E00E94A3
:1037B000CF2E80E498E04EE450E060E070E023E03B
:1037C0000E94CF2E6DC11092E7241092E82410922F
:1037D000E9241092EA2410929C201092E02488EBB5
:1037E00090E14EE450E060E070E021E001E00E94F2
:1037F000CF2E88E098E04EE450E060E070E022E0F8
:1038000000E00E94CF2E80E498E04EE450E060E0BB
:1038100070E023E00E94CF2E6091A3207091A4203D
:1038200082E19AE70E943F57AB0160E070E084EBD1
:1038300090E120E001E0C4CF81E080939C2088EB00
:1038400090E14EE450E060E070E021E000E00E9492
:10385000CF2E88E098E04EE450E060E070E022E097
:103860000E94CF2E80E498E04EE450E060E070E0EB
:1038700023E00E94CF2E2091A3203091A42040E08D
:1038800050E062E17AE780E090E00E94885784EBA4
:1038900090E1BA01A90120E00E94CF2E83E092C0FE
:1038A00080E068E040E155E2F9C080E068E14DEF7A
:1038B00050E2F4C080E068E145E151E2EFC080E011
:1038C00068E14DE251E2EAC080E068E145E451E29E
:1038D000E5C080E068E14DE551E2E0C080E068E1EC
:1038E00045E751E2DBC080E068E14DE851E2D6C037
:1038F00080E068E145EA51E2D1C080E068E04DEB4C
:1039000051E2CCC00E949420CBC00E940122C8C0CA
:103910000E948218C5C080E060E245EC51E2BEC062
:1039200080E060E245EE51E2B9C080E060E245E04F
:1039300052E2B4C080E060E245E252E2AFC080E013
:1039400060E245E452E2AAC080E060E245E652E26D
:10395000A5C080E060E245E852E2A0C080E060E2FD
:1039600045EA52E29BC080E060E245EC52E296C03C
:1039700080E060E245EE52E291C080E060E245E026
:1039800053E28CC080E060E245E253E287C080E011
:1039900060E245E453E282C080E060E245E653E243
:1039A0007DC080E060E245E853E278C080E060E2FC
:1039B00045EA53E273C081E08093E22471C0109223
:1039C000E22482E060E00E94F3206AC081E08093FC
:1039D000812966C01092812963C00E94220960C0BB
:1039E00000D00F928CE698E0EDB7FEB7818392830A
:1039F00085EC93E22AC0B9E1EB2EB7E2FB2E01E0A1
:103A00001EEF6E010894C11CD11C1983F70181912E
:103A10007F018A83802F62E0A6010E94CC0F0F5F96
:103A2000013899F73DC081E08093F32439C01092AA
:103A3000F32436C080E00E94252100D00F922AE5B1
:103A400038E0EDB7FEB721833283838394830E94ED
:103A500067560F900F900F900F9022C080E090E07B
:103A60006FEF0E943E5C0F920F9288E298E009C0CF
:103A700080E090E060E00E943E5C0F920F9286EF43
:103A800097E0EDB7FEB7818392830E9467560F904F
:103A90000F9006C080E068E041EC50E20E94CC0F3D
:103AA0002296E8E00C94C957A6E4B6E0EAE5FDE109
:103AB0000C94AD5780E090E00E942E5CE82E85E7E4
:103AC00096E26E2D0E94733082E799E26E2D0E947D
:103AD000733088E097E26E2D0E94733087E995E29B
:103AE0006E2D0E94733085E796E260E874E040E452
:103AF00050E023E20E94242F82E799E260E974E01B
:103B000040E450E023E20E94242F88E097E260EA3C
:103B100074E040E450E023E20E94242F87E995E21C
:103B200060EB74E040E450E023E20E94242F8E2DED
:103B30000E941B2E0E947D2B84EE9CE280937425B4
:103B40009093752580E090E02AE030E0FC01E55597
:103B5000FA4D20833183FC01E95FF74D20833183E7
:103B60000296883C910591F7E6E8F6E220E030E025
:103B700041E02831310520F0C901C097489710F481
:103B8000408301C010822F5F3F4F319620363105B0
:103B900081F71092502910925129809150299091CB
:103BA000512980939B2790939C2780919B279091EC
:103BB0009C2780937326909374268093E626909397
:103BC000E7261092B42B109296258AE080939D27C9
:103BD0008093E4271092E327109299271092A8254A
:103BE0001092A925109284261092852681E0809358
:103BF00017271092AA251092812981E090E00E9457
:103C00002E5C8F3FC1F480E024E011C0E82FF0E08B
:103C1000982F9370DF01A85EB84D9C93882319F00C
:103C2000992309F42C93E153F74D80838F5F8138FA
:103C300068F3898317C0198211C00F2D10E0C801E5
:103C40008F5F9F4F0E942E5CF801E85EF84D8083E5
:103C50000153174DF801F082F394F982F980F0E8EE
:103C6000FF1558F78AED99E00E94255681E061E042
:103C70000E945E2001E090E2C92E93E0D92E3AC066
:103C800080E00E948650082F81FF0DC08BEC99E0E8
:103C90000E9425560E94102D04C080E00E9486508C
:103CA000082F01FDFACF02FF04C08EEA99E00E94BE
:103CB0002556198210C080E00E947C53082F80FF97
:103CC0000DC0298184EF91E0F6013197F1F701975A
:103CD000D9F72F5F29838981843068F300FF0AC0F8
:103CE00084E999E00E94255680E00E948650082FC2
:103CF00081FFFACF00FDC4CF8CE799E00E942556E2
:103D000080E06AE0AE014F5F5F4F0E947051892BE7
:103D100059F580E799E00E94255689818430A1F009
:103D2000853028F4813051F08230D1F40AC08830D7
:103D300089F08C3091F0863099F409C08BE699E0D7
:103D400011C087E699E00EC082E699E00BC08DE5D0
:103D500099E008C088E599E005C082E599E002C0D5
:103D60008DE499E00E94255684E399E00E9425564F
:103D700080E062E879E20E941431813051F08130B4
:103D800028F0823049F0833069F409C08AE299E072
:103D90000BC081E299E008C08EE099E005C081E0A7
:103DA00099E002C08CEF98E00E94255680E068E020
:103DB00040E155E20E94CC0F81E060E00E945E206D
:103DC0000E9494208FEFE81609F059C08EEC98E01D
:103DD0000E9425568E010E5F1F4F0E94B12C892B29
:103DE00079F1C8010E94172D83309105B9F0843014
:103DF000910530F48130910549F00297D9F40AC059
:103E00008530910579F00C97A9F410C0C8010E9483
:103E1000E91A16C0C8010E94AA1A12C0C8010E945D
:103E200076140EC0C8010E941B1A0AC0C8010E9465
:103E3000EC0806C080E068E049EE50E20E94CC0F3A
:103E400080919C20882349F62091E5243091E62436
:103E500080919D2090919E202817390709F4BDCFAD
:103E60008091E5249091E62480939D2090939E205C
:103E70008091E5249091E6240E94FB15AECF80EA64
:103E800098E00E9425568E01075C1F4F8BE8E82EB4
:103E900088E0F82E0E94B12C892BE1F3C8010E9422
:103EA000172D8130910521F08233910549F404C02A
:103EB000C8010E94E91AEECFC8010E94A515EACFF9
:103EC00000D00F92EDB7FEB7E182F2828383948334
:103ED0000E9467560F900F900F900F9080E068E05F
:103EE00049EE50E20E94CC0FD5CF1F920F920FB631
:103EF0000F9208B60F9209B60F920BB60F921124CB
:103F000018BE19BE1BBE2F933F934F935F936F93C1
:103F10007F938F939F93AF93BF93EF93FF9387E923
:103F200095E20E944030FF91EF91BF91AF919F9138
:103F30008F917F916F915F914F913F912F910F9052
:103F40000BBE0F9009BE0F9008BE0F900FBE0F90D2
:103F50001F9018951F920F920FB60F9208B60F92EE
:103F600009B60F920BB60F92112418BE19BE1BBED4
:103F70002F933F934F935F936F937F938F939F9371
:103F8000AF93BF93EF93FF9388E097E20E94403096
:103F9000FF91EF91BF91AF919F918F917F916F9121
:103FA0005F914F913F912F910F900BBE0F9009BEE3
:103FB0000F9008BE0F900FBE0F901F9018951F9284
:103FC0000F920FB60F9208B60F9209B60F920BB66A
:103FD0000F92112418BE19BE1BBE2F933F934F930F
:103FE0005F936F937F938F939F93AF93BF93EF9361
:103FF000FF9382E799E20E944030FF91EF91BF91D9
:10400000AF919F918F917F916F915F914F913F9170
:104010002F910F900BBE0F9009BE0F9008BE0F900E
:104020000FBE0F901F9018951F920F920FB60F9210
:1040300008B60F9209B60F920BB60F92112418BE54
:1040400019BE1BBE2F933F934F935F936F937F9344
:104050008F939F93AF93BF93EF93FF9385E796E280
:104060000E944030FF91EF91BF91AF919F918F914E
:104070007F916F915F914F913F912F910F900BBE68
:104080000F9009BE0F9008BE0F900FBE0F901F90AB
:1040900018950F93DF93CF930F92CDB7DEB72FB75D
:1040A0002983F8941BBEFC0108ED04BF608389815D
:1040B0008FBF0F90CF91DF910F910895282F30E09F
:1040C000C9018C7F892BE1F4862F8E7FC9F42C5F88
:1040D0003F4F613059F481E090E002C0880F991F92
:1040E0002A95E2F7E0E0F7E08683089581E090E02A
:1040F00002C0880F991F2A95E2F7E0E0F7E0858378
:104100000895282F30E0C9018C7F892B61F42C5F42
:104110003F4F81E090E002C0880F991F2A95E2F797
:10412000E0E0F7E08783089520E030E0A0E0B7E02A
:1041300060E240E253E017966C9317978CEA9DE09B
:10414000FA013197F1F70197D9F72F5F3F4F2A30E6
:10415000310589F70895482F50E0CA018C7F892BDB
:1041600079F56623B9F44C5F5F4F81E090E09C01E4
:10417000042E02C0220F331F0A94E2F7445050402D
:10418000E0E2F7E0268302C0880F991F4A95E2F724
:10419000818308956130A1F481E090E09C01042EB8
:1041A00002C0220F331F0A94E2F7E0E2F7E0228315
:1041B0004C5F5F4F02C0880F991F4A95E2F78583D5
:1041C0000895282F30E0C9018C7F892B11F080E001
:1041D00008958091280790E002C0959587952A95CB
:1041E000E2F781700895282F30E0C9018C7F892B78
:1041F000D1F4862F8E7FB9F4613059F481E090E0DC
:1042000002C0880F991F2A95E2F7E0E2F7E0858364
:10421000089581E090E002C0880F991F2A95E2F787
:10422000E0E2F7E086830895282F30E0C9018C7F13
:10423000892B51F481E090E002C0880F991F2A95E4
:10424000E2F7E0E2F7E087830895A2E0B0E0EBE276
:10425000F1E20C94B357282F30E0C901887F892BF5
:1042600019F020E030E049C080E1E0E4F6E0868328
:1042700027703070220F331F220F331F822F806868
:10428000E0ECF8E083838091C20887FFFCCF80E1F7
:10429000E0ECF8E083838091C20887FFFCCFE0E484
:1042A000F6E080E185838683E0ECF8E0138280917C
:1042B000C20887FFFCCFDE0111969091C308E0ECA5
:1042C000F8E013828091C20887FFFCCF8091C30879
:1042D00011969C9311978C9380E1E0E4F6E085833E
:1042E00089819A8194FF02C09F7001C09061959569
:1042F000879589839A8329813A81C9012296E2E0D0
:104300000C94CF57282F8C7FB9F5CB018070987F04
:10431000892B39F0CB01809590958070987F892BFF
:1043200059F580E1E0E6F6E086832770E0ECF9E0FD
:1043300023838091C20987FFFCCFCB01807F9F70D0
:10434000E4E095958795EA95E1F7E0ECF9E0838361
:104350008091C20987FFFCCF54E0660F771F5A9502
:10436000E1F7E0ECF9E063838091C20987FFFCCFBD
:1043700080E1E0E6F6E085830895A0E0B0E0E3ECBC
:10438000F1E20C94A757B82EC0E0D0E000E217E0AD
:104390006624639422E0722E94E0892E88E0982EA1
:1043A000B0E2EB2EB3E0FB2EC12CA7E0DA2EF0E258
:1043B000AF2EF801678277828782978288EE93E03A
:1043C000F7013197F1F70197D9F78B2D0E9425213D
:1043D000BC0128EE33E0F7013197F1F7215030406E
:1043E000D1F781E00E948221C0FF02C0F601A782BE
:1043F0002196CC33D105E9F6CDB7DEB7EEE00C94CB
:10440000C3570F93DF93CF930F92CDB7DEB78FB71C
:104410008983F8941BBE21E089E790E0FC0108ED58
:1044200004BF208389818FBF0F90CF91DF910F91BF
:104430000895A0E0B0E0EFE1F2E20C94A957982EC5
:1044400000E060EAA62E6FE0B62E50E8C52E5EE3CF
:10445000D52EE12C47E0F42E30E2832E1DC0143619
:1044600010F4BE0103C0B5016C1B7D0B80E00E94FF
:104470008221892D0E942521BC0181E00E94822198
:10448000C6010197F1F71F5F6496183C41F7F701E9
:1044900087820F5F0E3121F010E0C0E0D0E0DFCF67
:1044A000CDB7DEB7ECE00C94C557BC012DE23CE083
:1044B00040E050E008C0F9012F5F3F4FE491EE2348
:1044C000D1F74F5F5F4F4617570721F0F9018491ED
:1044D000882389F700D00F9289E29CE0EDB7FEB700
:1044E00081839283238334830E9467560F900F90B9
:1044F0000F900F900895A0E0B0E0E1E8F2E20C9494
:10450000AA575C016A017B01922EE8018FE19FE0CE
:104510000E94255687E68883BB27AF2D9E2D8D2DC3
:104520008983CA829B8285E48C83C50160E7A801E8
:1045300025E0092D0E94462FD5011D968C911D97CF
:104540008823D1F71E968C911E978130B9F01E9664
:104550002C9100D00F92EDB7FEB7319682E09FE02C
:10456000ADB7BEB711968D939C9312972283138299
:104570000E9467560F900F900F900F90DE0131E070
:1045800020E00DC0E501ED81FE81E20FF11D90817B
:1045900015968C911597981330E02F5F1196291579
:1045A00088F3832F90E0CDB7DEB7EBE00C94C657CD
:1045B000A0E0B0E0EEEDF2E20C94AA575C016A01D3
:1045C0007B01922EE8018EE39FE00E94255687E64C
:1045D0008883BB27AF2D9E2D8D2D8983CA829B8218
:1045E00085E48C83C50160E7A80125E0092D0E94C0
:1045F000462FD5011D968C911D978823D1F71E96C5
:104600008C911E978130B9F01E962C9100D00F929C
:10461000EDB7FEB7319681E29FE0ADB7BEB7119618
:104620008D939C931297228313820E9467560F905A
:104630000F900F900F90DE0190E00AC0E501ED8130
:10464000FE81E90FF11D808114968C9314979F5F72
:104650001196991598F3CDB7DEB7EBE00C94C657D9
:10466000A0E0B0E0E6E3F3E20C94AC57EC016A01A1
:104670007B01B22E8FE59FE00E94255682E4D8018F
:104680008C93BB27AF2D9E2D8D2DF8018183C28287
:10469000B38285E48483F5E0BF0ECE0160E7A80114
:1046A0002B2D00E00E94462F8D858823E9F78E850B
:1046B0008130B1F02E8500D00F92EDB7FEB7319664
:1046C00080E49FE0ADB7BEB711968D939C9312978F
:1046D000228313820E9467560F900F900F900F90C5
:1046E000CDB7DEB7E9E00C94C857A0E0B0E0EBE747
:1046F000F3E20C94AA575C016A017B01922EE80157
:104700008EE79FE00E94255687E68883BB27AF2D62
:104710009E2D8D2D8983CA82892D86958B8386E473
:104720008C83C50160E7A80125E0092D0E94462F72
:10473000D5011D968C911D978823D1F71E968C91DB
:104740001E978130B9F01E962C9100D00F92EDB7D4
:10475000FEB7319681E69FE0ADB7BEB711968D9357
:104760009C931297228313820E9467560F900F909A
:104770000F900F90DE0131E020E00DC0E501ED81EA
:10478000FE81E20FF11D908115968C91159798137B
:1047900030E02F5F1196291588F3832F90E0CDB775
:1047A000DEB7EBE00C94C657A0E0B0E0EAEDF3E230
:1047B0000C94AA575C016A017B01922EE8018DE9F5
:1047C0009FE00E94255687E68883BB27AF2D9E2D4C
:1047D0008D2D8983CA82892D86958B8386E48C836F
:1047E000C50160E7A80125E0092D0E94462FD501EB
:1047F0001D968C911D978823D1F71E968C911E973C
:104800008130B9F01E962C9100D00F92EDB7FEB713
:10481000319680E89FE0ADB7BEB711968D939C931B
:104820001297228313820E9467560F900F900F9069
:104830000F90DE0190E00AC0E501ED81FE81E90FF5
:10484000F11D808114968C9314979F5F1196991592
:1048500098F3CDB7DEB7EBE00C94C657A0E0B0E01C
:10486000E4E3F4E20C94AC57EC016A017B01B22E54
:104870008DEB9FE00E94255682E4D8018C93BB27E4
:10488000AF2D9E2D8D2DF8018183C2828B2D8695B3
:10489000838386E48483F5E0BF0ECE0160E7A80140
:1048A0002B2D00E00E94462F8D858823E9F78E8509
:1048B0008130B1F02E8500D00F92EDB7FEB7319662
:1048C0008FE99FE0ADB7BEB711968D939C93129779
:1048D000228313820E9467560F900F900F900F90C3
:1048E000CDB7DEB7E9E00C94C857AFE0B0E0EBE736
:1048F000F4E20C94A3577C018B01DB010D900020A6
:10490000E9F76D010894C108D108C61AD70AB3E0C7
:10491000CB16D1040CF4F2C0FB0181818B83828120
:104920008C831D82CE0103968C879D87CE010396D2
:10493000BE016F5F7F4F40E150E00E94E558D70114
:104940006C93E981FA818C859D85E817F90709F454
:10495000D5C08081882309F0D1C097E0C916D10461
:104960000CF4CCC0D80113968C9113978B831496BA
:104970008C9114978C8315968C9115978D83169630
:104980008C918E831F82CE010396BE016F5F7F4F95
:1049900040E150E00E94E558F70161837283E981AC
:1049A000FA818C859D85E817F90709F4A7C08081F5
:1049B000882309F0A3C099E0C916D1040CF49EC065
:1049C000D80117968C9117978B8318968C918C83AE
:1049D0001D82CE010396BE016F5F7F4F40E150E024
:1049E0000E94E558F7016383E981FA818C859D85F2
:1049F000E817F90709F482C08081882309F07EC096
:104A0000D70111968C91119712969C9112977C90D8
:104A1000780E790E760E480117014424552499E04A
:104A2000A92EB12CFE013396EE87FF87CE010196A9
:104A30008B87692E32C02C153D050CF05FC0D40168
:104A400019968C9119978B831A968C918C83E2E03E
:104A5000F0E0AE0EBF1E1D82CE0103966B85762D53
:104A600040E150E00E94E558D10114966C93E98131
:104A7000FA818E859F85E817F90709F43FC0A2E007
:104A8000B0E08A0E9B1E0894211C311C8081882373
:104A9000A9F5760E0894411C511CF701808190E025
:104AA00095012F5F3F4F481659062CF22C153D05F6
:104AB0002CF5F801EA0DFB1D80818B8381818C83AD
:104AC0001D828E010D5F1F4FC801BE016F5F7F4FBA
:104AD00040E150E00E94E55884E091E0E80EF91EC4
:104AE000D7016C93E981FA81E017F10739F08081F1
:104AF000882321F47194272D30E002C02FEF3FEF7F
:104B0000C9012F96E2E10C94BF57A0E9B2E0EBE8AF
:104B1000F5E20C94A357082FE82EFF24F701E85E76
:104B2000F84DE081EE2309F4CDC2E33071F0E430BA
:104B300089F0E23029F422E7822E29E2922E0EC07B
:104B400095E7892E96E2992E09C088E0882E87E2A3
:104B5000982E04C017E9812E15E2912E83EC97E27E
:104B60006AEC73E241E00E94124C182F882349F04E
:104B70008CE09CE00E942556812F90E00E945522F7
:104B80003DC000D00F928AEF9BE0ADB7BEB7119643
:104B90008D939C9312971396ED92FC9214970E941A
:104BA0006756198281E08A830F900F900F900F90C3
:104BB000C401602FAE014F5F5F4F22E000E00E9412
:104BC000462FF40185858823E1F786858130B1F091
:104BD000268500D00F92EDB7FEB731968CED9BE0A5
:104BE000ADB7BEB711968D939C9312972283138213
:104BF0000E9467560F900F900F900F9088E893E1F6
:104C000020E233E0F9013197F1F70197D9F78FEC02
:104C10009BE00E9425560FEF1FEFCC24DD24662475
:104C20007724B6E82B2E312C2C0E3D1EA6E84A2EFA
:104C3000A1E05A2E4C0E5D1EF2013496C357DD4F93
:104C4000E883F983CD58D240CBC00894611C711C15
:104C5000F10101900020E9F7329780818A3009F450
:104C60001082D1018C918A3309F0BAC0C201B1011E
:104C70000E947524F82EC657DD4F8881CA58D2404D
:104C8000F81619F100D00F928BE99BE0EDB7FEB753
:104C900081839283638274820E9467560F920F927F
:104CA000EDB7FEB7319680E79BE0ADB7BEB7119682
:104CB0008D939C931297C657DD4F8881CA58D24076
:104CC00082831382F482158282C0D20113962C91C2
:104CD0001397222309F053C01196ED90FC90129780
:104CE0005701AA0CAB2CAA1CBB08B194A016B106A4
:104CF000C1F0CD1491F01695102F00271795079548
:104D00000C0D111DA80160E070E0DC18C4012D2D10
:104D10008E010F5F1F4F0E9430237FE7D72EDE20CA
:104D2000CD2C4E2D4F774C1508F4C42EF201508136
:104D3000252F30E0C357DD4FA881B981CD58D2402F
:104D4000E42FF0E0359681E090E08C0F9D1FE80F96
:104D5000F91F2C5F3F4F240D351D02C08D918193AB
:104D6000A217B307D9F7852F90E0840F911D2D2D41
:104D700030E0281739079CF5D42ED50E30C02130ED
:104D8000A9F4CD14B9F11695102F002717950795A2
:104D90000C0D111DA80160E070E0DC18C4012D2D80
:104DA0008E010F5F1F4F0E94302324C000D000D01F
:104DB000EDB7FEB731968EE29BE0ADB7BEB7119668
:104DC0008D939C93129722831382648275820E9432
:104DD0006756EDB7FEB73696EDBFFEBF0BC0850137
:104DE000C10160E071E043EC57E20E94D34E892B91
:104DF00009F02BCF83EC97E240E050E060E070E0F8
:104E00000E94BC3B182F882349F080E19BE00E9460
:104E10002556812F90E00E9455222CC183E09BE013
:104E20000E942556CC24CA94DC2C00E010E06624B5
:104E30007724CE018A579F4FC157DD4F88839983CE
:104E4000CF58D24056E8452E51E0552E4C0E5D1EEF
:104E5000D2011496C557DD4FA883B983CB58D240F1
:104E6000FFC00894611C711CC157DD4FE881F981B6
:104E7000CF58D24001900020E9F7329780818A30E4
:104E800009F41082CA57DF4F8881C658D0408A3350
:104E900009F0E6C0C201B1010E947524F82EC65780
:104EA000DD4F8881CA58D240F81619F100D00F9210
:104EB00080ED9AE0EDB7FEB78183928363827482BE
:104EC0000E9467560F920F92EDB7FEB7319685EAB2
:104ED0009AE0ADB7BEB711968D939C931297C657C3
:104EE000DD4F8881CA58D24082831382F4821582B2
:104EF000AEC0D20113962C911397222309F065C0FE
:104F00001196ED90FC9012975701AA0CAB2CAA1C9D
:104F1000BB08B194AC14BD0449F1011721F1A601FD
:104F20005695542F442757954795400F511D60E0E3
:104F300070E0101BC401212F8E010F5F1F4F0E94D4
:104F40007B22892B81F400D00F9288E89AE0EDB79C
:104F5000FEB781839283C382D4820E9467560F90EA
:104F60000F900F900F901E2D1F77012F4E2D4F7712
:104F7000401708F4042FD2015C91252F30E0C5576B
:104F8000DD4FA881B981CB58D240E42FF0E03596AF
:104F900081E090E08C0F9D1FE80FF91F2C5F3F4FC1
:104FA000240D351D02C08D918193A217B307D9F747
:104FB000852F90E0840F911D212F30E028173907AD
:104FC0000CF04DC0142F150F4AC0213079F5011790
:104FD00041F1A6015695542F442757954795400F08
:104FE000511D60E070E0101BC401212F8E010F5F86
:104FF0001F4F0E947B22892BA1F400D00F928BE6D9
:105000009AE0ADB7BEB711968D939C931297139605
:10501000CD92DC9214970E9467560F900F900F90DC
:105020000F9089E69AE00E94255624C000D000D057
:10503000EDB7FEB7319688E29AE0ADB7BEB71196EC
:105040008D939C93129722831382648275820E94AF
:105050006756EDB7FEB73696EDBFFEBF0BC06501D4
:10506000C10160E071E043EC57E20E94D34E892B0E
:1050700009F0F7CE85E48983C40160E7AE014F5F94
:105080005F4F21E000E00E94462FD4011D968C91D5
:105090001D978823D1F71E968C911E97813011F1B0
:1050A0001E962C9100D00F92EDB7FEB731968DE091
:1050B0009AE0ADB7BEB711968D939C931297228359
:1050C00013820AC000D00F9282EF99E0EDB7FEB7CD
:1050D00081839283E382F4820E9467560F900F903F
:1050E0000F900F90C057DD4FE2E10C94BF57A0E93D
:1050F000B2E0EDE7F8E20C94A357082FE82EFF2466
:10510000F701E85EF84DE081EE2309F4E1C2E330F7
:1051100071F0E43089F0E23029F462E7862E69E22A
:10512000962E0EC055E7852E56E2952E09C048E012
:10513000842E47E2942E04C037E9832E35E2932E65
:1051400083EA97E265ED73E241E00E94124C182F6A
:10515000882349F086EE9EE00E942556812F90E03C
:105160000E94552251C007FF12C084E0E0E6F6E03D
:10517000868384E690E020E233E0F9013197F1F78D
:105180000197D9F784E0E0E6F6E085833DC000D0E2
:105190000F9285ED9EE0ADB7BEB711968D939C93AF
:1051A00012971396ED92FC9214970E9467561982FB
:1051B00081E08A830F900F900F900F90C401602FB1
:1051C000AE014F5F5F4F22E000E00E94462FF401E6
:1051D00085858823E1F786858130B1F0268500D06A
:1051E0000F92EDB7FEB7319687EB9EE0ADB7BEB735
:1051F00011968D939C931297228313820E94675677
:105200000F900F900F900F9088E893E120E233E029
:10521000F9013197F1F70197D9F78AEA9EE00E94E8
:1052200025560FEF1FEFCC24DD246624772426E8D3
:10523000222E312C2C0E3D1E96E8492E91E0592E3F
:105240004C0E5D1EF2013496C357DD4FE883F9839F
:10525000CD58D240CBC00894611C711CF101019063
:105260000020E9F7329780818A3009F41082D10159
:105270008C918A3309F0BAC0C201B1010E94752431
:10528000F82EC657DD4F8881CA58D240F81619F15A
:1052900000D00F9287E79EE0EDB7FEB7818392833F
:1052A000638274820E9467560F920F92EDB7FEB729
:1052B00031968CE49EE0ADB7BEB711968D939C936A
:1052C0001297C657DD4F8881CA58D2408283138215
:1052D000F482158282C0D20113962C911397222357
:1052E00009F053C01196ED90FC9012975701AA0C4B
:1052F000AB2CAA1CBB08B194A016B106C1F0CD140A
:1053000091F01695102F0027179507950C0D111D7C
:10531000A80160E070E0DC18C4012D2D8E010F5F44
:105320001F4F0E942E24AFE7DA2EDE20CD2C4E2D0B
:105330004F774C1508F4C42EF2015081252F30E030
:10534000C357DD4FA881B981CD58D240E42FF0E09A
:10535000359681E090E08C0F9D1FE80FF91F2C5FC0
:105360003F4F240D351D02C08D918193A217B307C5
:10537000D9F7852F90E0840F911D2D2D30E028174F
:1053800039079CF5D42ED50E30C02130A9F4CD14A8
:10539000B9F11695102F0027179507950C0D111DC3
:1053A000A80160E070E0DC18C4012D2D8E010F5FB4
:1053B0001F4F0E942E2424C000D000D0EDB7FEB7AE
:1053C00031968CE09EE0ADB7BEB711968D939C935D
:1053D000129722831382648275820E946756EDB70A
:1053E000FEB73696EDBFFEBF0BC08501C10160E080
:1053F00071E043EA57E20E94D34E892B09F02BCF8C
:1054000083EA97E240E050E060E070E00E94BC3B3D
:10541000182F882349F08FEE9DE00E942556812F9A
:1054200090E00E9455222CC182EE9DE00E942556FC
:10543000CC24CA94DC2C00E010E066247724CE0152
:105440008A579F4FC157DD4F88839983CF58D240E9
:10545000E6E84E2EE1E05E2E4C0E5D1ED201149663
:10546000C557DD4FA883B983CB58D240FFC00894FD
:10547000611C711CC157DD4FE881F981CF58D240C2
:1054800001900020E9F7329780818A3009F4108278
:10549000CA57DF4F8881C658D0408A3309F0E6C02A
:1054A000C201B1010E947524F82EC657DD4F8881D4
:1054B000CA58D240F81619F100D00F9280EB9DE047
:1054C000EDB7FEB781839283638274820E94675630
:1054D0000F920F92EDB7FEB7319685E89DE0ADB71C
:1054E000BEB711968D939C931297C657DD4F888156
:1054F000CA58D24082831382F4821582AEC0D20190
:1055000013962C911397222309F065C01196ED9004
:10551000FC9012975701AA0CAB2CAA1CBB08B194A3
:10552000AC14BD0449F1011721F1A6015695542F81
:10553000442757954795400F511D60E070E0101BC0
:10554000C401212F8E010F5F1F4F0E947523892BED
:1055500081F400D00F9288E69DE0EDB7FEB781831D
:105560009283C382D4820E9467560F900F900F904F
:105570000F901E2D1F77012F4E2D4F77401708F4E7
:10558000042FD2015C91252F30E0C557DD4FA88153
:10559000B981CB58D240E42FF0E0359681E090E01D
:1055A0008C0F9D1FE80FF91F2C5F3F4F240D351DF9
:1055B00002C08D918193A217B307D9F7852F90E090
:1055C000840F911D212F30E0281739070CF04DC0B2
:1055D000142F150F4AC0213079F5011741F1A601AA
:1055E0005695542F442757954795400F511D60E01D
:1055F00070E0101BC401212F8E010F5F1F4F0E940E
:105600007523892BA1F400D00F928BE49DE0ADB7F8
:10561000BEB711968D939C9312971396CD92DC9200
:1056200014970E9467560F900F900F900F9089E487
:105630009DE00E94255624C000D000D0EDB7FEB7F3
:10564000319689E09DE0ADB7BEB711968D939C93DE
:10565000129722831382648275820E946756EDB787
:10566000FEB73696EDBFFEBF0BC06501C10160E01D
:1056700071E043EA57E20E94D34E892B09F0F7CE3E
:1056800085E48983C40160E7AE014F5F5F4F21E08D
:1056900000E00E94462FD4011D968C911D9788230F
:1056A000D1F71E968C911E97813011F11E962C9188
:1056B00000D00F92EDB7FEB731968EEE9CE0ADB7FD
:1056C000BEB711968D939C931297228313820AC0C2
:1056D00000D00F9283ED9CE0EDB7FEB781839283FB
:1056E000E382F4820E9467560F900F900F900F9004
:1056F000C057DD4FE2E10C94BF570F93DF93CF9378
:105700000F92CDB7DEB780E061E00E945E20E0E45A
:10571000F6E088E0818384E0828380E1818390E207
:10572000918320E821838583E0E6F6E081839183FD
:105730002183858380EB80938006E0E8F6E0148285
:10574000E0EEF6E0918380E4818321839683858374
:10575000268380EF80930007E0E0F7E0848380E019
:1057600060E00E94AB2081E060E00E94AB2082E01C
:1057700060E00E94AB2083E060E00E94AB20E0E5A7
:10578000F0E087E4828384EC858388E18093500095
:105790008091510084FFFCCF8FB78983F8941BBEA2
:1057A00024E080E490E0FC0108ED04BF20838981BF
:1057B0008FBF88EE93E020E233E0F9013197F1F7F3
:1057C0000197D9F7E0E4FAE084E08093400A8FE3A0
:1057D0009CE986A397A382E0868388E58093C0082E
:1057E00080E1E0E4F6E086838FEBE0ECF8E0838391
:1057F0008091C20887FFFCCF80EEE0ECF8E0838365
:105800008091C20887FFFCCFE0E4F6E080E1858369
:1058100086838FEDE0ECF8E083838091C20887FFF8
:10582000FCCF80EEE0ECF8E083838091C20887FF34
:10583000FCCFE0E4F6E080E18583868380EEE0EC57
:10584000F8E083838091C20887FFFCCFE0ECF8E0AA
:1058500013828091C20887FFFCCFE0E4F6E080E18C
:105860008583868380E8E0ECF8E083838091C2083A
:1058700087FFFCCF80E3E0ECF8E083838091C208EF
:1058800087FFFCCF90E1E0E4F6E0958388E5809324
:10589000C009E0E6F6E09683E0ECF9E093838091BE
:1058A000C20987FFFCCFE0ECF9E013828091C209C6
:1058B00087FFFCCF8FE1E0ECF9E083838091C209A0
:1058C00087FFFCCFE0E6F6E080E1858386838CE00D
:1058D000E0ECF9E083838091C20987FFFCCFE0EC24
:1058E000F9E013828091C20987FFFCCF83E0E0ECEE
:1058F000F9E083838091C20987FFFCCF80E1E0E675
:10590000F6E085830E94922C0E94AE540E94372EAE
:1059100087E0E0EAF0E0828378940F90CF91DF9106
:105920000F91089510925D2510925E2510925B25CF
:1059300010925C2510925F25109260251092192517
:105940001092182510921A25E0EAF8E08BE486837D
:1059500080EA878380E1838383E0858388E1848391
:10596000089520915F2530916025C9010895209107
:105970005D2530915E2580915F2590916025892B72
:10598000D1F3E0916325F0916425E20FF31FE081EC
:105990002F5F3F4FF89480915F259091602501978C
:1059A00080935F25909360257894809161259091F4
:1059B00062252817390710F020E030E020935D259C
:1059C00030935E258E2F0895282F90911825809171
:1059D0001A258034E0F7E92FF0E0E85EFA4D2383E2
:1059E0009F5FF89480911A258F5F80931A2581E13B
:1059F000E0EAF8E083837894903408F090E09093A4
:105A000018250895CF93DF93EC0103C00E94E42C86
:105A10002196FE0184918823C9F7DF91CF910895E3
:105A20008DE00E94E42C8AE00E94E42C0895CF923D
:105A3000DF92FF920F931F93CF93DF936C018091BE
:105A40005F2590916025892B11F4FF243CC00E94B2
:105A5000B72CF82E82E3F81629F0C0E0D0E00F2D25
:105A600010E02EC00E94B72C182F0E94B72C382FA0
:105A700020E0C901810F911D8C01C0E0D0E0095FD9
:105A80001F4F0DC080915F2590916025892BD1F328
:105A90000E94B72CF601EC0FFD1F80832196C017E2
:105AA000D10780F310C080915F2590916025892BEC
:105AB000D1F30E94B72CF601EC0FFD1F80832196D5
:105AC000C017D10780F38F2D90E0DF91CF911F9108
:105AD0000F91FF90DF90CF900895FF920F931F9347
