:100000000C94E3090C94080A0C94080A0C94080A4E
:100010000C94080A0C94080A0C94080A0C94080A18
:100020000C94080A0C94080A0C94080A0C94080A08
:100030000C94080A0C94940E0C94080A0C94080A68
:100040000C94080A0C94080A0C94080A0C94080AE8
:100050000C94080A0C94080A0C94080A0C94080AD8
:100060000C94080A0C94E1370C942E380C94080A6E
:100070000C94080A0C94080A0C94080A0C94080AB8
:100080000C94080A0C94080A0C94080A0C94080AA8
:100090000C94080A0C94080A0C94080A0C94080A98
:1000A0000C94080A0C94080A0C94080A0C94080A88
:1000B0000C94080A0C94080A0C94FE0E0C947F38D9
:1000C0000C94080A0C94080A0C94080A0C94080A68
:1000D0000C94080A0C9438480C94080A0C94080AEA
:1000E0000C94080A0C94080A0C94080A0C94080A48
:1000F0000C94080A0C94080A0C94080A0C94080A38
:100100000C94080A0C94080A0C94080A0C94080A27
:100110000C94080A0C94080A0C94080A0C94080A17
:100120000C94080A0C94080A0C94080A0C94080A07
:100130000C94C90E0C94080A0C94080A0C94080A32
:100140000C94080A0C94080A0C94080A0C94080AE7
:100150000C94080A0C94080A0C94080A0C94080AD7
:100160000C94080A0C94080A0C94080A0C94080AC7
:100170000C94080A0C94080A0C94080A0C94080AB7
:100180000C94080A0C94080A0C94080A0C94080AA7
:100190000C94680F0C94080A0C94080A0C94080A32
:1001A0000C94080A0C94080A0C94080A0C94330F57
:1001B0000C9488480C94080A0C94080A0C94080AB9
:1001C0000C94080A0C94080A0C94080A0C94080A67
:1001D0000C94080A0C94080A0C94080A0C94080A57
:1001E0000C94080A0C94080A0C94080A0C94080A47
:1001F0000C94080A9B1C9F1CA31CA61CA91CAC1CCD
:10020000B41CB71CBA1CD11CD11CD11CD11CD11CD4
:10021000D11CBD1CD046D8463B4741470248024846
:100220000248024802480248C847CD47CF47DB474B
:10023000EF474572726F7220665F6F70656E20695E
:100240006E205344496E666F2E6D61742E0A004510
:1002500072726F7220665F6C7365656B20696E20C9
:1002600072656D61696E656420646174612E0A0057
:100270004572726F7220665F6C7365656B20696E84
:10028000205344496E666F2E6D61742E0A004F70C4
:10029000656E696E672025732E0A0046756E63745D
:1002A000696F6E2062756666657220666F7220796E
:1002B0002069732066756C6C2E0A004572726F722D
:1002C000207365656B696E6720696E20666574636F
:1002D000685F626C6F636B5F66756E635F79282918
:1002E0002E0A0066726573756C74203D202025759A
:1002F0000A004572726F722072656164696E6720D0
:10030000696E2066657463685F626C6F636B5F66BD
:10031000756E635F7928292E0A0066726573756CA5
:1003200074203D202025750A0046756E6374696F40
:100330006E2062756666657220666F72207820692D
:10034000732066756C6C0A004572726F722073655B
:10035000656B696E6720696E2066657463685F62AD
:100360006C6F636B5F66756E635F7828292E0A0079
:1003700066726573756C74203D202025750A0045F2
:1003800072726F722072656164696E6720696E2097
:1003900066657463685F626C6F636B5F66756E63DE
:1003A0005F7828292E0A0066726573756C74203D8B
:1003B000202025750A004572726F7220696E707573
:1003C0007420666F722066756E6374696F6E206349
:1003D00068616E6E656C2E0A004572726F72206FD6
:1003E00070656E696E672066696C6520696E207342
:1003F00065745F76656C5F66756E6328293A20596F
:100400002E0A004572726F722072656164696E67B0
:100410002066696C6520696E207365745F76656C13
:100420005F66756E6328293A20592E0A00675F6E51
:10043000626C6F636B735F66756E635F79203D20DE
:1004400025750A00675F6E62797465735F66696E11
:10045000616C5F626C6F636B5F79203D2025750A6C
:1004600000675F6E62797465735F66756E635F794E
:10047000203D2025750A005365742076656C6F63F6
:100480006974792066756E6374696F6E20257520B6
:10049000666F7220590A004F70656E696E6720257D
:1004A000732E0A004572726F72206F70656E696EEE
:1004B000672066696C6520696E207365745F766578
:1004C0006C5F66756E6328293A20582E0A004572C3
:1004D000726F722072656164696E672066696C650F
:1004E00020696E207365745F76656C5F66756E63F8
:1004F00028293A20582E0A00675F6E626C6F636B82
:10050000735F66756E635F78203D2025750A00670E
:100510005F6E62797465735F66696E616C5F626C51
:100520006F636B5F78203D2025750A00675F6E6200
:10053000797465735F66756E635F78203D202575FD
:100540000A005365742076656C6F63697479206660
:10055000756E6374696F6E2020257520666F72203A
:10056000580A004F70656E696E672025732E0A0069
:100570004572726F723A206368616E6E656C206DB1
:10058000757374206265203120666F7220782C208C
:100590006F72203220666F7220792E0A00457272C7
:1005A0006F72206F70656E696E672066696C65207A
:1005B000696E207365745F706F735F66756E632814
:1005C000293A20592E0A004572726F7220726561B5
:1005D00064696E672066696C6520696E2073657456
:1005E0005F706F735F66756E6328293A20592E0A13
:1005F00000675F6E626C6F636B735F66756E635FDF
:1006000079203D2025750A00675F6E6279746573F5
:100610005F66696E616C5F626C6F636B5F79203DD2
:10062000202575200A00675F6E62797465735F66C6
:10063000756E635F79203D2025750A00536574202F
:10064000706F736974696F6E2066756E6374696F1D
:100650006E20257520666F7220590A004F70656EF6
:10066000696E672025732E0A004572726F72206FC3
:1006700070656E696E672066696C6520696E2073AF
:1006800065745F706F735F66756E6328293A2058D2
:100690002E0A004572726F722072656164696E671E
:1006A0002066696C6520696E207365745F706F7376
:1006B0005F66756E6328293A20580A00675F6E628C
:1006C0006C6F636B735F66756E635F78203D20258A
:1006D000750A00675F6E62797465735F66696E6143
:1006E0006C5F626C6F636B5F78203D2025750A003C
:1006F000675F6E62797465735F66756E635F78209D
:100700003D2025750A0053657420706F7369746904
:100710006F6E2066756E6374696F6E202575206636
:100720006F7220580A004F70656E696E67202573DE
:100730002E0A0046756E6374696F6E206368616E81
:100740006E656C206E756D626572206D75737420B8
:100750006265203120666F7220782C206F72203203
:1007600020666F7220792E0A0053657474696E6773
:100770002064656661756C742066756E6374696F5C
:100780006E20666F7220592E0A0053657474696E6C
:10079000672064656661756C742066756E63746944
:1007A0006F6E20666F7220582E0A002062656E639D
:1007B000685F74696D65203D20256C75206D732C14
:1007C000206672616D655F72617465203D202575DC
:1007D0000A0043616E6E6F742066696E64207468EF
:1007E0006520686172647761726520636F6E666907
:1007F000672066696C65206F6E20746865205344BD
:1008000020636172642E0A005375636365737366B7
:10081000756C6C79206C6F61642074686520686108
:1008200072647761726520636F6E666967206669BE
:100830006C6520746F20454550524F4D0A004F7033
:10084000656E696E672025732E0A004572726F729D
:10085000206F70656E696E67207061747465726E6A
:100860002066696C650A004572726F72207265615C
:1008700064696E6720696E207061747465726E20A1
:1008800066696C650A002020675F6E5F78203D20F6
:1008900025750A2020675F6E5F79203D2025750A47
:1008A0002020675F6E756D5F70616E656C73203DB3
:1008B0002025750A2020677261797363616C652059
:1008C0003D2025750A20726F775F636F6D707265CA
:1008D0007373696F6E203D2025750A00536574742B
:1008E000696E67207061747465726E2025753A0AAE
:1008F000004F70656E696E672025732E0A0046757D
:100900006E6374696F6E2062756666657220666FCD
:1009100072207920697320656D7074790A004675BC
:100920006E6374696F6E2062756666657220666FAD
:1009300072207820697320656D7074790A00667280
:100940006573756C74203D2025752C20696E646577
:10095000785F6672616D653D2025752C206F666637
:10096000736574203D20256C752C207046696C657C
:100970002D3E66733D25582C207046696C652D3ED2
:1009800066732D3E66735F747970653D25582C2023
:100990007046696C652D3E66732D3E69643D255831
:1009A0000A004572726F72207365656B696E67200D
:1009B000696E2066657463685F616E645F64697305
:1009C000706C61795F6672616D65210A006672659F
:1009D00073756C74203D2025752C20696E646578D4
:1009E0005F6672616D653D2025752C206E6279749D
:1009F00065735F726561643D2025750A00457272FA
:100A00006F7220696E2072656164696E6720666925
:100A10006C6520696E2066657463685F616E645FF3
:100A2000646973706C61795F6672616D65210A003B
:100A300053756363657373207365742074686520F0
:100A40006E6577206C617365722070617474657275
:100A50006E2E0A007365745F6761696E5F6269611B
:100A6000733A206761696E5F783D2025642C2020F1
:100A7000626961735F783D2025642C206761696E2F
:100A80005F793D2025642C20626961735F793D2583
:100A9000640A007365745F6761696E5F62696173A0
:100AA0003A206761696E5F783D2025642C202062C2
:100AB0006961735F783D2025642C206761696E5FF2
:100AC000793D2025642C20626961735F793D25643E
:100AD0000A007365745F706F736974696F6E3A2092
:100AE000675F783D2025752C2020675F793D2025A4
:100AF000752C20616E6420675F696E6465785F663F
:100B000072616D653D2025750A0066756E637469B6
:100B10006F6E20592075706461746520667265710E
:100B200075656E6379203D2025752E0A0066756E09
:100B30006374696F6E2058207570646174652066F7
:100B400072657175656E6379203D2025752E0A00EA
:100B50004144435F76616C7565203D202025643AF1
:100B60000A007265736F6C7574696F6E5F79203DF2
:100B7000202025643A0A007265736F6C7574696F82
:100B80006E5F78203D202025643A0A004469736135
:100B9000626C656420496E74332065787465726E8A
:100BA000616C2074726967676572206D6F6465217E
:100BB0000A00456E61626C656420496E743320657D
:100BC000787465726E616C207472696767657220F3
:100BD0006D6F6465206973206F6E210A0052657322
:100BE000657420636F6E74726F6C6C657220746FC5
:100BF00020776F726B20696E2074686520504320E7
:100C000064756D70696E67206D6F6465210A0052AE
:100C10006573657420636F6E74726F6C6C6572209F
:100C2000746F20776F726B20696E20746865206323
:100C30006F6E74726F6C6C6572206D6F6465210AE3
:100C4000007570646174653A202564202564202550
:100C500064202564202564202564202564202564E3
:100C60003A0A0043757272656E7420766572736914
:100C70006F6E206E756D6265722069732025732E0C
:100C80000A0043757272656E7420776F726B696EBD
:100C900067206D6F64652069732074686520504318
:100CA0002064756D70696E67206D6F6465210A0040
:100CB00043757272656E7420776F726B696E672010
:100CC0006D6F64652069732074686520436F6E746E
:100CD000726F6C6C6572206D6F6465210A003F3F16
:100CE0003F0A00204E4F54205245414459210A00EA
:100CF0002057524954452050524F5445435445447F
:100D0000210A00204552524F52210A0020464154E8
:100D1000204F4B210A00496E697469616C697A69D8
:100D20006E6720464154204469736B2E2E2E003F7F
:100D30003F3F0A00534448430A00424C4B0A0053C9
:100D400044430A005344320A0053440A004D4D43C1
:100D50000A004361726420747970653A200053443C
:100D6000206361726420697320696E697469616CC3
:100D7000697A65640A00496E697469616C697A61AF
:100D800074696F6E206661696C65642121210A00B7
:100D900053442063617264206973205772697465DB
:100DA0002050726F746563746564210A00496E7324
:100DB0006572742053442063617264000A4D616956
:100DC0006E20436F6E74726F6C6C657220576F7219
:100DD0006B730A00494E5433206361746368657312
:100DE000206120726973696E67206564676520748D
:100DF000726967676572210A0043616E6E6F7420C5
:100E000066696E64207468652070616E656C20256B
:100E1000642E0A00426164206578697420636D6401
:100E20002C20726573756C74203D2025750A006452
:100E30006F6E2774206B6E6F7720686F7720746FEA
:100E4000206465616C2077697468207265637479C9
:100E500070653D2564206174206C696E6520256491
:100E6000206F6620656570726F6D2E6865780A0068
:100E70000A00766572696679206D69736D617463C5
:100E80006820666F7220706167652025640A0076AD
:100E90006572696679206D69736D61746368206637
:100EA0006F7220706167652025640A00636865635E
:100EB0006B73756D3D3078253032782C20636F6D03
:100EC000707574656420636865636B73756D3D3020
:100ED00078253032780A004552524F523A206368E2
:100EE00065636B73756D206D69736D6174636820E4
:100EF0006174206C696E65202564206F66206565CD
:100F000070726F6D2E6865780A000A766572696680
:100F100079696E673A20004572726F7220665F6C65
:100F20007365656B20696E20656570726F6D2E68E4
:100F300065782E0A00646F6E2774206B6E6F7720C1
:100F4000686F7720746F206465616C2077697468BE
:100F500020726563747970653D2564206174206C2E
:100F6000696E65202564206F6620656570726F6DFF
:100F70002E6865782E0A00636865636B73756D3D36
:100F80003078253032782C20636F6D70757465640D
:100F900020636865636B73756D3D307825303278FA
:100FA0000A004552524F523A20636865636B73756D
:100FB0006D206D69736D61746368206174206C6964
:100FC0006E65202564206F6620656570726F6D2EDA
:100FD0006865782E0A000A77726974696E673A202C
:100FE0002020004261642070616E656C2072657320
:100FF00065742C20726573756C74203D2025750A0C
:1010000000656570726F6D2070616E656C2025756E
:101010002E0A004572726F7220665F6F70656E20D7
:10102000696E20656570726F6D2E6865782E0A0096
:1010300025530A004F4B004449534B5F4552520021
:10104000494E545F455252004E4F545F5245414401
:1010500059004E4F5F46494C45004E4F5F5041543A
:101060004800494E56414C49445F4E414D4500446D
:10107000454E49454400455849535400494E564150
:101080004C49445F4F424A454354005752495445E6
:101090005F50524F54454354454400494E56414CCD
:1010A00049445F4452495645004E4F545F454E41B6
:1010B000424C4544004E4F5F46494C455F5359539F
:1010C00054454D004D4B46535F41424F52544544A9
:1010D0000054494D454F5554000043616E6E6F7486
:1010E0002066696E64207468652070616E656C208E
:1010F00025642E0A00426164206578697420636D5E
:10110000642C20726573756C74203D2025750A006F
:10111000646F6E2774206B6E6F7720686F77207412
:101120006F206465616C20776974682072656374F0
:101130007970653D2564206174206C696E65202599
:1011400064206F662070616E656C2E6865780A0099
:101150000A00766572696679206D69736D617463E2
:101160006820666F7220706167652025640A0076CA
:101170006572696679206D69736D61746368206654
:101180006F7220706167652025640A00636865637B
:101190006B73756D3D3078253032782C20636F6D20
:1011A000707574656420636865636B73756D3D303D
:1011B00078253032780A004552524F523A206368FF
:1011C00065636B73756D206D69736D617463682001
:1011D0006174206C696E65202564206F66207061E3
:1011E0006E656C2E6865780A000A766572696679A4
:1011F000696E673A20004572726F7220665F6C7389
:1012000065656B20696E2070616E656C2E6865780F
:101210002E0A00646F6E2774206B6E6F7720686FE4
:101220007720746F206465616C2077697468207220
:101230006563747970653D2564206174206C696E06
:1012400065202564206F662070616E656C2E686570
:10125000780A00636865636B73756D3D307825307F
:1012600032782C20636F6D707574656420636865D7
:10127000636B73756D3D3078253032780A004552C6
:10128000524F523A20636865636B73756D206D69C8
:10129000736D61746368206174206C696E652025CC
:1012A00064206F662070616E656C2E6865782E0A0A
:1012B000000A77726974696E673A202020004261E3
:1012C000642070616E656C2072657365742C207289
:1012D0006573756C74203D2025750A00666C61731A
:1012E000682070616E656C2025752E0A004572724B
:1012F0006F7220665F6F70656E20696E2070616E20
:10130000656C2E6865782E0A0042616420666C6107
:10131000736820726561642C20726573756C74202B
:101320003D2025750A00230042616420666C6173CC
:101330006820726561642C20726573756C74203D41
:101340002025750A00230042616420656570726F74
:101350006D2077726974652C20726573756C7420CA
:101360003D2025750A00230042616420666C61738C
:101370006820726561642C20726573756C74203D01
:101380002025750A00230042616420666C61736841
:1013900020726561642C20726573756C74203D2029
:1013A00025750A00230042616420666C6173682021
:1013B00077726974652C20726573756C74203D209A
:1013C00025750A00230011241FBECFEFDFE3DEBF27
:1013D000CDBF00E00CBF18BE19BE1ABE1BBE13E283
:1013E000A0E0B0E2ECE8F2EA00E00BBF02C0079038
:1013F0000D92A03BB107D9F718E2A0EBB3E201C010
:101400001D92AB3AB107E1F70E94B3270C94445107
:101410000C9400008091BC239091BD230196809391
:10142000BC239093BD238091BC239091BD23209138
:10143000392030913A20B9010E94564B8093BC2349
:101440009093BD236091BE237091BF234091BC2334
:101450005091BD23629FC001639F900D729F900DBC
:101460001124840F951F8093B6239093B723809106
:10147000F423882329F08091B2238F5F8093B223D5
:1014800008958091BE239091BF2301968093BE233F
:101490009093BF238091BE239091BF2360913B2006
:1014A00070913C200E94564B8093BE239093BF23A3
:1014B0006091BE237091BF232091BC233091BD2346
:1014C0004091392050913A20649FC001659F900D52
:1014D000749F900D1124820F931F8093B6239093D5
:1014E000B7238091F423882329F48091B2238F5F5E
:1014F0008093B22308958091BC239091BD230097DF
:1015000029F48091392090913A2004C08091BC2325
:101510009091BD2301978093BC239093BD2360914C
:10152000BE237091BF232091BC233091BD234091F5
:10153000392050913A20649FC001659F900D749F9F
:10154000900D1124820F931F8093B6239093B7239D
:101550008091F423882329F08091B2238F5F8093B8
:10156000B22308958091BE239091BF23009729F460
:1015700080913B2090913C2004C08091BE239091AB
:10158000BF2301978093BE239093BF236091BE2316
:101590007091BF232091BC233091BD23409139200D
:1015A00050913A20649FC001659F900D749F900DEB
:1015B0001124820F931F8093B6239093B7238091B9
:1015C000F423882329F48091B2238F5F8093B22380
:1015D000089583E00E948C2D0895A6E1B0E0E3EF2A
:1015E000FAE00C94BA4BFE01319680E1DF011D92C6
:1015F0008A95E9F78091E323882309F4A6C18091B5
:10160000DF238F5F8093DF238091DF2364E60E94D6
:101610004A4B9093DF2380914C20882329F48091BA
:10162000E32381508093E3238091C523843021F10B
:10163000853020F4833009F08CC107C0853009F46F
:1016400046C0823609F085C157C083E00E949A2DBA
:10165000BC0180E090E020913B2030913C2040E0B4
:1016600050E00E942B4B209137203091382040E0F1
:1016700050E00E947D4B26C0E091DF23F0E0EE0FAA
:10168000FF1FE352F94D808191812091C223309157
:10169000C323820F931F60913B2070913C2097FDE4
:1016A00007C00E94564B8093BE239093BF2333C143
:1016B0009B0121503040909581959F4F0E94564B41
:1016C000281B390B2093BE233093BF2324C1E09104
:1016D000DF23F0E0EE0FFF1FE352F94D808191818F
:1016E000BC01E5E0660F771FEA95E1F7680F791F07
:1016F00081E00E94B62D2DC162EDE62E63E2F62E4A
:101700008E010F5F1F4FA12C50E1B52EC12CD12CA3
:10171000F701819191917F01009759F080E00E943B
:101720009A2DA0E0B0E0F80180839183A283B38377
:1017300006C0D801AD92BD92CD92DC9213970C5F9A
:101740001F4FBAEDEB16B3E2FB0611F7E09137201D
:10175000F0913820ED8BFE8B1F01369427944424A2
:10176000552480913B2090913C209C0140E050E02A
:10177000298B3A8B4B8B5C8BE091DE230091DF232E
:10178000F0E0EE0FFF1FE550FA4D60817181882770
:1017900077FD8095982F2091DA233091DB23442721
:1017A00037FD4095542F0E942B4B2AE0A22EB12CDE
:1017B000C12CD12CA60195010E949F4B39014A01F1
:1017C000E02FF0E0EE0FFF1FE352F94D60817181D1
:1017D000882777FD8095982F2091DC233091DD2399
:1017E000442737FD4095542F0E942B4BA6019501AD
:1017F0000E949F4B620E731E841E951E89899A89D2
:10180000AB89BC89680E791E8A1E9B1E6D817E8104
:101810008F81988562197309840995092091D423D1
:101820003091D523442737FD4095542F0E942B4BF0
:10183000A60195010E949F4B79018A0169817A81F5
:101840008B819C8162197309840995092091D223A7
:101850003091D323442737FD4095542F0E942B4BC2
:10186000A60195010E949F4BE20EF31E041F151F57
:1018700069857A858B859C85621973098409950928
:101880002091D6233091D723442737FD4095542FFC
:101890000E942B4BA60195010E949F4BE20EF31E66
:1018A000041F151F6D857E858F85988962197309C0
:1018B000840995092091D8233091D923442737FDF5
:1018C0004095542F0E942B4BA60195010E949F4BDF
:1018D000E20EF31E041F151FC801B70129893A89BA
:1018E0004B895C890E942B4BAD89BE899D0140E0EC
:1018F00050E00E949F4B620E731E841E951EC40111
:10190000B30129893A894B895C890E949F4B609376
:10191000BE237093BF236091BE237091BF2320919B
:10192000BC233091BD234091392050913A20649FCF
:10193000C001659F900D749F900D1124820F931F1D
:101940008093B6239093B72304C08EEF98E00E9453
:10195000304A6696E2E10C94D34BA8E1B0E0E3EBA9
:10196000FCE00C94BA4BFE01319680E1DF011D9240
:101970008A95E9F78091E223882309F4CDC180910B
:10198000DE238F5F8093DE238091DE2364E60E9456
:101990004A4B9093DE2380914B20882329F4809139
:1019A000E22381508093E2238091C4238430C1F1EB
:1019B000853020F4833009F0B3C107C0853009F4C5
:1019C00073C0823609F0ACC184C082E00E949A2DB7
:1019D0000091392010913A20BC0180E090E09801FC
:1019E00040E050E00E942B4B209135203091362072
:1019F00040E050E00E947D4B2093BC233093BD23F8
:101A00004091BE235091BF232091BC233091BD2330
:101A1000409FC001419F900D509F900D11243DC0EB
:101A2000E091DE23F0E0EE0FFF1FE550FA4D8081DC
:101A300091812091C0233091C123820F931F609127
:101A4000392070913A2097FD07C00E94564B809331
:101A5000BC239093BD230EC09B0121503040909534
:101A600081959F4F0E94564B281B390B2093BC2316
:101A70003093BD236091BE237091BF232091BC237E
:101A80003091BD234091392050913A20649FC0018C
:101A9000659F900D749F900D1124820F931F80936A
:101AA000B6239093B7233CC1E091DE23F0E0EE0F24
:101AB000FF1FE550FA4D80819181BC01E5E0660F82
:101AC000771FEA95E1F7680F791F80E00E94B62D35
:101AD00027C166ECE62E63E2F62E8E010F5F1F4FE4
:101AE000A12C50E1B52EC12CD12CF70181919191FF
:101AF0007F01009759F080E00E949A2DA0E0B0E0AD
:101B0000F80180839183A283B38306C0D801AD928C
:101B1000BD92CD92DC9213970C5F1F4FBEECEB167B
:101B2000B3E2FB0611F7E0913520F0913620ED8B02
:101B3000FE8B1F013694279444245524609139204C
:101B400070913A206F8B788FCB01A0E0B0E0898B49
:101B50009A8BAB8BBC8BE091DE230091DF23F0E00E
:101B6000EE0FFF1FE550FA4D60817181882777FDE8
:101B70008095982F2091CE233091CF23442737FD95
:101B80004095542F0E942B4B2AE0A22EB12CC12C41
:101B9000D12CA60195010E949F4B39014A01E02FEB
:101BA000F0E0EE0FFF1FE352F94D6081718188274D
:101BB00077FD8095982F2091D0233091D123442711
:101BC00037FD4095542F0E942B4BA60195010E9492
:101BD0009F4B620E731E841E951E69897A898B89BC
:101BE0009C89660E771E881E991E6D817E818F816D
:101BF000988562197309840995092091C823309149
:101C0000C923442737FD4095542F0E942B4BA60132
:101C100095010E949F4B79018A0169817A818B81AC
:101C20009C8162197309840995092091C62330911A
:101C3000C723442737FD4095542F0E942B4BA60104
:101C400095010E949F4BE20EF31E041F151F69852C
:101C50007A858B859C856219730984099509209181
:101C6000CA233091CB23442737FD4095542F0E943F
:101C70002B4BA60195010E949F4BE20EF31E041F01
:101C8000151F6D857E858F85988962197309840972
:101C900095092091CC233091CD23442737FD4095E1
:101CA000542F0E942B4BA60195010E949F4BE20EE0
:101CB000F31E041F151FC801B70129893A894B89F2
:101CC0005C890E942B4BAD89BE899D0140E050E0AC
:101CD0000E949F4B620E731E841E951EC401B301A9
:101CE00029893A894B895C890E949F4B6093BC2368
:101CF0007093BD234091BE235091BF232091BC23FC
:101D00003091BD23EF89F88D4E9FC0014F9F900DFC
:101D10005E9F900D1124C1CE8EE199E00E94304A61
:101D20006896E2E10C94D34B1F920F920FB60F927C
:101D300008B60F9209B60F920BB60F92112418BE77
:101D400019BE1BBE2F933F934F935F936F937F9367
:101D50008F939F93AF93BF93EF93FF9382E098E2AB
:101D60000E946D3AFF91EF91BF91AF919F918F913A
:101D70007F916F915F914F913F912F910F900BBE8B
:101D80000F9009BE0F9008BE0F900FBE0F901F90CE
:101D900018951F920F920FB60F9208B60F9209B6C0
:101DA0000F920BB60F92112418BE19BE1BBE2F93B3
:101DB0003F934F935F936F937F938F939F93AF93D3
:101DC000BF93EF93FF9384E598E20E946D3AFF91F1
:101DD000EF91BF91AF919F918F917F916F915F91A3
:101DE0004F913F912F910F900BBE0F9009BE0F9016
:101DF00008BE0F900FBE0F901F9018951F920F9264
:101E00000FB60F9208B60F9209B60F920BB60F924B
:101E1000112418BE19BE1BBE2F933F934F935F939F
:101E20006F937F938F939F93AF93BF93EF93FF93A2
:101E300081E198E20E946D3AFF91EF91BF91AF91DD
:101E40009F918F917F916F915F914F913F912F91D2
:101E50000F900BBE0F9009BE0F9008BE0F900FBEE3
:101E60000F901F9018951F920F920FB60F9208B601
:101E70000F9209B60F920BB60F92112418BE19BE1D
:101E80001BBE2F933F934F935F936F937F938F93DB
:101E90009F93AF93BF93EF93FF9383EF97E20E94DB
:101EA0006D3AFF91EF91BF91AF919F918F917F918B
:101EB0006F915F914F913F912F910F900BBE0F90BB
:101EC00009BE0F9008BE0F900FBE0F901F9018957F
:101ED0001F920F920FB60F9208B60F9209B60F928B
:101EE0000BB60F92112418BE19BE1BBE0F932F9371
:101EF0003F934F935F936F937F938F939F93AF9392
:101F0000BF93EF93FF931092DE231092DF2381E0C3
:101F10008093B0231092B22383E491E14EE450E029
:101F200060E070E021E001E00E9407398AE09AE079
:101F30004EE450E060E070E022E000E00E940739EB
:101F400081E49AE04EE450E060E070E023E00E941B
:101F500007390E94AD0C40914D2050914E2060E019
:101F600070E08DEA9CE024E001E00E9407390E94C5
:101F7000ED0A40914F205091502060E070E08DEECE
:101F80009AE025E00E94073984ED9DE00E94304AE6
:101F9000FF91EF91BF91AF919F918F917F916F9141
:101FA0005F914F913F912F910F910F900BBE0F902A
:101FB00009BE0F9008BE0F900FBE0F901F9018958E
:101FC0000F9381E08093B0231092DE231092DF23E1
:101FD00080934520809346201092B22383E491E1C0
:101FE0004EE450E060E070E021E001E00E9407393B
:101FF0008AE09AE04EE450E060E070E022E000E029
:102000000E94073981E49AE04EE450E060E070E01D
:1020100023E00E9407390E94AD0C40914D20509161
:102020004E2060E070E08DEA9CE024E001E00E9438
:1020300007390E94ED0A40914F205091502060E0F6
:1020400070E08DEE9AE025E00E9407390F91089527
:102050000F931092B02383E491E14EE450E060E0EE
:1020600070E021E000E00E9407398AE09AE04EE447
:1020700050E060E070E022E00E94073981E49AE0DD
:102080004EE450E060E070E023E00E9407394091A8
:102090004D2050914E2060E070E08DEA9CE024E0FD
:1020A0000E94073940914F205091502060E070E02D
:1020B0008DEE9AE025E00E9407390F910895FC010A
:1020C00020812436F1F0253620F4233609F04EC065
:1020D00006C0253641F1263609F048C036C022E652
:1020E0002093C423DC011196E6ECF3E28D9199274D
:1020F00087FD90958193919383E2E23DF807B1F7D4
:10210000089522E62093C523DC011196E2EDF3E267
:102110008D91992787FD90958193919383E2EE3D70
:10212000F807B1F7089521E62093C423DC01119646
:10213000E6ECF3E28D91992787FD90958193919339
:1021400083E2E23DF807B1F7089521E62093C52325
:10215000DC011196E2EDF3E28D91992787FD9095D0
:102160008193919383E2EE3DF807B1F70895282F0C
:10217000392FD901EBE7F4E28D91819384E2E93BB9
:10218000F807D1F70895282F392FD901E9EBF4E2A8
:102190008D91819384E2E83FF807D1F78091342054
:1021A000882321F480E39AE00E94304A08950F9337
:1021B000CF93DF93EB011816190674F49C014427A2
:1021C00037FD4095542F62E17AE780E090E00E946D
:1021D0007D4B8AE09AE012C00097A9F022273327AE
:1021E000281B390B442737FD4095542F62E17AE7CD
:1021F00080E090E00E947D4B8BE79AE0BA01A90154
:1022000022E001E008C08BE79AE04EE450E060E095
:1022100070E022E000E00E9429391C161D0674F4CB
:102220009E01442737FD4095542F62E17AE780E014
:1022300090E00E947D4B81E49AE012C02097A9F0C3
:10224000D095C195DF4F9E01442737FD4095542F0F
:1022500062E17AE780E090E00E947D4B82EB9AE0B9
:10226000BA01A90123E001E008C082EB9AE04EE444
:1022700050E060E070E023E000E00E942939DF9147
:10228000CF910F910895A6E1B0E0E9E4F1E10C945B
:10229000BA4BFE01319680E1DF011D928A95E9F784
:1022A0008091C423813029F1813038F0823009F4E3
:1022B00090C0813609F00CC2FFC0E091DE23F0E04F
:1022C000EE0FFF1FE550FA4D60817181882777FD81
:1022D0008095982F2091EC233091ED23442737FDF2
:1022E0004095542F0E942B4B2AE030E040E050E014
:1022F00059C0A0901124B0901224C0901324D09003
:10230000142480E00E949A2D7C010027F7FC0095A0
:10231000102FB2E0EE0CFF1C001F111FBA95D1F771
:10232000C601B50126E030E040E050E00E942B4BB2
:10233000E60EF71E081F191FAAE0AA2EB12CC12C09
:10234000D12CC801B701A60195010E949F4BF9014C
:1023500020931124F09312244093132450931424B7
:10236000B901CA0128EE33E040E050E00E942B4B57
:10237000605070488E4390402FEF3FE140E050E0C6
:102380000E949F4B79018A012091EC233091ED232B
:10239000442737FD4095542FC801B7010E942B4BAD
:1023A000A60195010E949F4B89019A014091F0235B
:1023B0005091F123CA01880F991F880F991F840F2C
:1023C000951F62E070E00E946A4B5B01A00EB11E97
:1023D00081C1A0901124B0901224C0901324D090F9
:1023E000142480E00E949A2D7C01EE0CFF1CEE0C60
:1023F000FF1C0027F7FC0095102FC601B50126E051
:1024000030E040E050E00E942B4BE60EF71E081F24
:10241000191F7AE0672E712C812C912CC801B7010D
:10242000A40193010E949F4B052F20931124309308
:1024300012244093132450931424E091DE23F0E0FF
:10244000EE0FFF1FE550FA4D6091F0237091F123DC
:10245000CB01880F991F880F991F860F971F62E085
:1024600070E00E946A4B5B0180819181A80EB91EC9
:10247000B901842F902F28EE33E040E050E00E9415
:102480002B4B605070488E4390402FEF3FE140E06F
:1024900050E00E949F4B79018A012091EC233091FA
:1024A000ED23442737FD4095542FC801B7010E9402
:1024B0002B4BA401930107C196ECE92E93E2F92E70
:1024C0008F01A12C80E1B82EC12CD12CF701819174
:1024D00091917F01009759F080E00E949A2DA0E031
:1024E000B0E0F80180839183A283B38306C0D80152
:1024F000AD92BD92CD92DC9213970C5F1F4FBEEC54
:10250000EB16B3E2FB0611F7E091DE23E98BF091C5
:10251000DF23FA8B6D817E818F81988528EE33E0F1
:1025200040E050E00E942B4B605070488E4390403A
:102530000FEF602E0FE1702E812C912CA4019301DE
:102540000E949F4B79018A012091C8233091C923B1
:10255000442737FD4095542FC801B7010E942B4BEB
:102560001AE0212E312C412C512CA20191010E9404
:102570009F4B59016A0169817A818B819C8128EE88
:1025800033E040E050E00E942B4B605070488E4397
:102590009040A40193010E949F4B79018A012091F0
:1025A000C6233091C723442737FD4095542FC801D7
:1025B000B7010E942B4BA20191010E949F4BA20EDA
:1025C000B31E69857A858B859C8528EE33E040E0D3
:1025D00050E00E942B4B605070488E439040A40105
:1025E00093010E949F4B79018A012091CA23309167
:1025F000CB23442737FD4095542FC801B7010E94D3
:102600002B4BA20191010E949F4BA20EB31E6D8520
:102610007E858F85988928EE33E040E050E00E9467
:102620002B4B605070488E439040A40193010E9450
:102630009F4B79018A012091CC233091CD234427EF
:1026400037FD4095542FC801B7010E942B4BA201C2
:1026500091010E949F4BA20EB31E8989E82FF0E0E2
:10266000EE0FFF1FE550FA4D60817181882777FDDD
:102670008095982F2091CE233091CF23442737FD8A
:102680004095542F0E942B4BA20191010E949F4B19
:10269000A20EB31EAA89EA2FF0E0EE0FFF1FE3524D
:1026A000F94D60817181882777FD8095982F209161
:1026B000D0233091D123442737FD4095542F0E94D9
:1026C0002B4BA20191010E949F4BA20EB31E02C090
:1026D000AA24BB248091C523813029F1813038F0B0
:1026E000823009F48DC0813609F00BC2F8C0E09148
:1026F000DF23F0E0EE0FFF1FE352F94D608171819F
:10270000882777FD8095982F2091EE233091EF2335
:10271000442737FD4095542F0E942B4B2AE030E090
:1027200040E050E056C060900D2470900E248090E0
:102730000F249090102481E00E949A2D7C01EE0CD1
:10274000FF1CEE0CFF1C0027F7FC0095102FC401A6
:10275000B30126E030E040E050E00E942B4BE60E53
:10276000F71E081F191F5AE0652E712C812C912C21
:10277000C801B701A40193010E949F4BF901209366
:102780000D24F0930E2440930F2450931024B9018C
:10279000CA0128EE33E040E050E00E942B4B60502D
:1027A00070488E4390402FEF3FE140E050E00E94A0
:1027B0009F4B79018A012091EE233091EF2344272A
:1027C00037FD4095542FC801B7010E942B4BA4013F
:1027D00093010E949F4B69017A012091F22330916D
:1027E000F323C901880F991F880F991F820F931F28
:1027F00062E070E00E946A4B8B010C0D1D1D83C1CD
:1028000060900D2470900E2480900F2490901024DE
:1028100081E00E949A2D7C01EE0CFF1CEE0CFF1C47
:102820000027F7FC0095102FC401B30126E030E02B
:1028300040E050E00E942B4BE60EF71E081F191FC8
:102840008AE0682E712C812C912CC801B701A4015B
:1028500093010E949F4BE52E20930D2430930E246C
:1028600040930F2450931024E091DF23F0E0EE0F0B
:10287000FF1FE352F94D6091F2237091F323CB01D6
:10288000880F991F880F991F860F971F62E070E0CD
:102890000E946A4B8B0180819181080F191FB90139
:1028A000842F9E2D28EE33E040E050E00E942B4B19
:1028B000605070488E4390402FEF3FE140E050E081
:1028C0000E949F4B69017A012091EE233091EF2302
:1028D000442737FD4095542FC701B60109C156EC76
:1028E000E52E53E2F52E8E010F5F1F4F612C40E164
:1028F000742E812C912CF701819191917F01009789
:1029000059F080E00E949A2DA0E0B0E0F8018083A9
:102910009183A283B38306C0D8016D927D928D927C
:102920009C9213970C5F1F4FBEECEB16B3E2FB06B5
:1029300011F7E091DE23E98BF091DF23FA8B6D81B3
:102940007E818F81988528EE33E040E050E00E9440
:102950002B4B605070488E4390403FEF232E3FE159
:10296000332E412C512CA20191010E949F4B7901E1
:102970008A012091D4233091D523442737FD4095F7
:10298000542FC801B7010E942B4B2AE0622E712CF4
:10299000812C912CA40193010E949F4B2B8B3C8B8B
:1029A0004D8B5E8B69817A818B819C8128EE33E02F
:1029B00040E050E00E942B4B605070488E439040A6
:1029C000A20191010E949F4B79018A012091D2239B
:1029D0003091D323442737FD4095542FC801B701C8
:1029E0000E942B4BA40193010E949F4B0B891C89D1
:1029F000020F131F69857A858B859C8528EE33E04D
:102A000040E050E00E942B4B605070488E43904055
:102A1000A20191010E949F4B69017A012091D62366
:102A20003091D723442737FD4095542FC701B60175
:102A30000E942B4BA40193010E949F4B020F131F76
:102A40006D857E858F85988928EE33E040E050E0E3
:102A50000E942B4B605070488E439040A201910120
:102A60000E949F4B69017A012091D8233091D9238C
:102A7000442737FD4095542FC701B6010E942B4BC8
:102A8000A40193010E949F4B020F131F8989E82F15
:102A9000F0E0EE0FFF1FE550FA4D6081718188274D
:102AA00077FD8095982F2091DA233091DB234427FE
:102AB00037FD4095542F0E942B4BA40193010E9497
:102AC0009F4B020F131FAA89EA2FF0E0EE0FFF1FA2
:102AD000E352F94D60817181882777FD8095982FA9
:102AE0002091DC233091DD23442737FD4095542F7E
:102AF0000E942B4BA40193010E949F4B020F131FB6
:102B000002C000E010E08091B023882321F400E0AF
:102B100010E0AA24BB2481E0A016B1060CF480E0EA
:102B20008093F423C501B8010E94D7106696E2E1B4
:102B30000C94D34BA2E8B0E0E0EAF5E10C94C44B6E
:102B400005EF13E200D000D0EDB7FEB73196ADB778
:102B5000BEB711960D931C93129720E030E22283AA
:102B60003383848315820E943A4EEDB7FEB73696C2
:102B7000EDBFFEBF809134208823A1F400D00F92D6
:102B80008EE398E0ADB7BEB711968D939C931297E4
:102B900013960D931C9314970E94724A0F900F90F6
:102BA0000F900F9083EC96E265EF73E241E00E9494
:102BB0004D3D8823B9F58E010D5F1F4F83EC96E2E2
:102BC000B80140E850E09E012F5F3F4F0E94EB416B
:102BD000882309F589819A8180389105E1F478018B
:102BE00009EFC02E04E2D02E00E010E0F701619161
:102BF0007F010F5F1F4FD6016D936D01C8018F5F7D
:102C00009F4F0E947E500038110581F781E090E0CF
:102C100060E00E947E5083EC96E20E942B4388E0A5
:102C200098E002C082ED97E00E94304ACE57DF4F15
:102C3000E8E00C94DD4B1F93CF93DF93162FEA014E
:102C4000882349F580910F288823E1F782E098E2F4
:102C500060E0AE01212F0E94F43980916128882321
:102C6000E1F784E598E260E0AE01212F0E94F4399B
:102C700080911E288823E1F781E198E260E0AE01AF
:102C8000212F0E94F439809100288823E1F783EFF7
:102C900097E260E01CC090E0FC01E850FB4DE08151
:102CA00087589A4DDC016C91EE23A9F0E150E43095
:102CB00040F4F0E0EE0FFF1FE459FC4D808191815C
:102CC00002C082E098E2FC0125852223E1F7AE01F3
:102CD000212F0E94F439DF91CF911F910895ACE02C
:102CE000B0E0E5E7F6E10C94BA4B5C011B014F83C1
:102CF0005887EDB6FEB6E986FA8680913920909124
:102D00003A20489F6001499FD00C589FD00C112455
:102D1000C60ED71E8091B8239091B923C816D90644
:102D200008F096C2EB86FC8681E061E00E946E2D81
:102D30008091B223823018F081E00E942B2C1092F7
:102D4000B2239091FA258091B523989F30011124E8
:102D5000C3019170672D6695009709F06F5F8DB77D
:102D60009EB7861997098DBF9EBF4DB65EB6089473
:102D7000411C511C70E080E090E0960140E050E082
:102D80000E942B4B7B018C010894E11CF11C011D5E
:102D9000111D49E0EE0CFF1C001F111F4A95D1F7D1
:102DA000C501B801A7010E9439434C01009709F001
:102DB000ACC1F50186819781A085B1858E159F05EF
:102DC000A007B10709F0A1C1C501B201A3019E018D
:102DD0002F5F3F4F0E94EB418C01009709F06DC1BE
:102DE00089819A818615970509F067C1AA24A39461
:102DF00033E0C32ED12CCC0EDD1E59C14091FA25F3
:102E00008A2D90E00197242F30E0829F7001839FEC
:102E1000F00C929FF00C112482010E0D1F1D809169
:102E2000B423882309F43CC1483061F5D8018C9162
:102E300011969C911197891729F512963C9112973A
:102E400013969C9113973917E9F414962C911497C3
:102E500015969C9115972917A9F416969C9116978B
:102E600017964C911797941769F4831759F48217A2
:102E700049F4891739F48A2D61E0A8010E941B16D4
:102E800081E001C080E09091FA25983109F052C0AC
:102E9000F201EE0DFF1D3081F8019181391709F023
:102EA00049C042819381491709F044C0248195812A
:102EB000291709F03FC0968157819517D9F5341726
:102EC000C9F53217B9F53917A9F520859185291764
:102ED00089F552859385591769F544859585491774
:102EE00049F596856785961729F5251719F524174D
:102EF00009F52917F9F4908941899417D9F4628961
:102F000043896417B9F454894589541799F446895B
:102F10007789471779F4961769F4951759F4941738
:102F200049F43B832C839D838A2D63E0A6010E9494
:102F30001B1681E09091FA25903209F0AFC0F201A2
:102F4000EE0DFF1D4081D80111969C9111974917F4
:102F500009F0A4C012963C91129713969C91139776
:102F6000391709F09BC014962C91149715969C91D3
:102F70001597291709F092C016969C9116971796E7
:102F80005C911797951709F089C0431709F086C01F
:102F9000421709F083C0491709F080C018963C9188
:102FA000189719969C911997391709F077C01A96B6
:102FB0005C911A971B969C911B97591709F06EC04C
:102FC0001C962C911C971D969C911D97291709F012
:102FD00065C01E969C911E971F966C911F97961721
:102FE00009F05CC0351709F059C0321709F056C016
:102FF000391709F053C050962C91509751969C91D7
:103000005197291709F04AC052966C9152975396DE
:103010009C915397691709F041C054965C9154975D
:1030200055969C9155975917C9F556969C91569768
:1030300057967C915797971789F5261779F5251795
:1030400069F5291759F558969C91589759965C91AE
:103050005997951719F55A967C915A975B965C91FA
:103060005B977517D9F45C966C915C975D965C9153
:103070005D97651799F4F801568DE78D5E1771F429
:10308000971761F4961751F4951741F44B833C83DD
:103090002D839E838A2D64E0A60106C0882331F427
:1030A0008A2D6091FA25A8010E941B16A394809195
:1030B000B5238A1508F0A2CE5CC080913420882305
:1030C00009F057C08DEF99E00E94304A2DB73EB706
:1030D000285030402DBF3EBFEDB7FEB731968DEC86
:1030E00099E0ADB7BEB711968D939C93129702836A
:1030F0001383C482D58289819A81868397830E94B3
:10310000724AEDB7FEB7389632C0809134208823DA
:1031100081F582EA99E00E94304AD5012D913C91D7
:10312000EDB7FEB77097EDBFFEBF31968EE399E025
:10313000ADB7BEB711968D939C93129782829382FE
:10314000C482D582E682F78200871187228733877F
:10315000D9018C918487158616968D919C9117972D
:10316000868797870E94724AEDB7FEB77096EDBFCB
:10317000FEBF8091C4238530C9F0B10180E090E0AA
:103180006F5F7F4F8F4F9F4F2FEF3FE740E050E043
:103190000E942B4B2091392030913A2040E050E0A2
:1031A0000E947D4B80E0B9010E94B62D8091C5231D
:1031B0008530D9F0EF80F884B70180E090E06F5F50
:1031C0007F4F8F4F9F4F2FEF3FE740E050E00E942F
:1031D0002B4B20913B2030913C2040E050E00E945E
:1031E0007D4B81E0B9010E94B62D8091B1238823E7
:1031F00021F1C10123E0969587952A95E1F7282FC3
:10320000E82FF0E0E558FB4D808190E048EF249FE7
:10321000402D1124420D27E030E0241B310902C06B
:10322000959587952A95E2F780FD03C080E060E0E0
:1032300002C080E061E00E946E2D81E060E00E94AB
:103240006E2D3B852C85832F922F8DBF9EBF03C093
:1032500083E00E942B2C29853A852DBF3EBF2C96FA
:10326000E2E10C94D34BEF92FF920F931F93CF9315
:10327000DF931092B0230E94FE48C0E0D0E00DC062
:103280006091BC237091BD234091BE235091BF2318
:1032900089ED97E20E946F1621968091B823909154
:1032A000B923C817D90760F30E9413497B018C0129
:1032B0008DB79EB708978DBF9EBFCDB7DEB721965D
:1032C0008BEA97E0EDB7FEB781839283EA82FB82B7
:1032D0000C831D836091B8237091B92380E090E046
:1032E00028EE33E040E050E00E942B4BA80197010C
:1032F0000E947D4B2E833F830E94724A1092BC2312
:103300001092BD231092BE231092BF238DB79EB79B
:1033100008968DBF9EBFCDB7DEB7E6E00C94DF4BBD
:10332000A2E0B2E0E6E9F9E10C94C74BF82E01E027
:1033300014E200D000D0EDB7FEB73196ADB7BEB7FE
:1033400011960D931C9312978DE090E282839383E4
:10335000F48215820E943A4EEDB7FEB73696EDBF65
:10336000FEBF89ED97E20E942B4380913420882391
:10337000A1F400D00F9281EF98E0ADB7BEB71196DF
:103380008D939C93129713960D931C9314970E9400
:10339000724A0F900F900F900F9089ED97E261E0C5
:1033A00074E241E00E944D3D882309F0B0C089EDF0
:1033B00097E2BE016D5F7F4F40E052E09E012F5FBC
:1033C0003F4F0E94EB41882309F09EC089819A817A
:1033D000B2E080309B0709F097C08B818093392041
:1033E0008C8180933A208D8180933B208E818093C5
:1033F0003C208F818093B523088540913B205091DC
:103400003C202091392030913A20429FC001439FB7
:10341000900D529F900D11248093B8239093B9235F
:10342000802F8B50843038F40A5081E08093B3238E
:103430000093FA2508C01092B323802F880F880FBD
:10344000880F8093FA251092BE231092BF2380919B
:10345000BE239091BF238093BC239093BD231092F1
:10346000B6231092B7231092B0231092B22380910A
:1034700034208823E1F500D00F92EDB7FEB73196E6
:103480008CED98E0ADB7BEB711968D939C931297D3
:10349000F28213820E94724AEDB7FEB73897EDBFF1
:1034A000FEBF319686E898E0ADB7BEB711968D9312
:1034B0009C9312978091392090913A208283938334
:1034C00080913B2090913C20848395838091B5230B
:1034D00086831782008711868091B32382871386A3
:1034E0000E94724AEDB7FEB73C96EDBFFEBF6091F9
:1034F000BC237091BD234091BE235091BF2389ED21
:1035000097E20E946F1607C087E698E002C08BE43E
:1035100098E00E94304A1092BB23CE5FDD4FE5E079
:103520000C94E04BA4E0B0E0E8E9FAE10C94C64B5F
:103530008B839C838B017A0181E061E00E946E2D78
:103540008C81806F89838B818A8380E062E0AE0109
:103550004F5F5F4F0E941B16B80180E090E06F5FE5
:103560007F4F8F4F9F4F2FEF3FE740E050E00E948B
:103570002B4B2091392030913A2040E050E00E94BE
:103580007D4B80E0B9010E94B62DB70180E090E04C
:103590006F5F7F4F8F4F9F4F2FEF3FE740E050E02F
:1035A0000E942B4B20913B2030913C2040E050E08A
:1035B0000E947D4B81E0B9010E94B62D81E060E060
:1035C0000E946E2D2496E6E00C94DF4BA0E0B0E064
:1035D000ECEEFAE10C94C34BEC01998180E0288178
:1035E0007C01E20EF11C9B8180E02A816C01C20EFD
:1035F000D11C8C818093B5238D819E819093B323C0
:10360000992319F4880F880F880F8093FA25109258
:10361000B22381E061E00E946E2D07E010E0BB2440
:10362000B3940DC0AE01400F511F8B2D6091FA2550
:103630000E941B168091FA25080F111DB3948091EA
:10364000B5238B1578F780E0B7010E94B62D81E095
:10365000B6010E94B62D81E060E00E946E2DCDB7CC
:10366000DEB7E9E00C94DC4BCF93DF93FC01808163
:10367000813009F049C0928180E02181AC01420F84
:10368000511D4093EC235093ED23948180E02381DE
:10369000BC01620F711D6093F0237093F12396813A
:1036A00080E02581DC01A20FB11DA093EE23B09331
:1036B000EF23908580E02781EC01C20FD11D9E0190
:1036C000C093F223D093F32380913420882311F503
:1036D000EDB7FEB73A97EDBFFEBF319684E59AE0AD
:1036E000CDB7DEB789839A8342835383648375831E
:1036F000A683B783208731870E94724AEDB7FEB751
:103700003A96EDBFFEBF06C080E068E04BE850E2AD
:103710000E941B16DF91CF910895CF93DF93FC0198
:103720008081803721F0813709F0CCC08BC0928135
:1037300080E02181820F911D8093BC239093BD2353
:10374000948180E02381820F911D8093BE2390930A
:10375000BF238091BC239091BD238093C02390937D
:10376000C1238091BE239091BF238093C223909365
:10377000C3236091BE237091BF232091BC2330915D
:10378000BD234091392050913A20649FC001659F2C
:10379000900D749F900D1124820F931F8093B62378
:1037A0009093B7231092B22380913420882351F54F
:1037B0004091BC235091BD232091BE233091BF2363
:1037C0008091B6239091B7236DB77EB76850704053
:1037D0006DBF7EBFEDB7FEB7319662ED7AE0ADB753
:1037E000BEB711966D937C931297428353832483C3
:1037F0003583868397830E94724ACDB7DEB72896B9
:10380000CDBFDEBF8091BB23813079F48091B62398
:103810009091B7236091BC237091BD234091BE234A
:103820005091BF230E94921A53C06091BC237091A3
:10383000BD234091BE235091BF2389ED97E20E94A2
:103840006F1646C06181772767FD70956093EC2302
:103850007093ED234281552747FD50954093F02307
:103860005093F1232381332727FD30952093EE23B6
:103870003093EF238481992787FD90958093F223DD
:103880009093F323E0913420EE2311F5EDB7FEB7CA
:103890003A97EDBFFEBF3196A3E9BAE0CDB7DEB7E8
:1038A000A983BA83628373834483558326833783D2
:1038B000808791870E94724AEDB7FEB73A96EDBFB6
:1038C000FEBF06C080E068E043E850E20E941B169D
:1038D000DF91CF910895FC018081803119F0813111
:1038E000A9F407C08181738160E09281690F711D25
:1038F00009C0738160E08281680F711D81817095BC
:1039000061957F4F81500E94B62D089580E068E058
:103910004BE750E20E941B160895FC018181208133
:1039200030E02150304020313105D8F526503F4F4E
:10393000F9010C94EB4B62E04BE950E236C062E0D7
:103940004DE950E232C00E94901908950E941A2E4B
:1039500008950E94DC2D089590E0880F991F8093B0
:1039600051209093522008950E949F3008950E9404
:10397000B93308950E949A15089581500E949A2D96
:1039800000D00F9220E53BE0EDB7FEB721833283F4
:10399000838394830E94724A0F900F900F900F9030
:1039A000089580E068E04BE650E20E941B160895FF
:1039B000813021F0823009F06BC035C08091342015
:1039C000882321F48AE897E00E94304A1092E82385
:1039D0001092E92381E080934B2084E690E0A0E000
:1039E000B0E080933D2090933E20A0933F20B09381
:1039F0004020EBEFF5E28AE090E08193919326E29C
:103A0000E33CF207D1F71092DE2384E68093E223B1
:103A100081E090E080934720909348201092E42327
:103A20001092E523089580913420882321F489E6BB
:103A300097E00E94304A1092EA231092EB2381E033
:103A400080934C2084E690E0A0E0B0E08093412099
:103A500090934220A0934320B0934420EDEDF6E2F2
:103A60008AE090E08193919327E2E53AF207D1F75B
:103A70001092DF2384E68093E32381E090E080933B
:103A8000492090934A201092E6231092E72308954C
:103A900083E397E00E94304A08958F929F92BF92ED
:103AA000CF92DF92EF92FF920F931F93DF93CF930A
:103AB000CDB7DEB7C656D040CDBFDEBF6C01B42E49
:103AC0008091E223843608F0A0C0662331F0109282
:103AD000DE231092E0231092E22384E62B2D289F10
:103AE000C001112480509E4F7C0100E010E0C6010F
:103AF000B801A7010E943943009709F073C0F6018D
:103B000026813781408551852E153F054007510795
:103B100009F068C02B2D30E080914720909148201B
:103B200001972817390739F40091E4231091E52310
:103B30000115110511F404E610E0C601BE016D5F28
:103B40007F4FA8019E012F5F3F4F0E94EB410097DE
:103B500029F429813A8120173107A1F000D00F9272
:103B600027EA33E0EDB7FEB7218332838383948362
:103B70000E94724A0F900F900F900F908FE793E082
:103B80000E94304A49815A81FE01339620E030E09C
:103B900004E624C0A091E023B0E0AA0FBB1FA5500B
:103BA000BA4D918088248081B401680F711D6D9396
:103BB0007C9311978091E0238F5F8093E023809125
:103BC000E023602F0E944A4B9093E0238091E223F0
:103BD0008F5F8093E2232E5F3F4F32962417350785
:103BE000C8F217C000D00F9220E733E0EDB7FEB760
:103BF00021833283838394830E94724A0F900F90B3
:103C00000F900F9088E493E002C089E293E00E9455
:103C1000304ACA59DF4FCDBFDEBFCF91DF911F9130
:103C20000F91FF90EF90DF90CF90BF909F908F907B
:103C300008958F929F92BF92CF92DF92EF92FF9260
:103C40000F931F93DF93CF93CDB7DEB7C656D04007
:103C5000CDBFDEBF6C01B42E8091E323843608F023
:103C6000A0C0662331F01092E3231092DF2310925C
:103C7000E12384E62B2D289FC001112480509E4F04
:103C80007C0100E010E0C601B801A7010E943943A1
:103C9000009709F073C0F601268137814085518570
:103CA0002E153F054007510709F068C02B2D30E065
:103CB0008091492090914A2001972817390739F4BB
:103CC0000091E6231091E7230115110511F404E694
:103CD00010E0C601BE016D5F7F4FA8019E012F5FFE
:103CE0003F4F0E94EB41009729F429813A81201728
:103CF0003107A1F000D00F922AE133E0EDB7FEB713
:103D000021833283838394830E94724A0F900F90A1
:103D10000F900F9082EF92E00E94304A49815A81C1
:103D2000FE01339620E030E004E624C0A091E123B8
:103D3000B0E0AA0FBB1FA352B94D918088248081A7
:103D4000B401680F711D6D937C9311978091E123ED
:103D50008F5F8093E1238091E123602F0E944A4B83
:103D60009093E1238091E3238F5F8093E3232E5F81
:103D70003F4F329624173507C8F217C000D00F9274
:103D800023EE32E0EDB7FEB7218332838383948341
:103D90000E94724A0F900F900F900F908BEB92E061
:103DA00002C08BE992E00E94304ACA59DF4FCDBF72
:103DB000DEBFCF91DF911F910F91FF90EF90DF90C9
:103DC000CF90BF909F908F900895AFE0B2E0EBEE60
:103DD000FEE10C94C74BF62E8E010D5F1F4F00D0F5
:103DE00000D0EDB7FEB73196ADB7BEB711960D93C3
:103DF0001C9312972AE130E2228333836483158275
:103E0000C15FDD4F8883CF50D2400E943A4EEDB75C
:103E1000FEB73696EDBFFEBFC15FDD4F4881CF5084
:103E2000D240413021F0423009F0BBC1D9C085EA0F
:103E300097E20E942B43809134208823A1F400D084
:103E40000F9283E695E0ADB7BEB711968D939C9324
:103E5000129713960D931C9314970E94724A0F9019
:103E60000F900F900F9085EA97E2B80141E00E9411
:103E70004D3D009709F0B1C085EA97E2BE01615F50
:103E80007F4F40E052E09E012F5F3F4F0E94EB4189
:103E9000009709F09FC089819A81B2E080309B072A
:103EA00009F098C08F8580933D20888980933E20BB
:103EB000898980933F208A89809340202091E42340
:103EC0003091E52360913D2070913E2080913F200C
:103ED000909140202115310539F424E630E040E08E
:103EE00050E00E947D4B08C024E630E040E050E006
:103EF0000E947D4B2F5F3F4F2093472030934820F7
:103F000085EA97E261E040E00E944D1DF092E823CF
:103F10001092E92310924B201092B0231092B223FA
:103F200080913420882309F040C100D00F92EDB772
:103F3000FEB7319682E495E0ADB7BEB711968D938A
:103F40009C931297F28213820E94724A0F920F92F0
:103F50008CE295E0EDB7FEB78183928380913D209E
:103F600090913E20A0913F20B09140208383948384
:103F7000A583B6830E94724A60913D2070913E20D5
:103F800080913F209091402024E630E040E050E0D6
:103F90000E947D4B6093E4237093E5230F900F9074
:103FA000EDB7FEB731962FE035E0ADB7BEB711964D
:103FB0002D933C931297628373830E94724A88EF19
:103FC00094E0EDB7FEB78183928380914720909172
:103FD0004820D8C08EEC94E0E6C084EA94E0E3C0C8
:103FE0008FEB97E20E942B43809134208823A1F429
:103FF00000D00F9287E994E0ADB7BEB711968D93CC
:104000009C93129713960D931C9314970E94724AD7
:104010000F900F900F900F908FEB97E2B80141E057
:104020000E944D3D009709F0B9C08FEB97E2BE01A9
:10403000615F7F4F40E052E09E012F5F3F4F0E9443
:10404000EB41009709F0A7C089819A81B2E08030E6
:104050009B0709F0A0C08F858093412088898093B9
:1040600042208989809343208A898093442020912B
:10407000E6233091E72360914120709142208091A6
:104080004320909144202115310539F424E630E095
:1040900040E050E00E947D4B08C024E630E040E064
:1040A00050E00E947D4B2F5F3F4F2093492030937B
:1040B0004A208FEB97E261E040E00E94191EF092E7
:1040C000EA231092EB2310924C201092B02310920E
:1040D000B22380913420882309F067C000D00F926A
:1040E000EDB7FEB7319687E794E0ADB7BEB711964E
:1040F0008D939C931297F28213820E94724A0F92C0
:104100000F9281E694E0EDB7FEB7818392838091B0
:10411000412090914220A0914320B091442083837C
:104120009483A583B6830E94724A60914120709166
:104130004220809143209091442024E630E040E0EA
:1041400050E00E947D4B6093E6237093E7230F902D
:104150000F90EDB7FEB7319624E434E0ADB7BEB7AB
:1041600011962D933C931297628373830E94724A37
:104170008DE294E0EDB7FEB7818392838091492070
:1041800090914A20838394830E94724A0F900F90EB
:104190000F900F900AC083E094E005C089ED93E092
:1041A00002C086EB93E00E94304AC15FDD4FE5E03C
:1041B0000C94E04BAFE0B2E0E0EEF0E20C94C74BC1
:1041C000F62E8E010D5F1F4F00D000D0EDB7FEB769
:1041D0003196ADB7BEB711960D931C93129727E297
:1041E00030E22283338364831582C15FDD4F88838D
:1041F000CF50D2400E943A4EEDB7FEB73696EDBF93
:10420000FEBFC15FDD4F4881CF50D240413021F029
:10421000423009F08FC1C3C085EA97E20E942B4368
:10422000809134208823A1F400D00F9286E297E099
:10423000ADB7BEB711968D939C93129713960D93BD
:104240001C9314970E94724A0F900F900F900F903A
:1042500085EA97E2B80141E00E944D3D009709F0E0
:104260009BC085EA97E2BE01615F7F4F40E052E06C
:104270009E012F5F3F4F0E94EB41009709F089C0DC
:1042800089819A81B2E080309B0709F082C08F85D6
:1042900080933D20888980933E20898980933F20A8
:1042A0008A898093402060913D2070913E208091CA
:1042B0003F209091402024E630E040E050E00E9412
:1042C0007D4BFB016093E4237093E523309711F05D
:1042D0002F5F3F4F209347203093482085EA97E295
:1042E00061E040E00E944D1DF092E8231092E92326
:1042F00010924B201092B0231092B2238091342060
:10430000882309F01BC100D00F92EDB7FEB731969C
:1043100086E097E0ADB7BEB711968D939C93129748
:10432000F28213820E94724A0F920F9280EF96E0FF
:10433000EDB7FEB78183928380913D2090913E201E
:10434000A0913F20B091402083839483A583B683BE
:104350000E94724A0F900F9083ED96E0ADB7BEB702
:1043600011968D939C9312978091E4239091E5236D
:1043700013968D939C9314970E94724A8CEB96E04F
:10438000EDB7FEB7818392838091472090914820BA
:10439000C2C083E996E0D0C089E696E0CDC08FEB3D
:1043A00097E20E942B43809134208823A1F400D00F
:1043B0000F928CE596E0ADB7BEB711968D939C93A6
:1043C000129713960D931C9314970E94724A0F90A4
:1043D0000F900F900F908FEB97E2B80141E00E9491
:1043E0004D3D009709F0A3C08FEB97E2BE01615FDE
:1043F0007F4F40E052E09E012F5F3F4F0E94EB4114
:10440000009709F091C089819A81B2E080309B07C2
:1044100009F08AC08F85809341208889809342204B
:104420008989809343208A89809344206091412028
:1044300070914220809143209091442024E630E006
:1044400040E050E00E947D4BFB016093E6237093B7
:10445000E723309711F02F5F3F4F2093492030938F
:104460004A208FEB97E261E040E00E94191EF09233
:10447000EA231092EB2310924C201092B02310925A
:10448000B22380913420882309F058C000D00F92C5
:10449000EDB7FEB731968CE396E0ADB7BEB7119697
:1044A0008D939C931297F28213820E94724A0F920C
:1044B0000F9286E296E0EDB7FEB7818392838091FA
:1044C000412090914220A0914320B09144208383C9
:1044D0009483A583B6830E94724A0F900F9088E060
:1044E00096E0ADB7BEB711968D939C9312978091CD
:1044F000E6239091E72313968D939C9314970E9443
:10450000724A81EF95E0EDB7FEB781839283809187
:10451000492090914A20838394830E94724A0F908D
:104520000F900F900F900AC087EC95E005C08DE9C1
:1045300095E002C080E795E00E94304AC15FDD4F00
:10454000E5E00C94E04BA2E0B0E0E9EAF2E20C9482
:10455000C44B8C01DC018C91853209F4C3C08632D6
:1045600050F4853109F4A6C0803209F4ADC0803121
:1045700009F038C193C0853309F400C1863320F4B3
:10458000803309F02FC1CCC0823609F425C18F3F9A
:1045900009F028C1F801C18080910F288823E1F734
:1045A00082E098E26C2D4BE950E222E00E94F4395F
:1045B000809161288823E1F784E598E26C2D4BE92E
:1045C00050E222E00E94F43980911E288823E1F70E
:1045D00081E198E26C2D4BE950E222E00E94F4392F
:1045E000809100288823E1F783EF97E26C2D4BE957
:1045F00050E222E00E94F4398FEF97EDA6ED815052
:104600009040A040E1F700C000008FEF8983D801FF
:1046100012968C9112978A8380910F288823E1F754
:1046200082E098E26C2DAE014F5F5F4F22E00E9466
:10463000F439809161288823E1F784E598E26C2DB4
:10464000AE014F5F5F4F22E00E94F43980911E2837
:104650008823E1F781E198E26C2DAE014F5F5F4F57
:1046600022E00E94F439809100288823E1F783EF4B
:1046700097E26C2DAE014F5F5F4F22E00E94F4394C
:104680008FEF91EEA4E081509040A040E1F700C090
:10469000000080E062E04BE950E2A8C0D80111962A
:1046A0008C9111978093C42312968C9112978093CA
:1046B000C5239EC0F8016281662351F0D80111968E
:1046C0008C910E94DA2094C0F8016281662321F463
:1046D00081810E94D81C8CC0D80111968C910E94B7
:1046E000E51E86C0F801928180E021818C01020FD5
:1046F000111D980140E050E062E17AE780E090E02F
:104700000E949F4B20934D2030934E208091342067
:10471000882309F06DC000D00F928DE29BE01DC090
:10472000F801928180E021818C01020F111D980116
:1047300040E050E062E17AE780E090E00E949F4B29
:1047400020934F203093502080913420882309F00B
:104750004FC000D00F928AE09BE0ADB7BEB7119674
:104760008D939C93129713960D931C9314970E940C
:10477000724A0F900F900F900F903AC0F80161812C
:1047800070E080E090E02FEF3FE140E050E00E94D9
:104790002B4BEAE0CE2ED12CE12CF12CA701960177
:1047A0000E947D4B2093352030933620D8011296FD
:1047B0006C91129770E080E090E02FEF3FE140E0D5
:1047C00050E00E942B4BA70196010E947D4B209345
:1047D0003720309338200CC0F801818162810E941B
:1047E000582B06C080E068E043E750E20E941B16A9
:1047F0002296E8E00C94DD4B2F923F924F925F920D
:104800007F928F929F92AF92BF92CF92DF92EF9260
:10481000FF920F931F93DF93CF93CDB7DEB7E4974B
:10482000CDBFDEBF80913420882391F400D00F9259
:104830008EE892E0EDB7FEB78183928383E590E244
:10484000838394830E94724A0F900F900F900F9071
:1048500083EC96E263E570E241E00E944D3D0097F3
:1048600009F0B2C07090CD267091CE268091CF26EF
:104870009091D026672D22E330E040E050E00E9486
:104880007D4B19012A0111E0F3E0AF2EB12CAC0EE3
:10489000BD1E4E010894811C911C3DC0215030402A
:1048A00082E390E0289F6001299FD00C389FD00CB4
:1048B0001124EE24D7FCE094FE2C83EC96E2B701A1
:1048C000A6010E943943009709F58091C92690916D
:1048D000CA26A091CB26B091CC268C159D05AE059D
:1048E000BF05A1F483EC96E2B50142E350E09401E8
:1048F0000E94EB41009771F489819A81823391057E
:1049000049F4C50162E30E94C33704C080E792E026
:104910000E94304A1F5F812F90E0A0E0B0E0212F7D
:1049200030E0281639064A065B0608F0B7CF21505A
:10493000304082E390E0289F7001299FF00C389F5F
:10494000F00C11240027F7FC0095102F83EC96E261
:10495000B801A7010E943943009769F58091C926E3
:104960009091CA26A091CB26B091CC268E159F059A
:10497000A007B10701F582E3829D202C1124C72CEA
:10498000C218EC2CFF248E010D5F1F4F83EC96E2C2
:10499000B801A7019E012F5F3F4F0E94EB41009796
:1049A00071F489819A818E159F0549F4C8016C2D97
:1049B0000E94C33704C08FE492E00E94304A83EC27
:1049C00096E20E942B4304C082E392E00E94304AA8
:1049D000E496CDBFDEBFCF91DF911F910F91FF9085
:1049E000EF90DF90CF90BF90AF909F908F907F908F
:1049F0005F904F903F902F900895A3E0B0E0E3E0E8
:104A0000F5E20C94BE4BDC018C91833409F419C19E
:104A1000843408F05BC0803209F4B6C0813258F5A6
:104A2000843109F492C1853198F4813109F47FC150
:104A3000823138F4882309F4EBC0803109F089C24F
:104A400072C1823109F47AC1833109F082C27AC11C
:104A5000873109F4A1C1883138F4853109F478C16E
:104A6000863109F076C27FC1883109F499C1893154
:104A700009F06FC298C1863209F40AC2873298F4ED
:104A8000833209F4E6C1843238F4813209F4CDC1AD
:104A9000823209F05EC2D3C1843209F4E9C18532A1
:104AA00009F057C274C0803409F4BCC0813438F4B2
:104AB000803309F480C0853309F04BC294C081343F
:104AC00009F4B5C0823409F044C2B6C0843909F48F
:104AD000EEC0853958F5803609F4CFC0813698F498
:104AE000863409F4BDC0873438F4843409F4AEC088
:104AF000853409F02EC2AFC0873409F4B6C08035C2
:104B000009F027C2B7C0813909F4C2C0823938F42C
:104B1000803709F4B5C0803909F01BC2B4C08239AE
:104B200009F4BBC0833909F014C2BCC08A3909F446
:104B3000DCC08B3998F4873909F4C8C0883938F457
:104B4000853909F4B9C0863909F003C2BAC0883979
:104B500009F4C1C0893909F0FCC1C2C08D3909F41A
:104B6000D3C08E3938F48B3909F4C4C08C3909F0BC
:104B7000F0C1C5C08F3909F4D1C08F3908F4C9C05C
:104B80008F3F09F0E6C149C00E94E00FE8C10E94D2
:104B9000E00F609151207091522082E19AE70E94CB
:104BA000564BAB0160E070E089EE9AE020E001E056
:104BB0000E940739D4C10E94281080914B2088237D
:104BC00031F485EA97E261E040E00E944D1D80915A
:104BD0004C20882309F0C3C18FEB97E261E040E0ED
:104BE0000E94191EBCC10E94281060915120709132
:104BF000522082E19AE70E94564BAB0160E070E0E0
:104C000089EE9AE020E000E00E94073982E092C03D
:104C100080E068E045E154E2A0C180E068E04FE94F
:104C200050E29BC180E068E147EA50E296C180E033
:104C300068E14FEB50E291C180E068E147ED50E25E
:104C40008CC180E068E14FEE50E287C180E068E10E
:104C500047E051E282C180E068E14FE151E27DC16D
:104C600080E068E147E351E278C180E068E14FE429
:104C700051E273C10E943D2C72C10E94142E6FC17B
:104C80000E9433196CC180E060E247E651E265C1E1
:104C900080E060E247E851E260C180E060E247EA1C
:104CA00051E25BC180E060E247EC51E256C180E036
:104CB00060E247EE51E251C180E060E247E052E23B
:104CC0004CC180E060E247E252E247C180E060E22E
:104CD00047E452E242C180E060E247E652E23DC171
:104CE00080E060E247E852E238C180E060E247EAF3
:104CF00052E233C180E060E247EC52E22EC180E034
:104D000060E247EE52E229C180E060E247E053E210
:104D100024C180E060E247E253E21FC180E060E22C
:104D200047E453E21AC181E08093B12318C1109285
:104D3000B12380E060E00E946E2D11C181E080937C
:104D4000B4230DC11092B4230AC10E94FC2307C1F1
:104D500000D00F9283E69CE0EDB7FEB7818392838B
:104D600087E693E2EDC009EF14E291E08EEFA82E02
:104D70007E010894E11CF11CA982D8018D918D015E
:104D80008A83892F62E0A7019B830E941B169B8167
:104D90009F5F913889F7E3C081E080933420DFC0C2
:104DA00010923420DCC0EDB7FEB77297EDBFFEBFA6
:104DB000319681E49CE0ADB7BEB711968D939C937C
:104DC00012978091EC239091ED23828393838091BD
:104DD000F0239091F123848395838091C023909157
:104DE000C123868397838091C42380871186809115
:104DF000EE239091EF23828793878091F223909105
:104E0000F323848795878091C2239091C32386875B
:104E100097878091C523808B118A0E94724AEDB7D3
:104E2000FEB77296EDBFFEBF9AC080E090E06FEFD4
:104E30000E947E500F920F928FE09CE012C080E0A3
:104E400090E060E00E947E500F920F928DED9BE00B
:104E500016C088E0E0E2F7E082870F920F9282EBC3
:104E60009BE0ADB7BEB711968D939C9312970BC084
:104E7000E0E2F7E012860F920F928CE89BE0EDB72C
:104E8000FEB7818392830E94724A0F900F9067C091
:104E9000B4E66B2EAA24BB246501EE24FF2487010F
:104EA00082E00E949A2DA0E0B0E0E80EF91E0A1FF1
:104EB0001B1F83E00E949A2DA0E0B0E0A80EB91E4F
:104EC000CA1EDB1E8FE39CE90197F1F700C00000CA
:104ED0006A9431F7A4E66A2E712C812C912CC801BA
:104EE000B701A40193010E947D4B79018A012093AF
:104EF000352030933620C601B501A40193010E94EC
:104F00007D4B209337203093382000D00F92EDB79F
:104F1000FEB7319687E79BE0ADB7BEB711968D938C
:104F20009C931297E282F3820E94724A82E69BE08F
:104F3000EDB7FEB78183928380913720909138201E
:104F4000838394830E94724A0F900F900F900F906A
:104F500006C080E068E043E650E20E941B162396FC
:104F6000EEE00C94D74BA1E3B8E0E9EBF7E20C9448
:104F7000C44B80E090E00E946E50E82E82E098E200
:104F80006E2D0E94583984E598E26E2D0E945839A2
:104F900081E198E26E2D0E94583983EF97E26E2DE1
:104FA0000E94583982E098E260E874E040E450E002
:104FB00023E20E948D3984E598E260E974E040E4E0
:104FC00050E023E20E948D3981E198E260EA74E0CA
:104FD00040E450E023E20E948D3983EF97E260EBDA
:104FE00074E040E450E023E20E948D398E2D0E944F
:104FF000C0360E94842C85E397E3809379249093B4
:105000007A24EDEDF6E2ABEFB5E28AE090E0819331
:1050100091938D939D9327E2E53AF207C1F7EBE771
:10502000F4E280E090E04FEF8330910530F09C0196
:10503000265030402330310510F4408301C01082E7
:10504000019631968D37910579F71092BE23109213
:10505000BF238091BE239091BF238093BC23909364
:10506000BD238091BC239091BD238093C223909354
:10507000C3238093C0239093C1231092F2231092F4
:10508000F3231092F0231092F1231092EE2310924A
:10509000EF231092EC231092ED231092C52310926F
:1050A000C4231092B3231092B42381E090E00E94B5
:1050B0006E508F3FC9F420E044E012C0822F90E090
:1050C000322F3370FC01E850FB4D3083222319F05E
:1050D000332309F4408387589A4DDC012C932F5FCA
:1050E000213860F3298317C0198211C00D2D10E0FB
:1050F000C8018F5F9F4F0E946E50F801E850FB4D32
:105100008083F801E758FA4DD082D394D982D980B0
:10511000BD2DB13858F38CEB9DE00E94304A81E000
:1051200061E00E94092C01E03CC080E00E944846FA
:10513000082F81FF0DC08DEA9DE00E94304A0E9439
:10514000613704C080E00E944846082F01FDFACF75
:1051500002FF04C080E99DE00E94304A198212C01B
:1051600080E00E948E45082F80FF0FC089818F5FED
:1051700089838FEF91EEA4E081509040A040E1F749
:1051800000C000008981843058F300FF0AC086E720
:105190009DE00E94304A80E00E944846082F81FF2F
:1051A000FACF00FDC2CF8EE59DE00E94304A80E03C
:1051B0006AE0AE014F5F5F4F0E94A546009759F528
:1051C00082E59DE00E94304A89818430A1F08530DB
:1051D00028F4813051F08230D1F40AC0883089F04F
:1051E0008C3091F0863099F409C08DE49DE011C0B7
:1051F00089E49DE00EC084E49DE00BC08FE39DE058
:1052000008C08AE39DE005C084E39DE002C08FE210
:105210009DE00E94304A86E19DE00E94304A80E095
:10522000BE016E5F7F4F0E94343D813051F081306E
:1052300028F0823049F0833069F409C08CE09DE0A9
:105240000BC083E09DE008C080EF9CE005C083EECA
:105250009CE002C08EED9CE00E94304A80E068E055
:1052600045E154E20E941B1681E060E00E94092C97
:105270000E943D2C9E2D9F3F09F0C0C080EB9CE01A
:105280000E94304A37ECC32E27ECD22E97EEE92E3F
:1052900093E0F92E8E010C5D1D4F0E94023700979E
:1052A00009F44AC0C8010E9468378430910551F161
:1052B0008530910550F482309105E1F083309105FD
:1052C000E8F48130910591F511C08730910511F115
:1052D0008830910520F48530910541F517C08E3353
:1052E0009105E1F08F33910509F51CC0C8010E94BA
:1052F000FD2422C0C8010E948D1C1EC0C8010E944E
:10530000A3221AC0C8010E946B1C16C0C8010E94CB
:105310008D1B12C0C8010E945F100EC0C8010E9400
:10532000B7100AC0C8010E94C31006C080E068E040
:1053300043E950E20E941B168091B023882309F4B0
:10534000ACCF8091B6239091B7238E159F0581F045
:10535000E090B623F090B7236091BC237091BD23F9
:105360004091BE235091BF2389ED97E20E946F16B2
:1053700080914B208823E9F48091E2238A31C8F49C
:105380008091DE238D15A9F0D090DE234091452039
:1053900085EA97E260E00E944D1D8091452090E0F3
:1053A000019660914720709148200E94564B80934F
:1053B000452080914C20882309F06FCF8091E32312
:1053C0008A3108F06ACF8091DF238C1509F465CF0C
:1053D000C090DF23409146208FEB97E260E00E946F
:1053E000191E8091462090E00196609149207091AD
:1053F0004A200E94564B809346204FCF82E89CE083
:105400000E94304A8E010C5D1D4F0E9402370097AA
:10541000E1F3C8010E9468378130910521F08233A1
:10542000910549F404C0C8010E94FD24EECFC801D3
:105430000E94E61AEACF80E068E04BE950E20E9461
:105440001B16E3CF40E050E024E330E108C0F9014F
:105450002F5F3F4FE491EE23D1F74F5F5F4F481727
:10546000590721F0F9016491662389F700D00F9262
:1054700080E390E1EDB7FEB7818392832383348389
:105480000E94724A0F900F900F900F900895AEE017
:10549000B0E0EDE4FAE20C94BA4B6C018B01DB0155
:1054A0000D900020E9F77D010894E108F108E61A63
:1054B000F70AB3E0EB16F1040CF4DCC0FB018181C8
:1054C0008B8382818C831D8293E0892E912C8C0E9C
:1054D0009D1EC4012E010894411C511CB20140E1E3
:1054E00050E00E94244DD6016C93E981FA81E815C1
:1054F000F90509F4BFC08081882309F0BBC0B7E07B
:10550000EB16F1040CF4B6C0F80183818B8384811F
:105510008C8385818D8386818E831F82C401B20135
:1055200040E150E00E94244DD60111966D937C938A
:105530001297E981FA81E815F90509F49BC0808189
:10554000882309F097C0B9E0EB16F1040CF492C07F
:10555000F80187818B8380858C831D82C401B20111
:1055600040E150E00E94244DD60113966C931397AE
:10557000E981FA81E815F90509F47CC08081882366
:1055800009F078C011969C91119712968C91129700
:10559000BC90B90EB80EB60E3801F6013496ED8700
:1055A000FE8789E0282E312C1B861C86A42C452CD6
:1055B0002EC08E159F050CF05DC0D30119968C91FD
:1055C00019978B831A968C918C831D82C4016A2D46
:1055D000742D40E150E00E94244DED85FE856193DD
:1055E000ED87FE87E981FA81E815F90509F442C0E3
:1055F00042E050E0640E751E80818823D9F5240EA8
:10560000351EB60E8B859C8501968B879C87D601AF
:105610002C9130E0C1010196EB85FC85E217F30780
:1056200044F28E159F0534F5F801E20DF31D20813B
:105630002B83080F191FD8018C918C831D828E013A
:105640000D5F1F4FC801BE016F5F7F4F40E150E00B
:105650000E94244DF601EC5FFE4F6083E981FA81E0
:10566000E017F10739F08081882321F4B1942B2DC4
:1056700030E002C02FEF3FEFC9012E96E2E10C941B
:10568000D34B20E1E0E4F6E02683E0ECF8E09383FE
:105690009091C20897FFFCCFE0ECF8E08383809103
:1056A000C20887FFFCCF80E1E0E4F6E0858308953F
:1056B000CF93DF93A1E0B0E0843010F4A0E0B0E03D
:1056C000FD01EE0FFF1FE35EFB4DC081D1818430F1
:1056D00018F044E050E002C040E050E0E5E0F0E0C7
:1056E000E81BF1094E0F5F1F440F551F4F5F5F4FBF
:1056F00023E030E002C0220F331F4A95E2F72095E5
:1057000030952C233D2370E0843018F084E090E045
:1057100002C080E090E08E0F9F1F880F991F0196B6
:10572000AB0102C0440F551F8A95E2F7CA01822BD4
:10573000932BFD01EE0FFF1FE35EFB4D80839183F2
:1057400028E52093C0080E94412BDF91CF91089556
:10575000A2E0B0E0EEEAFBE20C94CA4B80E1E0E4A8
:10576000F6E08683E0ECF8E013828091C20887FFC0
:10577000FCCFFE0131968091C3088183A0ECB8E094
:1057800013961C9213978091C20887FFFCCF8091DB
:10579000C308808380E1E0E4F6E0858389819A8113
:1057A0002296E2E00C94E34B0F93DF93CF930F929A
:1057B000CDB7DEB72FB72983F8941BBEFC0108EDE7
:1057C00004BF608389818FBF0F90CF91DF910F91CC
:1057D00008958F7080FF02C090E801C090E0892B8F
:1057E00081FF02C090E401C090E0892B82FF02C0DB
:1057F00090E201C090E0892B83FF02C090E101C0DC
:1058000090E0892B807FE0E0F7E0868380958583B8
:10581000089590E09C012C7F21153105D9F4262FA5
:105820002E7FC1F40496613059F421E030E002C0CB
:10583000220F331F8A95E2F7E0E0F7E02683089510
:1058400021E030E002C0220F331F8A95E2F7E0E04A
:10585000F7E02583089590E09C012C7F2115310508
:1058600059F4049621E030E002C0220F331F8A95DC
:10587000E2F7E0E0F7E027830895CF93DF93CAE0F3
:10588000D0E081E00E942B2C8FEF9DE2A2E28150BC
:105890009040A040E1F700C00000219791F7DF9110
:1058A000CF910895282F30E0F901EC7F309759F51A
:1058B0006623A1F42C5F3F4F41E050E0BA0102C0E3
:1058C000660F771F2A95E2F7E0E2F7E0668302C0F1
:1058D000440F551F8A95E2F741830895613099F48A
:1058E00041E050E0BA0102C0660F771F8A95E2F7E7
:1058F000E0E2F7E062832C5F3F4F02C0440F551F88
:105900002A95E2F7458308951F93CF93DF9380E0B4
:1059100061E00E94092CE0E4F6E088E0818384E005
:10592000828320E1218390E2918380E88183258333
:10593000E0E6F6E0218391838183258320EB2093A9
:105940008006E0E8F6E01482E0EEF6E0918320E4E1
:105950002183818396832583868380EF809300074C
:10596000E0E0F7E08483C0E2D7E0809320078FEF88
:105970008C8380E060E00E94522C81E060E00E9415
:10598000522C82E060E00E94522C83E061E00E9491
:10599000522C81E08B8B1A8682E08987E0E5F0E06B
:1059A00087E4828384EC858388E180935000809132
:1059B000510084FFFCCF80E490E064E00E94D42B8F
:1059C0008FEF93ECA9E081509040A040E1F700C038
:1059D0000000E0E4FAE084E08093400A8FE39CE971
:1059E00086A397A382E0868380EE9BEA80931D24A2
:1059F00090931E2480EE9BEC80931F249093202490
:105A000018E51093C00880EE9BEA0E94412B80EEBF
:105A10009BEC0E94412B80E090EE0E94412B80E1A4
:105A200090E80E94412B1093C00980E1E0E6F6E087
:105A30008683E0ECF9E083838091C20987FFFCCF85
:105A4000E0ECF9E013828091C20987FFFCCF8FE17F
:105A5000E0ECF9E083838091C20987FFFCCFE0E6A8
:105A6000F6E080E1858386838CE0E0ECF9E08383D7
:105A70008091C20987FFFCCFE0ECF9E013828091AE
:105A8000C20987FFFCCF84E0E0ECF9E083838091DA
:105A9000C20987FFFCCF80E1E0E6F6E085830E9443
:105AA000E3360E94B7480E94683887E0E0EAF0E0F9
:105AB00082837894DF91CF911F910895982F9C7FD6
:105AC00059F42091280730E002C0359527958A9532
:105AD000E2F7822F8170089580E00895982F9C7FCF
