:100000000C941D090C9443090C9443090C94430966
:100010000C9443090C9443090C9443090C94430930
:100020000C9443090C9443090C9443090C94430920
:100030000C9443090C9460230C9443090C944309D9
:100040000C9443090C9443090C9443090C94430900
:100050000C9443090C9443090C9443090C944309F0
:100060000C9443090C94DF300C942F310C94430909
:100070000C9443090C9443090C9443090C944309D0
:100080000C9443090C9443090C9443090C944309C0
:100090000C9443090C9443090C9443090C944309B0
:1000A0000C9443090C9443090C9443090C944309A0
:1000B0000C9443090C9443090C94F6220C94A4313B
:1000C0000C9443090C9443090C9443090C94430980
:1000D0000C9443090C949F560C9443090C944309C7
:1000E0000C9443090C9443090C9443090C94430960
:1000F0000C9443090C9443090C9443090C94430950
:100100000C9443090C9443090C9443090C9443093F
:100110000C9443090C9443090C9443090C9443092F
:100120000C9443090C9443090C9443090C9443091F
:100130000C942B230C9443090C9443090C9443090D
:100140000C9443090C9443090C9443090C944309FF
:100150000C9443090C9443090C9443090C944309EF
:100160000C9443090C9443090C9443090C944309DF
:100170000C9443090C9443090C9443090C944309CF
:100180000C9443090C9443090C9443090C944309BF
:100190000C940F0E0C9443090C9443090C944309DE
:1001A0000C9443090C9443090C9443090C94C12208
:1001B0000C94D5570C9443090C9443090C944309AF
:1001C0000C9443090C9443090C9443090C9443097F
:1001D0000C9443090C9443090C9443090C9443096F
:1001E0000C9443090C9443090C9443090C9443095F
:1001F0000C944309161C1B1C201C241C281C2C1CA2
:10020000351C391C3D1C561C561C561C561C561CB5
:10021000561C411C03550F55705576550055005519
:1002200000550055005500551156165618562656BD
:100230004556496E74332063617463686573206149
:1002400020726973696E67206564676520747269DE
:1002500067676572210A004572726F7220665F6F70
:1002600070656E20696E205344496E666F2E6D6115
:10027000742E0A004572726F7220665F6C7365653A
:100280006B20696E2072656D61696E6564206461C2
:1002900074612E0A004572726F7220665F6C73651E
:1002A000656B20696E205344496E666F2E6D6174D4
:1002B0002E0A004572726F7220696E20665F6C7341
:1002C00065656B20696E207570646174655F667525
:1002D0006E63436E745F79206C6F6164206E657825
:1002E00074206275666665720A00726573203D202F
:1002F0002025750A004572726F7220696E20665F54
:100300007265616420696E20696E20757064617425
:10031000655F66756E63436E745F790A007265731C
:10032000203D202025750A0052696E67206275669F
:100330006665722066756E6374696F6E5F592069B9
:10034000732066756C6C0A0052696E672062756670
:100350006665722066756E6374696F6E5F59206999
:100360007320656D7074790A004572726F7220692E
:100370006E20665F6C7365656B20696E20666574C0
:1003800063685F7570646174655F66756E63580A53
:1003900000726573203D202025750A004572726F3A
:1003A0007220696E20665F7265616420696E2069E3
:1003B0006E2066657463685F7570646174655F66FE
:1003C000756E63580A00726573203D202025750AFA
:1003D0000052696E67206275666665722066756E8A
:1003E0006374696F6E5F782069732066756C6C0A40
:1003F0000052696E67206275666665722066756E6A
:100400006374696F6E5F7820697320656D707479AD
:100410000A004572726F7220696E70757420666F83
:10042000722066756E6374696F6E206368616E6EAC
:10043000656C2E0A006E756D5F6275666665725F2B
:100440006C6F61645F79203D2025750A006C6173D3
:10045000745F6C6F61645F79203D2025750A0066CA
:10046000756E6353697A655F79203D2025750A00B2
:100470004572726F7220665F6F70656E20696E20C4
:100480007365745F76656C5F66756E6320592E0ABE
:10049000004572726F7220665F7265616420696EDA
:1004A000207365745F76656C5F66756E6320592E88
:1004B0000A0053657474696E672076656C6F6369B2
:1004C00074792066756E6374696F6E202575206679
:1004D0006F7220590A006E756D5F6275666665728F
:1004E0005F6C6F61645F78203D2025750A006C6148
:1004F00073745F6C6F61645F78203D2025750A001E
:1005000066756E6353697A655F78203D2025750AAC
:10051000004572726F7220665F6F70656E20696E43
:10052000207365745F76656C5F66756E6320582E08
:100530000A004572726F7220665F7265616420699D
:100540006E207365745F76656C5F66756E632058A8
:100550002E0A0053657474696E672076656C6F634C
:100560006974792066756E6374696F6E20202575D5
:1005700020666F7220580A004572726F7220696E91
:1005800070757420666F722066756E6374696F6E25
:10059000206368616E6E656C2E0A006E756D5F6219
:1005A00075666665725F6C6F61645F79203D2025BA
:1005B000750A006C6173745F6C6F61645F79203DD4
:1005C000202575200A0066756E6353697A655F7928
:1005D000203D2025750A004572726F7220665F6F9C
:1005E00070656E20696E207365745F706F735F66EF
:1005F000756E6320592E0A004572726F7220665F15
:1006000072656164207365745F706F735F66756E89
:100610006320592E0A0053657474696E6720706FE9
:10062000736974696F6E2066756E6374696F6E208E
:10063000257520666F7220590A006E756D5F6275B0
:10064000666665725F6C6F61645F78203D2025751A
:100650000A006C6173745F6C6F61645F78203D2089
:1006600025750A0066756E6353697A655F78203D6B
:100670002025750A004572726F7220665F6F706583
:100680006E20696E207365745F706F735F66756E40
:100690006320582E0A004572726F7220665F726581
:1006A0006164207365745F706F735F66756E63203D
:1006B000580A0053657474696E6720706F736974AB
:1006C000696F6E2066756E6374696F6E2025752084
:1006D000666F7220580A0057726F6E672066756EDB
:1006E0006374696F6E206368616E6E656C206E75F1
:1006F0006D6265722E0A0053657474696E672064BA
:10070000656661756C742066756E6374696F6E20C2
:10071000666F7220592E0A0053657474696E6720E3
:1007200064656661756C742066756E6374696F6E5E
:1007300020666F7220582E0A002062656E63685F23
:1007400074696D65203D20256C75206D732C2066C5
:1007500072616D655F72617465203D2025750A00C8
:1007600043616E6E6F742066696E642074686520E4
:10077000686172647761726520636F6E6669672075
:1007800066696C65206F6E20746865205344206331
:100790006172642E0A005375636365737366756CCA
:1007A0006C79206C6F616420746865206861726484
:1007B0007761726520636F6E6669672066696C6534
:1007C00020746F20454550524F4D0A004572726F9C
:1007D00072206F70656E696E6720706174746572E7
:1007E0006E2066696C650A004572726F72207265D0
:1007F0006164696E6720696E207061747465726EE1
:100800002066696C650A002020785F6E756D203D5A
:100810002025750A2020795F6E756D203D20257595
:100820000A20206E756D5F70616E656C73203D20CF
:1008300025750A202067735F76616C7565203D2001
:1008400025750A20726F775F636F6D7072657373C1
:10085000696F6E203D2025750A0053657474696EBA
:1008600067207061747465726E2025753A0A0052B3
:100870004553203D2025752C20665F6E756D3D200B
:1008800025752C206F6666736574203D20256C7578
:100890000A004572726F7220696E20665F6C736524
:1008A000656B20696E2066657463685F6469737048
:1008B0006C61795F6672616D65210A005245532053
:1008C0003D2025752C20665F6E756D3D2025752CAD
:1008D00020636E743D2025750A004572726F722088
:1008E000696E20665F7265616420696E206665745A
:1008F00063685F646973706C61795F6672616D656E
:10090000210A0053756363657373207365742074E3
:100910006865206E6577206C617365722070617404
:100920007465726E2E0A007365745F6761696E5F2D
:10093000626961733A206761696E5F783D20256462
:100940002C2020626961735F783D2025642C20672C
:1009500061696E5F793D2025642C20626961735F57
:10096000793D25640A007365745F706F73697469FB
:100970006F6E3A20696E6465785F783D2025752C2E
:100980002020696E6465785F793D2025752C206193
:100990006E64206672616D655F6E756D3D202575B4
:1009A0000A0066756E6374696F6E205920757064F5
:1009B000617465206672657175656E6379203D208E
:1009C00025752E0A0066756E6374696F6E20582057
:1009D000757064617465206672657175656E6379A2
:1009E000203D2025752E0A004144435F76616C75D9
:1009F00065203D202025643A0A007265736F6C758E
:100A000074696F6E5F79203D202025643A0A007278
:100A100065736F6C7574696F6E5F78203D2020255B
:100A2000643A0A0044697361626C656420496E74BB
:100A3000332065787465726E616C207472696767C3
:100A40006572206D6F6465210A00456E61626C6598
:100A50006420496E74332065787465726E616C2011
:100A600074726967676572206D6F646520697320B1
:100A70006F6E210A00526573657420636F6E747225
:100A80006F6C6C657220746F20776F726B20696E6B
:100A9000207468652050432064756D70696E67200E
:100AA0006D6F6465210A00526573657420636F6E13
:100AB00074726F6C6C657220746F20776F726B202C
:100AC000696E2074686520636F6E74726F6C6C65FC
:100AD00072206D6F6465210A007570646174653AF7
:100AE0002025642025642025642025642025642099
:100AF00025642025642025643A0A004375727265D6
:100B00006E742076657273696F6E206E756D6265A6
:100B1000722069732025732E0A0043757272656E08
:100B20007420776F726B696E67206D6F64652069E2
:100B300073207468652050432064756D70696E671A
:100B4000206D6F6465210A0043757272656E7420B2
:100B5000776F726B696E67206D6F646520697320B3
:100B600074686520436F6E74726F6C6C6572206D73
:100B70006F6465210A003F3F3F0A00204E4F54201A
:100B80005245414459210A002057524954452050AA
:100B9000524F544543544544210A00204552524F78
:100BA00052210A0020464154204F4B210A00496E31
:100BB000697469616C697A696E67204641542044A2
:100BC00069736B2E2E2E003F3F3F0A00534448436B
:100BD0000A00424C4B0A005344430A005344320A71
:100BE0000053440A004D4D430A004361726420746F
:100BF0007970653A20005344206361726420697300
:100C000020696E697469616C697A65640A00496E6D
:100C1000697469616C697A6174696F6E2066616973
:100C20006C65642121210A005344206361726420B1
:100C300069732057726974652050726F74656374AC
:100C40006564210A00496E73657274205344206301
:100C5000617264000A4D61696E20436F6E74726F39
:100C60006C6C657220576F726B730A0043616E6E15
:100C70006F742066696E64207468652070616E65AB
:100C80006C2025642E0A0042616420657869742016
:100C9000636D642C20726573756C74203D2025751E
:100CA0000A00646F6E2774206B6E6F7720686F7711
:100CB00020746F206465616C2077697468207265A8
:100CC00063747970653D2564206174206C696E657C
:100CD000202564206F6620656570726F6D2E6865D3
:100CE000780A000A00766572696679206D69736D0D
:100CF0006174636820666F72207061676520256487
:100D00000A00766572696679206D69736D61746336
:100D10006820666F7220706167652025640A006331
:100D20006865636B73756D3D3078253032782C20A3
:100D3000636F6D707574656420636865636B73754C
:100D40006D3D3078253032780A004552524F523A84
:100D500020636865636B73756D206D69736D617475
:100D60006368206174206C696E65202564206F665D
:100D700020656570726F6D2E6865780A000A766569
:100D800072696679696E673A20004572726F7220E7
:100D9000665F6C7365656B20696E20656570726F48
:100DA0006D2E6865782E0A00646F6E2774206B6E56
:100DB0006F7720686F7720746F206465616C20778F
:100DC00069746820726563747970653D256420617B
:100DD00074206C696E65202564206F6620656570DF
:100DE000726F6D2E6865782E0A00636865636B7399
:100DF000756D3D3078253032782C20636F6D7075BD
:100E000074656420636865636B73756D3D30782528
:100E10003032780A004552524F523A206368656377
:100E20006B73756D206D69736D6174636820617497
:100E3000206C696E65202564206F66206565707280
:100E40006F6D2E6865782E0A000A77726974696E74
:100E5000673A202020004261642070616E656C203A
:100E600072657365742C20726573756C74203D20F7
:100E700025750A00656570726F6D2070616E656C16
:100E80002025752E0A004572726F7220665F6F70A2
:100E9000656E20696E20656570726F6D2E6865786D
:100EA0002E0A0025530A004F4B004449534B5F451F
:100EB000525200494E545F455252004E4F545F52B9
:100EC00045414459004E4F5F46494C45004E4F5FE7
:100ED0005041544800494E56414C49445F4E414DA3
:100EE000450044454E49454400455849535400493E
:100EF0004E56414C49445F4F424A45435400575275
:100F00004954455F50524F54454354454400494E5F
:100F100056414C49445F4452495645004E4F545F38
:100F2000454E41424C4544004E4F5F46494C455F5B
:100F300053595354454D004D4B46535F41424F5218
:100F40005445440054494D454F5554000043616E8B
:100F50006E6F742066696E64207468652070616EBF
:100F6000656C2025642E0A004261642065786974EE
:100F700020636D642C20726573756C74203D202590
:100F8000750A00646F6E2774206B6E6F7720686F30
:100F90007720746F206465616C20776974682072B3
:100FA0006563747970653D2564206174206C696E99
:100FB00065202564206F662070616E656C2E686503
:100FC000780A000A00766572696679206D69736D2A
:100FD0006174636820666F722070616765202564A4
:100FE0000A00766572696679206D69736D61746354
:100FF0006820666F7220706167652025640A00634F
:101000006865636B73756D3D3078253032782C20C0
:10101000636F6D707574656420636865636B737569
:101020006D3D3078253032780A004552524F523AA1
:1010300020636865636B73756D206D69736D617492
:101040006368206174206C696E65202564206F667A
:101050002070616E656C2E6865780A000A7665728C
:10106000696679696E673A20004572726F72206610
:101070005F6C7365656B20696E2070616E656C2EA8
:101080006865782E0A00646F6E2774206B6E6F7728
:1010900020686F7720746F206465616C20776974B5
:1010A0006820726563747970653D256420617420E1
:1010B0006C696E65202564206F662070616E656CBA
:1010C0002E6865780A00636865636B73756D3D30E3
:1010D00078253032782C20636F6D707574656420CC
:1010E000636865636B73756D3D3078253032780ABF
:1010F000004552524F523A20636865636B73756DB9
:10110000206D69736D61746368206174206C696E11
:1011100065202564206F662070616E656C2E6865A1
:10112000782E0A000A77726974696E673A20202067
:10113000004261642070616E656C20726573657435
:101140002C20726573756C74203D2025750A00662D
:101150006C6173682070616E656C2025752E0A00C5
:101160004572726F7220665F6F70656E20696E20C7
:1011700070616E656C2E6865782E0A00426164208D
:10118000666C61736820726561642C20726573758A
:101190006C74203D2025750A00230042616420669E
:1011A0006C61736820726561642C20726573756C64
:1011B00074203D2025750A00230042616420656586
:1011C00070726F6D2077726974652C20726573750B
:1011D0006C74203D2025750A00230042616420665E
:1011E0006C61736820726561642C20726573756C24
:1011F00074203D2025750A00230042616420666C3E
:1012000061736820726561642C20726573756C74FB
:10121000203D2025750A00230042616420666C6130
:1012200073682077726974652C20726573756C74AD
:10123000203D2025750A0023000011241FBECFEF9A
:10124000DFE3DEBFCDBF00E00CBF18BE19BE1ABE83
:101250001BBE14E2A0E0B0E2E8EBF0EC00E00BBF54
:1012600002C007900D92A83EB107D9F71BBE1CE241
:10127000A8EEB4E201C01D92AB31B107E1F70E94C4
:101280004D200C945A600C940000AC0120E030E03A
:10129000F901E957F94DDA01A20FB31F8C91808350
:1012A0002F5F3F4F2E33310599F708958091B9276D
:1012B0009091BA2701968093B9279093BA2780918D
:1012C000B9279091BA274091232850912428841758
:1012D000950720F01092B9271092BA2780916E29B5
:1012E00090916F292091B9273091BA27BC01649F52
:1012F000C001659F900D749F900D1124820F931F64
:101300008093ED249093EE248091E924882329F0A2
:101310008091E8248F5F8093E824089580916E295E
:1013200090916F29019680936E2990936F29209157
:101330006E2930916F298091AB259091AC252817AB
:10134000390720F010926E2910926F2920916E2992
:1013500030916F294091B9275091BA278091232865
:1013600090912428BC01269FC001279F900D369F95
:10137000900D1124840F951F8093ED249093EE24FB
:101380008091E924882329F48091E8248F5F809359
:10139000E82408958091B9279091BA27892B29F4E0
:1013A000809123289091242804C08091B92790919E
:1013B000BA2701978093B9279093BA2720916E2975
:1013C00030916F294091B9275091BA2780912328F5
:1013D00090912428BC01269FC001279F900D369F25
:1013E000900D1124840F951F8093ED249093EE248B
:1013F0008091E924882329F08091E8248F5F8093ED
:10140000E824089580916E2990916F29892B29F401
:101410008091AB259091AC2504C080916E2990916C
:101420006F29019780936E2990936F2920916E29DF
:1014300030916F294091B9275091BA278091232884
:1014400090912428BC01269FC001279F900D369FB4
:10145000900D1124840F951F8093ED249093EE241A
:101460008091E924882329F48091E8248F5F809378
:10147000E8240895813021F0823009F065C032C03F
:101480008091B320882321F488E197E00E947B5962
:101490001092F5241092F62484E690E0A0E0B0E0EB
:1014A0008093AB209093AC20A093AD20B093AE205E
:1014B000E5E2F8E28AE090E08193919328E2ED3E44
:1014C000F207D1F71092EF2481E08093A32081E00E
:1014D00090E08093B4209093B5201092F92410925C
:1014E000FA2408958091B320882321F487EF96E0B1
:1014F0000E947B591092F7241092F82484E690E021
:10150000A0E0B0E08093AF209093B020A093B120F2
:10151000B093B220EEEAF5E28AE090E081939193F5
:1015200026E2E637F207D1F71092F02481E08093AB
:10153000A42081E090E08093B6209093B720109291
:10154000FB241092FC24089587ED96E00E947B59BD
:101550000895AC0120E030E0F901E957F94DDA01D6
:10156000A20FB31F8C9186AF2F5F3F4F2F333105F2
:1015700099F78091B320882321F483E099E00E94B9
:101580007B590895A4E3B0E0E8ECFAE00C94FA5A31
:1015900083E098E268EB70E241E00E94684F8823A4
:1015A00009F0ADC080900D2870910E28682D8091B3
:1015B0000F289091102822E330E040E050E00E9494
:1015C000BC5A79018A019924939422E3322E93E044
:1015D000692E712C6C0E7D1E2E010894411C511C2D
:1015E00036C0939CC0011124C2975C01CC24B7FC87
:1015F000C094DC2C83E098E2B601A5010E94123F62
:10160000882301F58091092890910A28A0910B2840
:10161000B0910C288A159B05AC05BD0599F483E0B3
:1016200098E2B30142E350E092010E947F50882388
:1016300069F489819A81C29749F4C30162E30E94E7
:10164000C33004C085E992E00E947B599394892DB0
:1016500090E0A0E0B0E0E816F9060A071B0708F0E2
:10166000C0CF82E3989EC0011124C2975C01CC24B4
:10167000B7FCC094DC2C83E098E2B601A5010E947F
:10168000123F882399F58091092890910A28A0910A
:101690000B28B0910C288A159B05AC05BD0531F5CA
:1016A000C801B70122E330E040E050E00E94765AE2
:1016B000D82CD61A0D2D10E083E0E82EF12CEC0E7C
:1016C000FD1E83E098E2B701A8019E012F5F3F4F06
:1016D0000E947F50882371F489819A818017910735
:1016E00049F4C7016D2D0E94C33004C084E792E025
:1016F0000E947B5983E098E20E94AC4B04C087E5CE
:1017000092E00E947B59E496E1E10C94165BA6E618
:10171000B0E0EDE8FBE00C94045B982FD62E8091AE
:10172000F424843618F088E293E0AEC0913031F4AE
:101730001092F4241092F0241092F22484E6D89EA1
:10174000C001112480509E4F7C0100E010E086E033
:1017500097E2B801A7010E94123F282F882309F0C1
:101760007CC080910C2790910D27A0910E27B091FD
:101770000F278E159F05A007B10709F06EC02D2D0C
:1017800030E08091B6209091B72001972817390753
:1017900039F40091FB241091FC240115110511F47A
:1017A00004E610E086E097E2BE016D5F7F4FA8017E
:1017B0009E012F5F3F4F0E947F50282F882329F4DE
:1017C00089819A8180179107C9F000D00F92EDB7F7
:1017D000FEB731968DE193E0ADB7BEB711968D930C
:1017E0009C931297228313820E94BD590F900F90F1
:1017F0000F900F9085EF92E00E947B5969817A816A
:10180000DE01139640E050E024C0E091F224F0E0C5
:10181000EE0FFF1FE255FA4D11963C91119720E013
:101820008C918901080F111D008311838091F2248E
:101830008F5F8093F2248091F224843610F010920E
:10184000F2248091F4248F5F8093F4244E5F5F4FE5
:10185000129646175707C8F219C000D00F92EDB77D
:10186000FEB731968AEE92E0ADB7BEB711968D9372
:101870009C931297228313820E94BD590F900F9060
:101880000F900F9083EB92E00E947B59CA59DF4F73
:10189000E7E00C94205BA6E6B0E0E1E5FCE00C9408
:1018A000045B982FD62E8091F324843618F081EDB6
:1018B00093E0AEC0913031F41092EF241092F124F5
:1018C0001092F32484E6D89EC001112480509E4FCC
:1018D0007C0100E010E08BE795E2B801A7010E94CF
:1018E000123F282F882309F07CC080918125909198
:1018F0008225A0918325B09184258E159F05A00790
:10190000B10709F06EC02D2D30E08091B420909188
:10191000B52001972817390739F40091F92410915F
:10192000FA240115110511F404E610E08BE795E2A5
:10193000BE016D5F7F4FA8019E012F5F3F4F0E9448
:101940007F50282F882329F489819A818017910755
:10195000C9F000D00F92EDB7FEB7319686EC93E058
:10196000ADB7BEB711968D939C93129722831382C5
:101970000E94BD590F900F900F900F908CE993E04B
:101980000E947B5969817A81DE01139640E050E024
:1019900024C0E091F124F0E0EE0FFF1FEB5DF74D66
:1019A00011963C91119720E08C918901080F111D2F
:1019B000008311838091F1248F5F8093F1248091C3
:1019C000F124843610F01092F1248091F3248F5F7B
:1019D0008093F3244E5F5F4F129646175707C8F265
:1019E00019C000D00F92EDB7FEB7319681E993E0B0
:1019F000ADB7BEB711968D939C9312972283138235
:101A00000E94BD590F900F900F900F9089E693E0C0
:101A10000E947B59CA59DF4FE7E00C94205B80910C
:101A2000F424882329F488E493E00E947B590895E4
:101A30008091F0248F5F8093F0248091F02484368D
:101A400010F01092F0248091F42481508093F424BB
:101A500080910128843021F0853009F05FC04AC0B0
:101A6000E091F024F0E0EE0FFF1FE255FA4D0190F7
:101A7000F081E02D8091762690917726E80FF91F6E
:101A80002091AB253091AC25F7FD09C0CF01B901FC
:101A90000E94955A80936E2990936F2910C08827D1
:101AA00099278E1B9F0BB9010E94955A21503040F7
:101AB000A901481B590B40936E2950936F2920911F
:101AC0006E2930916F294091B9275091BA278091A2
:101AD000232890912428BC01269FC001279F900DA8
:101AE000369F900D1124840F951F8093ED249093C1
:101AF000EE240895E091F024F0E0EE0FFF1FE25590
:101B0000FA4D80819181BC0125E0660F771F2A95EF
:101B1000E1F7680F791F81E00E94E1240895809128
:101B2000F324882329F481EF93E00E947B590895E0
:101B30008091EF248F5F8093EF248091EF2484368F
:101B400010F01092EF248091F32481508093F324BD
:101B50008091B727843021F0853009F05FC04AC0FA
:101B6000E091EF24F0E0EE0FFF1FEB5DF74D0190E9
:101B7000F081E02D8091042790910527E80FF91F4F
:101B80002091232830912428F7FD09C0CF01B90105
:101B90000E94955A8093B9279093BA2710C088273E
:101BA00099278E1B9F0BB9010E94955A21503040F6
:101BB000A901481B590B4093B9275093BA2720918C
:101BC0006E2930916F294091B9275091BA278091A1
:101BD000232890912428BC01269FC001279F900DA7
:101BE000369F900D1124840F951F8093ED249093C0
:101BF000EE240895E091EF24F0E0EE0FFF1FEB5D7F
:101C0000F74D80819181BC0155E0660F771F5A9591
:101C1000E1F7680F791F80E00E94E12408951F9288
:101C20000F920FB60F9208B60F9209B60F920BB62D
:101C30000F92112418BE19BE1BBE0F932F933F9312
:101C40004F935F936F937F938F939F93AF93BF93C4
:101C5000EF93FF931092EF241092F02410929C20A7
:101C60001092E82488EB94E14EE450E060E070E0EC
:101C700021E001E00E94253286E599E04EE450E043
:101C800060E070E022E000E00E9425328EE899E0FA
:101C90004EE450E060E070E023E00E942532809145
:101CA000A320882351F04091A5205091A62060E008
:101CB00070E08FE89DE024E00CC00E948F0D409101
:101CC000A5205091A62060E070E08FE89DE024E020
:101CD00001E00E9425328091A420882359F0409190
:101CE000A7205091A82060E070E08FE09DE025E003
:101CF00000E00CC00E940F0D4091A7205091A82039
:101D000060E070E08FE09DE025E001E00E94253278
:101D100082E392E00E947B59FF91EF91BF91AF91D6
:101D20009F918F917F916F915F914F913F912F91F3
:101D30000F910F900BBE0F9009BE0F9008BE0F9031
:101D40000FBE0F901F901895AEE0B2E0EAEAFEE0F9
:101D50000C94055B082F162F6A3080F400D000D059
:101D6000EDB7FEB73196CE010396ADB7BEB711966B
:101D70008D939C93129780E090E21FC0CE01039652
:101D8000643670F400D000D0EDB7FEB73196ADB731
:101D9000BEB711968D939C9312978EE090E20DC082
:101DA00000D000D0EDB7FEB73196ADB7BEB71196F3
:101DB0008D939C9312978BE190E28283938314839B
:101DC00015820E94595DEDB7FEB73696EDBFFEBF96
:101DD000013021F0023009F090C1C7C08BE795E2D5
:101DE0000E94AC4B8BE795E2BE016D5F7F4F41E0F7
:101DF0000E94684F882309F044C08BE795E2BE013A
:101E0000615F7F4F40E052E09E012F5F3F4F0E9495
:101E10007F50882399F589819A818050924071F58D
:101E20008F858093AB2088898093AC2089898093AB
:101E3000AD208A898093AE201093F5241092F62469
:101E400000939C201092E8248091B3208823E9F429
:101E500000D00F92EDB7FEB7319683E595E0ADB7B0
:101E6000BEB711968D939C931297128313820E9492
:101E7000BD590F900F900F900F9007C082E395E02F
:101E800002C081E195E00E947B59E090AB20F09088
:101E9000AC200091AD201091AE20C801B70124E61E
:101EA00030E040E050E00E94BC5A6093F924709307
:101EB000FA24672B49F4C801B70124E630E040E07A
:101EC00050E00E94BC5A0AC0C801B70124E630E0C5
:101ED00040E050E00E94BC5A2F5F3F4F2093B42057
:101EE0003093B5208091B3208823C1F500D000D075
:101EF00080E095E0EDB7FEB781839283ADB7BEB7C2
:101F00001396ED92FD920D931C9316970E94BD5966
:101F10000F900F908EEE94E0EDB7FEB78183928321
:101F20008091F9249091FA24838394830E94BD596F
:101F300086ED94E0ADB7BEB711968D939C93129742
:101F40008091B4209091B52013968D939C93149713
:101F50000E94BD590F900F900F900F901092A320E8
:101F600081E060E00E944B0CCCC086E097E20E94CA
:101F7000AC4B86E097E2BE016D5F7F4F41E00E946F
:101F8000684F882309F045C086E097E2BE01615F93
:101F90007F4F40E052E09E012F5F3F4F0E947F50F5
:101FA0008823A1F589819A818050924079F58F85A7
:101FB0008093AF2088898093B02089898093B12055
:101FC0008A898093B2201093F7241092F82481E03C
:101FD00080939C201092E8248091B3208823E9F418
:101FE00000D00F92EDB7FEB7319682EB94E0ADB71B
:101FF000BEB711968D939C931297128313820E9401
:10200000BD590F900F900F900F9007C081E994E099
:1020100002C080E794E00E947B59E090AF20F090EE
:10202000B0200091B1201091B220C801B70124E680
:1020300030E040E050E00E94BC5A6093FB24709373
:10204000FC24672B49F4C801B70124E630E040E0E6
:1020500050E00E94BC5A0AC0C801B70124E630E033
:1020600040E050E00E94BC5A2F5F3F4F2093B620C3
:102070003093B7208091B3208823C1F500D000D0E1
:102080008FE594E0EDB7FEB781839283ADB7BEB71D
:102090001396ED92FD920D931C9316970E94BD59D5
:1020A0000F900F908DE494E0EDB7FEB7818392839B
:1020B0008091FB249091FC24838394830E94BD59DA
:1020C00085E394E0ADB7BEB711968D939C931297BC
:1020D0008091B6209091B72013968D939C9314977E
:1020E0000E94BD590F900F900F900F901092A42056
:1020F00081E060E00E94870B04C082E194E00E94CE
:102100007B59C25FDD4FE6E00C94215BAEE0B2E0AC
:10211000ECE8F0E10C94055B082F162F6A3080F490
:1021200000D000D0EDB7FEB73196CE010396ADB723
:10213000BEB711968D939C93129787E290E21FC0D1
:10214000CE010396643670F400D000D0EDB7FEB730
:102150003196ADB7BEB711968D939C93129785E3D8
:1021600090E20DC000D000D0EDB7FEB73196ADB70C
:10217000BEB711968D939C93129782E490E282836E
:102180009383148315820E94595DEDB7FEB736968E
:10219000EDBFFEBF013021F0023009F094C1C7C08D
:1021A0008BE795E20E94AC4B8BE795E2BE016D5F39
:1021B0007F4F41E00E94684F882309F044C08BE7BD
:1021C00095E2BE01615F7F4F40E052E09E012F5FCC
:1021D0003F4F0E947F50882399F589819A818050D2
:1021E000924071F58F858093AB2088898093AC20D5
:1021F00089898093AD208A898093AE201093F5243D
:102200001092F62400939C201092E8248091B32031
:102210008823E9F400D00F92EDB7FEB7319683EB37
:1022200096E0ADB7BEB711968D939C93129712832B
:1022300013820E94BD590F900F900F900F9007C00E
:1022400086E996E002C085E796E00E947B59E0901F
:10225000AB20F090AC200091AD201091AE20C801D1
:10226000B70124E630E040E050E00E94BC5A6093A1
:10227000F9247093FA24672B49F4C801B70124E6C6
:1022800030E040E050E00E94BC5A0AC0C801B701EB
:1022900024E630E040E050E00E94BC5A2F5F3F4F00
:1022A0002093B4203093B5208091B3208823C1F5CA
:1022B00000D000D084E696E0EDB7FEB7818392832C
:1022C000ADB7BEB71396ED92FD920D931C93169782
:1022D0000E94BD590F900F9082E596E0EDB7FEB7D2
:1022E000818392838091F9249091FA24838394834B
:1022F0000E94BD598AE396E0ADB7BEB711968D93A3
:102300009C9312978091B4209091B52013968D9351
:102310009C9314970E94BD590F900F900F900F90AF
:102320001092A32081E060E00E944B0CD0C086E0B8
:1023300097E20E94AC4B86E097E2BE016D5F7F4F53
:1023400041E00E94684F882309F045C086E097E28B
:10235000BE01615F7F4F40E052E09E012F5F3F4F23
:102360000E947F508823A1F589819A8180509240F4
:1023700079F58F858093AF2088898093B0208989F3
:102380008093B1208A898093B2201093F724109211
:10239000F82481E080939C201092E8248091B3205F
:1023A000882309F500D00F92EDB7FEB7319686E18C
:1023B00096E0ADB7BEB711968D939C93129712839A
:1023C00013820E94BD590F900F900F900F900BC079
:1023D00088EF95E006C08091B320882321F487ED33
:1023E00095E00E947B59E090AF20F090B0200091E2
:1023F000B1201091B220C801B70124E630E040E0DE
:1024000050E00E94BC5A6093FB247093FC24672B1D
:1024100049F4C801B70124E630E040E050E00E94F2
:10242000BC5A0AC0C801B70124E630E040E050E0E1
:102430000E94BC5A2F5F3F4F2093B6203093B720A5
:102440008091B3208823C1F500D000D086EC95E0C0
:10245000EDB7FEB781839283ADB7BEB71396ED9209
:10246000FD920D931C9316970E94BD590F900F90EB
:1024700083EB95E0EDB7FEB7818392838091FB24D7
:102480009091FC24838394830E94BD598BE995E04D
:10249000ADB7BEB711968D939C9312978091B620DD
:1024A0009091B72013968D939C9314970E94BD59D9
:1024B0000F900F900F900F901092A42081E060E099
:1024C0000E94870B04C088E795E00E947B59C25F99
:1024D000DD4FE6E00C94215B1F93CF93DF93162F23
:1024E000EA01882349F5809185268823E1F788E76A
:1024F00096E260E0AE01212F0E94FD3280919D297D
:102500008823E1F780E999E260E0AE01212F0E9483
:10251000FD32809133278823E1F786E297E260E07D
:10252000AE01212F0E94FD328091A9258823E1F779
:102530008CE995E260E022C0E82FF0E0DF01AA5CC0
:10254000B84DAC91E351F74D6081AA23D9F0A33087
:1025500051F0A43059F0A23019F4A0E9B9E208C052
:10256000A8E7B6E205C0A6E2B7E202C0ACE9B5E270
:102570001D968C911D978823D9F7CD01AE01212F8F
:102580000E94FD32DF91CF911F910895FC0180815F
:10259000803119F08131A9F407C08181738160E035
:1025A0009281690F711D09C0738160E08281680F9B
:1025B000711D8181709561957F4F81500E94E1244A
:1025C000089580E068E040EE50E20E946C120895A9
:1025D000A2E0B0E0EEEEF2E10C94065B8C01FC01AF
:1025E0008081853209F4B5C0863250F4853109F412
:1025F0009AC0803209F4A0C0803109F01DC18BC09F
:10260000853309F4EEC08F3F21F0803309F014C107
:10261000BEC0F801F180809185268823E1F788E724
:1026200096E26F2D40E051E222E00E94FD3280915F
:102630009D298823E1F780E999E26F2D40E051E27E
:1026400022E00E94FD32809133278823E1F786E261
:1026500097E26F2D40E051E222E00E94FD3280912E
:10266000A9258823E1F78CE995E26F2D40E051E23E
:1026700022E00E94FD3280EF95E520E233E0F9018F
:102680003197F1F70197D9F78FEF8983F80192819C
:10269000809185268823E1F79A8388E796E26F2D5B
:1026A000AE014F5F5F4F22E00E94FD3280919D2975
:1026B0008823E1F780E999E26F2DAE014F5F5F4F0C
:1026C00022E00E94FD32809133278823E1F786E2E1
:1026D00097E26F2DAE014F5F5F4F22E00E94FD3207
:1026E0008091A9258823E1F78CE995E26F2DAE0151
:1026F0004F5F5F4F22E00E94FD3284EF91E020E2C5
:1027000033E0F9013197F1F70197D9F780E062E002
:1027100040E051E295C0F80181818093B727828122
:10272000809301288FC0F8016281662349F0F80187
:1027300081810E94861086C0F8016281662321F49F
:1027400081810E943A0A7EC0F80181810E94A40E14
:1027500079C0F801928180E021818C01020F111D66
:10276000980140E050E062E17AE780E090E00E946A
:10277000DE5A2093A5203093A6208091B320882391
:1027800009F060C000D00F9285EC99E01DC0F801FF
:10279000928180E021818C01020F111D980140E09F
:1027A00050E062E17AE780E090E00E94DE5A2093F8
:1027B000A7203093A8208091B320882309F042C03D
:1027C00000D00F9282EA99E0EDB7FEB78183928341
:1027D000038314830E94BD590F900F900F900F90A8
:1027E00031C0F801618170E080E090E02FEF3FE0C0
:1027F00040E050E00E94765A2AE030E040E050E0AD
:102800000E94BC5A20939D2030939E20F801628143
:1028100070E080E090E02FEF3FE040E050E00E9469
:10282000765A2AE030E040E050E00E94BC5A209303
:102830009F203093A02006C080E068E048ED50E281
:102840000E946C122296E5E00C94225BA2E8B0E0B4
:10285000ECE2F4E10C94035B282F8A3080F400D082
:1028600000D0EDB7FEB731968DEF94E2ADB7BEB7AD
:1028700011968D939C9312978EE490E21FC08DEF7A
:1028800094E2243670F400D000D0EDB7FEB7319654
:10289000ADB7BEB711968D939C9312978CE590E2DD
:1028A0000DC000D000D0EDB7FEB73196ADB7BEB7C2
:1028B00011968D939C93129789E690E2828393837D
:1028C000248315820E94595DEDB7FEB73696EDBFA1
:1028D000FEBF83E098E26DEF74E241E00E94684F32
:1028E0008823C9F5F3E0CF2ED12CCC0EDD1E83E07A
:1028F00098E2B60140E850E09E012F5F3F4F0E94F2
:102900007F50882309F589819A8180389105E1F407
:10291000E7E3EE2EE7E2FE2E00E010E0F601E00F26
:10292000F11F6081D7016D937D010F5F1F4FC801BB
:102930008F5F9F4F0E94945F0038110579F781E007
:1029400090E060E00E94945F83E098E20E94AC4BCC
:1029500086E997E002C080E697E00E947B59CE5757
:10296000DF4FE8E00C941F5B83E00E946024089531
:10297000A0E0B0E0EEEBF4E10C94FF5A8091B727B1
:10298000813011F1813038F0823009F448C0833051
:1029900009F0E0C082C0E091EF24209102283327A3
:1029A00027FD3095220F331FF0E0EE0FFF1FEB5D88
:1029B000F74D80819181AC01249FC001259F900D2E
:1029C000349F900D11241DC080E00E94712464E0AA
:1029D00070E00E94A95ACB01880F991F880F991F98
:1029E0006AE070E00E94A95A80910228992787FD29
:1029F00090959C01629FC001639F900D729F900D06
:102A000011246AE070E00E94A95ACB0120919B2515
:102A100045E0240290011124820F931F38C080E00A
:102A20000E94712464E070E00E94A95ACB01E091F9
:102A3000EF24F0E0EE0FFF1FEB5DF74D0190F0810A
:102A4000E02DEE0FFF1F20919B2545E02402900111
:102A50001124E20FF31F880F991F880F991F6AE056
:102A600070E00E94A95A80910228992787FD9095CD
:102A7000AC01649FC001659F900D749F900D11245F
:102A80006AE070E00E94A95ACF01860F971F62E0AA
:102A900070E00E94A95A4B015FC082E00E9471243D
:102AA000FC0180919D2090919E208E179F0708F435
:102AB000FC01C0912328D09124285E01CC24DD2480
:102AC0007C0100E010E0C601B501660F771F881F8A
:102AD000991F9F01442737FD4095542F0E94765A35
:102AE0006E0D7F1D801F911FEE0CFF1C001F111F1C
:102AF000A80197010E94DE5A2150304040405040CA
:102B00002A153B054C055D052CF021979E0140E000
:102B100050E0219657FF04C020E030E040E050E054
:102B20002093B9273093BA2780916E2990916F290D
:102B30002091B9273091BA27BC016C9FC0016D9FCD
:102B4000900D7C9F900D1124820F931F8093ED2494
:102B50009093EE248824992480910128813011F1EA
:102B6000813038F0823009F448C0833009F0E3C086
:102B700082C0E091F0242091BB27332727FD3095B8
:102B8000220F331FF0E0EE0FFF1FE255FA4D808158
:102B90009181AC01249FC001259F900D349F900D21
:102BA00011241DC081E00E94712464E070E00E9445
:102BB000A95ACB01880F991F880F991F6AE070E00E
:102BC0000E94A95A8091BB27992787FD90959C0167
:102BD000629FC001639F900D729F900D11246AE067
:102BE00070E00E94A95ACB012091D22B45E024022B
:102BF00090011124820F931F38C081E00E9471243C
:102C000064E070E00E94A95ACB01E091F024F0E06A
:102C1000EE0FFF1FE255FA4D0190F081E02DEE0F0F
:102C2000FF1F2091D22B45E0240290011124E20FD6
:102C3000F31F880F991F880F991F6AE070E00E94A8
:102C4000A95A8091BB27992787FD9095AC01649F75
:102C5000C001659F900D749F900D11246AE070E093
:102C60000E94A95ACF01860F971F62E070E00E9470
:102C7000A95AEB0162C083E00E947124FC0180919B
:102C80009F209091A0208E179F0708F4FC01C0910F
:102C9000AB25D091AC255E01CC24DD247C0100E085
:102CA00010E0C601B501660F771F881F991F9F01AD
:102CB000442737FD4095542F0E94765A6E0D7F1D94
:102CC000801F911FEE0CFF1C001F111FA801970110
:102CD0000E94DE5A21503040404050402A153B05AA
:102CE0004C055D0524F021979E0140E050E057FF20
:102CF00004C020E030E040E050E020936E293093A3
:102D00006F2920916E2930916F294091B9275091F8
:102D1000BA278091232890912428BC01269FC001C6
:102D2000279F900D369F900D1124840F951F80933F
:102D3000ED249093EE24C0E0D0E080919C2081307F
:102D400059F11814190474F49401442737FD40957F
:102D5000542F62E17AE780E090E00E94BC5A86E559
:102D600099E013C081149104C9F022273327281950
:102D70003909442737FD4095542F62E17AE780E016
:102D800090E00E94BC5A8AEC99E0BA01A90122E0C5
:102D900001E00E944B320EC0C0E0D0E08AEC99E026
:102DA0004EE450E060E070E022E000E00E944B3230
:102DB000882499241C161D0674F49E01442737FDAF
:102DC0004095542F62E17AE780E090E00E94BC5A7F
:102DD0008EE899E012C02097A9F0222733272C1BF8
:102DE0003D0B442737FD4095542F62E17AE780E0A0
:102DF00090E00E94BC5A82E09AE0BA01A90123E067
:102E000001E008C082E09AE04EE450E060E070E04B
:102E100023E000E00E944B321092E9248C169D06BC
:102E20001CF081E08093E924CDB7DEB7ECE00C9490
:102E30001B5BA1E0B0E0EFE1F7E10C94015B5C010A
:102E4000FC01E080F180C280D38084818093EC24F7
:102E500095819093352786818093AD25882319F03D
:102E60009093B82709C0892F90E063E0880F991FDD
:102E70006A95E1F78093B8271092E82481E061E039
:102E80000E943F2491E007E010E00FC0A501400F31
:102E9000511F892F6091B82799830E946C128091ED
:102EA000B827080F111D99819F5F8091EC24891725
:102EB00068F77F2D60E06E0D711D80E00E94E124B7
:102EC0007D2D60E06C0D711D81E00E94E12481E0A8
:102ED00060E00E943F242196EAE00C941D5B2F9253
:102EE0003F924F925F926F927F929F92AF92BF926A
:102EF000CF92DF92EF92FF920F931F93DF93CF93C6
:102F0000CDB7DEB7A897CDBFDEBF5C012B011A019C
:102F10008DB79EB78FA398A78FB781E061E00E941D
:102F20003F248091E824823018F081E00E94CD2374
:102F30001092E8248091B8279091EC24899F600139
:102F40001124C60191706D2D6695892B09F06F5F74
:102F5000ADB7BEB7AC19BD09ADBFBEBF6DB67EB6CD
:102F60000894611C711C70E080E090E0950140E0E5
:102F700050E00E94765A7B018C010894E11CF11C00
:102F8000011D111DB9E0EE0CFF1C001F111FBA95A9
:102F9000D1F780E799E2B801A7010E94123F982E6D
:102FA000882309F059C18091762990917729A091C1
:102FB0007829B09179298E159F05A007B10709F0EE
:102FC0004BC180E799E2B301A6019E012F5F3F4FFD
:102FD0000E947F50182F882309F017C189819A8198
:102FE0008C159D0509F011C111E0EE24FF24A7E026
:102FF000CA2ED12CCC0EDD1EF3E0AF2EB12CAC0EC0
:10300000BD1EF7C08D9181938E2F8C198917D0F337
:10301000E90EF11C80919F29813009F0E3C09830BE
:10302000E9F49F8188859817C9F449858A854817EE
:10303000A9F43B858C85381789F42D858E85281752
:1030400069F4941759F4931749F4921739F4812FBE
:1030500061E0A6010E946C12E1E001C0E0E0809115
:10306000B827883109F04EC06F818885681709F04C
:1030700049C039858A85381709F044C02B858C856D
:10308000281709F03FC09D858E859817D9F56317DD
:10309000C9F56217B9F56917A9F54F8588894817E9
:1030A00089F539898A89381769F52B898C89281718
:1030B00049F59D898E89981729F5431719F5421707
:1030C00009F54917F9F49F89888D9817D9F4598D16
:1030D0008A8D5817B9F43B8D8C8D381799F42D8D46
:1030E0008E8D281779F4951769F4931759F4921770
:1030F00049F46B834C839D83812F63E0A5010E947B
:103100006C12E1E08091B827803209F069C07F81BC
:103110008885781709F064C039858A85381709F0E1
:103120005FC02B858C85281709F05AC09D858E8538
:10313000981709F055C0731709F052C0721709F0BB
:103140004FC0791709F04CC06F858889681709F05E
:1031500047C039898A89381709F042C02B898C8980
:103160002817F1F59D898E899817D1F56317C1F558
:103170006217B1F56917A1F54F89888D481781F558
:10318000398D8A8D381761F52B8D8C8D281741F577
:103190009D8D8E8D981721F5431711F5421701F576
:1031A0004917F1F49F8D88A19817D1F459A18AA1EC
:1031B0005817B1F43BA18CA1381791F42DA18EA121
:1031C000281771F4951761F4931751F4921741F48D
:1031D0007B836C834D839E83812F64E0A50106C0B1
:1031E000EE2331F4812F6091B827A6010E946C1262
:1031F0001F5F8091EC24811708F453C09091B82789
:10320000D301AE0DBF1DF601FFCE8091B320882300
:1032100009F047C08AED98E00E947B598DB79EB7B0
:1032200008978DBF9EBFEDB7FEB731968CEB98E047
:10323000ADB7BEB711968D939C93129712831382EC
:10324000A482B58289819A81868397830E94BD5921
:103250008DB79EB7089623C08091B320882309F5C7
:1032600082E998E00E947B59ADB7BEB71A97ADBF0F
:10327000BEBFEDB7FEB731968FE698E011968D93FD
:103280009C93129792821382A482B582E682F7827F
:10329000008711870E94BD598DB79EB70A968DBFD2
:1032A0009EBF8091B7278530C9F0B20180E090E0E1
:1032B0006F5F7F4F8F4F9F4F2FEF3FE740E050E012
:1032C0000E94765A209123283091242840E050E033
:1032D0000E94BC5A80E0B9010E94E124809101283B
:1032E0008530C9F0B10180E090E06F5F7F4F8F4F74
:1032F0009F4F2FEF3FE740E050E00E94765A209129
:10330000AB253091AC2540E050E00E94BC5A81E0F2
:10331000B9010E94E1248091EA24813059F580911D
:10332000B9279091BA274091B9275091BA27E3E085
:1033300096958795EA95E1F790E0FC01E957F94DFC
:10334000208130E073E0880F991F7A95E1F7481BE0
:1033500087E090E0841B910902C0359527958A95F6
:10336000E2F720FD03C080E060E002C080E061E0A1
:103370000E943F2481E060E00E943F24AFA1B8A5F5
:10338000ADBFBEBFA896CDBFDEBFCF91DF911F916D
:103390000F91FF90EF90DF90CF90BF90AF909F90F4
:1033A0007F906F905F904F903F902F900895A0E096
:1033B000B0E0EDEDF9E10C94015B81E080939C209D
:1033C0002091AB253091AC25809123289091242821
:1033D000289F5001299FB00C389FB00C11240E94E7
:1033E0004B58C0E0D0E00CC06091B9277091BA276B
:1033F00040916E2950916F29CE010E946F1721963E
:10340000CA15DB0588F30E9460587B018C018DB7DB
:103410009EB708978DBF9EBFCDB6DEB60894C11C7F
:10342000D11C89E397E0EDB7FEB781839283F60163
:10343000E282F38204831583B50180E090E028EEF8
:1034400033E040E050E00E94765AA80197010E94C4
:10345000BC5AF601268337830E94BD598DB79EB7AB
:1034600008968DBF9EBFCDB7DEB7EAE00C941D5B1A
:10347000A2E0B2E0EEE3FAE10C94085B182F8A3088
:1034800080F400D000D0EDB7FEB7319689E095E228
:10349000ADB7BEB711968D939C93129785E790E2D6
:1034A0001FC089E095E2143670F400D000D0EDB76B
:1034B000FEB73196ADB7BEB711968D939C93129718
:1034C00083E890E20DC000D000D0EDB7FEB7319692
:1034D000ADB7BEB711968D939C93129780E990E299
:1034E00082839383148315820E94595D8DB79EB7A2
:1034F00006968DBF9EBF80E799E20E94AC4B80E7A5
:1035000099E269E075E241E00E94684F882309F082
:10351000ABC080E799E2BE016D5F7F4F40E052E0B3
:103520009E012F5F3F4F0E947F50882309F099C072
:1035300089819A818050924009F093C08B81809359
:1035400023288C81809324288D818093AB258E81C4
:103550008093AC258F818093EC24988590933527B8
:10356000892F8B50843048F49A509093352781E00E
:103570008093AD259093B8270BC01092AD25892F6D
:1035800090E023E0880F991F2A95E1F78093B827F0
:1035900010926E2910926F2980916E2990916F2957
:1035A0008093B9279093BA271092ED241092EE24BD
:1035B00081E080939C201092E8248091B32088239E
:1035C00009F040C000D00F92EDB7FEB731968AE502
:1035D00098E0ADB7BEB711968D939C931297128366
:1035E00013820E94BD598DB79EB708978DBF9EBFAD
:1035F000EDB7FEB7319687E098E0ADB7BEB711964C
:103600008D939C93129780912328909124288283F4
:1036100093838091AB259091AC2584839583809191
:10362000EC248683178280913527808711868091CC
:10363000AD25828713860E94BD598DB79EB70C9623
:103640008DBF9EBF8091ED249091EE246091B927AB
:103650007091BA2740916E2950916F290E946F177F
:1036600007C088EE97E002C08CEC97E00E947B597F
:10367000CE5FDD4FE3E00C94245BFC01808180375A
:1036800021F0813709F0BDC07BC0928180E02181AB
:10369000820F911D8093B9279093BA27948180E07F
:1036A0002381820F911D80936E2990936F298091C1
:1036B000B9279091BA27809304279093052780918A
:1036C0006E2990916F29809376269093772620918A
:1036D0006E2930916F294091B9275091BA27809176
:1036E000232890912428BC01269FC001279F900D7C
:1036F000369F900D1124840F951F8093ED24909395
:10370000EE241092E8248091B320882351F5209173
:10371000B9273091BA2740916E2950916F29609155
:10372000ED247091EE248DB79EB708978DBF9EBF94
:10373000EDB7FEB7319686E699E0ADB7BEB7119604
:103740008D939C931297228333834483558366839E
:1037500077830E94BD596DB77EB7685F7F4F6DBF9D
:103760007EBF8091ED249091EE246091B9277091F5
:10377000BA2740916E2950916F290E946F170895C2
:10378000518150930228428140939B25338130938D
:10379000BB2724812093D22B8091B3208823B9F5B5
:1037A0008DB79EB70A978DBF9EBFEDB7FEB7319616
:1037B00087E299E0ADB7BEB711968D939C931297AF
:1037C000852F992787FD909582839383842F99274E
:1037D00087FD909584839583832F992787FD909506
:1037E00086839783822F992787FD9095808791877D
:1037F0000E94BD596DB77EB7665F7F4F6DBF7EBFBC
:10380000089580E068E048EE50E20E946C1208954E
:10381000FC012181808190E0FC013197E031F105CC
:1038200008F044C0E650FF4F0C94305B822F62E0FA
:1038300040E051E23FC0822F62E042E051E23AC0F4
:10384000822F0E94381A0895822F0E9463250895BE
:10385000822F0E9407250895822F90E0880F991FDC
:103860008093A9209093AA200895822F0E94C12BB3
:103870000895822F0E94CF280895822F0E94261437
:103880000895822F81500E94712400D00F9228EE5B
:1038900039E0EDB7FEB721833283838394830E949E
:1038A000BD590F900F900F900F90089580E068E041
:1038B00040ED50E20E946C1208956F927F929F92A9
:1038C000AF92BF92CF92DF92EF92FF920F931F932E
:1038D000DF93CF930F920F92CDB7DEB7FC01E0815B
:1038E000E33409F426C2E43408F05BC0E03209F4A2
:1038F000B6C0E13258F5E43109F4A4C2E53198F4D8
:10390000E13109F491C2E23138F4EE2309F4FDC14A
:10391000E03109F0ACC384C2E23109F48CC2E33176
:1039200009F0A5C38CC2E73109F4B8C2E83138F414
:10393000E53109F48AC2E63109F099C397C2E8314A
:1039400009F4B0C2E93109F092C3AFC2E63209F41A
:1039500027C3E73298F4E33209F403C3E43238F4BE
:10396000E13209F4EAC2E23209F081C3F0C2E43282
:1039700009F406C3E53209F07AC31CC1E03409F446
:10398000C9C1E13438F4E03309F4CDC0E53309F0BE
:103990006EC371C1E13409F4C2C1E23409F067C3F6
:1039A000C3C1E43909F400C2E53958F5E03609F439
:1039B000E1C1E13698F4E63409F4CAC1E73438F4D9
:1039C000E43409F4BBC1E53409F051C3BCC1E734A8
:1039D00009F4C3C1E03509F04AC3C9C1E13909F4AA
:1039E000D4C1E23938F4E03709F4C7C1E03909F04D
:1039F0003EC3C6C1E23909F4CDC1E33909F037C38A
:103A0000CEC1EA3909F4EEC1EB3998F4E73909F48B
:103A1000DAC1E83938F4E53909F4CBC1E63909F0FF
:103A200026C3CCC1E83909F4D3C1E93909F01FC371
:103A3000D4C1ED3909F4E5C1EE3938F4EB3909F4B4
:103A4000D6C1EC3909F013C3D7C1EF3909F4E3C18A
:103A5000EF3908F4DBC1EF3F09F009C383C11092CD
:103A6000EF241092F02410929C2081E08093A120FA
:103A70008093A2201092E82488EB94E14EE450E079
:103A800060E070E021E001E00E94253286E599E0E7
:103A90004EE450E060E070E022E000E00E94253259
:103AA0008EE899E04EE450E060E070E023E00E9490
:103AB00025328091A320882351F04091A520509178
:103AC000A62060E070E08FE89DE024E00CC00E943A
:103AD0008F0D4091A5205091A62060E070E08FE806
:103AE0009DE024E001E00E9425328091A4208823FB
:103AF00059F04091A7205091A82060E070E08FE03D
:103B00009DE025E000E00CC00E940F0D4091A72031
:103B10005091A82060E070E08FE09DE025E001E09A
:103B20000E942532AAC281E080939C2088EB94E118
:103B30004EE450E060E070E021E000E00E942532B9
:103B400086E599E04EE450E060E070E022E00E94FB
:103B500025328EE899E04EE450E060E070E023E02A
:103B60000E9425324091A5205091A62060E070E08F
:103B70008FE89DE024E00E9425324091A7205091DB
:103B8000A82060E070E08FE09DE025E00E942532F3
:103B90008091A320882321F481E060E00E944B0CF7
:103BA0008091A420882309F068C281E060E00E942F
:103BB000870B63C21092EF241092F02410929C2085
:103BC0001092E82488EB94E14EE450E060E070E06D
:103BD00021E001E00E94253286E599E04EE450E0C4
:103BE00060E070E022E000E00E9425328EE899E07B
:103BF0004EE450E060E070E023E00E9425328091C6
:103C0000A3204091A5205091A620882331F060E0A8
:103C100070E08FE89DE024E006C060E070E08FE88F
:103C20009DE024E001E00E9425328091A420409193
:103C3000A7205091A820882339F060E070E08FE041
:103C40009DE025E000E006C060E070E08FE09DE0D0
:103C500025E001E00E9425326091A9207091AA2000
:103C600082E19AE70E94955AAB0160E070E084EB34
:103C700094E120E054CF81E080939C2088EB94E194
:103C80004EE450E060E070E021E000E00E94253268
:103C900086E599E04EE450E060E070E022E00E94AA
:103CA00025328EE899E04EE450E060E070E023E0D9
:103CB0000E9425324091A5205091A62060E070E03E
:103CC0008FE89DE024E00E9425324091A72050918A
:103CD000A82060E070E08FE09DE025E00E942532A2
:103CE0002091A9203091AA2040E050E062E17AE7DB
:103CF00080E090E00E94DE5A84EB94E1BA01A901D1
:103D000020E00E94253282E092C080E068E045E138
:103D100055E2B1C180E068E144E051E2ACC180E02D
:103D200068E14CE151E2A7C180E068E144E351E27F
:103D3000A2C180E068E14CE451E29DC180E068E10D
:103D400044E651E298C180E068E14CE751E293C15A
:103D500080E068E144E951E28EC180E068E14CEA2C
:103D600051E289C180E068E044EC51E284C10E94E4
:103D7000E02383C10E944B2580C10E94D7197DC1D9
:103D800080E060E24CEC51E276C180E060E24CEE13
:103D900051E271C180E060E24CE052E26CC180E02F
:103DA00060E24CE252E267C180E060E24CE452E241
:103DB00062C180E060E24CE652E25DC180E060E218
:103DC0004CE852E258C180E060E24CEA52E253C152
:103DD00080E060E24CEC52E24EC180E060E24CEEEA
:103DE00052E249C180E060E24CE053E244C180E02D
:103DF00060E24CE253E23FC180E060E24CE453E217
:103E00003AC180E060E24CE653E235C180E060E216
:103E10004CE853E230C180E060E24CEA53E22BC14F
:103E200081E08093EA2429C11092EA2480E060E0D6
:103E30000E943F2422C181E080939F291EC11092DD
:103E40009F291BC10E94C20A18C100D00F928BEF9C
:103E50009AE0ADB7BEB711968D939C9312978CECF8
:103E600093E213968D939C931497FAC057E3E52E33
:103E700057E2F52E11E00EEF6E010894C11CD11C23
:103E80000983F70181917F018A83812F62E0A60176
:103E90000E946C121F5F113899F7EFC081E0809388
:103EA000B320EBC01092B320E8C08DB79EB7429705
:103EB0008DBF9EBFEDB7FEB7319689ED9AE0ADB7E5
:103EC000BEB711968D939C931297809102289927E3
:103ED00087FD90958283938380919B25992787FD09
:103EE00090958483958380910427909105278683FC
:103EF00097838091B727808711868091BB27992768
:103F000087FD9095828793878091D22B992787FD93
:103F100090958487958780917626909177268687DD
:103F2000978780910128808B118A0E94BD59EDB737
:103F3000FEB77296EDBFFEBFA0C080E090E06FEFCD
:103F40000E94945F0F920F9287EA9AE012C080E07D
:103F500090E060E00E94945F0F920F9285E79AE0F4
:103F600016C088E0E0E2F7E082870F920F928AE4C1
:103F70009AE0ADB7BEB711968D939C9312970BC084
:103F8000E0E2F7E012860F920F9284E29AE0EDB73A
:103F9000FEB7818392830E94BD590F900F906DC030
:103FA0009924EE24FF248701AA24BB24650140E460
:103FB000642E4CE9742E82E00E947124AA2797FD9A
:103FC000A095BA2FE80EF91E0A1F1B1F83E00E945E
:103FD0007124AA2797FDA095BA2FA80EB91ECA1E54
:103FE000DB1EC3010197F1F79394F4E69F1619F7CE
:103FF000C801B70124E630E040E050E00E94BC5A1E
:1040000020939D2030939E20C601B50124E630E028
:1040100040E050E00E94BC5A20939F203093A020A3
:1040200000D00F928FE09AE0ADB7BEB711968D9396
:104030009C93129780919D2090919E2013968D9332
:104040009C9314970E94BD598AEF99E0EDB7FEB793
:104050008183928380919F209091A0208383948379
:104060000E94BD590F900F900F900F9006C080E0F6
:1040700068E048EC50E20E946C120F900F90CF91D4
:10408000DF911F910F91FF90EF90DF90CF90BF9045
:10409000AF909F907F906F900895A0E5B6E0E3E524
:1040A000F0E20C94FF5A80E090E00E94845FE82EDA
:1040B00088E796E26E2D0E94C93380E999E26E2D61
:1040C0000E94C93386E297E26E2D0E94C9338CE9C3
:1040D00095E26E2D0E94C93388E796E260E874E0AD
:1040E00040E450E023E20E947A3280E999E260E9FC
:1040F00074E040E450E023E20E947A3286E297E2E4
:1041000060EA74E040E450E023E20E947A328CE9F5
:1041100095E260EB74E040E450E023E20E947A32E2
:104120008E2D0E9471310E94C72E8AE390E3809306
:10413000792590937A2580E090E02AE030E0FC0138
:10414000E255FA4D20833183FC01EB5DF74D20836E
:1041500031830296883C910591F7E7E8F6E220E08A
:1041600030E04FEF2330310520F0C9010697039767
:1041700010F4408301C010822F5F3F4F31962D37DE
:10418000310581F710926E2910926F2980916E2966
:1041900090916F298093B9279093BA278091B9277E
:1041A0009091BA2780937626909377268093042760
:1041B000909305271092D22B10929B251092BB272B
:1041C00010920228109201281092B72781E0809364
:1041D00035271092AD2510929F2981E090E00E9432
:1041E000845F8F3FD9F4198224E014C0E82FF0E0F7
:1041F000EA5CF84D982F93709083882319F09923E7
:1042000009F420838981E82FF0E0E351F74D8083A2
:104210008F5F89838981813848F317C0198211C063
:104220000F2D10E0C8018F5F9F4F0E94845FF8013F
:10423000EA5CF84D80830351174DF801F082F39446
:10424000F982F980F0E8FF1558F784E59CE00E94B8
:104250007B5981E061E00E94AA2301E0A0E2CA2E1E
:10426000A3E0DA2E3AC080E00E94DC53082F81FFE1
:104270000DC085E49CE00E947B590E94663004C01A
:1042800080E00E94DC53082F01FDFACF02FF04C03A
:1042900088E29CE00E947B59198210C080E00E9455
:1042A000D256082F80FF0DC089818F5F898384EFEC
:1042B00091E0F6013197F1F70197D9F789818430C0
:1042C00068F300FF0AC08EE09CE00E947B5980E00A
:1042D0000E94DC53082F81FFFACF00FDC4CF86EF88
:1042E0009BE00E947B5980E06AE0AE014F5F5F4F28
:1042F0000E94C654892B59F58AEE9BE00E947B5997
:1043000089818430A1F0853028F4813051F08230E9
:10431000D1F40AC0883089F08C3091F0863099F45D
:1043200009C085EE9BE011C081EE9BE00EC08CEDD4
:104330009BE00BC087ED9BE008C082ED9BE005C0D1
:104340008CEC9BE002C087EC9BE00E947B598EEADC
:104350009BE00E947B5980E060EA79E20E946A3427
:10436000813051F0813028F0823049F0833069F497
:1043700009C084EA9BE00BC08BE99BE008C088E899
:104380009BE005C08BE79BE002C086E79BE00E94B4
:104390007B5980E068E045E155E20E946C1281E0C3
:1043A00060E00E94AA230E94E0238FEFE81609F044
:1043B000C5C088E49BE00E947B59F7EE8F2EF3E0A6
:1043C0009F2EE7ECBE2E77ECA72E62E0C62ED12CF6
:1043D000CC0EDD1E03C00A2D470158010E94073094
:1043E000892B09F449C0C6010E946D3084309105C3
:1043F00009F18530910548F48230910599F08330B8
:104400009105A0F4019791F509C08E339105D1F083
:104410008F33910539F1059749F510C0C6010E9407
:104420005D1C2AC0C6010E94081C26C0C6010E944D
:10443000E81222C0C6010E94C6121EC0C6010E9418
:104440003D1B1AC020E030E0F901E957F94DD601D3
:10445000A20FB31F8C9180832F5F3F4F2E33310506
:1044600099F70AC0C6010E94A90A06C080E068E068
:1044700048EF50E20E946C1280919C20882309F042
:10448000ADCFE090ED24F090EE24E814F90491F023
:10449000E090ED24F090EE248091ED249091EE24B4
:1044A0006091B9277091BA2740916E2950916F2978
:1044B0000E946F178091A3208823E1F48091F32458
:1044C0008A31C0F41091EF241B15A9F01091EF244C
:1044D0006091A12080E00E944B0C8091A12090E08F
:1044E0006091B4207091B52001960E94955A8093F6
:1044F000A12001C01B2D8091A420882309F06BCF3F
:104500008091F4248A3108F066CF0091F0240A15D6
:1045100009F462CF0091F0246091A22080E00E9413
:10452000870B8091A22090E06091B6207091B72017
:1045300001960E94955A8093A2204ECF8AE19BE07B
:104540000E947B598E010D5B1F4F0E940730892B03
:10455000E1F3C8010E946D308130910519F0C297D6
:1045600049F404C0C8010E945D1CEFCFC8010E943D
:104570001917EBCF80E068E040E051E20E946C1236
:10458000E4CF1F920F920FB60F9208B60F9209B6A2
:104590000F920BB60F92112418BE19BE1BBE2F939B
:1045A0003F934F935F936F937F938F939F93AF93BB
:1045B000BF93EF93FF938CE995E20E949633FF91AE
:1045C000EF91BF91AF919F918F917F916F915F918B
:1045D0004F913F912F910F900BBE0F9009BE0F90FE
:1045E00008BE0F900FBE0F901F9018951F920F924C
:1045F0000FB60F9208B60F9209B60F920BB60F9234
:10460000112418BE19BE1BBE2F933F934F935F9387
:104610006F937F938F939F93AF93BF93EF93FF938A
:1046200086E297E20E949633FF91EF91BF91AF919E
:104630009F918F917F916F915F914F913F912F91BA
:104640000F900BBE0F9009BE0F9008BE0F900FBECB
:104650000F901F9018951F920F920FB60F9208B6E9
:104660000F9209B60F920BB60F92112418BE19BE05
:104670001BBE2F933F934F935F936F937F938F93C3
:104680009F93AF93BF93EF93FF9380E999E20E94CA
:104690009633FF91EF91BF91AF919F918F917F9151
:1046A0006F915F914F913F912F910F900BBE0F90A3
:1046B00009BE0F9008BE0F900FBE0F901F90189567
:1046C0001F920F920FB60F9208B60F9209B60F9273
:1046D0000BB60F92112418BE19BE1BBE2F933F9329
:1046E0004F935F936F937F938F939F93AF93BF93FA
:1046F000EF93FF9388E796E20E949633FF91EF9144
:10470000BF91AF919F918F917F916F915F914F91E9
:104710003F912F910F900BBE0F9009BE0F9008BED6
:104720000F900FBE0F901F9018950F93DF93CF93AC
:104730000F92CDB7DEB72FB72983F8941BBEFC01CB
:1047400008ED04BF608389818FBF0F90CF91DF9107
:104750000F910895282F30E0C9018C7F892BE1F457
:10476000862F8E7FC9F42C5F3F4F613059F481E072
:1047700090E002C0880F991F2A95E2F7E0E0F7E089
:104780008683089581E090E002C0880F991F2A95E2
:10479000E2F7E0E0F7E085830895282F30E0C901D3
:1047A0008C7F892B61F42C5F3F4F81E090E002C049
:1047B000880F991F2A95E2F7E0E0F7E087830895D4
:1047C00020E030E0A0E0B7E060E240E253E017967E
:1047D0006C9317978CEA9DE0FA013197F1F70197F6
:1047E000D9F72F5F3F4F2A30310589F70895482FB9
:1047F00050E0CA018C7F892B79F56623B9F44C5FB0
:104800005F4F81E090E09C01042E02C0220F331F15
:104810000A94E2F744505040E0E2F7E0268302C0F9
:10482000880F991F4A95E2F7818308956130A1F4BA
:1048300081E090E09C01042E02C0220F331F0A94F5
:10484000E2F7E0E2F7E022834C5F5F4F02C0880F9F
:10485000991F4A95E2F785830895282F30E0C90112
:104860008C7F892B11F080E008958091280790E0DB
:1048700002C0959587952A95E2F781700895282FB3
:1048800030E0C9018C7F892BD1F4862F8E7FB9F45B
:10489000613059F481E090E002C0880F991F2A9599
:1048A000E2F7E0E2F7E08583089581E090E002C05E
:1048B000880F991F2A95E2F7E0E2F7E086830895D2
:1048C000282F30E0C9018C7F892B51F481E090E0E2
:1048D00002C0880F991F2A95E2F7E0E2F7E087838C
:1048E0000895A2E0B0E0E7E7F4E20C94095B282F1A
:1048F00030E0C901887F892B19F020E030E05CC0EE
:1049000080E1E0E4F6E08683C90187709070880F4B
:10491000991F880F991F8068E0ECF8E083838091ED
:10492000C20887FFFCCF80E1E0ECF8E08383809150
:10493000C20887FFFCCFE0E4F6E080E18583868350
:10494000E0ECF8E013828091C20887FFFCCFDE0123
:1049500011969091C308E0ECF8E013828091C208B0
:1049600087FFFCCF8091C30811969C9311978C937D
:1049700080E1E0E4F6E085832E7F89819A81232B14
:1049800069F49C013F7094FF04C035952795386FFA
:1049900002C03595279529833A830CC094FF04C043
:1049A0009F709595879504C09061959587959F70A8
:1049B00089839A8329813A81C9012296E2E00C9485
:1049C000255B982F8C7F11F580E860307807F1F037
:1049D00080E1E0E6F6E086839770E0ECF9E093830F
:1049E0008091C20987FFFCCFE0ECF9E073838091EE
:1049F000C20987FFFCCFE0ECF9E063838091C20934
:104A000087FFFCCF80E1E0E6F6E085830895A0E033
:104A1000B0E0EDE0F5E20C94FD5AB82EC0E0D0E035
:104A200000E217E06624639482E0782EB4E08B2ED7
:104A3000A8E09A2EF0E2EF2EF3E0FF2EC12CE7E083
:104A4000DE2E70E2A72EF801678277828782978236
:104A500088EE93E0F7013197F1F70197D9F78B2DA5
:104A60000E947124BC0128EE33E0F7013197F1F781
:104A700021503040D1F781E00E94E124C0FF02C004
:104A8000F601A7822196CC33D105E9F6CDB7DEB782
:104A9000EEE00C94195B0F93DF93CF930F92CDB799
:104AA000DEB78FB78983F8941BBE21E089E790E0D9
:104AB000FC0108ED04BF208389818FBF0F90CF9147
:104AC000DF910F910895A0E0B0E0E9E6F5E20C94E3
:104AD000FF5A982E00E040EAA42E4FE0B42E30E8B2
:104AE000C32E3EE3D32EE12C27E0F22E90E2892E56
:104AF0001DC0143610F4BE0103C0B5016C1B7D0B44
:104B000080E00E94E124892D0E947124BC0181E093
:104B10000E94E124C6010197F1F71F5F6496183CDB
:104B200041F7F70187820F5F0E3121F010E0C0E0FE
:104B3000D0E0DFCFCDB7DEB7ECE00C941B5BBC015F
:104B400027EA3EE040E050E008C0F9012F5F3F4F08
:104B5000E491EE23D1F74F5F5F4F4617570721F0DF
:104B6000F9018491882389F700D00F9283EA9EE0AF
:104B7000EDB7FEB781839283238334830E94BD59AE
:104B80000F900F900F900F900895A0E0B0E0EBEC25
:104B9000F5E20C94005B5C016A017B01922EE80156
:104BA00089E991E10E947B5987E68883BB27AF2D75
:104BB0009E2D8D2D8983CA829B8285E48C83C501BD
:104BC00060E7A80125E0092D0E949C32D5011D96C1
:104BD0008C911D978823D1F71E968C911E9781305A
:104BE000B9F01E962C9100D00F92EDB7FEB731961A
:104BF0008CE791E1ADB7BEB711968D939C93129758
:104C0000228313820E94BD590F900F900F900F9036
:104C1000DE0131E020E00DC0E501ED81FE81E20F13
:104C2000F11D908115968C911597981330E02F5FA8
:104C30001196291588F3832F90E0CDB7DEB7EBE00E
:104C40000C941C5BA0E0B0E0E8E2F6E20C94005BA0
:104C50005C016A017B01922EE80188EB91E10E94E0
:104C60007B5987E68883BB27AF2D9E2D8D2D8983A9
:104C7000CA829B8285E48C83C50160E7A80125E098
:104C8000092D0E949C32D5011D968C911D97882379
:104C9000D1F71E968C911E978130B9F01E962C91FB
:104CA00000D00F92EDB7FEB731968BE991E1ADB729
:104CB000BEB711968D939C931297228313820E9404
:104CC000BD590F900F900F900F90DE0190E00AC039
:104CD000E501ED81FE81E90FF11D808114968C9331
:104CE00014979F5F1196991598F3CDB7DEB7EBE057
:104CF0000C941C5BA0E0B0E0E0E8F6E20C94025BF0
:104D0000EC016A017B01B22E89ED91E10E947B5991
:104D100082E4D8018C93BB27AF2D9E2D8D2DF801F9
:104D20008183C282B38285E48483F5E0BF0ECE0125
:104D300060E7A8012B2D00E00E949C328D8588231E
:104D4000E9F78E858130B1F02E8500D00F92EDB756
:104D5000FEB731968AEB91E1ADB7BEB711968D9350
:104D60009C931297228313820E94BD590F900F903B
:104D70000F900F90CDB7DEB7E9E00C941E5BA0E07A
:104D8000B0E0E5ECF6E20C94005B5C016A017B01AB
:104D9000922EE80188EF91E10E947B5987E6888393
:104DA000BB27AF2D9E2D8D2D8983CA82892D869597
:104DB0008B8386E48C83C50160E7A80125E0092D7B
:104DC0000E949C32D5011D968C911D978823D1F7A6
:104DD0001E968C911E978130B9F01E962C9100D0B2
:104DE0000F92EDB7FEB731968BED91E1ADB7BEB73F
:104DF00011968D939C931297228313820E94BD5922
:104E00000F900F900F900F90DE0131E020E00DC069
:104E1000E501ED81FE81E20FF11D908115968C91E7
:104E20001597981330E02F5F1196291588F3832F7B
:104E300090E0CDB7DEB7EBE00C941C5BA0E0B0E0F7
:104E4000E4E2F7E20C94005B5C016A017B01922EC4
:104E5000E80187E192E10E947B5987E68883BB27BE
:104E6000AF2D9E2D8D2D8983CA82892D86958B83AA
:104E700086E48C83C50160E7A80125E0092D0E9426
:104E80009C32D5011D968C911D978823D1F71E96D3
:104E90008C911E978130B9F01E962C9100D00F9204
:104EA000EDB7FEB731968AEF91E1ADB7BEB7119677
:104EB0008D939C931297228313820E94BD590F9069
:104EC0000F900F900F90DE0190E00AC0E501ED8198
:104ED000FE81E90FF11D808114968C9314979F5FDA
:104EE0001196991598F3CDB7DEB7EBE00C941C5BE7
:104EF000A0E0B0E0EEE7F7E20C94025BEC016A019F
:104F00007B01B22E87E392E10E947B5982E4D801B3
:104F10008C93BB27AF2D9E2D8D2DF8018183C282EE
:104F20008B2D8695838386E48483F5E0BF0ECE01C6
:104F300060E7A8012B2D00E00E949C328D8588231C
:104F4000E9F78E858130B1F02E8500D00F92EDB754
:104F5000FEB7319689E192E1ADB7BEB711968D9358
:104F60009C931297228313820E94BD590F900F9039
:104F70000F900F90CDB7DEB7E9E00C941E5BAFE069
:104F8000B0E0E5ECF7E20C94F95A7C018B01DB010F
:104F90000D900020E9F76D010894C108D108C61AE8
:104FA000D70AB3E0CB16D1040CF4F2C0FB01818127
:104FB0008B8382818C831D82CE0103968C879D8793
:104FC000CE010396BE016F5F7F4F40E150E00E942B
:104FD0003B5CD7016C93E981FA818C859D85E8174C
:104FE000F90709F4D5C08081882309F0D1C097E082
:104FF000C916D1040CF4CCC0D80113968C91139728
:105000008B8314968C9114978C8315968C9115979D
:105010008D8316968C918E831F82CE010396BE01DE
:105020006F5F7F4F40E150E00E943B5CF70161837E
:105030007283E981FA818C859D85E817F90709F467
:10504000A7C08081882309F0A3C099E0C916D104C4
:105050000CF49EC0D80117968C9117978B831896E5
:105060008C918C831D82CE010396BE016F5F7F4FB2
:1050700040E150E00E943B5CF7016383E981FA81E3
:105080008C859D85E817F90709F482C08081882303
:1050900009F07EC0D70111968C91119712969C91C0
:1050A00012977C90780E790E760E480117014424F1
:1050B0005524B9E0AB2EB12CFE013396EE87FF8765
:1050C000CE0101968B87692E32C02C153D050CF060
:1050D0005FC0D40119968C9119978B831A968C9185
:1050E0008C83E2E0F0E0AE0EBF1E1D82CE0103967F
:1050F0006B85762D40E150E00E943B5CD101149617
:105100006C93E981FA818E859F85E817F90709F488
:105110003FC0A2E0B0E08A0E9B1E0894211C311C07
:1051200080818823A9F5760E0894411C511CF70153
:10513000808190E095012F5F3F4F481659062CF271
:105140002C153D052CF5F801EA0DFB1D80818B83A4
:1051500081818C831D828E010D5F1F4FC801BE01AE
:105160006F5F7F4F40E150E00E943B5C84E091E044
:10517000E80EF91ED7016C93E981FA81E017F10777
:1051800039F08081882321F47194272D30E002C00A
:105190002FEF3FEFC9012F96E2E10C94155BA0E9D8
:1051A000B2E0E5EDF8E20C94F95A082FE82EFF245E
:1051B000F701EA5CF84DE081EE2309F4CDC2E3305B
:1051C00071F0E43089F0E23029F480E9882E89E238
:1051D000982E0EC018E7812E16E2912E09C0B6E275
:1051E0008B2EB7E29B2E04C0ACE98A2EA5E29A2E44
:1051F00081EE97E261ED73E241E00E94684F182F63
:10520000882349F086E89EE00E947B59812F90E038
:105210000E949F253DC000D00F9284E79EE0ADB76D
:10522000BEB711968D939C9312971396ED92FC92B4
:1052300014970E94BD59198281E08A830F900F90C4
:105240000F900F90C401602FAE014F5F5F4F22E0BF
:1052500000E00E949C32F40185858823E1F7868571
:105260008130B1F0268500D00F92EDB7FEB73196B0
:1052700086E59EE0ADB7BEB711968D939C931297CD
:10528000228313820E94BD590F900F900F900F90B0
:1052900088E893E120E233E0F9013197F1F70197D3
:1052A000D9F789E49EE00E947B590FEF1FEFCC24D1
:1052B000DD2466247724F6E82F2E312C2C0E3D1E9B
:1052C000E6E84E2EE1E05E2E4C0E5D1EF2013496B5
:1052D000C357DD4FE883F983CD58D240CBC0089443
:1052E000611C711CF10101900020E9F73297808167
:1052F0008A3009F41082D1018C918A3309F0BAC046
:10530000C201B1010E94BF27F82EC657DD4F888128
:10531000CA58D240F81619F100D00F9285E19EE0EC
:10532000EDB7FEB781839283638274820E94BD5978
:105330000F920F92EDB7FEB731968AEE9DE0ADB7B2
:10534000BEB711968D939C931297C657DD4F8881F7
:10535000CA58D24082831382F482158282C0D2015D
:1053600013962C911397222309F053C01196ED90B8
:10537000FC9012975701AA0CAB2CAA1CBB08B19445
:10538000A016B106C1F0CD1491F01695102F00278C
:10539000179507950C0D111DA80160E070E0DC1851
:1053A000C4012D2D8E010F5F1F4F0E947A265FE7EB
:1053B000D52EDE20CD2C4E2D4F774C1508F4C42E63
:1053C000F2015081252F30E0C357DD4FA881B9810C
:1053D000CD58D240E42FF0E0359681E090E08C0F7C
:1053E0009D1FE80FF91F2C5F3F4F240D351D02C094
:1053F0008D918193A217B307D9F7852F90E0840F81
:10540000911D2D2D30E0281739079CF5D42ED50E8F
:1054100030C02130A9F4CD14B9F11695102F002712
:10542000179507950C0D111DA80160E070E0DC18C0
:10543000C4012D2D8E010F5F1F4F0E947A2624C0BC
:1054400000D000D0EDB7FEB7319688EA9DE0ADB749
:10545000BEB711968D939C93129722831382648218
:1054600075820E94BD59EDB7FEB73696EDBFFEBFFF
:105470000BC08501C10160E071E041EE57E20E947E
:105480002952892B09F02BCF81EE97E240E050E0C2
:1054900060E070E00E94123F182F882349F08AE8EC
:1054A0009DE00E947B59812F90E00E949F252CC196
:1054B0008DE79DE00E947B59CC24CA94DC2C00E04F
:1054C00010E066247724CE018A579F4FC157DD4FE5
:1054D00088839983CF58D24036E8432E31E0532E4B
:1054E0004C0E5D1ED2011496C557DD4FA883B983BB
:1054F000CB58D240FFC00894611C711CC157DD4FCE
:10550000E881F981CF58D24001900020E9F7329725
:1055100080818A3009F41082CA57DF4F8881C658CB
:10552000D0408A3309F0E6C0C201B1010E94BF2712
:10553000F82EC657DD4F8881CA58D240F81619F1A7
:1055400000D00F928AE49DE0EDB7FEB7818392838D
:10555000638274820E94BD590F920F92EDB7FEB71D
:1055600031968FE19DE0ADB7BEB711968D939C93B8
:105570001297C657DD4F8881CA58D2408283138262
:10558000F4821582AEC0D20113962C911397222378
:1055900009F065C01196ED90FC9012975701AA0C86
:1055A000AB2CAA1CBB08B194AC14BD0449F1011783
:1055B00021F1A6015695542F442757954795400F42
:1055C000511D60E070E0101BC401212F8E010F5FA0
:1055D0001F4F0E94C525892B81F400D00F9282E0D5
:1055E0009DE0EDB7FEB781839283C382D4820E948F
:1055F000BD590F900F900F900F901E2D1F77012F08
:105600004E2D4F77401708F4042FD2015C91252FBF
:1056100030E0C557DD4FA881B981CB58D240E42F87
:10562000F0E0359681E090E08C0F9D1FE80FF91FA8
:105630002C5F3F4F240D351D02C08D918193A21721
:10564000B307D9F7852F90E0840F911D212F30E00B
:10565000281739070CF04DC0142F150F4AC0213000
:1056600079F5011741F1A6015695542F4427579516
:105670004795400F511D60E070E0101BC401212FC1
:105680008E010F5F1F4F0E94C525892BA1F400D00A
:105690000F9285EE9CE0ADB7BEB711968D939C93AB
:1056A00012971396CD92DC9214970E94BD590F90D9
:1056B0000F900F900F9083EE9CE00E947B5924C0C6
:1056C00000D000D0EDB7FEB7319682EA9CE0ADB7CE
:1056D000BEB711968D939C93129722831382648296
:1056E00075820E94BD59EDB7FEB73696EDBFFEBF7D
:1056F0000BC06501C10160E071E041EE57E20E941C
:105700002952892B09F0F7CE85E48983C40160E72B
:10571000AE014F5F5F4F21E000E00E949C32D40158
:105720001D968C911D978823D1F71E968C911E97FC
:10573000813011F11E962C9100D00F92EDB7FEB77B
:10574000319687E89CE0ADB7BEB711968D939C93D8
:105750001297228313820AC000D00F928CE69CE03D
:10576000EDB7FEB781839283E382F4820E94BD5934
:105770000F900F900F900F90C057DD4FE2E10C9407
:10578000155BA0E9B2E0E7ECFBE20C94F95A082FB4
:10579000E82EFF24F701EA5CF84DE081EE2309F4DE
:1057A000E1C2E33071F0E43089F0E23029F490E9AD
:1057B000892E99E2992E0EC088E7882E86E2982ECF
:1057C00009C016E2812E17E2912E04C0BCE98B2E8F
:1057D000B5E29B2E81EC97E26CED73E241E00E9412
:1057E000684F182F882349F080E691E10E947B5989
:1057F000812F90E00E949F2551C007FF12C084E0D6
:10580000E0E6F6E0868384E690E020E233E0F9010A
:105810003197F1F70197D9F784E0E0E6F6E0858368
:105820003DC000D00F928FE491E1ADB7BEB71196A5
:105830008D939C9312971396ED92FC9214970E946D
:10584000BD59198281E08A830F900F900F900F90BD
:10585000C401602FAE014F5F5F4F22E000E00E9465
:105860009C32F40185858823E1F786858130B1F08B
:10587000268500D00F92EDB7FEB7319681E391E116
:10588000ADB7BEB711968D939C9312972283138266
:105890000E94BD590F900F900F900F9088E893E1F0
:1058A00020E233E0F9013197F1F70197D9F784E26B
:1058B00091E10E947B590FEF1FEFCC24DD24662479
:1058C0007724A6E82A2E312C2C0E3D1EF6E84F2E0A
:1058D000F1E05F2E4C0E5D1EF2013496C357DD4F92
:1058E000E883F983CD58D240CBC00894611C711C69
:1058F000F10101900020E9F7329780818A3009F4A4
:105900001082D1018C918A3309F0BAC0C201B10171
:105910000E94BF27F82EC657DD4F8881CA58D24053
:10592000F81619F100D00F9281EF90E1EDB7FEB7B4
:1059300081839283638274820E94BD590F920F9279
:10594000EDB7FEB7319686EC90E1ADB7BEB71196D4
:105950008D939C931297C657DD4F8881CA58D240C9
:1059600082831382F482158282C0D20113962C9115
:105970001397222309F053C01196ED90FC901297D3
:105980005701AA0CAB2CAA1CBB08B194A016B106F7
:10599000C1F0CD1491F01695102F0027179507959B
:1059A0000C0D111DA80160E070E0DC18C4012D2D64
:1059B0008E010F5F1F4F0E9478276FE7D62EDE20E3
:1059C000CD2C4E2D4F774C1508F4C42EF20150818A
:1059D000252F30E0C357DD4FA881B981CD58D24083
:1059E000E42FF0E0359681E090E08C0F9D1FE80FEA
:1059F000F91F2C5F3F4F240D351D02C08D918193FF
:105A0000A217B307D9F7852F90E0840F911D2D2D94
:105A100030E0281739079CF5D42ED50E30C0213040
:105A2000A9F4CD14B9F11695102F002717950795F5
:105A30000C0D111DA80160E070E0DC18C4012D2DD3
:105A40008E010F5F1F4F0E94782724C000D000D026
:105A5000EDB7FEB7319686E890E1ADB7BEB71196C7
:105A60008D939C93129722831382648275820E9485
:105A7000BD59EDB7FEB73696EDBFFEBF0BC0850131
:105A8000C10160E071E041EC57E20E942952892B8C
:105A900009F02BCF81EC97E240E050E060E070E04D
:105AA0000E94123F182F882349F089E690E10E9456
:105AB0007B59812F90E00E949F252CC18CE590E1BD
:105AC0000E947B59CC24CA94DC2C00E010E06624B0
:105AD0007724CE018A579F4FC157DD4F8883998322
