:100000000C9433090C9459090C9459090C9459090E
:100010000C9459090C9459090C9459090C945909D8
:100020000C9459090C9459090C9459090C945909C8
:100030000C9459090C94FE230C9459090C945909F9
:100040000C9459090C9459090C9459090C945909A8
:100050000C9459090C9459090C9459090C94590998
:100060000C9459090C947D310C94CD310C945909A0
:100070000C9459090C9459090C9459090C94590978
:100080000C9459090C9459090C9459090C94590968
:100090000C9459090C9459090C9459090C94590958
:1000A0000C9459090C9459090C9459090C94590948
:1000B0000C9459090C9459090C9494230C944232D1
:1000C0000C9459090C9459090C9459090C94590928
:1000D0000C9459090C943D570C9459090C945909E6
:1000E0000C9459090C9459090C9459090C94590908
:1000F0000C9459090C9459090C9459090C945909F8
:100100000C9459090C9459090C9459090C945909E7
:100110000C9459090C9459090C9459090C945909D7
:100120000C9459090C9459090C9459090C945909C7
:100130000C94C9230C9459090C9459090C9459092D
:100140000C9459090C9459090C9459090C945909A7
:100150000C9459090C9459090C9459090C94590997
:100160000C9459090C9459090C9459090C94590987
:100170000C9459090C9459090C9459090C94590977
:100180000C9459090C9459090C9459090C94590967
:100190000C94500A0C9459090C9459090C9459095F
:1001A0000C9459090C9459090C9459090C945F2327
:1001B0000C9473580C9459090C9459090C945909CE
:1001C0000C9459090C9459090C9459090C94590927
:1001D0000C9459090C9459090C9459090C94590917
:1001E0000C9459090C9459090C9459090C94590907
:1001F0000C945909C01CC51CCA1CCE1CD21CD61C90
:10020000DF1CE31CE71C001D001D001D001D001D60
:10021000001DEB1CA155AD550E5614569E559E550E
:100220009E559E559E559E55AF56B456B656C456CD
:10023000E356494E543320636174636865732061EB
:1002400020726973696E67206564676520747269DE
:1002500067676572210A004572726F7220665F6F70
:1002600070656E20696E205344496E666F2E6D6115
:10027000742E0A004572726F7220665F6C7365653A
:100280006B20696E2072656D61696E6564206461C2
:1002900074612E0A004572726F7220665F6C73651E
:1002A000656B20696E205344496E666F2E6D6174D4
:1002B0002E0A004572726F7220696E20665F6C7341
:1002C00065656B20696E207570646174655F667525
:1002D0006E63436E745F79206C6F6164206E657825
:1002E00074206275666665720A00726573203D202F
:1002F0002025750A004572726F7220696E20665F54
:100300007265616420696E20696E20757064617425
:10031000655F66756E63436E745F790A007265731C
:10032000203D202025750A0052696E67206275669F
:100330006665722066756E6374696F6E5F592069B9
:10034000732066756C6C0A0052696E672062756670
:100350006665722066756E6374696F6E5F59206999
:100360007320656D7074790A004572726F7220692E
:100370006E20665F6C7365656B20696E20757064B6
:100380006174655F66756E63436E745F780A0072B0
:100390006573203D202025750A004572726F72201A
:1003A000696E20665F7265616420696E20696E20E7
:1003B0007570646174655F66756E63436E745F78B3
:1003C0000A00726573203D202025750A0052696E6F
:1003D00067206275666665722066756E6374696F04
:1003E0006E5F782069732066756C6C0A0052696EC6
:1003F00067206275666665722066756E6374696FE4
:100400006E5F7820697320656D7074790A0045729B
:10041000726F7220696E70757420666F72206675D7
:100420006E6374696F6E206368616E6E656C2E0A10
:10043000006E756D5F6275666665725F6C6F616494
:100440005F79203D2025750A006E756D5F627566C7
:100450006665725F6C6F61645F79203D2025750A67
:10046000006C6173745F6C6F61645F79203D20255F
:10047000750A0066756E6353697A655F79203D2061
:1004800025750A004572726F7220665F6F70656E27
:1004900020696E207365745F76656C5F66756E6348
:1004A00020592E0A004572726F7220665F72656174
:1004B0006420696E207365745F76656C5F66756E27
:1004C0006320592E0A0053657474696E672076653F
:1004D0006C6F636974792066756E6374696F6E20E2
:1004E000257520666F7220590A006E756D5F627502
:1004F000666665725F6C6F61645F78203D2025756C
:100500000A006E756D5F6275666665725F6C6F611D
:10051000645F78203D2025750A006C6173745F6C00
:100520006F61645F78203D2025750A0066756E63F3
:1005300053697A655F78203D2025750A00457272FF
:100540006F7220665F6F70656E20696E20736574D0
:100550005F76656C5F66756E6320582E0A00457283
:10056000726F7220665F7265616420696E207365C8
:10057000745F76656C5F66756E6320582E0A005353
:10058000657474696E672076656C6F636974792031
:1005900066756E6374696F6E2020257520666F72B4
:1005A00020580A004572726F7220696E707574204F
:1005B000666F722066756E6374696F6E2063686122
:1005C0006E6E656C2E0A006E756D5F62756666658F
:1005D000725F6C6F61645F79203D2025750A006C45
:1005E0006173745F6C6F61645F79203D20257520B5
:1005F0000A0066756E6353697A655F79203D202530
:10060000750A004572726F7220665F6F70656E20AA
:10061000696E207365745F706F735F66756E6320BB
:10062000592E0A004572726F7220665F72656164AE
:10063000207365745F706F735F66756E6320592EEB
:100640000A0053657474696E6720706F736974690A
:100650006F6E2066756E6374696F6E2025752066F7
:100660006F7220590A006E756D5F627566666572FD
:100670005F6C6F61645F78203D2025750A006C61B6
:1006800073745F6C6F61645F78203D2025750A008C
:1006900066756E6353697A655F78203D2025750A1B
:1006A000004572726F7220665F6F70656E20696EB2
:1006B000207365745F706F735F66756E6320582E6C
:1006C0000A004572726F7220665F72656164207302
:1006D00065745F706F735F66756E6320580A0053B0
:1006E000657474696E6720706F736974696F6E20CA
:1006F00066756E6374696F6E20257520666F722053
:10070000580A0057726F6E672066756E6374696F62
:100710006E206368616E6E656C206E756D626572C9
:100720002E0A0053657474696E672064656661758E
:100730006C742066756E6374696F6E20666F7220CC
:10074000592E0A0053657474696E6720646566618A
:10075000756C742066756E6374696F6E20666F7257
:1007600020582E0A002062656E63685F74696D65AB
:10077000203D20256C75206D732C206672616D659F
:100780005F72617465203D2025750A0043616E6EBD
:100790006F742066696E6420746865206861726495
:1007A0007761726520636F6E6669672066696C6544
:1007B000206F6E2074686520534420636172642E3C
:1007C0000A005375636365737366756C6C79206C8E
:1007D0006F61642074686520686172647761726516
:1007E00020636F6E6669672066696C6520746F2090
:1007F000454550524F4D0A004572726F72206F701E
:10080000656E696E67207061747465726E206669CA
:100810006C650A004572726F722072656164696E60
:100820006720696E207061747465726E2066696CF1
:10083000650A002020785F6E756D203D2025750AC1
:100840002020795F6E756D203D2025750A20206E71
:10085000756D5F70616E656C73203D2025750A2093
:100860002067735F76616C7565203D2025750A20D1
:10087000726F775F636F6D7072657373696F6E20EF
:100880003D2025750A0053657474696E6720706198
:10089000747465726E2025753A0A00524553203DE6
:1008A0002025752C20665F6E756D3D2025752C20EA
:1008B0006F6666736574203D20256C750A0045726D
:1008C000726F7220696E20665F6C7365656B20695C
:1008D0006E2066657463685F646973706C61795FCC
:1008E0006672616D65210A00524553203D202575D1
:1008F0002C20665F6E756D3D2025752C20636E740F
:100900003D2025750A004572726F7220696E20665F
:100910005F7265616420696E2066657463685F64F8
:100920006973706C61795F6672616D65210A00534D
:100930007563636573732073657420746865206ED6
:100940006577206C61736572207061747465726E76
:100950002E0A007365745F6761696E5F6269617317
:100960003A206761696E5F783D2025642C20206203
:100970006961735F783D2025642C206761696E5F33
:10098000793D2025642C20626961735F793D25647F
:100990000A007365745F706F736974696F6E3A20D3
:1009A000696E6465785F783D2025752C2020696E1E
:1009B0006465785F793D2025752C20616E64206622
:1009C00072616D655F6E756D3D2025750A006675F7
:1009D0006E6374696F6E2059207570646174652050
:1009E0006672657175656E6379203D2025752E0AE6
:1009F0000066756E6374696F6E205820757064614F
:100A00007465206672657175656E6379203D202579
:100A1000752E0A004144435F76616C7565203D2068
:100A20002025643A0A007265736F6C7574696F6E85
:100A30005F79203D202025643A0A007265736F6C4F
:100A40007574696F6E5F78203D202025643A0A0036
:100A500044697361626C656420496E743320657803
:100A60007465726E616C2074726967676572206D5F
:100A70006F6465210A00456E61626C656420496E91
:100A800074332065787465726E616C207472696766
:100A9000676572206D6F6465206973206F6E210A2F
:100AA00000526573657420636F6E74726F6C6C6551
:100AB0007220746F20776F726B20696E2074686586
:100AC0002050432064756D70696E67206D6F64659A
:100AD000210A00526573657420636F6E74726F6CC7
:100AE0006C657220746F20776F726B20696E207452
:100AF000686520636F6E74726F6C6C6572206D6FC9
:100B00006465210A007570646174653A202564206B
:100B10002564202564202564202564202564202563
:100B2000642025643A0A0043757272656E742076FB
:100B3000657273696F6E206E756D62657220697380
:100B40002025732E0A0043757272656E7420776FCC
:100B5000726B696E67206D6F6465206973207468BD
:100B6000652050432064756D70696E67206D6F64F9
:100B700065210A0043757272656E7420776F726B1F
:100B8000696E67206D6F64652069732074686520E5
:100B9000436F6E74726F6C6C6572206D6F6465214B
:100BA0000A003F3F3F0A00204E4F54205245414427
:100BB00059210A002057524954452050524F54455C
:100BC00043544544210A00204552524F52210A0005
:100BD00020464154204F4B210A00496E69746961D7
:100BE0006C697A696E6720464154204469736B2EA4
:100BF0002E2E003F3F3F0A00534448430A00424C18
:100C00004B0A005344430A005344320A0053440A37
:100C1000004D4D430A004361726420747970653A57
:100C200020005344206361726420697320696E69F7
:100C30007469616C697A65640A00496E69746961F6
:100C40006C697A6174696F6E206661696C65642194
:100C500021210A0053442063617264206973205784
:100C6000726974652050726F746563746564210ADB
:100C700000496E736572742053442063617264008E
:100C80000A4D61696E20436F6E74726F6C6C657291
:100C900020576F726B730A0043616E6E6F7420662B
:100CA000696E64207468652070616E656C202564CF
:100CB0002E0A00426164206578697420636D642C9B
:100CC00020726573756C74203D2025750A00646F71
:100CD0006E2774206B6E6F7720686F7720746F209B
:100CE0006465616C207769746820726563747970DB
:100CF000653D2564206174206C696E652025642043
:100D00006F6620656570726F6D2E6865780A000ADF
:100D100000766572696679206D69736D61746368C8
:100D200020666F7220706167652025640A00766511
:100D300072696679206D69736D6174636820666F8E
:100D40007220706167652025640A00636865636BC3
:100D500073756D3D3078253032782C20636F6D705F
:100D60007574656420636865636B73756D3D307879
:100D7000253032780A004552524F523A2063686556
:100D8000636B73756D206D69736D61746368206149
:100D900074206C696E65202564206F66206565701F
:100DA000726F6D2E6865780A000A766572696679D9
:100DB000696E673A20004572726F7220665F6C73CD
:100DC00065656B20696E20656570726F6D2E686554
:100DD000782E0A00646F6E2774206B6E6F77206820
:100DE0006F7720746F206465616C20776974682068
:100DF000726563747970653D2564206174206C6947
:100E00006E65202564206F6620656570726F6D2E9B
:100E10006865782E0A00636865636B73756D3D3095
:100E200078253032782C20636F6D7075746564207E
:100E3000636865636B73756D3D3078253032780A71
:100E4000004552524F523A20636865636B73756D6B
:100E5000206D69736D61746368206174206C696EC4
:100E600065202564206F6620656570726F6D2E6841
:100E700065782E0A000A77726974696E673A2020D5
:100E800020004261642070616E656C20726573653C
:100E9000742C20726573756C74203D2025750A00D2
:100EA000656570726F6D2070616E656C2025752EA2
:100EB0000A004572726F7220665F6F70656E2069FE
:100EC0006E20656570726F6D2E6865782E0A00253C
:100ED000530A004F4B004449534B5F45525200495F
:100EE0004E545F455252004E4F545F524541445953
:100EF000004E4F5F46494C45004E4F5F50415448AD
:100F000000494E56414C49445F4E414D45004445D1
:100F10004E49454400455849535400494E56414CAA
:100F200049445F4F424A4543540057524954455F34
:100F300050524F54454354454400494E56414C4944
:100F4000445F4452495645004E4F545F454E41421E
:100F50004C4544004E4F5F46494C455F53595354EE
:100F6000454D004D4B46535F41424F52544544005E
:100F700054494D454F5554000043616E6E6F7420C7
:100F800066696E64207468652070616E656C2025EA
:100F9000642E0A00426164206578697420636D6480
:100FA0002C20726573756C74203D2025750A0064D1
:100FB0006F6E2774206B6E6F7720686F7720746F69
:100FC000206465616C207769746820726563747948
:100FD00070653D2564206174206C696E6520256410
:100FE000206F662070616E656C2E6865780A000A55
:100FF00000766572696679206D69736D61746368E6
:1010000020666F7220706167652025640A0076652E
:1010100072696679206D69736D6174636820666FAB
:101020007220706167652025640A00636865636BE0
:1010300073756D3D3078253032782C20636F6D707C
:101040007574656420636865636B73756D3D307896
:10105000253032780A004552524F523A2063686573
:10106000636B73756D206D69736D61746368206166
:1010700074206C696E65202564206F662070616E37
:10108000656C2E6865780A000A766572696679690A
:101090006E673A20004572726F7220665F6C7365EE
:1010A000656B20696E2070616E656C2E6865782EA8
:1010B0000A00646F6E2774206B6E6F7720686F77FD
:1010C00020746F206465616C207769746820726594
:1010D00063747970653D2564206174206C696E6568
:1010E000202564206F662070616E656C2E686578BF
:1010F0000A00636865636B73756D3D307825303227
:10110000782C20636F6D7075746564206368656307
:101110006B73756D3D3078253032780A0045525238
:101120004F523A20636865636B73756D206D697308
:101130006D61746368206174206C696E652025643C
:10114000206F662070616E656C2E6865782E0A00CF
:101150000A77726974696E673A20202000426164E0
:101160002070616E656C2072657365742C207265E9
:1011700073756C74203D2025750A00666C61736878
:101180002070616E656C2025752E0A004572726FA5
:101190007220665F6F70656E20696E2070616E658B
:1011A0006C2E6865782E0A0042616420666C61735B
:1011B0006820726561642C20726573756C74203DC3
:1011C0002025750A00230042616420666C61736803
:1011D00020726561642C20726573756C74203D20EB
:1011E00025750A00230042616420656570726F6D89
:1011F0002077726974652C20726573756C74203D5C
:101200002025750A00230042616420666C617368C2
:1012100020726561642C20726573756C74203D20AA
:1012200025750A00230042616420666C61736820A2
:10123000726561642C20726573756C74203D202585
:10124000750A00230042616420666C617368207730
:10125000726974652C20726573756C74203D20254D
:10126000750A0023000011241FBECFEFDFE3DEBFAD
:10127000CDBF00E00CBF18BE19BE1ABE1BBE14E2E3
:10128000A0E0B0E2E4EFF1EC00E00BBF02C0079099
:101290000D92A83EB107D9F71BBE1CE2A8EEB4E23E
:1012A00001C01D92AB31B107E1F70E94EB200C9415
:1012B000F8600C940000AC0120E030E0F901E9573F
:1012C000F94DDA01A20FB31F8C9180832F5F3F4F3E
:1012D0002E33310599F708958091B9279091BA2757
:1012E00001968093B9279093BA278091B92790915E
:1012F000BA2740912328509124288417950720F07D
:101300001092B9271092BA2780916E2990916F2977
:101310002091B9273091BA27BC01649FC001659F15
:10132000900D749F900D1124820F931F8093ED24D4
:101330009093EE248091E924882329F08091E82479
:101340008F5F8093E824089580916E2990916F2992
:10135000019680936E2990936F2920916E29309188
:101360006F298091AB259091AC252817390720F083
:1013700010926E2910926F2920916E2930916F2959
:101380004091B9275091BA27809123289091242821
:10139000BC01269FC001279F900D369F900D112400
:1013A000840F951F8093ED249093EE248091E9247F
:1013B000882329F48091E8248F5F8093E82408959E
:1013C0008091B9279091BA27892B29F480912328FD
:1013D0009091242804C08091B9279091BA27019751
:1013E0008093B9279093BA2720916E2930916F2965
:1013F0004091B9275091BA278091232890912428B1
:10140000BC01269FC001279F900D369F900D11248F
:10141000840F951F8093ED249093EE248091E9240E
:10142000882329F08091E8248F5F8093E824089531
:1014300080916E2990916F29892B29F48091AB2599
:101440009091AC2504C080916E2990916F290197ED
:1014500080936E2990936F2920916E2930916F2986
:101460004091B9275091BA27809123289091242840
:10147000BC01269FC001279F900D369F900D11241F
:10148000840F951F8093ED249093EE248091E9249E
:10149000882329F48091E8248F5F8093E8240895BD
:1014A0001F920F920FB60F9208B60F9209B60F92C5
:1014B0000BB60F92112418BE19BE1BBE0F932F93AB
:1014C0003F934F935F936F937F938F939F93AF93CC
:1014D000BF93EF93FF931092EF241092F024109299
:1014E0009C201092E82480EA95E14EE450E060E010
:1014F00070E021E001E00E94C3328CE699E04EE406
:1015000050E060E070E022E000E00E94C33284EA34
:1015100099E04EE450E060E070E023E00E94C332C6
:101520004091A5205091A62060E070E088E69EE002
:1015300024E001E00E94C3324091A7205091A820EE
:1015400060E070E088E99DE025E00E94C33282E31C
:1015500092E00E94195AFF91EF91BF91AF919F9134
:101560008F917F916F915F914F913F912F910F914B
:101570000F900BBE0F9009BE0F9008BE0F900FBECC
:101580000F901F901895813021F0823009F065C0CE
:1015900032C08091B320882321F484E497E00E9434
:1015A000195A1092F5241092F62484E690E0A0E0F7
:1015B000B0E08093AB209093AC20A093AD20B0938B
:1015C000AE20E5E2F8E28AE090E08193919328E290
:1015D000ED3EF207D1F71092EF2481E08093A32033
:1015E00081E090E08093B4209093B5201092F9248C
:1015F0001092FA2408958091B320882321F483E285
:1016000097E00E94195A1092F7241092F82484E669
:1016100090E0A0E0B0E08093AF209093B020A09342
:10162000B120B093B220EEEAF5E28AE090E0819337
:10163000919326E2E637F207D1F71092F02481E089
:101640008093A42081E090E08093B6209093B7200F
:101650001092FB241092FC24089583E097E00E94EE
:10166000195A0895AC0120E030E0F901E957F94D2D
:10167000DA01A20FB31F8C9186AF2F5F3F4F2F333C
:10168000310599F78091B320882321F48FE299E006
:101690000E94195A0895A4E3B0E0E1E5FBE00C9440
:1016A000985B83E098E268EB70E241E00E940650AC
:1016B000882309F0ADC080900D2870910E28682D08
:1016C00080910F289091102822E330E040E050E014
:1016D0000E945A5B79018A019924939422E3322E65
:1016E00093E0692E712C6C0E7D1E2E010894411C16
:1016F000511C36C0939CC0011124C2975C01CC24BC
:10170000B7FCC094DC2C83E098E2B601A5010E94EE
:10171000B03F882301F58091092890910A28A09173
:101720000B28B0910C288A159B05AC05BD0599F4D2
:1017300083E098E2B30142E350E092010E941D5120
:10174000882369F489819A81C29749F4C30162E3CD
:101750000E94613104C085E992E00E94195A939475
:10176000892D90E0A0E0B0E0E816F9060A071B0713
:1017700008F0C0CF82E3989EC0011124C2975C019B
:10178000CC24B7FCC094DC2C83E098E2B601A50120
:101790000E94B03F882399F58091092890910A28EA
:1017A000A0910B28B0910C288A159B05AC05BD05AE
:1017B00031F5C801B70122E330E040E050E00E947B
:1017C000145BD82CD61A0D2D10E083E0E82EF12CF6
:1017D000EC0EFD1E83E098E2B701A8019E012F5F89
:1017E0003F4F0E941D51882371F489819A8180178F
:1017F000910749F4C7016D2D0E94613104C084E74F
:1018000092E00E94195A83E098E20E944A4C04C078
:1018100087E592E00E94195AE496E1E10C94B45BEA
:10182000A6E6B0E0E6E1FCE00C94A25B982FD62E91
:101830008091F424843618F088E293E0AEC09130B1
:1018400031F41092F4241092F0241092F22484E6E1
:10185000D89EC001112480509E4F7C0100E010E012
:1018600086E097E2B801A7010E94B03F282F8823A5
:1018700009F07CC080910C2790910D27A0910E2734
:10188000B0910F278E159F05A007B10709F06EC014
:101890002D2D30E08091B6209091B7200197281728
:1018A000390739F40091FB241091FC24011511052E
:1018B00011F404E610E086E097E2BE016D5F7F4F11
:1018C000A8019E012F5F3F4F0E941D51282F8823A2
:1018D00029F489819A8180179107C9F000D00F926D
:1018E000EDB7FEB731968DE193E0ADB7BEB7119677
:1018F0008D939C931297228313820E945B5A0F90C0
:101900000F900F900F9085EF92E00E94195A698115
:101910007A81DE01139640E050E024C0E091F22489
:10192000F0E0EE0FFF1FE255FA4D11963C91119732
:1019300020E08C918901080F111D00831183809193
:10194000F2248F5F8093F2248091F224843610F089
:101950001092F2248091F4248F5F8093F4244E5FE0
:101960005F4F129646175707C8F219C000D00F9262
:10197000EDB7FEB731968AEE92E0ADB7BEB71196DD
:101980008D939C931297228313820E945B5A0F902F
:101990000F900F900F9083EB92E00E94195ACA5952
:1019A000DF4FE7E00C94BE5BA6E6B0E0EAEDFCE0BA
:1019B0000C94A25B982FD62E8091F324843618F0D5
:1019C0008DEC93E0AEC0913031F41092EF24109280
:1019D000F1241092F32484E6D89EC0011124805093
:1019E0009E4F7C0100E010E08BE795E2B801A70173
:1019F0000E94B03F282F882309F07CC08091812568
:101A000090918225A0918325B09184258E159F0504
:101A1000A007B10709F06EC02D2D30E08091B420F1
:101A20009091B52001972817390739F40091F924CE
:101A30001091FA240115110511F404E610E08BE76A
:101A400095E2BE016D5F7F4FA8019E012F5F3F4F62
:101A50000E941D51282F882329F489819A8180179B
:101A60009107C9F000D00F92EDB7FEB7319682EC26
:101A700093E0ADB7BEB711968D939C9312972283D6
:101A800013820E945B5A0F900F900F900F908AE97B
:101A900093E00E94195A69817A81DE01139640E031
:101AA00050E024C0E091F124F0E0EE0FFF1FEB5D69
:101AB000F74D11963C91119720E08C918901080F08
:101AC000111D008311838091F1248F5F8093F12495
:101AD0008091F124843610F01092F1248091F32447
:101AE0008F5F8093F3244E5F5F4F12964617570720
:101AF000C8F219C000D00F92EDB7FEB731968FE84B
:101B000093E0ADB7BEB711968D939C931297228345
:101B100013820E945B5A0F900F900F900F9089E6EE
:101B200093E00E94195ACA59DF4FE7E00C94BE5B5C
:101B3000A0E0B0E0EEE9FDE00C949B5B8091F42422
:101B4000882329F488E493E00E94195ABCC080914C
:101B5000F0248F5F8093F0248091F024843610F07D
:101B60001092F0248091F42481508093F424809189
:101B70000128843009F448C0853009F490C08330CE
:101B800009F0A1C083E00E940F2540919F20509151
:101B9000A020C091AB25D091AC253E01882499248A
:101BA0007A0100E010E064015301AA0CBB1CCC1CBC
:101BB000DD1C4817590708F4CA019C0140E050E0B9
:101BC000C601B5010E94145B6E0D7F1D801F911F21
:101BD000EE0CFF1C001F111FA80197010E947C5BE7
:101BE00021503040404050402615370548055905E2
:101BF00024F021979E0140E050E057FF20C020E0F4
:101C000030E040E050E01BC0E091F024F0E0EE0F47
:101C1000FF1FE255FA4D0190F081E02D809176266C
:101C200090917726E80FF91F2091AB253091AC25D4
:101C3000F7FD0AC0CF01B9010E94335B9C012093DC
:101C40006E2930936F2910C0882799278E1B9F0B10
:101C5000B9010E94335B21503040A901481B590B48
:101C600040936E2950936F2920916E2930916F29EE
:101C70004091B9275091BA27809123289091242828
:101C8000BC01269FC001279F900D369F900D112407
:101C9000840F951F8093ED249093EE2414C0E0915F
:101CA000F024F0E0EE0FFF1FE255FA4D80819181A4
:101CB000BC0125E0660F771F2A95E1F7680F791FB1
:101CC00081E00E947F25CDB7DEB7EEE00C94B75BD4
:101CD000A0E0B0E0EEE6FEE00C949B5B8091F32484
:101CE000882329F48DEE93E00E94195AD2C0809186
:101CF000EF248F5F8093EF248091EF24843610F0DF
:101D00001092EF248091F32481508093F3248091EA
:101D1000B727843009F45FC0853009F4A6C083304A
:101D200009F0B7C082E00E940F2540919D2050919C
:101D30009E20C0912328D09124283E0188249924F4
:101D40007A0100E010E064015301AA0CBB1CCC1C1A
:101D5000DD1C4817590708F4CA019C0140E050E017
:101D6000C601B5010E94145B6E0D7F1D801F911F7F
:101D7000EE0CFF1C001F111FA80197010E947C5B45
:101D80002150304040405040261537054805590540
:101D90002CF021979E0140E050E0219657FF04C0AF
:101DA00020E030E040E050E02093B9273093BA279C
:101DB00080916E2990916F292091B9273091BA278F
:101DC000AC014C9FC0014D9F900D5C9F900D112464
:101DD000820F931F45C0E091EF24F0E0EE0FFF1F4C
:101DE000EB5DF74D0190F081E02D809104279091FB
:101DF0000527E80FF91F2091232830912428F7FDAB
:101E000009C0CF01B9010E94335B8093B927909339
:101E1000BA2710C0882799278E1B9F0BB9010E94F3
:101E2000335B21503040B901681B790B6093B927AF
:101E30007093BA2720916E2930916F294091B9276C
:101E40005091BA278091232890912428BC01269F85
:101E5000C001279F900D369F900D1124840F951F70
:101E60008093ED249093EE2414C0E091EF24F0E0F1
:101E7000EE0FFF1FEB5DF74D80819181BC01E5E026
:101E8000660F771FEA95E1F7680F791F80E00E94DF
:101E90007F25CDB7DEB7EEE00C94B75BAEE0B2E0E5
:101EA000E4E5FFE00C94A55B082F162F6A3080F460
:101EB00000D000D0EDB7FEB73196CE010396ADB796
:101EC000BEB711968D939C93129780E090E21FC04D
:101ED000CE010396643670F400D000D0EDB7FEB7A3
:101EE0003196ADB7BEB711968D939C9312978EE045
:101EF00090E20DC000D000D0EDB7FEB73196ADB77F
:101F0000BEB711968D939C9312978BE190E28283DA
:101F10009383148315820E94F75DEDB7FEB7369662
:101F2000EDBFFEBF013021F0023009F0D2C1E8C0A0
:101F30008BE795E20E944A4C8BE795E2BE016D5F0C
:101F40007F4F41E00E940650882309F044C08BE790
:101F500095E2BE01615F7F4F40E052E09E012F5F3E
:101F60003F4F0E941D51882399F589819A818050A5
:101F7000924071F58F858093AB2088898093AC2047
:101F800089898093AD208A898093AE201093F524AF
:101F90001092F62400939C201092E8248091B320A4
:101FA0008823E9F400D00F92EDB7FEB731968FE7A2
:101FB00095E0ADB7BEB711968D939C93129712839F
:101FC00013820E945B5A0F900F900F900F9007C0E2
:101FD0008EE595E002C08DE395E00E94195A80914C
:101FE000B320882309F085C000D000D08CE295E0B2
:101FF000EDB7FEB7818392838091AB209091AC20A6
:10200000A091AD20B091AE2083839483A583B68345
:102010000E945B5A6091AB207091AC208091AD2002
:102020009091AE2024E630E040E050E00E945A5B00
:102030006093F9247093FA240F900F90EDB7FEB7D8
:1020400031962AE135E0ADB7BEB711962D933C939A
:102050001297628373830E945B5A0F900F900F90C8
:102060000F908091F9249091FA242091AB20309127
:10207000AC204091AD205091AE20892BE1F4CA01F3
:10208000B90124E630E040E050E00E945A5B209322
:10209000B4203093B52000D00F92EDB7FEB7319643
:1020A00082E095E0ADB7BEB711968D939C931297E1
:1020B0002283338318C0CA01B90124E630E040E02E
:1020C00050E00E945A5B2F5F3F4F2093B420309323
:1020D000B52000D00F928AEE94E0EDB7FEB7818371
:1020E0009283238334830E945B5A0F900F900F904A
:1020F0000F901092A32081E060E00E94D40CEDC00C
:1021000086E097E20E944A4C86E097E2BE016D5F4E
:102110007F4F41E00E940650882309F045C086E0C9
:1021200097E2BE01615F7F4F40E052E09E012F5F6A
:102130003F4F0E941D518823A1F589819A818050CB
:10214000924079F58F858093AF2088898093B02065
:1021500089898093B1208A898093B2201093F724D3
:102160001092F82481E080939C201092E8248091C2
:10217000B3208823E9F400D00F92EDB7FEB7319673
:1021800086EC94E0ADB7BEB711968D939C931297F1
:10219000128313820E945B5A0F900F900F900F9042
:1021A00007C085EA94E002C084E894E00E94195ACE
:1021B0008091B320882309F085C000D000D083E748
:1021C00094E0EDB7FEB7818392838091AF20909128
:1021D000B020A091B120B091B22083839483A583D5
:1021E000B6830E945B5A6091AF207091B0208091BD
:1021F000B1209091B22024E630E040E050E00E940F
:102200005A5B6093FB247093FC240F900F90EDB702
:10221000FEB7319621E634E0ADB7BEB711962D93E7
:102220003C931297628373830E945B5A0F900F90C6
:102230000F900F908091FB249091FC242091AF206F
:102240003091B0204091B1205091B220892BE1F41F
:10225000CA01B90124E630E040E050E00E945A5B38
:102260002093B6203093B72000D00F92EDB7FEB781
:10227000319689E494E0ADB7BEB711968D939C93E7
:1022800012972283338318C0CA01B90124E630E0D3
:1022900040E050E00E945A5B2F5F3F4F2093B620F2
:1022A0003093B72000D00F9281E394E0EDB7FEB7F2
:1022B00081839283238334830E945B5A0F900F9013
:1022C0000F900F901092A42081E060E00E94100C0B
:1022D00004C08EE094E00E94195AC25FDD4FE4E032
:1022E0000C94C15BAEE0B2E0E8E7F1E10C94A35BD3
:1022F000082F162F6A3080F400D000D0EDB7FEB75B
:102300003196CE010396ADB7BEB711968D939C93CF
:10231000129787E290E21FC0CE010396643670F4F4
:1023200000D000D0EDB7FEB73196ADB7BEB711966D
:102330008D939C93129785E390E20DC000D000D05E
:10234000EDB7FEB73196ADB7BEB711968D939C939E
:10235000129782E490E282839383148315820E9411
:10236000F75DEDB7FEB73696EDBFFEBF013021F049
:10237000023009F090C1C7C08BE795E20E944A4C39
:102380008BE795E2BE016D5F7F4F41E00E940650F2
:10239000882309F044C08BE795E2BE01615F7F4F5F
:1023A00040E052E09E012F5F3F4F0E941D51882365
:1023B00099F589819A818050924071F58F8580933B
:1023C000AB2088898093AC2089898093AD208A894D
:1023D0008093AE201093F5241092F62400939C2055
:1023E0001092E8248091B3208823E9F400D00F9262
:1023F000EDB7FEB731968FED96E0ADB7BEB711964B
:102400008D939C931297128313820E945B5A0F90B4
:102410000F900F900F9007C082EC96E002C081EA07
:1024200096E00E94195AE090AB20F090AC20009109
:10243000AD201091AE20C801B70124E630E040E0A5
:1024400050E00E945A5B6093F9247093FA24672B42
:1024500049F4C801B70124E630E040E050E00E94B2
:102460005A5B0AC0C801B70124E630E040E050E002
:102470000E945A5B2F5F3F4F2093B4203093B520CA
:102480008091B3208823C1F500D000D080E996E088
:10249000EDB7FEB781839283ADB7BEB71396ED92C9
:1024A000FD920D931C9316970E945B5A0F900F900C
:1024B0008EE796E0EDB7FEB7818392838091F92491
:1024C0009091FA24838394830E945B5A86E696E077
:1024D000ADB7BEB711968D939C9312978091B4209F
:1024E0009091B52013968D939C9314970E945B5AFC
:1024F0000F900F900F900F901092A32081E060E05A
:102500000E94D40CCCC086E097E20E944A4C86E040
:1025100097E2BE016D5F7F4F41E00E940650882325
:1025200009F045C086E097E2BE01615F7F4F40E061
:1025300052E09E012F5F3F4F0E941D518823A1F55D
:1025400089819A818050924079F58F858093AF2060
:1025500088898093B02089898093B1208A8980936B
:10256000B2201093F7241092F82481E080939C20ED
:102570001092E8248091B3208823E9F400D00F92D0
:10258000EDB7FEB7319682E496E0ADB7BEB71196CF
:102590008D939C931297128313820E945B5A0F9023
:1025A0000F900F900F9007C084E296E002C083E086
:1025B00096E00E94195AE090AF20F090B020009170
:1025C000B1201091B220C801B70124E630E040E00C
:1025D00050E00E945A5B6093FB247093FC24672BAD
:1025E00049F4C801B70124E630E040E050E00E9421
:1025F0005A5B0AC0C801B70124E630E040E050E071
:102600000E945A5B2F5F3F4F2093B6203093B72034
:102610008091B3208823C1F500D000D082EF95E0EF
:10262000EDB7FEB781839283ADB7BEB71396ED9237
:10263000FD920D931C9316970E945B5A0F900F907A
:102640008FED95E0EDB7FEB7818392838091FB24F7
:102650009091FC24838394830E945B5A87EC95E0DD
:10266000ADB7BEB711968D939C9312978091B6200B
:102670009091B72013968D939C9314970E945B5A68
:102680000F900F900F900F901092A42081E060E0C7
:102690000E94100C04C084EA95E00E94195AC25F9F
:1026A000DD4FE6E00C94BF5B1F93CF93DF93162FB3
:1026B000EA01882349F5809185268823E1F788E798
:1026C00096E260E0AE01212F0E949B3380919D290C
:1026D0008823E1F780E999E260E0AE01212F0E94B2
:1026E0009B33809133278823E1F786E297E260E00D
:1026F000AE01212F0E949B338091A9258823E1F709
:102700008CE995E260E022C0E82FF0E0DF01AA5CEE
:10271000B84DAC91E351F74D6081AA23D9F0A330B5
:1027200051F0A43059F0A23019F4A0E9B9E208C080
:10273000A8E7B6E205C0A6E2B7E202C0ACE9B5E29E
:102740001D968C911D978823D9F7CD01AE01212FBD
:102750000E949B33DF91CF911F910895FC018081EE
:10276000803119F08131A9F407C08181738160E063
:102770009281690F711D09C0738160E08281680FC9
:10278000711D8181709561957F4F81500E947F25D9
:10279000089580E068E040EE50E20E9454130895EE
:1027A000A2E0B0E0E6EDF3E10C94A45B8C01FC0147
:1027B0008081853209F4B5C0863250F4853109F440
:1027C0009AC0803209F4A0C0803109F01DC18BC0CD
:1027D000853309F4EEC08F3F21F0803309F014C136
:1027E000BEC0F801F180809185268823E1F788E753
:1027F00096E26F2D40E051E222E00E949B338091EF
:102800009D298823E1F780E999E26F2D40E051E2AC
:1028100022E00E949B33809133278823E1F786E2F0
:1028200097E26F2D40E051E222E00E949B338091BD
:10283000A9258823E1F78CE995E26F2D40E051E26C
:1028400022E00E949B3380EF95E520E233E0F9011E
:102850003197F1F70197D9F78FEF8983F8019281CA
:10286000809185268823E1F79A8388E796E26F2D89
:10287000AE014F5F5F4F22E00E949B3380919D2904
:102880008823E1F780E999E26F2DAE014F5F5F4F3A
:1028900022E00E949B33809133278823E1F786E270
:1028A00097E26F2DAE014F5F5F4F22E00E949B3396
:1028B0008091A9258823E1F78CE995E26F2DAE017F
:1028C0004F5F5F4F22E00E949B3384EF91E020E254
:1028D00033E0F9013197F1F70197D9F780E062E031
:1028E00040E051E295C0F80181818093B727828151
:1028F000809301288FC0F8016281662349F0F801B6
:1029000081810E94721186C0F8016281662321F4E0
:1029100081810E94C30A7EC0F80181810E944E0F0E
:1029200079C0F801928180E021818C01020F111D94
:10293000980140E050E062E17AE780E090E00E9498
:102940007C5B2093A5203093A6208091B320882320
:1029500009F060C000D00F9281EF99E01DC0F8012E
:10296000928180E021818C01020F111D980140E0CD
:1029700050E062E17AE780E090E00E947C5B209387
:10298000A7203093A8208091B320882309F042C06B
:1029900000D00F928EEC99E0EDB7FEB78183928361
:1029A000038314830E945B5A0F900F900F900F9037
:1029B00031C0F801618170E080E090E02FEF3FE0EE
:1029C00040E050E00E94145B2AE030E040E050E03C
:1029D0000E945A5B20939D2030939E20F8016281D3
:1029E00070E080E090E02FEF3FE040E050E00E9498
:1029F000145B2AE030E040E050E00E945A5B2093F4
:102A00009F203093A02006C080E068E048ED50E2AF
:102A10000E9454132296E5E00C94C05BA2E8B0E05B
:102A2000E4E1F5E10C94A15B282F8A3080F400D01A
:102A300000D0EDB7FEB731968DEF94E2ADB7BEB7DB
:102A400011968D939C9312978EE490E21FC08DEFA8
:102A500094E2243670F400D000D0EDB7FEB7319682
:102A6000ADB7BEB711968D939C9312978CE590E20B
:102A70000DC000D000D0EDB7FEB73196ADB7BEB7F0
:102A800011968D939C93129789E690E282839383AB
:102A9000248315820E94F75DEDB7FEB73696EDBF31
:102AA000FEBF83E098E26DEF74E241E00E940650C1
:102AB0008823C9F553E0C52ED12CCC0EDD1E83E052
:102AC00098E2B60140E850E09E012F5F3F4F0E9420
:102AD0001D51882309F589819A8180389105E1F497
:102AE00047E3E42E47E2F42E00E010E0F601E00FA9
:102AF000F11F6081D7016D937D010F5F1F4FC801EA
:102B00008F5F9F4F0E9432600038110579F781E096
:102B100090E060E00E94326083E098E20E944A4CBC
:102B200082EC97E002C08CE897E00E94195ACE57D9
:102B3000DF4FE8E00C94BD5B83E00E94FE24089523
:102B4000EF92FF920F93CF93DF938091B72781305D
:102B500009F1813030F0823009F447C0EE24FF24BF
:102B600081C0E091EF2420910228332727FD309582
:102B7000220F331FF0E0EE0FFF1FEB5DF74D80815A
:102B80009181AC01249FC001259F900D349F900D31
:102B900011241DC080E00E940F2564E070E00E94B7
:102BA000475BCB01880F991F880F991F6AE070E07F
:102BB0000E94475B80910228992787FD90959C0190
:102BC000629FC001639F900D729F900D11246AE077
:102BD00070E00E94475BCB0120919B2545E02402D9
:102BE00090011124820F931F38C080E00E940F25AE
:102BF00064E070E00E94475BCB01E091EF24F0E0DD
:102C0000EE0FFF1FEB5DF74D0190F081E02DEE0F11
:102C1000FF1F20919B2545E0240290011124E20F23
:102C2000F31F880F991F880F991F6AE070E00E94B8
:102C3000475B80910228992787FD9095AC01649F9E
:102C4000C001659F900D749F900D11246AE070E0A3
:102C50000E94475BCF01860F971F62E070E00E94E1
:102C6000475B7B0180910128813009F1813030F090
:102C7000823009F447C0C0E0D0E081C0E091F02488
:102C80002091BB27332727FD3095220F331FF0E01B
:102C9000EE0FFF1FE255FA4D80819181AC01249F18
:102CA000C001259F900D349F900D11241DC081E01F
:102CB0000E940F2564E070E00E94475BCB01880F03
:102CC000991F880F991F6AE070E00E94475B80910E
:102CD000BB27992787FD90959C01629FC001639F48
:102CE000900D729F900D11246AE070E00E94475B86
:102CF000CB012091D22B45E0240290011124820FB8
:102D0000931F38C081E00E940F2564E070E00E94AC
:102D1000475BCB01E091F024F0E0EE0FFF1FE2559E
:102D2000FA4D0190F081E02DEE0FFF1F2091D22B84
:102D300045E0240290011124E20FF31F880F991F30
:102D4000880F991F6AE070E00E94475B8091BB2763
:102D5000992787FD9095AC01649FC001659F900DF8
:102D6000749F900D11246AE070E00E94475BCF01D0
:102D7000860F971F62E070E00E94475BEB01809135
:102D80009C20813059F11E141F0474F497014427CC
:102D900037FD4095542F62E17AE780E090E00E9491
:102DA0005A5B8CE699E013C0E114F104C9F02227C4
:102DB00033272E193F09442737FD4095542F62E1F0
:102DC0007AE780E090E00E945A5B80EE99E0BA01D9
:102DD000A90122E001E00E94E9320EC0C0E0D0E08B
:102DE00080EE99E04EE450E060E070E022E000E028
:102DF0000E94E932EE24FF241C161D0674F49E0185
:102E0000442737FD4095542F62E17AE780E090E057
:102E10000E945A5B84EA99E012C02097A9F0222709
:102E200033272C1B3D0B442737FD4095542F62E17F
:102E30007AE780E090E00E945A5B88E19AE0BA016C
:102E4000A90123E001E008C088E19AE04EE450E0E7
:102E500060E070E023E000E00E94E9321092E92493
:102E6000EC16FD061CF081E08093E924DF91CF9100
:102E70000F91FF90EF900895A1E0B0E0E2E4F7E158
:102E80000C949F5B5C01FC01E080F180C280D380E8
:102E900084818093EC24958190933527868180935B
:102EA000AD25882319F09093B82709C0892F90E0A9
:102EB000E3E0880F991FEA95E1F78093B827109215
:102EC000E82481E061E00E94DD2491E007E010E069
:102ED0000FC0A501400F511F892F6091B82799831A
:102EE0000E9454138091B827080F111D99819F5F8C
:102EF0008091EC24891768F77F2D60E06E0D711DBD
:102F000080E00E947F257D2D60E06C0D711D81E0C9
:102F10000E947F2581E060E00E94DD242196EAE0A6
:102F20000C94BB5B2F923F924F925F926F927F9275
:102F30009F92AF92BF92CF92DF92EF92FF920F9348
:102F40001F93DF93CF93CDB7DEB72897CDBFDEBFFA
:102F50005C012B011A018DB79EB78F8398878FB7BD
:102F600081E061E00E94DD248091B8279091EC24FB
:102F7000899F60011124C60191706D2D6695892B82
:102F800009F06F5FADB7BEB7AC19BD09ADBFBEBF2D
:102F90006DB67EB60894611C711C70E080E090E014
:102FA000950140E050E00E94145B7B018C01089485
:102FB000E11CF11C011D111D89E0EE0CFF1C001F1E
:102FC000111F8A95D1F780E799E2B801A7010E9405
:102FD000B03F982E882309F0E7C18091762990911F
:102FE0007729A0917829B09179298E159F05A0079E
:102FF000B10709F0D9C180E799E2B301A6019E01AA
:103000002F5F3F4F0E941D51182F882309F0A7C141
:1030100089819A818C159D0509F0A1C18091E824D0
:10302000823018F081E00E946B241092E824DD24A5
:10303000D394EE24FF24B3E0AB2EB12CAC0EBD1E16
:1030400088C183010E0D1F1DC090B82780919F2954
:10305000813009F075C1B8E0CB16F1F4F801908128
:1030600081819817C9F4428183814817A9F434817A
:103070008581381789F426818781281769F4941788
:1030800059F4931749F4921739F48D2D61E0A80192
:103090000E94541351E001C050E08091B82788315C
:1030A00009F08CC0F301EE0DFF1DE081D8011196EF
:1030B0008C911197E81709F081C012963C911297F4
:1030C00013968C911397381709F078C014962C91A9
:1030D000149715968C911597281709F06FC01696BE
:1030E0009C91169717968C911797981709F066C0C0
:1030F000E31709F063C0E21709F060C0E91709F0AF
:103100005DC018969C91189719968C9119979817ED
:1031100009F054C01A964C911A971B968C911B97E4
:10312000481709F04BC01C963C911C971D968C913A
:103130001D97381709F042C01E962C911E971F96B6
:103140008C911F972817D1F59417C1F59317B1F5F6
:103150009217A1F550969C91509751968C9151974A
:10316000981761F552964C91529753968C915397BC
:10317000481721F554963C91549755968C91559744
:103180003817E1F456962C91569757968C9157978D
:103190002817A1F4941791F4931781F4921771F4FE
:1031A000EB8318968C9118978C8350968C918D8315
:1031B0008D2D63E0A5010E94541351E08091B82742
:1031C000803209F0BBC0F301EE0DFF1DE081D80194
:1031D00011968C911197E81709F0B0C012963C91A6
:1031E000129713968C911397381709F0A7C014966D
:1031F0002C91149715968C911597281709F09EC05D
:1032000016969C91169717968C911797981709F018
:1032100095C0E31709F092C0E21709F08FC0E917D3
:1032200009F08CC018969C91189719968C91199753
:10323000981709F083C01A964C911A971B968C9197
:103240001B97481709F07AC01C963C911C971D9655
:103250008C911D97381709F071C01E962C911E97FE
:103260001F968C911F97281709F068C0941709F0D2
:1032700065C0931709F062C0921709F05FC05096BD
:103280009C91509751968C915197981709F056C080
:1032900052964C91529753968C915397481709F038
:1032A0004DC054963C91549755968C91559738172C
:1032B00009F044C056962C91569757968C91579783
:1032C0002817E1F59417D1F59317C1F59217B1F5C9
:1032D00058969C91589759968C915997981771F5D3
:1032E0005A964C915A975B968C915B97481731F59B
:1032F0005C963C915C975D968C915D973817F1F4E4
:103300005E962C915E975F968C915F972817B1F42B
:103310009417A1F4931791F4921781F4EB83189604
:103320008C9118978C8350968C9150978D835896DA
:103330008C918E838D2D64E0A50106C0552331F458
:103340008D2D6091B827A8010E945413EC0CF11C3C
:10335000D3948091EC248D1508F073CE4CC08091ED
:10336000B320882309F047C086E099E00E94195AEB
:10337000EDB7FEB73897EDBFFEBF319688EE98E007
:10338000ADB7BEB711968D939C931297128313829B
:10339000A482B58289819A81868397830E945B5A31
:1033A000EDB7FEB7389625C08091B320882319F574
:1033B0008EEB98E00E94195A8DB79EB70A978DBF81
:1033C0009EBFEDB7FEB731968BE998E0ADB7BEB7BB
:1033D00011968D939C93129792821382A482B58248
:1033E000E682F782008711870E945B5AEDB7FEB72D
:1033F0003A96EDBFFEBF8091B7278530C9F0B20184
:1034000080E090E06F5F7F4F8F4F9F4F2FEF3FE740
:1034100040E050E00E94145B209123283091242842
:1034200040E050E00E945A5B80E0B9010E947F2595
:10343000809101288530C9F0B10180E090E06F5F94
:103440007F4F8F4F9F4F2FEF3FE740E050E00E94AC
:10345000145B2091AB253091AC2540E050E00E94F8
:103460005A5B81E0B9010E947F258091EA24813076
:1034700059F58091B9279091BA274091B927509179
:10348000BA27A3E096958795AA95E1F790E0FC010D
:10349000E957F94D208130E0F3E0880F991FFA9544
:1034A000E1F7481B87E090E0841B910902C0359545
:1034B00027958A95E2F720FD03C080E060E002C016
:1034C00080E061E00E94DD2481E060E00E94DD2474
:1034D0008F8198858DBF9EBF2896CDBFDEBFCF91CF
:1034E000DF911F910F91FF90EF90DF90CF90BF90F1
:1034F000AF909F907F906F905F904F903F902F90F4
:103500000895A0E0B0E0E7E8FAE10C949F5B81E069
:1035100080939C202091AB253091AC25809123286D
:1035200090912428289F5001299FB00C389FB00CFF
:1035300011240E94E958C0E0D0E00CC06091B92786
:103540007091BA2740916E2950916F29CE010E9447
:1035500092172196CA15DB0588F30E94FE587B015D
:103560008C018DB79EB708978DBF9EBFCDB6DEB6D6
:103570000894C11CD11C85E697E0EDB7FEB78183A6
:103580009283F601E282F38204831583B50180E021
:1035900090E028EE33E040E050E00E94145BA80188
:1035A00097010E945A5BF601268337830E945B5A7B
:1035B0008DB79EB708968DBF9EBFCDB7DEB7EAE048
:1035C0000C94BB5BA2E0B2E0E8EEFAE10C94A65BDF
:1035D000182F8A3080F400D000D0EDB7FEB73196B6
:1035E00089E095E2ADB7BEB711968D939C93129783
:1035F00085E790E21FC089E095E2143670F400D0B0
:1036000000D0EDB7FEB73196ADB7BEB711968D932A
:103610009C93129783E890E20DC000D000D0EDB7E4
:10362000FEB73196ADB7BEB711968D939C931297A6
:1036300080E990E282839383148315820E94F75D70
:103640008DB79EB706968DBF9EBF80E799E20E9418
:103650004A4C80E799E269E075E241E00E94065039
:10366000882309F0ABC080E799E2BE016D5F7F4F10
:1036700040E052E09E012F5F3F4F0E941D51882382
:1036800009F099C089819A818050924009F093C0D5
:103690008B81809323288C81809324288D81809333
:1036A000AB258E818093AC258F818093EC24988507
:1036B00090933527892F8B50843048F49A509093FB
:1036C000352781E08093AD259093B8270BC01092E9
:1036D000AD25892F90E023E0880F991F2A95E1F707
:1036E0008093B82710926E2910926F2980916E29CD
:1036F00090916F298093B9279093BA271092ED2467
:103700001092EE2481E080939C201092E824809116
:10371000B320882309F040C000D00F92EDB7FEB768
:10372000319686E898E0ADB7BEB711968D939C931D
:103730001297128313820E945B5A8DB79EB7089727
:103740008DBF9EBFEDB7FEB7319683E398E0ADB76E
:10375000BEB711968D939C931297809123289091D8
:103760002428828393838091AB259091AC25848318
:1037700095838091EC2486831782809135278087FA
:1037800011868091AD25828713860E945B5A8DB782
:103790009EB70C968DBF9EBF8091ED249091EE2434
:1037A0006091B9277091BA2740916E2950916F2985
:1037B0000E94921707C084E198E002C088EF97E06A
:1037C0000E94195ACE5FDD4FE3E00C94C25BFC010E
:1037D0008081803721F0813709F0BDC07BC09281A4
:1037E00080E02181820F911D8093B9279093BA27A1
:1037F000948180E02381820F911D80936E299093A4
:103800006F298091B9279091BA27809304279093CC
:10381000052780916E2990916F2980937626909349
:10382000772620916E2930916F294091B9275091C8
:10383000BA278091232890912428BC01269FC0019B
:10384000279F900D369F900D1124840F951F809314
:10385000ED249093EE241092E8248091B3208823E5
:1038600051F52091B9273091BA2740916E29509196
:103870006F296091ED247091EE248DB79EB7089763
:103880008DBF9EBFEDB7FEB7319682E999E0ADB727
:10389000BEB711968D939C931297228333834483F2
:1038A0005583668377830E945B5A6DB77EB7685FE6
:1038B0007F4F6DBF7EBF8091ED249091EE2460918B
:1038C000B9277091BA2740916E2950916F290E94B3
:1038D00092170895518150930228428140939B256D
:1038E00033813093BB2724812093D22B8091B32046
:1038F0008823B9F58DB79EB70A978DBF9EBFEDB7E8
:10390000FEB7319683E599E0ADB7BEB711968D93BA
:103910009C931297852F992787FD90958283938397
:10392000842F992787FD909584839583832F9927EA
:1039300087FD909586839783822F992787FD9095A1
:10394000808791870E945B5A6DB77EB7665F7F4F15
:103950006DBF7EBF089580E068E048EE50E20E94AF
:1039600054130895FC012181808190E0FC0131977E
:10397000E031F10508F044C0E650FF4F0C94CE5BF7
:10398000822F62E040E051E23FC0822F62E042E0DD
:1039900051E23AC0822F0E94E21A0895822F0E94BB
:1039A00001260895822F0E94A5250895822F90E078
:1039B000880F991F8093A9209093AA200895822FA1
:1039C0000E945F2C0895822F0E946D290895822FF6
:1039D0000E940E150895822F81500E940F2500D05D
:1039E0000F9224E13AE0EDB7FEB72183328383835F
:1039F00094830E945B5A0F900F900F900F90089540
:103A000080E068E040ED50E20E94541308956F9208
:103A10007F929F92AF92BF92CF92DF92EF92FF92EE
:103A20000F931F93DF93CF930F920F92CDB7DEB713
:103A3000FC01E081E33409F41AC2E43408F05BC00D
:103A4000E03209F4B6C0E13258F5E43109F498C225
:103A5000E53198F4E13109F485C2E23138F4EE231E
:103A600009F4F1C1E03109F0A0C378C2E23109F4F0
:103A700080C2E33109F099C380C2E73109F4ACC2D6
:103A8000E83138F4E53109F47EC2E63109F08DC33E
:103A90008BC2E83109F4A4C2E93109F086C3A3C29C
:103AA000E63209F41BC3E73298F4E33209F4F7C2B3
:103AB000E43238F4E13209F4DEC2E23209F075C3CF
:103AC000E4C2E43209F4FAC2E53209F06EC310C16F
:103AD000E03409F4BDC1E13438F4E03309F4C1C085
:103AE000E53309F062C365C1E13409F4B6C1E234DB
:103AF00009F05BC3B7C1E43909F4F4C1E53958F5FD
:103B0000E03609F4D5C1E13698F4E63409F4BEC1D3
:103B1000E73438F4E43409F4AFC1E53409F045C3BF
:103B2000B0C1E73409F4B7C1E03509F03EC3BDC107
:103B3000E13909F4C8C1E23938F4E03709F4BBC10E
:103B4000E03909F032C3BAC1E23909F4C1C1E3393D
:103B500009F02BC3C2C1EA3909F4E2C1EB3998F488
:103B6000E73909F4CEC1E83938F4E53909F4BFC1C1
:103B7000E63909F01AC3C0C1E83909F4C7C1E93907
:103B800009F013C3C8C1ED3909F4D9C1EE3938F4CD
:103B9000EB3909F4CAC1EC3909F007C3CBC1EF39DD
:103BA00009F4D7C1EF3908F4CFC1EF3F09F0FDC2E6
:103BB00077C11092EF241092F02410929C2081E0A3
:103BC0008093A1208093A2201092E82480EA95E1BE
:103BD0004EE450E060E070E021E001E00E94C3327A
:103BE0008CE699E04EE450E060E070E022E000E016
:103BF0000E94C33284EA99E04EE450E060E070E055
:103C000023E00E94C3328091A3204091A5205091CF
:103C1000A620882331F060E070E088E69EE024E092
:103C200006C060E070E088E69EE024E001E00E94CB
:103C3000C3328091A4204091A7205091A8208823CE
:103C400039F060E070E088E99DE025E000E006C022
:103C500060E070E088E99DE025E001E00E94C33269
:103C6000AAC281E080939C2080EA95E14EE450E076
:103C700060E070E021E000E00E94C3328CE699E051
:103C80004EE450E060E070E022E00E94C33284EA3B
:103C900099E04EE450E060E070E023E00E94C3321F
:103CA0004091A5205091A62060E070E088E69EE05B
:103CB00024E00E94C3324091A7205091A82060E0E8
:103CC00070E088E99DE025E00E94C3328091A32046
:103CD000882321F481E060E00E94D40C8091A4202C
:103CE000882309F068C281E060E00E94100C63C282
:103CF0001092EF241092F02410929C201092E8244D
:103D000080EA95E14EE450E060E070E021E001E0FF
:103D10000E94C3328CE699E04EE450E060E070E02F
:103D200022E000E00E94C33284EA99E04EE450E0D1
:103D300060E070E023E00E94C3328091A3204091B4
:103D4000A5205091A620882331F060E070E088E63D
:103D50009EE024E006C060E070E088E69EE024E09B
:103D600001E00E94C3328091A4204091A72050918D
:103D7000A820882339F060E070E088E99DE025E024
:103D800000E006C060E070E088E99DE025E001E029
:103D90000E94C3326091A9207091AA2082E19AE723
:103DA0000E94335BAB0160E070E08CE995E120E0BC
:103DB00054CF81E080939C2080EA95E14EE450E06E
:103DC00060E070E021E000E00E94C3328CE699E000
:103DD0004EE450E060E070E022E00E94C33284EAEA
:103DE00099E04EE450E060E070E023E00E94C332CE
:103DF0004091A5205091A62060E070E088E69EE00A
:103E000024E00E94C3324091A7205091A82060E096
:103E100070E088E99DE025E00E94C3322091A9204E
:103E20003091AA2040E050E062E17AE780E090E043
:103E30000E947C5B8CE995E1BA01A90120E00E9417
:103E4000C33282E092C080E068E045E155E2B1C152
:103E500080E068E144E051E2ACC180E068E14CE11F
:103E600051E2A7C180E068E144E351E2A2C180E0F1
:103E700068E14CE451E29DC180E068E144E651E232
:103E800098C180E068E14CE751E293C180E068E1CD
:103E900044E951E28EC180E068E14CEA51E289C117
:103EA00080E068E044EC51E284C10E947E2483C13A
:103EB0000E94E92580C10E94811A7DC180E060E2F4
:103EC0004CEC51E276C180E060E24CEE51E271C10F
:103ED00080E060E24CE052E26CC180E060E24CE2E3
:103EE00052E267C180E060E24CE452E262C180E0ED
:103EF00060E24CE652E25DC180E060E24CE852E2F2
:103F000058C180E060E24CEA52E253C180E060E2D6
:103F10004CEC52E24EC180E060E24CEE52E249C10C
:103F200080E060E24CE053E244C180E060E24CE2B9
:103F300053E23FC180E060E24CE453E23AC180E0EA
:103F400060E24CE653E235C180E060E24CE853E2C7
:103F500030C180E060E24CEA53E22BC181E0809303
:103F6000EA2429C11092EA2480E060E00E94DD2466
:103F700022C181E080939F291EC110929F291BC1FD
:103F80000E944B0B18C100D00F9287E29BE0ADB7A7
:103F9000BEB711968D939C9312978CEC93E2139677
:103FA0008D939C931497FAC057E3E52E57E2F52EB4
:103FB00011E00EEF6E010894C11CD11C0983F701BA
:103FC00081917F018A83812F62E0A6010E945413B0
:103FD0001F5F113899F7EFC081E08093B320EBC0E9
:103FE0001092B320E8C08DB79EB742978DBF9EBF99
:103FF000EDB7FEB7319685E09BE0ADB7BEB7119641
:104000008D939C93129780910228992787FD909514
:104010008283938380919B25992787FD9095848344
:1040200095838091042790910527868397838091BB
:10403000B727808711868091BB27992787FD9095A8
:10404000828793878091D22B992787FD90958487CB
:10405000958780917626909177268687978780919D
:104060000128808B118A0E945B5AEDB7FEB77296C9
:10407000EDBFFEBFA0C080E090E06FEF0E94326015
:104080000F920F9283ED9AE012C080E090E060E022
:104090000E9432600F920F9281EA9AE016C088E087
:1040A000E0E2F7E082870F920F9286E79AE0ADB7E1
:1040B000BEB711968D939C9312970BC0E0E2F7E088
:1040C00012860F920F9280E59AE0EDB7FEB78183DA
:1040D00092830E945B5A0F900F906DC09924EE243A
:1040E000FF248701AA24BB24650140E4642E4CE927
:1040F000742E82E00E940F25AA2797FDA095BA2F63
:10410000E80EF91E0A1F1B1F83E00E940F25AA2735
:1041100097FDA095BA2FA80EB91ECA1EDB1EC301BB
:104120000197F1F79394F4E69F1619F7C801B701C8
:1041300024E630E040E050E00E945A5B20939D204E
:1041400030939E20C601B50124E630E040E050E007
:104150000E945A5B20939F203093A02000D00F92A2
:104160008BE39AE0ADB7BEB711968D939C931297EF
:1041700080919D2090919E2013968D939C931497EF
:104180000E945B5A86E29AE0EDB7FEB78183928384
:1041900080919F209091A020838394830E945B5AFA
:1041A0000F900F900F900F9006C080E068E048ECF1
:1041B00050E20E9454130F900F90CF91DF911F9106
:1041C0000F91FF90EF90DF90CF90BF90AF909F90B6
:1041D0007F906F900895A0E5B6E0E1EFF0E20C94D7
:1041E0009D5B80E090E00E942260E82E88E796E2E6
:1041F0006E2D0E94673480E999E26E2D0E9467342B
:1042000086E297E26E2D0E9467348CE995E26E2D6E
:104210000E94673488E796E260E874E040E450E08A
:1042200023E20E94183380E999E260E974E040E4F7
:1042300050E023E20E94183386E297E260EA74E0DD
:1042400040E450E023E20E9418338CE995E260EBF1
:1042500074E040E450E023E20E9418338E2D0E9467
:104260000F320E94652F88ED90E38093792590931B
:104270007A2580E090E02AE030E0FC01E255FA4D3A
:1042800020833183FC01EB5DF74D2083318302965F
:10429000883C910591F7E7E8F6E220E030E04FEF47
:1042A0002330310520F0C9010697039710F44083AD
:1042B00001C010822F5F3F4F31962D37310581F7B6
:1042C00010926E2910926F2980916E2990916F291A
:1042D0008093B9279093BA278091B9279091BA27F4
:1042E00080937626909377268093042790930527D2
:1042F0001092D22B10929B251092BB27109202286D
:10430000109201281092B72781E0809335271092F0
:10431000AD2510929F2981E090E00E9422608F3F9E
:10432000D9F4198224E014C0E82FF0E0EA5CF84DDB
:10433000982F93709083882319F0992309F4208390
:104340008981E82FF0E0E351F74D80838F5F898307
:104350008981813848F317C0198211C00F2D10E0F0
:10436000C8018F5F9F4F0E942260F801EA5CF84D00
:1043700080830351174DF801F082F394F982F9809C
:10438000F0E8FF1558F780E89CE00E94195A81E098
:1043900061E00E94482401E0A0E2CA2EA3E0DA2EE8
:1043A0003AC080E00E947A54082F81FF0DC081E757
:1043B0009CE00E94195A0E94043104C080E00E94CF
:1043C0007A54082F01FDFACF02FF04C084E59CE077
:1043D0000E94195A198210C080E00E947057082F5D
:1043E00080FF0DC089818F5F898384EF91E0F601A2
:1043F0003197F1F70197D9F78981843068F300FF8D
:104400000AC08AE39CE00E94195A80E00E947A5414
:10441000082F81FFFACF00FDC4CF82E29CE00E940A
:10442000195A80E06AE0AE014F5F5F4F0E94645509
:10443000892B59F586E19CE00E94195A89818430C4
:10444000A1F0853028F4813051F08230D1F40AC0D7
:10445000883089F08C3091F0863099F409C081E180
:104460009CE011C08DE09CE00EC088E09CE00BC099
:1044700083E09CE008C08EEF9BE005C088EF9BE0E6
:1044800002C083EF9BE00E94195A8AED9BE00E94D4
:10449000195A80E060EA79E20E940835813051F0D3
:1044A000813028F0823049F0833069F409C080ED12
:1044B0009BE00BC087EC9BE008C084EB9BE005C051
:1044C00087EA9BE002C082EA9BE00E94195A80E0E2
:1044D00068E045E155E20E94541381E060E00E94EB
:1044E00048240E947E248FEFE81609F0C5C084E7B7
:1044F0009BE00E94195AF7EE8F2EF3E09F2EE7EC17
:10450000BE2E77ECA72E62E0C62ED12CCC0EDD1E7F
:1045100003C00A2D470158010E94A530892B09F4D8
:1045200049C0C6010E940B318430910509F18530E4
:10453000910548F48230910599F083309105A0F4FB
:10454000019791F509C08E339105D1F08F33910514
:1045500039F1059749F510C0C6010E94071D2AC010
:10456000C6010E94B21C26C0C6010E94D01322C000
:10457000C6010E94AE131EC0C6010E94E71B1AC0EE
:1045800020E030E0F901E957F94DD601A20FB31F41
:104590008C9180832F5F3F4F2E33310599F70AC0EE
:1045A000C6010E94320B06C080E068E048EF50E28E
:1045B0000E94541380919C20882309F0ADCFE09095
:1045C000ED24F090EE24E814F90491F0E090ED244D
:1045D000F090EE248091ED249091EE246091B92723
:1045E0007091BA2740916E2950916F290E949217BD
:1045F0008091A3208823E1F48091F3248A31C0F4D0
:104600001091EF241B15A9F01091EF246091A120C7
:1046100080E00E94D40C8091A12090E06091B420B1
:104620007091B52001960E94335B8093A12001C058
:104630001B2D8091A420882309F06BCF8091F42456
:104640008A3108F066CF0091F0240A1509F462CF90
:104650000091F0246091A22080E00E94100C8091D3
:10466000A22090E06091B6207091B72001960E9440
:10467000335B8093A2204ECF86E49BE00E94195AC0
:104680008E010D5B1F4F0E94A530892BE1F3C801FD
:104690000E940B318130910519F0C29749F404C092
:1046A000C8010E94071DEFCFC8010E943C17EBCF45
:1046B00080E068E040E051E20E945413E4CF1F9292
:1046C0000F920FB60F9208B60F9209B60F920BB663
:1046D0000F92112418BE19BE1BBE2F933F934F9308
:1046E0005F936F937F938F939F93AF93BF93EF935A
:1046F000FF938CE995E20E943434FF91EF91BF91D2
:10470000AF919F918F917F916F915F914F913F9169
:104710002F910F900BBE0F9009BE0F9008BE0F9007
:104720000FBE0F901F9018951F920F920FB60F9209
:1047300008B60F9209B60F920BB60F92112418BE4D
:1047400019BE1BBE2F933F934F935F936F937F933D
:104750008F939F93AF93BF93EF93FF9386E297E27C
:104760000E943434FF91EF91BF91AF919F918F914F
:104770007F916F915F914F913F912F910F900BBE61
:104780000F9009BE0F9008BE0F900FBE0F901F90A4
:1047900018951F920F920FB60F9208B60F9209B696
:1047A0000F920BB60F92112418BE19BE1BBE2F9389
:1047B0003F934F935F936F937F938F939F93AF93A9
:1047C000BF93EF93FF9380E999E20E943434FF9105
:1047D000EF91BF91AF919F918F917F916F915F9179
:1047E0004F913F912F910F900BBE0F9009BE0F90EC
:1047F00008BE0F900FBE0F901F9018951F920F923A
:104800000FB60F9208B60F9209B60F920BB60F9221
:10481000112418BE19BE1BBE2F933F934F935F9375
:104820006F937F938F939F93AF93BF93EF93FF9378
:1048300088E796E20E943434FF91EF91BF91AF91E7
:104840009F918F917F916F915F914F913F912F91A8
:104850000F900BBE0F9009BE0F9008BE0F900FBEB9
:104860000F901F9018950F93DF93CF930F92CDB7B2
:10487000DEB72FB72983F8941BBEFC0108ED04BFF7
:10488000608389818FBF0F90CF91DF910F91089541
:10489000282F30E0C9018C7F892BE1F4862F8E7F91
:1048A000C9F42C5F3F4F613059F481E090E002C0C1
:1048B000880F991F2A95E2F7E0E0F7E086830895D4
:1048C00081E090E002C0880F991F2A95E2F7E0E0AE
:1048D000F7E085830895282F30E0C9018C7F892B6C
:1048E00061F42C5F3F4F81E090E002C0880F991F78
:1048F0002A95E2F7E0E0F7E08783089520E030E0D2
:10490000A0E0B7E060E240E253E017966C9317979F
:104910008CEA9DE0FA013197F1F70197D9F72F5F03
:104920003F4F2A30310589F70895482F50E0CA01DA
:104930008C7F892B79F56623B9F44C5F5F4F81E05A
:1049400090E09C01042E02C0220F331F0A94E2F76C
:1049500044505040E0E2F7E0268302C0880F991FE0
:104960004A95E2F7818308956130A1F481E090E0F7
:104970009C01042E02C0220F331F0A94E2F7E0E2EA
:10498000F7E022834C5F5F4F02C0880F991F4A9562
:10499000E2F785830895282F30E0C9018C7F892BA9
:1049A00011F080E008958091280790E002C095956D
:1049B00087952A95E2F781700895282F30E0C90184
:1049C0008C7F892BD1F4862F8E7FB9F4613059F416
:1049D00081E090E002C0880F991F2A95E2F7E0E29B
:1049E000F7E08583089581E090E002C0880F991F69
:1049F0002A95E2F7E0E2F7E086830895282F30E079
:104A0000C9018C7F892B51F481E090E002C0880FAE
:104A1000991F2A95E2F7E0E2F7E087830895A2E084
:104A2000B0E0E5E1F5E20C94A75B282F30E0C90186
:104A3000887F892B19F020E030E05CC080E1E0E461
:104A4000F6E08683C90187709070880F991F880FE0
:104A5000991F8068E0ECF8E083838091C20887FFAB
:104A6000FCCF80E1E0ECF8E083838091C20887FF0F
:104A7000FCCFE0E4F6E080E185838683E0ECF8E0BB
:104A800013828091C20887FFFCCFDE0111969091BE
:104A9000C308E0ECF8E013828091C20887FFFCCFE6
:104AA0008091C30811969C9311978C9380E1E0E468
:104AB000F6E085832E7F89819A81232B69F49C01FE
:104AC0003F7094FF04C035952795386F02C0359527
:104AD000279529833A830CC094FF04C09F70959555
:104AE000879504C09061959587959F7089839A8377
:104AF00029813A81C9012296E2E00C94C35B982F88
:104B00008C7F11F580E860307807F1F080E1E0E615
:104B1000F6E086839770E0ECF9E093838091C20918
:104B200087FFFCCFE0ECF9E073838091C20987FF37
:104B3000FCCFE0ECF9E063838091C20987FFFCCFF2
:104B400080E1E0E6F6E085830895A0E0B0E0EBEADE
:104B5000F5E20C949B5BB82EC0E0D0E000E217E0D9
:104B60006624639482E0782EB4E08B2EA8E09A2E1F
:104B7000F0E2EF2EF3E0FF2EC12CE7E0DE2E70E234
:104B8000A72EF801678277828782978288EE93E06A
:104B9000F7013197F1F70197D9F78B2D0E940F2577
:104BA000BC0128EE33E0F7013197F1F72150304096
:104BB000D1F781E00E947F25C0FF02C0F601A782E5
:104BC0002196CC33D105E9F6CDB7DEB7EEE00C94F3
:104BD000B75B0F93DF93CF930F92CDB7DEB78FB74D
:104BE0008983F8941BBE21E089E790E0FC0108ED81
:104BF00004BF208389818FBF0F90CF91DF910F91E8
:104C00000895A0E0B0E0E7E0F6E20C949D5B982EFA
:104C100000E040EAA42E4FE0B42E30E8C32E3EE37D
:104C2000D32EE12C27E0F22E90E2892E1DC01436FF
:104C300010F4BE0103C0B5016C1B7D0B80E00E9427
:104C40007F25892D0E940F25BC0181E00E947F25D0
:104C5000C6010197F1F71F5F6496183C41F7F70111
:104C600087820F5F0E3121F010E0C0E0D0E0DFCF8F
:104C7000CDB7DEB7ECE00C94B95BBC0123ED3EE0B0
:104C800040E050E008C0F9012F5F3F4FE491EE2370
:104C9000D1F74F5F5F4F4617570721F0F901849115
:104CA000882389F700D00F928FEC9EE0EDB7FEB716
:104CB00081839283238334830E945B5A0F900F90E9
:104CC0000F900F900895A0E0B0E0E9E6F6E20C94B2
:104CD0009E5B5C016A017B01922EE80185EC91E10B
:104CE0000E94195A87E68883BB27AF2D9E2D8D2DF4
:104CF0008983CA829B8285E48C83C50160E7A80111
:104D000025E0092D0E943A33D5011D968C911D97FF
:104D10008823D1F71E968C911E978130B9F01E968C
:104D20002C9100D00F92EDB7FEB7319688EA91E151
:104D3000ADB7BEB711968D939C93129722831382C1
:104D40000E945B5A0F900F900F900F90DE0131E0A0
:104D500020E00DC0E501ED81FE81E20FF11D9081A3
:104D600015968C911597981330E02F5F11962915A1
:104D700088F3832F90E0CDB7DEB7EBE00C94BA5BFD
:104D8000A0E0B0E0E6ECF6E20C949E5B5C016A0108
:104D90007B01922EE80184EE91E10E94195A87E688
:104DA0008883BB27AF2D9E2D8D2D8983CA829B8240
:104DB00085E48C83C50160E7A80125E0092D0E94E8
:104DC0003A33D5011D968C911D978823D1F71E96F5
:104DD0008C911E978130B9F01E962C9100D00F92C5
:104DE000EDB7FEB7319687EC91E1ADB7BEB711963E
:104DF0008D939C931297228313820E945B5A0F908B
:104E00000F900F900F90DE0190E00AC0E501ED8158
:104E1000FE81E90FF11D808114968C9314979F5F9A
:104E20001196991598F3CDB7DEB7EBE00C94BA5B09
:104E3000A0E0B0E0EEE1F7E20C94A05BEC016A01C7
:104E40007B01B22E85E092E10E94195A82E4D801DA
:104E50008C93BB27AF2D9E2D8D2DF8018183C282AF
:104E6000B38285E48483F5E0BF0ECE0160E7A8013C
:104E70002B2D00E00E943A338D858823E9F78E853B
:104E80008130B1F02E8500D00F92EDB7FEB731968C
:104E900086EE91E1ADB7BEB711968D939C931297B4
:104EA000228313820E945B5A0F900F900F900F90F5
:104EB000CDB7DEB7E9E00C94BC5BA0E0B0E0E3E680
:104EC000F7E20C949E5B5C016A017B01922EE80183
:104ED00084E292E10E94195A87E68883BB27AF2DAE
:104EE0009E2D8D2D8983CA82892D86958B8386E49C
:104EF0008C83C50160E7A80125E0092D0E943A33A3
:104F0000D5011D968C911D978823D1F71E968C9103
:104F10001E978130B9F01E962C9100D00F92EDB7FC
:104F2000FEB7319687E092E1ADB7BEB711968D938B
:104F30009C931297228313820E945B5A0F900F90CA
:104F40000F900F90DE0131E020E00DC0E501ED8112
:104F5000FE81E20FF11D908115968C9115979813A3
:104F600030E02F5F1196291588F3832F90E0CDB79D
:104F7000DEB7EBE00C94BA5BA0E0B0E0E2ECF7E265
:104F80000C949E5B5C016A017B01922EE80183E434
:104F900092E10E94195A87E68883BB27AF2D9E2D88
:104FA0008D2D8983CA82892D86958B8386E48C8397
:104FB000C50160E7A80125E0092D0E943A33D5011B
:104FC0001D968C911D978823D1F71E968C911E9764
:104FD0008130B9F01E962C9100D00F92EDB7FEB73C
:104FE000319686E292E1ADB7BEB711968D939C9350
:104FF0001297228313820E945B5A0F900F900F909A
:105000000F90DE0190E00AC0E501ED81FE81E90F1D
:10501000F11D808114968C9314979F5F11969915BA
:1050200098F3CDB7DEB7EBE00C94BA5BA0E0B0E04C
:10503000ECE1F8E20C94A05BEC016A017B01B22E7A
:1050400083E692E10E94195A82E4D8018C93BB272F
:10505000AF2D9E2D8D2DF8018183C2828B2D8695DB
:10506000838386E48483F5E0BF0ECE0160E7A80168
:105070002B2D00E00E943A338D858823E9F78E8539
:105080008130B1F02E8500D00F92EDB7FEB731968A
:1050900085E492E1ADB7BEB711968D939C931297BC
:1050A000228313820E945B5A0F900F900F900F90F3
:1050B000CDB7DEB7E9E00C94BC5BAFE0B0E0E3E66F
:1050C000F8E20C94975B7C018B01DB010D900020D2
:1050D000E9F76D010894C108D108C61AD70AB3E0F0
:1050E000CB16D1040CF4F2C0FB0181818B83828149
:1050F0008C831D82CE0103968C879D87CE010396FB
:10510000BE016F5F7F4F40E150E00E94D95CD70144
:105110006C93E981FA818C859D85E817F90709F47C
:10512000D5C08081882309F0D1C097E0C916D10489
:105130000CF4CCC0D80113968C9113978B831496E2
:105140008C9114978C8315968C9115978D83169658
:105150008C918E831F82CE010396BE016F5F7F4FBD
:1051600040E150E00E94D95CF70161837283E981DC
:10517000FA818C859D85E817F90709F4A7C080811D
:10518000882309F0A3C099E0C916D1040CF49EC08D
:10519000D80117968C9117978B8318968C918C83D6
:1051A0001D82CE010396BE016F5F7F4F40E150E04C
:1051B0000E94D95CF7016383E981FA818C859D8522
:1051C000E817F90709F482C08081882309F07EC0BE
:1051D000D70111968C91119712969C9112977C9001
:1051E000780E790E760E4801170144245524B9E053
:1051F000AB2EB12CFE013396EE87FF87CE010196D0
:105200008B87692E32C02C153D050CF05FC0D40190
:1052100019968C9119978B831A968C918C83E2E066
:10522000F0E0AE0EBF1E1D82CE0103966B85762D7B
:1052300040E150E00E94D95CD10114966C93E98161
:10524000FA818E859F85E817F90709F43FC0A2E02F
:10525000B0E08A0E9B1E0894211C311C808188239B
:10526000A9F5760E0894411C511CF701808190E04D
:1052700095012F5F3F4F481659062CF22C153D051E
:105280002CF5F801EA0DFB1D80818B8381818C83D5
:105290001D828E010D5F1F4FC801BE016F5F7F4FE2
:1052A00040E150E00E94D95C84E091E0E80EF91EF4
:1052B000D7016C93E981FA81E017F10739F0808119
:1052C000882321F47194272D30E002C02FEF3FEFA7
:1052D000C9012F96E2E10C94B35BA0E9B2E0E3E7E9
:1052E000F9E20C94975B082FE82EFF24F701EA5CA3
:1052F000F84DE081EE2309F4CDC2E33071F0E430E3
:1053000089F0E23029F480E9882E89E2982E0EC0D7
:1053100018E7812E16E2912E09C0B6E28B2EB7E275
:105320009B2E04C0ACE98A2EA5E29A2E81EE97E26C
:1053300061ED73E241E00E940650182F882349F086
:1053400082EB9EE00E94195A812F90E00E943D2638
:105350003DC000D00F9280EA9EE0ADB7BEB7119677
:105360008D939C9312971396ED92FC9214970E9442
:105370005B5A198281E08A830F900F900F900F90F3
:10538000C401602FAE014F5F5F4F22E000E00E943A
:105390003A33F40185858823E1F786858130B1F0C1
:1053A000268500D00F92EDB7FEB7319682E89EE0D9
:1053B000ADB7BEB711968D939C931297228313823B
:1053C0000E945B5A0F900F900F900F9088E893E126
:1053D00020E233E0F9013197F1F70197D9F785E73A
:1053E0009EE00E94195A0FEF1FEFCC24DD246624A3
:1053F0007724F6E82F2E312C2C0E3D1EE6E84E2E9B
:10540000E1E05E2E4C0E5D1EF2013496C357DD4F77
:10541000E883F983CD58D240CBC00894611C711C3D
:10542000F10101900020E9F7329780818A3009F478
:105430001082D1018C918A3309F0BAC0C201B10146
:105440000E945D28F82EC657DD4F8881CA58D24089
:10545000F81619F100D00F9281E49EE0EDB7FEB787
:1054600081839283638274820E945B5A0F920F92AF
:10547000EDB7FEB7319686E19EE0ADB7BEB71196A7
:105480008D939C931297C657DD4F8881CA58D2409E
:1054900082831382F482158282C0D20113962C91EA
:1054A0001397222309F053C01196ED90FC901297A8
:1054B0005701AA0CAB2CAA1CBB08B194A016B106CC
:1054C000C1F0CD1491F01695102F00271795079570
:1054D0000C0D111DA80160E070E0DC18C4012D2D39
:1054E0008E010F5F1F4F0E9418275FE7D52EDE2029
:1054F000CD2C4E2D4F774C1508F4C42EF20150815F
:10550000252F30E0C357DD4FA881B981CD58D24057
:10551000E42FF0E0359681E090E08C0F9D1FE80FBE
:10552000F91F2C5F3F4F240D351D02C08D918193D3
:10553000A217B307D9F7852F90E0840F911D2D2D69
:1055400030E0281739079CF5D42ED50E30C0213015
:10555000A9F4CD14B9F11695102F002717950795CA
:105560000C0D111DA80160E070E0DC18C4012D2DA8
:105570008E010F5F1F4F0E94182724C000D000D05B
:10558000EDB7FEB7319684ED9DE0ADB7BEB711968D
:105590008D939C93129722831382648275820E945A
:1055A0005B5AEDB7FEB73696EDBFFEBF0BC0850167
:1055B000C10160E071E041EE57E20E94C752892BC1
:1055C00009F02BCF81EE97E240E050E060E070E020
:1055D0000E94B03F182F882349F086EB9DE00E947F
:1055E000195A812F90E00E943D262CC189EA9DE046
:1055F0000E94195ACC24CA94DC2C00E010E06624E6
:105600007724CE018A579F4FC157DD4F88839983F6
:10561000CF58D24036E8432E31E0532E4C0E5D1E5B
:10562000D2011496C557DD4FA883B983CB58D24019
:10563000FFC00894611C711CC157DD4FE881F981DE
:10564000CF58D24001900020E9F7329780818A300C
:1056500009F41082CA57DF4F8881C658D0408A3378
:1056600009F0E6C0C201B1010E945D28F82EC657BC
:10567000DD4F8881CA58D240F81619F100D00F9238
:1056800086E79DE0EDB7FEB78183928363827482E3
:105690000E945B5A0F920F92EDB7FEB731968BE4E2
:1056A0009DE0ADB7BEB711968D939C931297C657E8
:1056B000DD4F8881CA58D24082831382F4821582DA
:1056C000AEC0D20113962C911397222309F065C026
:1056D0001196ED90FC9012975701AA0CAB2CAA1CC6
:1056E000BB08B194AC14BD0449F1011721F1A60126
:1056F0005695542F442757954795400F511D60E00C
:1057000070E0101BC401212F8E010F5F1F4F0E94FC
:105710006326892B81F400D00F928EE29DE0EDB7D5
:10572000FEB781839283C382D4820E945B5A0F901A
:105730000F900F900F901E2D1F77012F4E2D4F773A
:10574000401708F4042FD2015C91252F30E0C55793
:10575000DD4FA881B981CB58D240E42FF0E03596D7
:1057600081E090E08C0F9D1FE80FF91F2C5F3F4FE9
:10577000240D351D02C08D918193A217B307D9F76F
:10578000852F90E0840F911D212F30E028173907D5
:105790000CF04DC0142F150F4AC0213079F50117B8
:1057A00041F1A6015695542F442757954795400F30
:1057B000511D60E070E0101BC401212F8E010F5FAE
:1057C0001F4F0E946326892BA1F400D00F9281E124
:1057D0009DE0ADB7BEB711968D939C93129713962B
:1057E000CD92DC9214970E945B5A0F900F900F900D
:1057F0000F908FE09DE00E94195A24C000D000D085
:10580000EDB7FEB731968EEC9CE0ADB7BEB7119602
:105810008D939C93129722831382648275820E94D7
:105820005B5AEDB7FEB73696EDBFFEBF0BC0650104
:10583000C10160E071E041EE57E20E94C752892B3E
:1058400009F0F7CE85E48983C40160E7AE014F5FBC
:105850005F4F21E000E00E943A33D4011D968C9105
:105860001D978823D1F71E968C911E97813011F1D8
:105870001E962C9100D00F92EDB7FEB7319683EBB8
:105880009CE0ADB7BEB711968D939C93129722837F
:1058900013820AC000D00F9288E99CE0EDB7FEB7F2
:1058A00081839283E382F4820E945B5A0F900F906F
:1058B0000F900F90C057DD4FE2E10C94B35BA0E96D
:1058C000B2E0E5E6FCE20C94975B082FE82EFF249B
:1058D000F701EA5CF84DE081EE2309F4E1C2E33020
:1058E00071F0E43089F0E23029F490E9892E99E2F0
:1058F000992E0EC088E7882E86E2982E09C016E2FF
:10590000812E17E2912E04C0BCE98B2EB5E29B2EAE
:1059100081EC97E26CED73E241E00E940650182F93
:10592000882349F08CE891E10E94195A812F90E078
:105930000E943D2651C007FF12C084E0E0E6F6E079
:10594000868384E690E020E233E0F9013197F1F7B5
:105950000197D9F784E0E0E6F6E085833DC000D00A
:105960000F928BE791E1ADB7BEB711968D939C93E3
:1059700012971396ED92FC9214970E945B5A19822B
:1059800081E08A830F900F900F900F90C401602FD9
:10599000AE014F5F5F4F22E000E00E943A33F40116
:1059A00085858823E1F786858130B1F0268500D092
:1059B0000F92EDB7FEB731968DE591E1ADB7BEB769
:1059C00011968D939C931297228313820E945B5AA7
:1059D0000F900F900F900F9088E893E120E233E052
:1059E000F9013197F1F70197D9F780E591E10E942C
:1059F000195A0FEF1FEFCC24DD2466247724A6E884
:105A00002A2E312C2C0E3D1EF6E84F2EF1E05F2E93
:105A10004C0E5D1EF2013496C357DD4FE883F983C7
:105A2000CD58D240CBC00894611C711CF10101908B
:105A30000020E9F7329780818A3009F41082D10181
:105A40008C918A3309F0BAC0C201B1010E945D286D
:105A5000F82EC657DD4F8881CA58D240F81619F182
:105A600000D00F928DE191E1EDB7FEB78183928373
:105A7000638274820E945B5A0F920F92EDB7FEB759
:105A8000319682EF90E1ADB7BEB711968D939C939E
:105A90001297C657DD4F8881CA58D240828313823D
:105AA000F482158282C0D20113962C91139722237F
:105AB00009F053C01196ED90FC9012975701AA0C73
:105AC000AB2CAA1CBB08B194A016B106C1F0CD1432
:105AD00091F01695102F0027179507950C0D111DA5
