:100000000C9434000C9451000C9451000C94510049
:100010000C9451000C9451000C9451000C9451001C
:100020000C9451000C9451000C9451000C9451000C
:100030000C9451000C9451000C9451000C945100FC
:100040000C945C090C9451000C9451000C945100D8
:100050000C9451000C9451000C9451000C945100DC
:100060000C94370B0C94510011241FBECFEFD4E039
:10007000DEBFCDBF11E0A0E0B1E0EEE0FAE102C0EA
:1000800005900D92A231B107D9F714E0A2E1B1E0D9
:1000900001C01D92A63BB107E1F70E9405090C942F
:1000A000050D0C940000DF93CF930F92CDB7DEB710
:1000B00015B888E088B9E091A604F0E0EE5FFE4F45
:1000C00080818BB9809100018130B1F4E091A60468
:1000D000F0E0E258FE4F80818F7385B998B1E091CE
:1000E000A604F0E0E258FE4F8081829586958695C1
:1000F0008370892B88B9AFC0823079F52091A7042D
:10010000213029F0213018F0223079F407C0E09135
:10011000A604F0E0E25AFE4F808106C0E091A604FA
:10012000F0E0E25AFE4F8085898389818F7385B91B
:1001300098B189818295869586958370892B88B937
:100140008091A604882309F086C0822F8F5F809358
:10015000A704833008F47FC07CC02091A7048330BB
:10016000C1F5233049F0243038F0253061F02530D6
:1001700050F02630B1F40EC0E091A604F0E0E25A4F
:10018000FE4F80810DC0E091A604F0E0E25AFE4FE0
:10019000808506C0E091A604F0E0E25AFE4F808917
:1001A000898389818F7385B998B189818295869574
:1001B00086958370892B88B98091A604882309F0DD
:1001C0004AC0822F8F5F8093A704873008F443C012
:1001D00040C0273069F0283058F02B3081F02C30A7
:1001E00070F02D3099F02D3088F02E30E9F415C0E4
:1001F000E091A604F0E0E25AFE4F808114C0E09145
:10020000A604F0E0E25AFE4F80850DC0E091A604FE
:10021000F0E0E25AFE4F808906C0E091A604F0E0CB
:10022000E25AFE4F808D898389818F7385B998B199
:1002300089818295869586958370892B88B980916E
:10024000A604882341F4822F8F5F8093A7048F3008
:1002500010F01092A7048091A6048F5F877080939E
:10026000A6040F90CF91DF910895EEE7F1E0E60F3D
:10027000F11D80830895282F982F80FF04C08FEFF1
:1002800080937E0102C010927E0191FF04C08FEF27
:1002900080937F0102C010927F0192FF04C08FEF14
:1002A0008093800102C01092800193FF04C08FEF01
:1002B0008093810102C01092810194FF04C08FEFEE
:1002C0008093820102C01092820195FF04C08FEFDB
:1002D0008093830102C01092830196FF04C08FEFC8
:1002E0008093840102C01092840127FF04C08FEF25
:1002F0008093850102C01092850181E08093000106
:100300000895FC01808180FF04C08FEF80935E011F
:1003100002C010925E01808181FF04C08FEF809344
:100320005F0102C010925F01808182FF04C08FEFE5
:100330008093600102C010926001808183FF04C03D
:100340008FEF8093610102C010926101808184FF70
:1003500004C08FEF8093620102C01092620180811D
:1003600085FF04C08FEF8093630102C01092630188
:10037000808186FF04C08FEF8093640102C01092D9
:100380006401808187FF04C08FEF8093650102C004
:1003900010926501818180FF04C08FEF8093660118
:1003A00002C010926601818181FF04C08FEF8093AB
:1003B000670102C010926701818182FF04C08FEF44
:1003C0008093680102C010926801818183FF04C09C
:1003D0008FEF8093690102C010926901818184FFCF
:1003E00004C08FEF80936A0102C010926A0181817C
:1003F00085FF04C08FEF80936B0102C010926B01E8
:10040000818186FF04C08FEF80936C0102C010923F
:100410006C01818187FF04C08FEF80936D0102C062
:1004200010926D01828180FF04C08FEF80936E0176
:1004300002C010926E01828181FF04C08FEF809311
:100440006F0102C010926F01828182FF04C08FEFA2
:100450008093700102C010927001828183FF04C0FA
:100460008FEF8093710102C010927101828184FF2D
:1004700004C08FEF8093720102C0109272018281DA
:1004800085FF04C08FEF8093730102C01092730147
:10049000828186FF04C08FEF8093740102C01092A6
:1004A0007401828187FF04C08FEF809375010895E6
:1004B000109275010895FC01808180FF04C08FEFC8
:1004C00080935E0102C010925E01808181FF04C0B2
:1004D0008FEF80935F0102C010925F01808182FFE5
:1004E00004C08FEF8093600102C010926001808190
:1004F00083FF04C08FEF8093610102C010926101FD
:10050000808184FF04C08FEF8093620102C010924B
:100510006201808185FF04C08FEF8093630102C078
:1005200010926301808186FF04C08FEF8093640185
:1005300002C010926401808187FF04C08FEF809316
:10054000650102C010926501818180FF04C08FEFB8
:100550008093660102C010926601818181FF04C010
:100560008FEF8093670102C010926701818182FF43
:1005700004C08FEF8093680102C0109268018181EE
:1005800083FF04C08FEF8093690102C0109269015C
:10059000818184FF04C08FEF80936A0102C01092B2
:1005A0006A01818185FF04C08FEF80936B0102C0D7
:1005B00010926B01818186FF04C08FEF80936C01E4
:1005C00002C010926C01818187FF04C08FEF80937D
:1005D0006D0102C010926D01828180FF04C08FEF17
:1005E00080936E0102C010926E01828181FF04C06F
:1005F0008FEF80936F0102C010926F01828182FFA2
:1006000004C08FEF8093700102C01092700182814C
:1006100083FF04C08FEF8093710102C010927101BB
:10062000828184FF04C08FEF8093720102C0109218
:100630007201828185FF04C08FEF8093730102C035
:1006400010927301828186FF04C08FEF8093740142
:1006500002C010927401828187FF04C08FEF8093E3
:10066000750102C010927501838180FF04C08FEF75
:100670008093760102C010927601838181FF04C0CD
:100680008FEF8093770102C010927701838182FF00
:1006900004C08FEF8093780102C0109278018381AB
:1006A00083FF04C08FEF8093790102C0109279011B
:1006B000838184FF04C08FEF80937A0102C010927F
:1006C0007A01838185FF04C08FEF80937B0102C094
:1006D00010927B01838186FF04C08FEF80937C01A1
:1006E00002C010927C01838187FF04C08FEF80934A
:1006F0007D01089510927D010895FC018081809311
:100700007E01818180937F0182818093800183813A
:10071000809381018481809382018581809383010C
:1007200086818093840187818093850181E0809315
:1007300000010895FC01808180935E018181809396
:100740005F01828180936001838180936101848154
:100750008093620185818093630186818093640127
:100760008781809365018085809366018185809370
:100770006701828580936801838580936901848500
:1007800080936A01858580936B01868580936C01D7
:10079000878580936D010895FC01808180935E01BF
:1007A000818180935F018281809360018381809346
:1007B00061018481809362018581809363018681D8
:1007C00080936401878180936501808580936601B1
:1007D00081858093670182858093680183858093FA
:1007E0006901848580936A01858580936B01868584
:1007F00080936C01878580936D01808980936E0161
:10080000818980936F0182898093700183898093AD
:10081000710184898093720185898093730186892F
:10082000809374018789809375010895FC0180810C
:1008300080935E01818180935F018281809360015A
:10084000838180936101848180936201858180939B
:10085000630186818093640187818093650180852F
:10086000809366018185809367018285809368010A
:10087000838580936901848580936A01858580934F
:100880006B01868580936C01878580936D018089DB
:1008900080936E01818980936F01828980937001BA
:1008A0008389809371018489809372018589809303
:1008B0007301868980937401878980937501808D87
:1008C00080937601818D80937701828D809378016A
:1008D000838D80937901848D80937A01858D8093B7
:1008E0007B01868D80937C01878D80937D010895A7
:1008F000FB01DC01AA57BE4F80818C930895DB0178
:10090000FC01EE0FFF1FE80FF91FEA57FE4F8C9115
:10091000808311968C911197818312968C9182839A
:100920000895CF93DF93DB01880F991F880F991FDC
:10093000E6E8F1E0AF01480F591F2C91EA01288346
:1009400011962C9111972983E80FF91F12968C911B
:100950001297828313968C918B83DF91CF910895A8
:10096000FB0123E0880F991F2A95E1F746E851E043
:10097000BA01680F791F2081DB012C932181119628
:100980002C93DA01A80FB91F228112962C93238190
:10099000DB0113962C93480F591F8481DA011496BA
:1009A0008C938581DB0115968C931597868116961D
:1009B0008C931697878117968C930895DB019C0181
:1009C00054E0220F331F5A95E1F766E871E0260FD5
:1009D000371F4C91F901408311964C911197418337
:1009E000F90112964C911297428313964C911397EA
:1009F000438354E0880F991F5A95E1F7F901149643
:100A00004C911497448315964C91159745831696EF
:100A10004C911697468317964C9117974783680F0A
:100A2000791F18968C911897FB01808719968C91E5
:100A30001997F90181871A968C911A9782871B96CC
:100A40008C911B9783871C968C911C9784871D968D
:100A50008C911D9785871E968C911E978687509640
:100A60008C9187870895DB019C01220F331F280F8B
:100A7000391FC90163E0880F991F6A95E1F766E89D
:100A800071E0860F971F4C91FC01408311964C91A9
:100A900011974183FC0112964C9112974283139651
:100AA0004C9113974383FC0114964C911497448303
:100AB00015964C911597458316964C91169746833B
:100AC00017964C91179747832F5F3F4FE3E0220F14
:100AD000331FEA95E1F7620F731F18962C91189750
:100AE000FB01208319962C911997FC0121871A96F6
:100AF0002C911A9722871B962C911B9723871C9663
:100B00002C911C9724871D962C911D9725871E9646
:100B10002C911E9726871F962C911F9727875096FA
:100B20002C915097208B51962C915197218B529656
:100B30002C915297228B53962C915397238B54963A
:100B40002C915497248B55962C915597258B56961E
:100B50002C915697268B57962C91278B0895DB0165
:100B60009C0165E0220F331F6A95E1F766E871E0AA
:100B7000260F371F4C91F901408311964C91119724
:100B80004183F90112964C911297428313964C912E
:100B900013974383F90114964C9114974483159647
:100BA0004C911597458316964C9116974683179648
:100BB0004C9117974783F5E0880F991FFA95E1F755
:100BC000F90118964C911897408719964C911997EE
:100BD00041871A964C911A9742871B964C911B9706
:100BE00043871C964C911C9744871D964C911D97EA
:100BF00045871E964C911E9746871F964C911F97CE
:100C00004787680F791F50968C915097FB01808B16
:100C100051968C915197F901818B52968C915297F4
:100C2000828B53968C915397838B54968C915497C7
:100C3000848B55968C915597858B56968C915697AB
:100C4000868B57968C915797878B58968C9158978F
:100C5000808F59968C915997818F5A968C915A977B
:100C6000828F5B968C915B97838F5C968C915C975F
:100C7000848F5D968C915D97858F5E968C915E9743
:100C8000868F5F968C91878F0895039665E070E05C
:100C90000E949E0C80E090E024E130E040E050E0D3
:100CA0000E94730C20E030E003C000002F5F3F4F34
:100CB00026173707D0F308950F931F93CF93DF9331
:100CC0008C01C0E0D0E005C088EE93E00E944506AC
:100CD0002196C017D107C0F3DF91CF911F910F91DB
:100CE0000895F8948091600088618093600089E0A5
:100CF000809360000000FECF0F931F93CF93DF938C
:100D0000182F81E090E00E94EF0C80937E0182E03A
:100D100090E00E94EF0C80937F0183E090E00E94BE
:100D2000EF0C8093800184E090E00E94EF0C8093B0
:100D3000810181E090E0811B9109880F991F880F44
:100D4000991FCC27DD27C81BD90BCB5FDF4F02E8EB
:100D500011E0CE010E94EF0CF80181938F012196E2
:100D6000F1E006381F07A9F7DF91CF911F910F918E
:100D70000895CF92DF92EF92FF920F931F93CF933C
:100D8000DF93E090A8048E2D64E60E94920C292F38
:100D9000892F6AE00E94920CC92EDD24822F0E94C6
:100DA000920CC82FD0E0CC0FDD1FCC0FDD1FCF5F22
:100DB000DF4F0EE711E0CE010E94EF0CFF2493E617
:100DC0009E1510F4FF24F3948F29F80181938F016D
:100DD0002196F1E002381F0771F7E601CC0FDD1F05
:100DE000CC0FDD1FCF5FDF4FCE010E94EF0C8F29AC
:100DF000F80181938F012196F1E006381F07A1F7D2
:100E0000DF91CF911F910F91FF90EF90DF90CF90E6
:100E100008950F931F938C010E94EF0C80937E0125
:100E2000C80101960E94EF0C80937F01C8010296D1
:100E30000E94EF0C80938001C80103960E94EF0C82
:100E400080938101C80104960E94EF0C8093820177
:100E5000C80105960E94EF0C80938301C801069695
:100E60000E94EF0C80938401C80107960E94EF0C4A
:100E7000809385011F910F910895FF920F931F9307
:100E8000DF93CF9300D0CDB7DEB7F82E8B0188E08B
:100E9000F81609F463C18F15E0F0A4E0FA1609F41E
:100EA00026C1AF1558F0B2E0FB16A9F1BF1508F442
:100EB0001AC1E1E0FE1609F09CC12BC0F6E0FF1656
:100EC00009F42EC1FE01319686E08F1508F433C176
:100ED00014C1A8E1FA1609F463C1AF1568F0B0E1D6
:100EE000FB1609F44AC1E2E1FE1609F44BC1FAE02F
:100EF000FF1609F07EC136C180E2F81609F460C120
:100F0000A2E2FA1609F463C1BAE1FB1609F071C155
:100F10004CC1FB013AC0DB019C91953F28F4903F06
:100F2000E8F4992341F0B7C09E3F09F48AC09F3F7F
:100F300009F0B1C08BC0FB016181613059F4F894B4
:100F40008091600088618093600089E080936000F8
:100F50000000FECF623009F050C197C0DB0111964E
:100F60008C9189839F709A838091130190910001E5
:100F7000813031F5933069F09430B9F0913009F057
:100F80003CC1E981FA81EA57FE4F80810E943B0112
:100F900034C129813A81C901880F991F820F931F9B
:100FA0008A579E4F0E94810128C189819A81880FAA
:100FB000991F880F991F8A579E4F0E945B021DC17F
:100FC0009230B1F0933020F4913009F016C106C090
:100FD0009330D1F0943009F010C127C089819A81F3
:100FE00063E0880F991F6A95E1F78A579E4FB7C053
:100FF00089819A8154E0880F991F5A95E1F78A57A1
:101000009E4F0E949A03F9C029813A81C901880F35
:10101000991F820F931F23E0880F991F2A95E1F7EC
:101020008A579E4F0E94CC03E8C089819A8105E0CF
:10103000880F991F0A95E1F78A579E4F0E94160460
:10104000DCC0FB0181810E947C06D7C08091010138
:101050008823F1F00E94700C882321F08091A8046D
:10106000882321F00E94700C882391F4D8011196F6
:101070006C916093A80480E090E00E94F70C80914E
:10108000A804880F61E00E941A0A0E94B906B5C040
:1010900081E390E0B0C09051F8018181682F70E049
:1010A0007A836983E92FF0E09230D0F4DF01AA0F50
:1010B000BB1FFD01E65FFE4F8081918168177907B4
:1010C00078F4A25FBE4F8D919C91680F791FA3E0C9
:1010D000660F771FAA95E1F7CB018F589F4F8BC002
:1010E00089E390E088C0CB010E9481015CC0CB0104
:1010F0000E945B02F092000180C0DB0111968C918E
:101100001197898312968C9112978183E981FA81D4
:10111000EA57FE4F8C91808381E0809300011BC0D1
:10112000FB018381898384818A8389819A810E94DA
:101130007F0483E00DC0DB0114968C9114978983A2
:1011400015968C91818389819A810E94910484E013
:101150008093000181E0809313014FC0CB010E9476
:101160007D034BC0FB018085898381858A838981CA
:101170009A810E94B00481E037C0CB010E949A039B
:1011800082E022C0DB0150968C9150978983519662
:101190008C918A8389819A810E94DE0482E024C036
:1011A000CB010E94CC0383E00FC0FB01808D8983BB
:1011B000818D8A8389819A810E94330583E014C0DE
:1011C000CB010E94160484E08093000116C0DB016D
:1011D00090968C919097898391968C918A8389813E
:1011E0009A810E94AF0584E0809300011092130160
:1011F00004C081E490E00E9409070F900F90CF9106
:10120000DF911F910F91FF90089580E090E00E9480
:10121000EF0C8093A8048FE384B9389A399A8FEF42
:101220008AB93B9A439A84B7877F84BF80916000D4
:101230008861809360001092600085E08093A6042E
:101240001092A70481E0809300010E94500983E579
:1012500090E042E050E060E070E021E00E94C009D0
:101260000E94B9060E94FC0980E991E00E94D7091A
:101270008091A804880F61E00E941A0A8DE397E02C
:101280000E94220A80E991E00E945C06109201010E
:10129000E6E8F1E0119284E0E63AF807D9F7FFCFEB
:1012A000F8941092AC0481E085BDEEE6F0E0808118
:1012B00081608083789408951F920F920FB60F92E9
:1012C00011242F933F934F935F936F937F938F934B
:1012D0009F93AF93BF93EF93FF9380916E008E7FA8
:1012E00080936E008091AC04813099F48091B104B8
:1012F0009091B204A091B304B091B4040197A109F4
:10130000B1098093B1049093B204A093B304B09355
:10131000B4048091B1049091B204A091B304B0914F
:10132000B4040097A105B105A9F48091AD04909192
:10133000AE04A091AF04B091B0048093B104909337
:10134000B204A093B304B093B404E091AA04F09162
:10135000AB04099580916E00816080936E00FF91CF
:10136000EF91BF91AF919F918F917F916F915F911D
:101370004F913F912F910F900FBE0F901F90189596
:101380009093AB048093AA044093AD045093AE04B1
:101390006093AF047093B0044093B1045093B204CF
:1013A0006093B3047093B4042093AC040895209127
:1013B000B9002E7F2093B9002091B9002D7F209392
:1013C000B9009C0140E050E060E27EE480E090E003
:1013D0000E94B20C2051304040405040CA01B90137
:1013E00022E030E040E050E00E94B20C2A3008F4E5
:1013F0002AE02093B800089581E08093B50410920C
:101400005B0110925A0110925D0110925C0184E61A
:1014100090E00E94D709ECEBF0E08081846080834B
:101420001092140180818160808380818064808338
:101430007894089590E0611191E08E7F982B9093BD
:10144000BA00089590935B0180935A010895909398
:101450005D0180935C010895ECEBF0E080818F707A
:10146000806A80830895ECEBF0E080818F70806D5E
:10147000808308958091BC0087FFFCCF08958093FE
:10148000BB00ECEBF0E080818F7080688083089572
:10149000882329F08091BC008F70806C04C08091FB
:1014A000BC008F7080688093BC0008958091BB0061
:1014B00008958091B9000895982F80911401882390
:1014C000E1F782E0809314019E7F90931501A6E1DD
:1014D000B1E0FA0102C081918D938E2F841B861793
:1014E000D0F310923601609337018091BC008F7069
:1014F000806A8093BC000895982F809114018823FE
:10150000E1F783E0809314019160909315011092AC
:101510005801609359018091BC008F70806A80935C
:10152000BC00809114018823E1F7A8E3B1E0FA013F
:1015300002C08D9181938E2F841B8617D0F308955E
:10154000982FFA018091BC008E7F8093BC0080911F
:10155000BC008F70806A8093BC008091BC0087FFC4
:10156000FCCF9E7F9093BB008091BC008F70806801
:101570008093BC008091BC0087FFFCCF8091B900B4
:10158000883189F091E012C080818093BB00809106
:10159000BC008F7080688093BC008091BC0087FF86
:1015A000FCCF31966150662379F790E08091BC00C2
:1015B0008F70806D8093BC008091BC0084FFFCCF55
:1015C0008091BC0081608093BC00892F08951F9397
:1015D000CF93DF93982F162FEA018091BC008E7F66
:1015E0008093BC008091BC008F70806A8093BC00A7
:1015F0008091BC0087FFFCCF91609093BB008091ED
:10160000BC008F7080688093BC008091BC0087FF15
:10161000FCCF8091B900803469F091E018C081E07E
:101620000E94480A8091BC0087FFFCCF8091BB00DC
:1016300089931150123098F780E00E94480A8091F7
:10164000BC0087FFFCCF8091BB00888390E0809135
:10165000BC008F70806D8093BC008091BC00816065
:101660008093BC00892FDF91CF911F9108951F9225
:101670000F920FB60F9211242F933F934F935F93C6
:101680006F937F938F939F93AF93BF93EF93FF934A
:101690008091B900887F803609F49FC0813670F54B
:1016A000883209F45FC0893298F4803109F457C058
:1016B000813138F4882309F4F7C0883009F0FCC080
:1016C0004EC0883109F44EC0803209F0F5C0ECC03C
:1016D000803409F477C0813438F4803309F4E4C0ED
:1016E000883309F0E9C05DC0803509F45FC08835F2
:1016F00009F44AC0883409F0DFC0D6C0883909F43B
:1017000084C08939B0F4883709F467C0893738F460
:10171000883609F462C0803709F0CEC05EC08838D0
:1017200009F473C0803909F460C0803809F0C4C07E
:101730005AC0803B09F486C0813B38F4803A09F4F2
:101740006AC0883A09F0B8C07DC0803C09F4A7C0DF
:10175000883C09F4A4C0883B09F0AEC084C08091E5
:1017600015010FC09091360180913701981708F04C
:101770009BC0E92FF0E0EA5EFE4F80819F5F90936F
:1017800036018093BB0084C0809158019091BB00CA
:10179000E82FF0E0E85CFE4F90838F5F8093580164
:1017A00083C08091BC008F70806882C08091580196
:1017B0009091BB00E82FF0E0E85CFE4F90838F5FD4
:1017C000809358012091580130E08091590190E0B8
:1017D000019728173907DCF416C085E080931401BF
:1017E0001092580150C01092B50480915801909108
:1017F000BB00E82FF0E0E85CFE4F90838F5F8093A2
:101800005801803220F481E003C01092B50480E0DA
:101810000E94480A51C08091BC008F70806C8093F8
:10182000BC00E0915A01F0915B01309729F0809162
:10183000580168E371E009951092140181E08093EA
:10184000B5043AC084E080931401E0915C01F0910A
:101850005D01309731F080E266E171E00995809397
:1018600037011092360190913601E92FF0E0EA5EDF
:10187000FE4F80818093BB009F5F909336018091E3
:101880003701981728F48091BC008F70806C04C0D9
:101890008091BC008F7080688093BC000DC08091E7
:1018A000BC008F70806C04C08091BC008F70806D14
:1018B0008093BC0010921401FF91EF91BF91AF9102
:1018C0009F918F917F916F915F914F913F912F9158
:1018D0000F900FBE0F901F901895809114010895DE
:1018E0008091B5040895629FD001739FF001829F9B
:1018F000E00DF11D649FE00DF11D929FF00D839F9F
:10190000F00D749FF00D659FF00D9927729FB00D3B
:10191000E11DF91F639FB00DE11DF91FBD01CF014E
:1019200011240895991B79E004C0991F961708F0B7
:10193000961B881F7A95C9F780950895AA1BBB1B33
:1019400051E107C0AA1FBB1FA617B70710F0A61BBF
:10195000B70B881F991F5A95A9F780959095BC01E0
:10196000CD01089597FB092E05260ED057FD04D012
:1019700014D00AD0001C38F450954095309521952C
:101980003F4F4F4F5F4F0895F6F7909580957095B4
:1019900061957F4F8F4F9F4F0895A1E21A2EAA1B8A
:1019A000BB1BFD010DC0AA1FBB1FEE1FFF1FA2170F
:1019B000B307E407F50720F0A21BB30BE40BF50B0C
:1019C000661F771F881F991F1A9469F76095709595
:1019D000809590959B01AC01BD01CF010895F999C7
:1019E000FECF92BD81BDF89A992780B50895262F24
:1019F000F999FECF1FBA92BD81BD20BD0FB6F894F4
:0E1A0000FA9AF99A0FBE01960895F894FFCF56
:101A0E0001010102040810204080040008000000BB
:021A1E000400C2
:00000001FF
