:100000000C9434000C9451000C9451000C94510049
:100010000C9451000C9451000C9451000C9451001C
:100020000C9451000C9451000C9451000C9451000C
:100030000C9451000C9451000C9451000C945100FC
:100040000C9478060C9451000C9451000C945100BF
:100050000C9451000C9451000C9451000C945100DC
:100060000C9453080C94510011241FBECFEFD4E020
:10007000DEBFCDBF11E0A0E0B1E0E6E4F4E102C0F4
:1000800005900D92A231B107D9F714E0A2E1B1E0D9
:1000900001C01D92A53BB107E1F70E9410060C9428
:1000A000210A0C940000DF93CF930F92CDB7DEB7F7
:1000B00015B888E088B9E091A504F0E0EE5FFE4F46
:1000C00080818BB920910001213081F4E091A50459
:1000D000F0E0E358FE4F80818F7385B998B1E091CD
:1000E000A504F0E0E358FE4F80814AC0233049F474
:1000F0008091A604813019F1813008F18230D9F560
:1001000025C08091A604273059F48330C1F0843093
:10011000B0F08530D9F08530C8F0863061F51DC06B
:10012000873069F0883058F08B3081F08C3070F077
:100130008D3099F08D3088F08E30E9F415C0E09163
:10014000A504F0E0E35AFE4F808114C0E091A504BD
:10015000F0E0E35AFE4F80850DC0E091A504F0E089
:10016000E35AFE4F808906C0E091A504F0E0E35A0F
:10017000FE4F808D898389818F7385B998B189817C
:100180008295869586958370892B88B98091A50480
:10019000882349F48091A6048F5F8093A604821778
:1001A00010F01092A6048091A5048F5F8770809351
:1001B000A5040F90CF91DF910895EDE7F1E0E60FF0
:1001C000F11D80830895282F982F80FF04C08FEFA2
:1001D00080937D0102C010927D0191FF04C08FEFDA
:1001E00080937E0102C010927E0192FF04C08FEFC7
:1001F00080937F0102C010927F0193FF04C08FEFB4
:100200008093800102C01092800194FF04C08FEFA0
:100210008093810102C01092810195FF04C08FEF8D
:100220008093820102C01092820196FF04C08FEF7A
:100230008093830102C01092830127FF04C08FEFD7
:100240008093840102C01092840181E080930001B8
:100250000895FC01808180FF04C08FEF80935D01D1
:1002600002C010925D01808181FF04C08FEF8093F6
:100270005E0102C010925E01808182FF04C08FEF98
:1002800080935F0102C010925F01808183FF04C0F0
:100290008FEF8093600102C010926001808184FF23
:1002A00004C08FEF8093610102C0109261018081D0
:1002B00085FF04C08FEF8093620102C0109262013B
:1002C000808186FF04C08FEF8093630102C010928B
:1002D0006301808187FF04C08FEF8093640102C0B7
:1002E00010926401818180FF04C08FEF80936501CB
:1002F00002C010926501818181FF04C08FEF80935D
:10030000660102C010926601818182FF04C08FEFF6
:100310008093670102C010926701818183FF04C04E
:100320008FEF8093680102C010926801818184FF81
:1003300004C08FEF8093690102C01092690181812E
:1003400085FF04C08FEF80936A0102C010926A019A
:10035000818186FF04C08FEF80936B0102C01092F1
:100360006B01818187FF04C08FEF80936C0102C015
:1003700010926C01828180FF04C08FEF80936D0129
:1003800002C010926D01828181FF04C08FEF8093C3
:100390006E0102C010926E01828182FF04C08FEF55
:1003A00080936F0102C010926F01828183FF04C0AD
:1003B0008FEF8093700102C010927001828184FFE0
:1003C00004C08FEF8093710102C01092710182818D
:1003D00085FF04C08FEF8093720102C010927201FA
:1003E000828186FF04C08FEF8093730102C0109258
:1003F0007301828187FF04C08FEF80937401089599
:10040000109274010895FC01808180FF04C08FEF79
:1004100080935D0102C010925D01808181FF04C064
:100420008FEF80935E0102C010925E01808182FF97
:1004300004C08FEF80935F0102C010925F01808142
:1004400083FF04C08FEF8093600102C010926001AF
:10045000808184FF04C08FEF8093610102C01092FD
:100460006101808185FF04C08FEF8093620102C02B
:1004700010926201808186FF04C08FEF8093630138
:1004800002C010926301808187FF04C08FEF8093C8
:10049000640102C010926401818180FF04C08FEF6B
:1004A0008093650102C010926501818181FF04C0C3
:1004B0008FEF8093660102C010926601818182FFF6
:1004C00004C08FEF8093670102C0109267018181A1
:1004D00083FF04C08FEF8093680102C0109268010F
:1004E000818184FF04C08FEF8093690102C0109264
:1004F0006901818185FF04C08FEF80936A0102C08A
:1005000010926A01818186FF04C08FEF80936B0196
:1005100002C010926B01818187FF04C08FEF80932E
:100520006C0102C010926C01828180FF04C08FEFC9
:1005300080936D0102C010926D01828181FF04C021
:100540008FEF80936E0102C010926E01828182FF54
:1005500004C08FEF80936F0102C010926F018281FF
:1005600083FF04C08FEF8093700102C0109270016E
:10057000828184FF04C08FEF8093710102C01092CA
:100580007101828185FF04C08FEF8093720102C0E8
:1005900010927201828186FF04C08FEF80937301F5
:1005A00002C010927301828187FF04C08FEF809395
:1005B000740102C010927401838180FF04C08FEF28
:1005C0008093750102C010927501838181FF04C080
:1005D0008FEF8093760102C010927601838182FFB3
:1005E00004C08FEF8093770102C01092770183815E
:1005F00083FF04C08FEF8093780102C010927801CE
:10060000838184FF04C08FEF8093790102C0109230
:100610007901838185FF04C08FEF80937A0102C046
:1006200010927A01838186FF04C08FEF80937B0153
:1006300002C010927B01838187FF04C08FEF8093FB
:100640007C01089510927C010895FC0180818093C3
:100650007D01818180937E01828180937F018381EE
:1006600080938001848180938101858180938201C0
:1006700086818093830187818093840181E08093C8
:1006800000010895FC01808180935D018181809348
:100690005E01828180935F01838180936001848108
:1006A00080936101858180936201868180936301DB
:1006B0008781809364018085809365018185809323
:1006C00066018285809367018385809368018485B4
:1006D00080936901858580936A01868580936B018B
:1006E000878580936C010895FC01808180935D0172
:1006F000818180935E01828180935F0183818093F9
:10070000600184818093610185818093620186818B
:100710008093630187818093640180858093650164
:1007200081858093660182858093670183858093AC
:100730006801848580936901858580936A01868537
:1007400080936B01878580936C01808980936D0114
:10075000818980936E01828980936F018389809360
:1007600070018489809371018589809372018689E3
:10077000809373018789809374010895FC018081BF
:1007800080935D01818180935E01828180935F010E
:10079000838180936001848180936101858180934E
:1007A00062018681809363018781809364018085E3
:1007B00080936501818580936601828580936701BE
:1007C0008385809368018485809369018585809302
:1007D0006A01868580936B01878580936C0180898F
:1007E00080936D01818980936E01828980936F016E
:1007F00083898093700184898093710185898093B6
:100800007201868980937301878980937401808D3A
:1008100080937501818D80937601828D809377011D
:10082000838D80937801848D80937901858D809369
:100830007A01868D80937B01878D80937C0108955A
:10084000FB0190E045E851E063E0880F991F6A954D
:10085000E1F7BA01680F791F2081DB012C93218118
:1008600011962C93DA01A80FB91F228112962C93AE
:100870002381DB0113962C93480F591F8481DA01E1
:1008800014968C938581DB0115968C931597868140
:1008900016968C931697878117968C9308950396D6
:1008A00065E070E00E94BA0980E090E024E130E069
:1008B00040E050E00E948F0920E030E003C00000DB
:1008C0002F5F3F4F26173707D0F308950F931F93DD
:1008D000CF93DF938C01C0E0D0E005C088EE93E0B9
:1008E0000E944F042196C017D107C0F3DF91CF912A
:1008F0001F910F910895F894809160008861809312
:10090000600089E0809360000000FECF0F931F938A
:10091000CF93DF93182F81E090E00E940B0A809321
:100920007D0182E090E00E940B0A80937E0183E0CB
:1009300090E00E940B0A80937F0184E090E00E9487
:100940000B0A8093800181E090E0811B9109880F60
:10095000991F880F991FCC27DD27C81BD90BCB5FA8
:10096000DF4F01E811E0CE010E940B0AF8018193EC
:100970008F012196F1E005381F07A9F7DF91CF918C
:100980001F910F910895CF92DF92EF92FF920F93F4
:100990001F93CF93DF93E090A7048E2D64E60E940F
:1009A000AE09292F892F6AE00E94AE09C92EDD24E5
:1009B000822F0E94AE09C82FD0E0CC0FDD1FCC0FD4
:1009C000DD1FCF5FDF4F0DE711E0CE010E940B0A64
:1009D000FF2493E69E1510F4FF24F3948F29F80169
:1009E00081938F012196F1E001381F0771F7E6012D
:1009F000CC0FDD1FCC0FDD1FCF5FDF4FCE010E947C
:100A00000B0A8F29F80181938F012196F1E00538B7
:100A10001F07A1F7DF91CF911F910F91FF90EF90EA
:100A2000DF90CF9008950F931F938C010E940B0AC3
:100A300080937D01C80101960E940B0A80937E017C
:100A4000C80102960E940B0A80937F01C801039699
:100A50000E940B0A80938001C80104960E940B0A31
:100A600080938101C80105960E940B0A8093820140
:100A7000C80106960E940B0A80938301C80107965D
:100A80000E940B0A809384011F910F910895CF93C8
:100A9000DF93EB01883009F4A3C0893078F4823009
:100AA00009F1833020F4813009F0B3C017C08330DE
:100AB00009F48EC0843009F0ACC08EC0803109F4D6
:100AC00097C0813120F4893009F0A3C08DC08831EE
:100AD00009F493C0803209F09CC094C088810E94C0
:100AE000E3009BC09881903FE9F0913F18F499236F
:100AF00039F049C09E3F01F19F3F09F044C020C03A
:100B00006981613059F4F894809160008861809324
:100B1000600089E0809360000000FECF623009F041
:100B20007CC02BC0898190E023E0880F991F2A9513
:100B3000E1F78B579E4F55C089810E9486046DC096
:100B4000809101018823E1F00E948C09882321F023
:100B50008091A704882321F00E948C09882381F4C6
:100B600069816093A70480E090E00E94130A80915D
:100B7000A704880F6FEF0E9436070E94C3044DC080
:100B800081E390E048C090518981682F70E0E92F9F
:100B9000F0E09230D0F4DF01AA0FBB1FFD01E65F49
:100BA000FE4F808191816817790778F4A25FBE4F6C
:100BB0008D919C91680F791FA3E0660F771FAA950E
:100BC000E1F7CB018F589F4F26C089E390E023C007
:100BD000CB010E94290114C0CB010E94030215C061
:100BE000CB010E94250319C088850E94200415C0EE
:100BF000CB010E94420383E009C0CB010E94740331
:100C000087E004C0CB010E94BE038FE08093000107
:100C100004C081E490E00E941305DF91CF91089514
:100C200080E090E00E940B0A8093A7048FE384B9D0
:100C3000389A399A8FEF8AB93B9A439A84B7877F5B
:100C400084BF809160008861809360001092600092
:100C500085E08093A5041092A60481E080930001B2
:100C60000E946C0683E590E042E050E060E070E0B6
:100C700021E00E94DC060E94C3040E94180780E95C
:100C800091E00E94F3068091A704880F6FEF0E9405
:100C9000360787E495E00E943E0780E991E00E94D4
:100CA00066041092010120E030E00AC01192019622
:100CB00088309105D9F72F5F3F4F2436310559F021
:100CC000F90143E0EE0FFF1F4A95E1F7EB57FE4FA6
:100CD00080E090E0EBCFFFCFF8941092AB0481E07E
:100CE00085BDEEE6F0E08081816080837894089590
:100CF0001F920F920FB60F9211242F933F934F9391
:100D00005F936F937F938F939F93AF93BF93EF9373
:100D1000FF9380916E008E7F80936E008091AB0474
:100D2000813099F48091B0049091B104A091B20403
:100D3000B091B3040197A109B1098093B0049093D5
:100D4000B104A093B204B093B3048091B004909125
:100D5000B104A091B204B091B3040097A105B1050C
:100D6000A9F48091AC049091AD04A091AE04B0912F
:100D7000AF048093B0049093B104A093B204B093F5
:100D8000B304E091A904F091AA04099580916E0042
:100D9000816080936E00FF91EF91BF91AF919F9121
:100DA0008F917F916F915F914F913F912F910F9014
:100DB0000FBE0F901F9018959093AA048093A904DA
:100DC0004093AC045093AD046093AE047093AF04B1
:100DD0004093B0045093B1046093B2047093B30491
:100DE0002093AB0408952091B9002E7F2093B90081
:100DF0002091B9002D7F2093B9009C0140E050E084
:100E000060E27EE480E090E00E94CE092051304014
:100E100040405040CA01B90122E030E040E050E0DB
:100E20000E94CE092A3008F42AE02093B8000895E1
:100E300081E08093B40410925A01109259011092EB
:100E40005C0110925B0184E690E00E94F306ECEBFB
:100E5000F0E0808184608083109213018081816042
:100E600080838081806480837894089590E061110C
:100E700091E08E7F982B9093BA00089590935A0139
:100E800080935901089590935C0180935B010895CC
:100E9000ECEBF0E080818F70806A80830895ECEB4A
:100EA000F0E080818F70806D808308958091BC0018
:100EB00087FFFCCF08958093BB00ECEBF0E08081CE
:100EC0008F70806880830895882329F08091BC000A
:100ED0008F70806C04C08091BC008F70806880939C
:100EE000BC0008958091BB0008958091B9000895D9
:100EF000982F809113018823E1F782E080931301FA
:100F00009E7F90931401A5E1B1E0FA0102C08191A6
:100F10008D938E2F841B8617D0F31092350160932A
:100F200036018091BC008F70806A8093BC00089568
:100F3000982F809113018823E1F783E080931301B8
:100F40009160909314011092570160935801809121
:100F5000BC008F70806A8093BC008091130188234D
:100F6000E1F7A7E3B1E0FA0102C08D9181938E2FE2
:100F7000841B8617D0F30895982FFA018091BC0046
:100F80008E7F8093BC008091BC008F70806A8093BC
:100F9000BC008091BC0087FFFCCF9E7F9093BB007C
:100FA0008091BC008F7080688093BC008091BC00F1
:100FB00087FFFCCF8091B900883189F091E012C0A1
:100FC00080818093BB008091BC008F70806880938B
:100FD000BC008091BC0087FFFCCF31966150662336
:100FE00079F790E08091BC008F70806D8093BC0099
:100FF0008091BC0084FFFCCF8091BC008160809315
:10100000BC00892F08951F93CF93DF93982F162F3D
:10101000EA018091BC008E7F8093BC008091BC006F
:101020008F70806A8093BC008091BC0087FFFCCFEA
:1010300091609093BB008091BC008F70806880931A
:10104000BC008091BC0087FFFCCF8091B900803448
:1010500069F091E018C08FEF0E9464078091BC0096
:1010600087FFFCCF8091BB0089931150123098F715
:1010700080E00E9464078091BC0087FFFCCF8091D4
:10108000BB00888390E08091BC008F70806D80935E
:10109000BC008091BC0081608093BC00892FDF91EF
:1010A000CF911F9108951F920F920FB60F921124A6
:1010B0002F933F934F935F936F937F938F939F9360
:1010C000AF93BF93EF93FF938091B900887F8036F1
:1010D00009F49FC0813670F5883209F45FC0893207
:1010E00098F4803109F457C0813138F4882309F429
:1010F000F7C0883009F0FCC04EC0883109F44EC0FA
:10110000803209F0F5C0ECC0803409F477C0813436
:1011100038F4803309F4E4C0883309F0E9C05DC0D5
:10112000803509F45FC0883509F44AC0883409F075
:10113000DFC0D6C0883909F484C08939B0F4883753
:1011400009F467C0893738F4883609F462C08037FB
:1011500009F0CEC05EC0883809F473C0803909F444
:1011600060C0803809F0C4C05AC0803B09F486C012
:10117000813B38F4803A09F46AC0883A09F0B8C073
:101180007DC0803C09F4A7C0883C09F4A4C0883B1A
:1011900009F0AEC084C0809114010FC09091350158
:1011A00080913601981708F09BC0E92FF0E0EB5EC4
:1011B000FE4F80819F5F909335018093BB0084C078
:1011C000809157019091BB00E82FF0E0E95CFE4F61
:1011D00090838F5F8093570183C08091BC008F7094
:1011E000806882C0809157019091BB00E82FF0E0A9
:1011F000E95CFE4F90838F5F8093570120915701E8
:1012000030E08091580190E0019728173907DCF40D
:1012100016C085E0809313011092570150C01092C0
:10122000B404809157019091BB00E82FF0E0E95C95
:10123000FE4F90838F5F80935701803220F48FEFB1
:1012400003C01092B40480E00E94640751C08091F2
:10125000BC008F70806C8093BC00E0915901F091CC
:101260005A01309729F08091570167E371E00995A1
:101270001092130181E08093B4043AC084E080931B
:101280001301E0915B01F0915C01309731F080E255
:1012900065E171E0099580933601109235019091D6
:1012A0003501E92FF0E0EB5EFE4F80818093BB00BB
:1012B0009F5F9093350180913601981728F48091B3
:1012C000BC008F70806C04C08091BC008F708068FF
:1012D0008093BC000DC08091BC008F70806C04C0F6
:1012E0008091BC008F70806D8093BC0010921301C0
:1012F000FF91EF91BF91AF919F918F917F916F91EE
:101300005F914F913F912F910F900FBE0F901F90C3
:1013100018958091130108958091B4040895629FF7
:10132000D001739FF001829FE00DF11D649FE00DDD
:10133000F11D929FF00D839FF00D749FF00D659F3E
:10134000F00D9927729FB00DE11DF91F639FB00D3D
:10135000E11DF91FBD01CF0111240895991B79E00A
:1013600004C0991F961708F0961B881F7A95C9F735
:1013700080950895AA1BBB1B51E107C0AA1FBB1F84
:10138000A617B70710F0A61BB70B881F991F5A9511
:10139000A9F780959095BC01CD01089597FB092E82
:1013A00005260ED057FD04D014D00AD0001C38F406
:1013B00050954095309521953F4F4F4F5F4F089581
:1013C000F6F790958095709561957F4F8F4F9F4F61
:1013D0000895A1E21A2EAA1BBB1BFD010DC0AA1F76
:1013E000BB1FEE1FFF1FA217B307E407F50720F08E
:1013F000A21BB30BE40BF50B661F771F881F991F09
:101400001A9469F760957095809590959B01AC0151
:10141000BD01CF010895F999FECF92BD81BDF89A23
:10142000992780B50895262FF999FECF1FBA92BD4E
:1014300081BD20BD0FB6F894FA9AF99A0FBE0196B5
:061440000895F894FFCFAF
:101446000101010204081020408004000800000089
:02145600040090
:103800000C94341C0C94511C0C94511C0C94511CA1
:103810000C94511C0C94511C0C94511C0C94511C74
:103820000C94511C0C94511C0C94511C0C94511C64
:103830000C94511C0C94511C0C94511C0C94511C54
:103840000C94511C0C94511C0C94511C0C94511C44
:103850000C94511C0C94511C0C94511C0C94511C34
:103860000C94511C0C94511C11241FBECFEFD4E0BA
:10387000DEBFCDBF11E0A6E0B1E001C01D92A831CE
:10388000B107E1F711E0A0E0B1E0EAE6FFE302C032
:1038900005900D92A630B107D9F70E949B1D0C949C
:1038A000B31F0C94001C1F93CF93DF93EC01AB016B
:1038B000888180931301853431F4E0910601F09101
:1038C00007010995BFC0853681F4E0E0F0E083E0B0
:1038D00080935700E89507B600FCFDCFE058FF4FF6
:1038E00098E3E030F907A1F7ADC08736F9F41092FC
:1038F00009011092080180E88093110186E4809309
:103900001201653071050CF49DC0998180E02A8117
:1039100030E0822B932B90930901809308018B81D7
:10392000809311018C81809312018CC0823409F044
:1039300089C0998180E02A81A22FB0E0A82BB92B01
:10394000B0930901A09308018B81809311012C8110
:1039500020931201253489F59B012450304090E0DA
:103960008217930714F0609311018091110190E088
:10397000059645E050E01DC02091080130910901F5
:10398000FE01E40FF51FE081F999FECF1FBA32BDA9
:1039900021BDE0BD0FB6F894FA9AF99A0FBEF999D5
:1039A000FECF2F5F3F4F30930901209308014F5FF7
:1039B0005F4F4817590700F345C0263409F042C04D
:1039C000682F70E0660F771FCB0104968417950768
:1039D0000CF038C0CD018F779070860F971F81381B
:1039E000910580F5E8E3A030BE0760F540E050E0C7
:1039F00011E010C0FA01EA0FFB1F3C8120E08B812F
:103A000090E0822B932B0C0110935700E895112422
:103A10004E5F5F4F22964617570760F383E0FD0124
:103A200080935700E89507B600FCFDCF85E0FD01C7
:103A300080935700E89507B600FCFDCF81E18093A5
:103A40005700E895DF91CF911F9108958091130160
:103A5000873609F04BC080911201853401F58091C1
:103A6000110180930E0120E015C080910801909112
:103A7000090181BD92BD01969093090180930801CF
:103A8000F89A80B5E0910F01F0911001E20FF11D5D
:103A900080832F5F80911101281738F308958634B1
:103AA000A9F580911101880F80930E0140E013C0A9
:103AB000A0910F01B0911001A20FB31FE091080176
:103AC000F09109013196F0930901E09308013197D3
:103AD000E491EC934F5F242F30E08091110190E04E
:103AE000880F991F281739071CF3089580E090E08C
:103AF000E0910F01F0911001E80FF91F808301960A
:103B000085389105A9F785E880930E0108958823EB
:103B100011F084EC01C084E88093BC00089584ED2A
:103B20008093BC008091BC0084FDFCCF089584ECA0
:103B30008093BC000895EF92FF920F931F9384B778
:103B4000877F84BF809160008861809360001092BD
:103B5000600081E18093B80080EE8093BA0084EC2D
:103B60008093BC0085E890E061E070E00E948B1ECD
:103B700080930F019093100185E890E061E070E080
:103B80000E948B1E80930A0190930B0170E8E72E30
:103B900074E8F72E7EE1072F112D0FC0E114F10418
:103BA0000105110529F4E0910601F091070109953D
:103BB0000894E108F108010911098091BC0087FF10
:103BC000EDCF04E814ECEE24E39464EDF62E80913E
:103BD000BC0087FFFCCF8091B90090E0887F907097
:103BE0008039910509F44AC081399105ECF4803798
:103BF000910509F440C08137910554F48036910550
:103C0000D1F188369105B9F1892B09F47AC080C0C9
:103C10008038910599F18838910509F46FC088378B
:103C2000910509F075C027C0803B910509F443C098
:103C3000813B91055CF4803A910589F1883A9105C0
:103C4000D1F18839910509F063C058C0803C9105D5
:103C500009F45EC0813C91052CF4883B910509F084
:103C600057C03AC0883C910509F452C0883F91057D
:103C700009F04EC0ACCF10920D014AC090910D01D9
:103C80009538E0F58091BB00E0910A01F0910B01BD
:103C9000E90FF11D80839F5F90930D0139C0109350
:103CA000BC0060910D0180910A0190910B0170E0C0
:103CB0000E94531C8CCF10920C0110920E010E9496
:103CC000261D80910E01882339F4E0920E01E091C7
:103CD0000F01F0911001108290910C01E0910F0101
:103CE000F0911001E90FF11D80818093BB009F5F6F
:103CF00090930C0180910E01981750F00093BC0036
:103D000066CFF092BC008091BC0084FDFCCF5FCFF9
:103D10001093BC005CCF0F931F93CF93DF93689FEA
:103D20008001699F100D789F100D1124C8010E9419
:103D3000A71EEC01009729F060E070E0A8010E9446
:103D4000AC1FCE01DF91CF911F910F910895CF93BA
:103D5000DF93BC018230910510F462E070E0A09125
:103D60001601B0911701ED01E0E0F0E040E050E015
:103D700021C0888199818617970769F48A819B8180
:103D8000309719F09383828304C090931701809336
:103D90001601FE0134C06817790738F44115510542
:103DA00019F08417950708F4AC01FE018A819B8104
:103DB0009C01E9012097E9F641155105A9F1CA01D5
:103DC000861B970B049708F4BA01E0E0F0E02AC0E4
:103DD0008D919C91119784179507F9F464177507D5
:103DE00081F412968D919C911397309719F09383DB
:103DF000828304C09093170180931601FD013296CF
:103E00004FC0CA01861B970BFD01E80FF91F619394
:103E1000719302978D939C9343C0FD01828193819E
:103E20009C01D9011097A1F6809114019091150180
:103E3000892B41F480910201909103019093150127
:103E400080931401409104015091050141155105E1
:103E500041F44DB75EB78091000190910101481B7C
:103E6000590B209114013091150124173507B0F436
:103E7000CA01821B930B8617970780F0AB014E5F38
:103E80005F4F8417950750F0420F531F5093150151
:103E900040931401F9016193719302C0E0E0F0E0F6
:103EA000CF01DF91CF910895CF93DF93009709F46D
:103EB00050C0EC0122971B821A82A0911601B0918A
:103EC0001701109709F140E050E0AC17BD0708F169
:103ED000BB83AA83FE0121913191E20FF31FAE173C
:103EE000BF0779F48D919C911197280F391F2E5F90
:103EF0003F4F3983288312968D919C9113979B8312
:103F00008A834115510571F4D0931701C0931601AE
:103F100020C012968D919C911397AD01009711F0DE
:103F2000DC01D3CFFA01D383C28321913191E20F17
:103F3000F31FCE17DF0769F488819981280F391F95
:103F40002E5F3F4FFA01318320838A819B819383C7
:103F50008283DF91CF910895DC0101C06D934150C0
:0A3F60005040E0F70895F894FFCFF9
:063F6A0020001801000018
:0400000300003800C1
:00000001FF
