:100000000C9434000C9451000C9451000C94510049
:100010000C9451000C9451000C9451000C9451001C
:100020000C9451000C9451000C9451000C9451000C
:100030000C9451000C9451000C9451000C945100FC
:100040000C9485060C9451000C9451000C945100B2
:100050000C9451000C9451000C9451000C945100DC
:100060000C945F080C94510011241FBECFEFD4E014
:10007000DEBFCDBF11E0A0E0B1E0EEE2F4E102C0EE
:1000800005900D92A231B107D9F714E0A2E1B1E0D9
:1000900001C01D92A53BB107E1F70E9419060C941F
:1000A000150A0C940000DF93CF930F92CDB7DEB703
:1000B00015B888E088B9E091A504F0E0EE5FFE4F46
:1000C00080818BB920910001213081F4E091A50459
:1000D000F0E0E358FE4F80818F7385B998B1E091CD
:1000E000A504F0E0E358FE4F80814AC0233049F474
:1000F0008091A604813019F1813008F18230D9F560
:1001000025C08091A604273059F48330C1F0843093
:10011000B0F08530D9F08530C8F0863061F51DC06B
:10012000873069F0883058F08B3081F08C3070F077
:100130008D3099F08D3088F08E30E9F415C0E09163
:10014000A504F0E0E35AFE4F808114C0E091A504BD
:10015000F0E0E35AFE4F80850DC0E091A504F0E089
:10016000E35AFE4F808906C0E091A504F0E0E35A0F
:10017000FE4F808D898389818F7385B998B189817C
:100180008295869586958370892B88B98091A50480
:10019000882349F48091A6048F5F8093A604821778
:1001A00010F01092A6048091A5048F5F8770809351
:1001B000A5040F90CF91DF910895EDE7F1E0E60FF0
:1001C000F11D80830895282F982F80FF04C08FEFA2
:1001D00080937D0102C010927D0191FF04C08FEFDA
:1001E00080937E0102C010927E0192FF04C08FEFC7
:1001F00080937F0102C010927F0193FF04C08FEFB4
:100200008093800102C01092800194FF04C08FEFA0
:100210008093810102C01092810195FF04C08FEF8D
:100220008093820102C01092820196FF04C08FEF7A
:100230008093830102C01092830127FF04C08FEFD7
:100240008093840102C01092840181E080930001B8
:100250000895FC01808180FF04C08FEF80935D01D1
:1002600002C010925D01808181FF04C08FEF8093F6
:100270005E0102C010925E01808182FF04C08FEF98
:1002800080935F0102C010925F01808183FF04C0F0
:100290008FEF8093600102C010926001808184FF23
:1002A00004C08FEF8093610102C0109261018081D0
:1002B00085FF04C08FEF8093620102C0109262013B
:1002C000808186FF04C08FEF8093630102C010928B
:1002D0006301808187FF04C08FEF8093640102C0B7
:1002E00010926401818180FF04C08FEF80936501CB
:1002F00002C010926501818181FF04C08FEF80935D
:10030000660102C010926601818182FF04C08FEFF6
:100310008093670102C010926701818183FF04C04E
:100320008FEF8093680102C010926801818184FF81
:1003300004C08FEF8093690102C01092690181812E
:1003400085FF04C08FEF80936A0102C010926A019A
:10035000818186FF04C08FEF80936B0102C01092F1
:100360006B01818187FF04C08FEF80936C0102C015
:1003700010926C01828180FF04C08FEF80936D0129
:1003800002C010926D01828181FF04C08FEF8093C3
:100390006E0102C010926E01828182FF04C08FEF55
:1003A00080936F0102C010926F01828183FF04C0AD
:1003B0008FEF8093700102C010927001828184FFE0
:1003C00004C08FEF8093710102C01092710182818D
:1003D00085FF04C08FEF8093720102C010927201FA
:1003E000828186FF04C08FEF8093730102C0109258
:1003F0007301828187FF04C08FEF80937401089599
:10040000109274010895FC01808180FF04C08FEF79
:1004100080935D0102C010925D01808181FF04C064
:100420008FEF80935E0102C010925E01808182FF97
:1004300004C08FEF80935F0102C010925F01808142
:1004400083FF04C08FEF8093600102C010926001AF
:10045000808184FF04C08FEF8093610102C01092FD
:100460006101808185FF04C08FEF8093620102C02B
:1004700010926201808186FF04C08FEF8093630138
:1004800002C010926301808187FF04C08FEF8093C8
:10049000640102C010926401818180FF04C08FEF6B
:1004A0008093650102C010926501818181FF04C0C3
:1004B0008FEF8093660102C010926601818182FFF6
:1004C00004C08FEF8093670102C0109267018181A1
:1004D00083FF04C08FEF8093680102C0109268010F
:1004E000818184FF04C08FEF8093690102C0109264
:1004F0006901818185FF04C08FEF80936A0102C08A
:1005000010926A01818186FF04C08FEF80936B0196
:1005100002C010926B01818187FF04C08FEF80932E
:100520006C0102C010926C01828180FF04C08FEFC9
:1005300080936D0102C010926D01828181FF04C021
:100540008FEF80936E0102C010926E01828182FF54
:1005500004C08FEF80936F0102C010926F018281FF
:1005600083FF04C08FEF8093700102C0109270016E
:10057000828184FF04C08FEF8093710102C01092CA
:100580007101828185FF04C08FEF8093720102C0E8
:1005900010927201828186FF04C08FEF80937301F5
:1005A00002C010927301828187FF04C08FEF809395
:1005B000740102C010927401838180FF04C08FEF28
:1005C0008093750102C010927501838181FF04C080
:1005D0008FEF8093760102C010927601838182FFB3
:1005E00004C08FEF8093770102C01092770183815E
:1005F00083FF04C08FEF8093780102C010927801CE
:10060000838184FF04C08FEF8093790102C0109230
:100610007901838185FF04C08FEF80937A0102C046
:1006200010927A01838186FF04C08FEF80937B0153
:1006300002C010927B01838187FF04C08FEF8093FB
:100640007C01089510927C010895FC0180818093C3
:100650007D01818180937E01828180937F018381EE
:1006600080938001848180938101858180938201C0
:1006700086818093830187818093840181E08093C8
:1006800000010895FC01808180935D018181809348
:100690005E01828180935F01838180936001848108
:1006A00080936101858180936201868180936301DB
:1006B0008781809364018085809365018185809323
:1006C00066018285809367018385809368018485B4
:1006D00080936901858580936A01868580936B018B
:1006E000878580936C010895FC01808180935D0172
:1006F000818180935E01828180935F0183818093F9
:10070000600184818093610185818093620186818B
:100710008093630187818093640180858093650164
:1007200081858093660182858093670183858093AC
:100730006801848580936901858580936A01868537
:1007400080936B01878580936C01808980936D0114
:10075000818980936E01828980936F018389809360
:1007600070018489809371018589809372018689E3
:10077000809373018789809374010895FC018081BF
:1007800080935D01818180935E01828180935F010E
:10079000838180936001848180936101858180934E
:1007A00062018681809363018781809364018085E3
:1007B00080936501818580936601828580936701BE
:1007C0008385809368018485809369018585809302
:1007D0006A01868580936B01878580936C0180898F
:1007E00080936D01818980936E01828980936F016E
:1007F00083898093700184898093710185898093B6
:100800007201868980937301878980937401808D3A
:1008100080937501818D80937601828D809377011D
:10082000838D80937801848D80937901858D809369
:100830007A01868D80937B01878D80937C0108955A
:100840009C01F999FECF32BD21BDF89A80B5809305
:100850007D01F999FECF2F5F3F4F32BD21BD215061
:100860003040F89A80B580937E01F999FECF2E5FD3
:100870003F4F32BD21BD22503040F89A80B5809361
:100880007F01F999FECF2D5F3F4F32BD21BD23502F
:100890003040F89A80B580938001F999FECF2C5FA3
:1008A0003F4F32BD21BD24503040F89A80B580932F
:1008B0008101F999FECF2B5F3F4F32BD21BD2550FD
:1008C0003040F89A80B580938201F999FECF2A5F73
:1008D0003F4F32BD21BD26503040F89A80B58093FD
:1008E0008301F999FECF295F3F4F32BD21BDF89AB0
:1008F00080B5809384010895DB01E82FF0E083E068
:10090000EE0FFF1F8A95E1F7EB57FE4F8C91808326
:1009100011968C911197818312968C9112978283F4
:1009200013968C911397838314968C9114978483D8
:1009300015968C911597858316968C9116978683BC
:1009400017968C9187830895039665E070E00E9466
:10095000C40980E090E024E130E040E050E00E94F3
:10096000990920E030E003C000002F5F3F4F2617B9
:100970003707D0F308950F931F93CF93DF938C0124
:10098000C0E0D0E005C088EE93E00E94A404219668
:10099000C017D107C0F3DF91CF911F910F91089538
:1009A000F8948091600088618093600089E0809372
:1009B00060000000FECF3091A704832F64E60E9400
:1009C000B809292F892F6AE00E94B809A92FB0E041
:1009D000822F0E94B80990E0880F991F880F991FF5
:1009E0008F5F9F4FEDE7F1E0F999FECF92BD81BD9A
:1009F000F89A20B540E0343608F041E0242B2193EA
:100A0000019621E0E138F20779F79D01220F331FAB
:100A1000220F331F2F5F3F4FF999FECF32BD21BD0B
:100A2000F89A80B5842B81932F5F3F4F81E0E538A2
:100A3000F80791F70895482F50E020E030E0F99949
:100A4000FECFC9018F5F9F4F92BD81BDF89A80B5DF
:100A5000F901E358FE4F80832F5F3F4F243031056B
:100A600071F79A01220F331F220F331F2F5F3F4F61
:100A7000E1E8F1E0F999FECF32BD21BDF89A80B5E9
:100A800081932F5F3F4F81E0E538F80799F708958C
:100A9000CF93DF93EB01883009F4ABC0893078F451
:100AA000823009F1833020F4813009F0BBC017C0D7
:100AB000833009F496C0843009F0B4C096C0803108
:100AC00009F49FC0813120F4893009F0ABC095C092
:100AD000883109F49BC0803209F0A4C09CC0888191
:100AE0000E94E300A3C09881903FE9F0913F18F481
:100AF000992339F051C09E3F01F19F3F09F04CC04E
:100B000020C06981613059F4F89480916000886157
:100B10008093600089E0809360000000FECF623027
:100B200009F084C033C0898190E0F3E0880F991FF9
:100B3000FA95E1F78B579E4F5DC089810E941B0596
:100B400075C080910101882321F10E9496098823B4
:100B500021F08091A704882321F00E949609882320
:100B6000C1F469816093A704F999FECF1FBA80E0B0
:100B700090E092BD81BD60BD0FB6F894FA9AF99AE3
:100B80000FBE862F880F6FEF0E9443070E94DB0481
:100B90004DC081E390E048C090518981682F70E09A
:100BA000E92FF0E09230D0F4DF01AA0FBB1FFD0166
:100BB000E65FFE4F808191816817790778F4A25F24
:100BC000BE4F8D919C91680F791F53E0660F771F80
:100BD0005A95E1F7CB018F589F4F26C089E390E0EB
:100BE00023C0CB010E94290114C0CB010E94030243
:100BF00015C0CB010E94250319C088850E947C0482
:100C000015C0CB010E94420383E009C0CB010E94C2
:100C1000740387E004C0CB010E94BE038FE0809381
:100C2000000104C081E490E00E942004DF91CF9194
:100C30000895F999FECF80E090E092BD81BDF89AC9
:100C400080B58093A7048FE384B9389A399A8FEFDF
:100C50008AB93B9A439A84B7877F84BF80916000AA
:100C60008861809360001092600085E08093A50405
:100C70001092A60481E0809300010E94790683E52A
:100C800090E042E050E060E070E021E00E94E90680
:100C90000E94DB040E94250780E991E00E94000782
:100CA0008091A704880F6FEF0E94430788E495E0C6
:100CB0000E944B0780E991E00E94BB041092010161
:100CC00020E030E00AC01192019688309105D9F7F2
:100CD0002F5F3F4F2436310559F0F901A3E0EE0FA5
:100CE000FF1FAA95E1F7EB57FE4F80E090E0EBCFB6
:100CF000FFCFF8941092AB0481E085BDEEE6F0E002
:100D0000808181608083789408951F920F920FB63E
:100D10000F9211242F933F934F935F936F937F9381
:100D20008F939F93AF93BF93EF93FF9380916E0048
:100D30008E7F80936E008091AB04813099F4809116
:100D4000B0049091B104A091B204B091B3040197A2
:100D5000A109B1098093B0049093B104A093B204A7
:100D6000B093B3048091B0049091B104A091B20407
:100D7000B091B3040097A105B105A9F48091AC042A
:100D80009091AD04A091AE04B091AF048093B004F3
:100D90009093B104A093B204B093B304E091A9047A
:100DA000F091AA04099580916E00816080936E0095
:100DB000FF91EF91BF91AF919F918F917F916F9133
:100DC0005F914F913F912F910F900FBE0F901F9009
:100DD00018959093AA048093A9044093AC0450936F
:100DE000AD046093AE047093AF044093B00450938D
:100DF000B1046093B2047093B3042093AB040895DC
:100E00002091B9002E7F2093B9002091B9002D7F49
:100E10002093B9009C0140E050E060E27EE480E075
:100E200090E00E94D8092051304040405040CA0113
:100E3000B90122E030E040E050E00E94D8092A30B9
:100E400008F42AE02093B800089581E08093B40468
:100E500010925A011092590110925C0110925B019C
:100E600084E690E00E940007ECEBF0E08081846073
:100E700080831092130180818160808380818064EF
:100E800080837894089590E0611191E08E7F982B93
:100E90009093BA00089590935A0180935901089550
:100EA00090935C0180935B010895ECEBF0E080810E
:100EB0008F70806A80830895ECEBF0E080818F7002
:100EC000806D808308958091BC0087FFFCCF0895DA
:100ED0008093BB00ECEBF0E080818F7080688083B2
:100EE0000895882329F08091BC008F70806C04C025
:100EF0008091BC008F7080688093BC0008958091C1
:100F0000BB0008958091B9000895982F8091130136
:100F10008823E1F782E0809313019E7F9093140170
:100F2000A5E1B1E0FA0102C081918D938E2F841B5F
:100F30008617D0F310923501609336018091BC0082
:100F40008F70806A8093BC000895982F8091130160
:100F50008823E1F783E0809313019160909314015B
:100F600010925701609358018091BC008F70806A85
:100F70008093BC00809113018823E1F7A7E3B1E0DF
:100F8000FA0102C08D9181938E2F841B8617D0F3B6
:100F90000895982FFA018091BC008E7F8093BC0049
:100FA0008091BC008F70806A8093BC008091BC00EF
:100FB00087FFFCCF9E7F9093BB008091BC008F7019
:100FC00080688093BC008091BC0087FFFCCF80913B
:100FD000B900883189F091E012C080818093BB0014
:100FE0008091BC008F7080688093BC008091BC00B1
:100FF00087FFFCCF31966150662379F790E08091AE
:10100000BC008F70806D8093BC008091BC0084FF19
:10101000FCCF8091BC0081608093BC00892F089533
:10102000982FFA018091BC008E7F8093BC00809144
:10103000BC008F70806A8093BC008091BC0087FFE9
:10104000FCCF91609093BB008091BC008F70806852
:101050008093BC008091BC0087FFFCCF8091B900D9
:10106000803481F091E01EC08091BC008F70806C54
:101070008093BC008091BC0087FFFCCF8091BB00B7
:1010800081936150623080F78091BC008F708068DE
:101090008093BC008091BC0087FFFCCF8091BB0097
:1010A000808390E08091BC008F70806D8093BC0045
:1010B0008091BC0081608093BC00892F08951F92AD
:1010C0000F920FB60F9211242F933F934F935F937C
:1010D0006F937F938F939F93AF93BF93EF93FF9300
:1010E0008091B900887F803609F4A0C0813670F500
:1010F000883209F45FC0893298F4803109F457C00E
:10110000813138F4882309F4F5C0883009F0FAC039
:101110004EC0883109F44EC0803209F0F3C0EAC0F5
:10112000803409F477C0813438F4803309F4E2C0A4
:10113000883309F0E7C05DC0803509F45FC08835A9
:1011400009F44AC0883409F0DDC0D4C0883909F4F4
:1011500085C08939B0F4883709F468C0893738F414
:10116000883609F463C0803709F0CCC05FC0883886
:1011700009F474C0803909F461C0803809F0C2C034
:101180005BC0803B09F484C0813B38F4803A09F4A9
:1011900068C0883A09F0B6C07BC0803C09F4A5C09D
:1011A000883C09F4A2C0883B09F0ACC082C08091A1
:1011B00014010FC09091350180913601981708F005
:1011C00099C0E92FF0E0EB5EFE4F80819F5F909326
:1011D00035018093BB0082C0809157019091BB0084
:1011E000E82FF0E0E95CFE4F90838F5F809357011A
:1011F00081C08091BC008F70806880C08091570151
:101200009091BB00E82FF0E0E95CFE4F90838F5F88
:10121000809357012091570130E08091580190E070
:101220000197281739070CF059C053C085E0809307
:101230001301109257014DC01092B40480915701D0
:101240009091BB00E82FF0E0E95CFE4F90838F5F48
:1012500080935701803208F041C03BC01092B40423
:101260003DC08091BC008F70806C8093BC00E09189
:101270005901F0915A01309729F08091570167E3A5
:1012800071E009951092130181E08093B4043AC093
:1012900084E080931301E0915B01F0915C01309751
:1012A00031F080E265E171E009958093360110929A
:1012B000350190913501E92FF0E0EB5EFE4F808122
:1012C0008093BB009F5F9093350180913601981702
:1012D00028F48091BC008F70806C04C08091BC00A9
:1012E0008F7080688093BC000DC08091BC008F70AF
:1012F000806C04C08091BC008F70806D8093BC00B6
:1013000010921301FF91EF91BF91AF919F918F9137
:101310007F916F915F914F913F912F910F900FBEF1
:101320000F901F9018958091130108958091B40437
:101330000895629FD001739FF001829FE00DF11D1F
:10134000649FE00DF11D929FF00D839FF00D749F3F
:10135000F00D659FF00D9927729FB00DE11DF91FEB
:10136000639FB00DE11DF91FBD01CF011124089548
:10137000991B79E004C0991F961708F0961B881FE7
:101380007A95C9F780950895AA1BBB1B51E107C048
:10139000AA1FBB1FA617B70710F0A61BB70B881F05
:1013A000991F5A95A9F780959095BC01CD01089594
:1013B00097FB092E05260ED057FD04D014D00AD075
:1013C000001C38F450954095309521953F4F4F4F74
:1013D0005F4F0895F6F790958095709561957F4FD2
:1013E0008F4F9F4F0895A1E21A2EAA1BBB1BFD0130
:1013F0000DC0AA1FBB1FEE1FFF1FA217B307E407F4
:10140000F50720F0A21BB30BE40BF50B661F771F4B
:10141000881F991F1A9469F760957095809590952B
:0E1420009B01AC01BD01CF010895F894FFCFF0
:10142E0001010102040810204080040008000000A1
:02143E000400A8
:00000001FF
