:103800000C94341C0C94511C0C94511C0C94511CA1
:103810000C94511C0C94511C0C94511C0C94511C74
:103820000C94511C0C94511C0C94511C0C94511C64
:103830000C94511C0C94511C0C94511C0C94511C54
:103840000C94511C0C94511C0C94511C0C94511C44
:103850000C94511C0C94511C0C94511C0C94511C34
:103860000C94511C0C94511C11241FBECFEFD4E0BA
:10387000DEBFCDBF11E0A6E0B1E001C01D92A831CE
:10388000B107E1F711E0A0E0B1E0EAE6FFE302C032
:1038900005900D92A630B107D9F70E949B1D0C949C
:1038A000B31F0C94001C1F93CF93DF93EC01AB016B
:1038B000888180931301853431F4E0910601F09101
:1038C00007010995BFC0853681F4E0E0F0E083E0B0
:1038D00080935700E89507B600FCFDCFE058FF4FF6
:1038E00098E3E030F907A1F7ADC08736F9F41092FC
:1038F00009011092080180E88093110186E4809309
:103900001201653071050CF49DC0998180E02A8117
:1039100030E0822B932B90930901809308018B81D7
:10392000809311018C81809312018CC0823409F044
:1039300089C0998180E02A81A22FB0E0A82BB92B01
:10394000B0930901A09308018B81809311012C8110
:1039500020931201253489F59B012450304090E0DA
:103960008217930714F0609311018091110190E088
:10397000059645E050E01DC02091080130910901F5
:10398000FE01E40FF51FE081F999FECF1FBA32BDA9
:1039900021BDE0BD0FB6F894FA9AF99A0FBEF999D5
:1039A000FECF2F5F3F4F30930901209308014F5FF7
:1039B0005F4F4817590700F345C0263409F042C04D
:1039C000682F70E0660F771FCB0104968417950768
:1039D0000CF038C0CD018F779070860F971F81381B
:1039E000910580F5E8E3A030BE0760F540E050E0C7
:1039F00011E010C0FA01EA0FFB1F3C8120E08B812F
:103A000090E0822B932B0C0110935700E895112422
:103A10004E5F5F4F22964617570760F383E0FD0124
:103A200080935700E89507B600FCFDCF85E0FD01C7
:103A300080935700E89507B600FCFDCF81E18093A5
:103A40005700E895DF91CF911F9108958091130160
:103A5000873609F04BC080911201853401F58091C1
:103A6000110180930E0120E015C080910801909112
:103A7000090181BD92BD01969093090180930801CF
:103A8000F89A80B5E0910F01F0911001E20FF11D5D
:103A900080832F5F80911101281738F308958634B1
:103AA000A9F580911101880F80930E0140E013C0A9
:103AB000A0910F01B0911001A20FB31FE091080176
:103AC000F09109013196F0930901E09308013197D3
:103AD000E491EC934F5F242F30E08091110190E04E
:103AE000880F991F281739071CF3089580E090E08C
:103AF000E0910F01F0911001E80FF91F808301960A
:103B000085389105A9F785E880930E0108958823EB
:103B100011F084EC01C084E88093BC00089584ED2A
:103B20008093BC008091BC0084FDFCCF089584ECA0
:103B30008093BC000895EF92FF920F931F9384B778
:103B4000877F84BF809160008861809360001092BD
:103B5000600081E18093B80080EE8093BA0084EC2D
:103B60008093BC0085E890E061E070E00E948B1ECD
:103B700080930F019093100185E890E061E070E080
:103B80000E948B1E80930A0190930B0170E8E72E30
:103B900074E8F72E7EE1072F112D0FC0E114F10418
:103BA0000105110529F4E0910601F091070109953D
:103BB0000894E108F108010911098091BC0087FF10
:103BC000EDCF04E814ECEE24E39464EDF62E80913E
:103BD000BC0087FFFCCF8091B90090E0887F907097
:103BE0008039910509F44AC081399105ECF4803798
:103BF000910509F440C08137910554F48036910550
:103C0000D1F188369105B9F1892B09F47AC080C0C9
:103C10008038910599F18838910509F46FC088378B
:103C2000910509F075C027C0803B910509F443C098
:103C3000813B91055CF4803A910589F1883A9105C0
:103C4000D1F18839910509F063C058C0803C9105D5
:103C500009F45EC0813C91052CF4883B910509F084
:103C600057C03AC0883C910509F452C0883F91057D
:103C700009F04EC0ACCF10920D014AC090910D01D9
:103C80009538E0F58091BB00E0910A01F0910B01BD
:103C9000E90FF11D80839F5F90930D0139C0109350
:103CA000BC0060910D0180910A0190910B0170E0C0
:103CB0000E94531C8CCF10920C0110920E010E9496
:103CC000261D80910E01882339F4E0920E01E091C7
:103CD0000F01F0911001108290910C01E0910F0101
:103CE000F0911001E90FF11D80818093BB009F5F6F
:103CF00090930C0180910E01981750F00093BC0036
:103D000066CFF092BC008091BC0084FDFCCF5FCFF9
:103D10001093BC005CCF0F931F93CF93DF93689FEA
:103D20008001699F100D789F100D1124C8010E9419
:103D3000A71EEC01009729F060E070E0A8010E9446
:103D4000AC1FCE01DF91CF911F910F910895CF93BA
:103D5000DF93BC018230910510F462E070E0A09125
:103D60001601B0911701ED01E0E0F0E040E050E015
:103D700021C0888199818617970769F48A819B8180
:103D8000309719F09383828304C090931701809336
:103D90001601FE0134C06817790738F44115510542
:103DA00019F08417950708F4AC01FE018A819B8104
:103DB0009C01E9012097E9F641155105A9F1CA01D5
:103DC000861B970B049708F4BA01E0E0F0E02AC0E4
:103DD0008D919C91119784179507F9F464177507D5
:103DE00081F412968D919C911397309719F09383DB
:103DF000828304C09093170180931601FD013296CF
:103E00004FC0CA01861B970BFD01E80FF91F619394
:103E1000719302978D939C9343C0FD01828193819E
:103E20009C01D9011097A1F6809114019091150180
:103E3000892B41F480910201909103019093150127
:103E400080931401409104015091050141155105E1
:103E500041F44DB75EB78091000190910101481B7C
:103E6000590B209114013091150124173507B0F436
:103E7000CA01821B930B8617970780F0AB014E5F38
:103E80005F4F8417950750F0420F531F5093150151
:103E900040931401F9016193719302C0E0E0F0E0F6
:103EA000CF01DF91CF910895CF93DF93009709F46D
:103EB00050C0EC0122971B821A82A0911601B0918A
:103EC0001701109709F140E050E0AC17BD0708F169
:103ED000BB83AA83FE0121913191E20FF31FAE173C
:103EE000BF0779F48D919C911197280F391F2E5F90
:103EF0003F4F3983288312968D919C9113979B8312
:103F00008A834115510571F4D0931701C0931601AE
:103F100020C012968D919C911397AD01009711F0DE
:103F2000DC01D3CFFA01D383C28321913191E20F17
:103F3000F31FCE17DF0769F488819981280F391F95
:103F40002E5F3F4FFA01318320838A819B819383C7
:103F50008283DF91CF910895DC0101C06D934150C0
:0A3F60005040E0F70895F894FFCFF9
:063F6A0020001801000018
:0400000300003800C1
:00000001FF
