:020000022000DC
:100000000D94FA000D9418010D9418010D94180127
:100010000D9418010D9418010D9418010D941801F8
:100020000D9418010D9418010D9418010D941801E8
:100030000D9418010D9418010D9418010D941801D8
:100040000D9418010D9418010D9418010D941801C8
:100050000D9418010D9418010D9418010D941801B8
:100060000D9418010D9418010D9418010D941801A8
:100070000D9418010D9418010D9418010D94180198
:100080000D9418010D9418010D9418010D94180188
:100090000D9418010D9418010D9418010D94180178
:1000A0000D9418010D9418010D9418010D94180168
:1000B0000D9418010D9418010D9418010D94180158
:1000C0000D9418010D9418010D9418010D94180148
:1000D0000D9418010D9418010D9418010D94180138
:1000E0000D9418010D9418010D9418010D94180128
:1000F0000D9418010D9418010D9418010D94180118
:100100000D9418010D9418010D9418010D94180107
:100110000D9418010D9418010D9418010D941801F7
:100120000D9418010D9418010D9418010D941801E7
:100130000D9418010D9418010D9418010D941801D7
:100140000D9418010D9418010D9418010D941801C7
:100150000D9418010D9418010D9418010D941801B7
:100160000D9418010D9418010D9418010D941801A7
:100170000D9418010D9418010D9418010D94180197
:100180000D9418010D9418010D9418010D94180187
:100190000D9418010D9418010D9418010D94180177
:1001A0000D9418010D9418010D9418010D94180167
:1001B0000D9418010D9418010D9418010D94180157
:1001C0000D9418010D9418010D9418010D94180147
:1001D0000D9418010D9418010D9418010D94180137
:1001E0000D9418010D9418010D9418010D94180127
:1001F0000D94180111241FBECFEFDFE3DEBFCDBF8A
:1002000001E00CBF18BE19BE1ABE1BBE10E2A0E072
:10021000B0E2EEE5FCE002E00BBF02C007900D92F9
:10022000A030B107D9F71BBE0F9488030D942D069B
:100230000D940000982F8091CF0187FDFCCF809115
:10024000CF0181FF12C086E3E0ECF1E08287EF93FB
:10025000FF930F932F93EBECF1E008ED21E004BF47
:1002600020832F910F91FF91EF91E0ECF1E083E378
:100270008287262F30E02F713070892F90E055E073
:10028000880F991F5A95E1F7282B392B2093C0012D
:10029000832F8F7181831282448385E38287EF935A
:1002A000FF930F932F93EBECF1E008ED21E004BFF7
:1002B00020832F910F91FF91EF910895982FE0ECFB
:1002C000F1E08091CF0187FDFACF262F30E02F712A
:1002D0003070892F90E065E0880F991F6A95E1F7EB
:1002E000282B392B2093C001832F8F718183128299
:1002F00086E08287EF93FF930F932F93EBECF1E06F
:1003000008ED21E004BF20832F910F91FF91EF9121
:100310008091C40108958091CF0187FDFCCF08959D
:100320008091CF0187FDFCCF8091CF0181FF12C06A
:1003300086E3E0ECF1E08287EF93FF930F932F9336
:10034000EBECF1E008ED21E004BF20832F910F9149
:10035000FF91EF910895982FE0ECF1E08091CF01AB
:1003600087FDFACF83E382879093C00111821282C6
:1003700064830895DC01E0ECF1E08091CF0187FD1A
:10038000FACF83E382871182128290E09093C001BA
:100390008D9184839F5F9032C9F70895982FE0EC88
:1003A000F1E08091CF0187FDFACF892F90E075E0D1
:1003B000880F991F7A95E1F78093C001892F8F717B
:1003C0008183128285E38287EF93FF930F932F93AC
:1003D000EBECF1E008ED21E004BF20832F910F91B9
:1003E000FF91EF910895982FE0ECF1E08091CF011B
:1003F00087FDFACF892F90E0A5E0880F991FAA9575
:10040000E1F78093C001892F8F718183128282E38B
:100410008287EF93FF930F932F93EBECF1E008EDBE
:1004200021E004BF20832F910F91FF91EF91089558
:10043000982FE0ECF1E08091CF0187FDFACF892F72
:1004400090E0B5E0880F991FBA95E1F78093C0015D
:10045000892F8F718183128284E38287EF93FF93C8
:100460000F932F93EBECF1E008ED21E004BF208324
:100470002F910F91FF91EF9108958091CF0187FD0A
:10048000FCCF80E3E0ECF1E08287EF93FF930F93E2
:100490002F93EBECF1E008ED21E004BF20832F91D6
:1004A0000F91FF91EF9108950F93DF93CF930F92E8
:1004B000CDB7DEB72FB72983F8941BBEFC0108ED3A
:1004C00004BF608389818FBF0F90CF91DF910F911F
:1004D00008950F931F93CF93DF938C01EA01653446
:1004E00041F58091CC01877FE0ECF1E084870F94A7
:1004F000900188819981AA81BB81682F6F7145E045
:10050000B695A795979587954A95D1F70F945E0173
:100510000F94840588819981AA81BB810196A11DD0
:10052000B11D88839983AA83BB830150104009F7CA
:100530003AC06634C1F588819981AA81BB81880F50
:10054000991FAA1FBB1F88839983AA83BB836881D5
:1005500079818A819B810F9498050F948405688125
:1005600079818A819B816F5F7F4F8F4F9F4F0F945F
:1005700098050F9484050F94100688819981AA81AB
:10058000BB810296A11DB11D88839983AA83BB8379
:1005900002501040E1F6B695A79597958795888308
:1005A0009983AA83BB83DF91CF911F910F91089507
:1005B0006F927F928F929F92AF92BF92CF92DF9273
:1005C000EF92FF920F931F93DF93CF93CDB7DEB7D8
:1005D000C050D240CDBFDEBF3C014A016534E9F5D1
:1005E0000F9490018091CC01877FE0ECF1E084874B
:1005F0007E010894E11CF11C67015701A60CB71C91
:1006000005C00F949105F60181936F01CA14DB04B4
:10061000C1F71FC0F40180819181A281B381682F4D
:100620006F7175E0B695A795979587957A95D1F7EF
:10063000F70141917F010F941A01F40180819181AA
:10064000A281B3810196A11DB11D80839183A283F4
:10065000B383EC14FD04F1F647C0663411F08FE368
:1006600044C0FA01C080D180E280F380CC0CDD1C54
:10067000EE1CFF1CC082D182E282F3820F949105AE
:10068000082F10E00F949105B82EAA240A291B29DF
:10069000F40180819181B8010F94CD05F40180812E
:1006A0009181A281B3810296A11DB11D80839183A6
:1006B000A283B3838EEF9FEF680E791E61147104DD
:1006C000E9F6C701B6010F94E3050F941006F40193
:1006D00080819181A281B381B695A79597958795E1
:1006E00080839183A283B3838DE0C050DE4FCDBF62
:1006F000DEBFCF91DF911F910F91FF90EF90DF90C0
:10070000CF90BF90AF909F908F907F906F90089503
:100710002F923F924F925F926F927F928F929F9211
:10072000AF92BF92CF92DF92EF92FF920F931F93FF
:10073000DF93CF9300D000D0CDB7DEB7E0E5F0E097
:1007400087E4828384EC858388E1809350008091E4
:10075000510084FFFCCF8FB78A83F8941BBE24E03E
:1007600080E490E0FC0108ED04BF20838A818FBF04
:1007700000E017E090E8F92EF801F182F582198285
:100780001B821C821D821E820F9490018091CC01DD
:10079000877FE0ECF1E084870F94760584E294EFA4
:1007A000E0E4FAE086A397A387E08093400AF8018B
:1007B000F6828091A10887FD04C080914C0A80FFD9
:1007C000F8CF8091A10887FF6DC1CC24DD2483E0A0
:1007D000282E312C2C0E3D1E0F949105982F8983C5
:1007E000F0E8F0930707813611F489E558C18134A8
:1007F00079F40F949105182F0F949105B12EAA2426
:1008000090E08A299B29AA2797FDA095BA2F9CC022
:10081000853649F51B821C821D821E8214C00F94EE
:1008200010066B817C818D819E810F94C7058B8121
:100830009C81AD81BE8180509E4FAF4FBF4F8B8357
:100840009C83AD83BE838B819C81AD81BE818050B2
:100850009040A240B04018F3CE0101960F94BA0127
:100860000F943D02EFC0823629F489E50F94840588
:1008700082E0DDC08234A1F40F949105182F0F940B
:100880009105912E8824C82EDD24C828D9280F94DC
:100890009105682F8983C601A1010F94D802FFC07A
:1008A0008736A1F40F949105182F0F949105712E9E
:1008B0006624C82EDD24C628D7280F949105682FFA
:1008C0008983C601A1010F94690286CF8235E9F4BC
:1008D0000F9410066B817C818D819E81660F771F3E
:1008E000881F991F6F5F7F4F8F4F9F4F0F94980501
:1008F0000F9484056B817C818D819E81660F771FAB
:10090000881F991F0F94980564C0833629F40F94AB
:100910009105C82EDD2496C08334D9F40F94910537
:10092000582E4424C428D5280F9410068B819C810E
:10093000880F991FB6010F94CD058B819C81AD81E5
:10094000BE810196A11DB11D8B839C83AD83BE83A7
:1009500079C08D36B9F48B819C81AD81BE81805088
:100960009040A140B04008F099C00F9410066B81F0
:100970007C818D819E81660F771F881F991F0F9440
:10098000E30560C08434A1F4EB80FC800D811E81FE
:100990000F949105482F6E2D6F71F5E01695079510
:1009A000F794E794FA95D1F78E2D0F941A0113C09E
:1009B0008436E9F48B819C81AD81BE81682F6F7193
:1009C000E5E0B695A79597958795EA95D1F70F94A9
:1009D0005E010F9484058B819C81AD81BE8101965F
:1009E000A11DB11D8B839C83AD83BE83F5CE8C3658
:1009F00039F40F9410060F9491050F94B40522C09A
:100A0000803501F18C34F1F0853451F40F941006E7
:100A10008DE00F9484051CBEE0E0F0E01995DCCE7B
:100A2000803711F483E53BC0843729F48AEF0F94B3
:100A3000840580E034C08857823010F0943521F46A
:100A40000F9491058DE02BC09335A1F481E40F94B0
:100A5000840586E50F94840582E50F94840582E47D
:100A60000F9484058FE40F9484058FE40F9484051C
:100A700084E515C0963529F481E30F94840586E357
:100A80000EC0933741F48CE40F94840587E90F94EA
:100A900084058EE104C09B3109F49ECE8FE30F9450
:100AA00084059ACE80E8E0E0F7E085830F94100695
:100AB0000F9409061CBEE0E0F0E0199580E090E09C
:100AC0002696CDBFDEBFCF91DF911F910F91FF9092
:100AD000EF90DF90CF90BF90AF909F908F907F90DE
:100AE0006F905F904F903F902F900895E0E4F6E074
:100AF000818188608183E0EAF8E087E1868384EA87
:100B0000878388E1848308958093A0088091A10859
:100B100086FFFCCF8091A1088064E0EAF8E0818341
:100B200008958091A10887FFFCCF8091A0080895C7
:100B30003BB78BBFFB0186913BBF08953BB78BBF93
:100B4000FB01879196913BBF089542E081C041E04F
:100B50007FC08093C00188278093C1018093C20128
:100B600047E066D0CB0108958093C40148E060C09F
:100B70008091D00108953BB748E10D9442063BB700
:100B80004AE10D9442063BB740E20D9442063BB762
:100B90008BBFCB0142E20D9442063BB70B0143E20F
:100BA0000D9442063BB76BBFFA0119BEDC0140E071
:100BB0004093CA0150E0879197918D939D935A95E8
:100BC000D1F73BBF08953BB78BBFCB0144E20D94F7
:100BD00042063BB78BBFCB0145E20D9442063BB7C3
:100BE00046E20D9442063BB78BBFCB014AE20D941F
:100BF00042063BB78BBFCB014CE20D9442063BB79C
:100C00008BBFCB014DE20D94420648E311C049E38E
:100C10000FC028ED2093340021E02093CC010895EB
:100C20002091CF0127FDFCCF22272093CA010895F0
:100C30004093CA0128ED31E0209334003093CB017A
:100C40006091C4017091C5018091C60199270895F2
:0E0C5000FC014093CA0184910895F894FFCFEF
:100C5E00EE27FF2719BEDC0143E24093CA0150E0A4
:100C6E002DE90D901D9020933400E89532965A95FB
:100C7E00C1F711240895FC014093CA012DE9209378
:0A0C8E003400E89511243BBF0895DF
:0400000320000000D9
:00000001FF
